S01400005241364D352D50726F6A63742E7372656326
S31500000000C004002079010000790500007501000098
S315000000107501000075010000750100007501000002
S315000000200000000000000000000000007501000054
S31500000030750100000000000075010000512A000053
S31500000040DD160000451600006D170000B51700000C
S31500000050750F0000090F0000ED0F00002D100000C5
S31500000060B10C0000F90D000065080000991E0000A3
S31100000070351F0000DD1F0000C520000049
S3150000007C40003500010000007C3C0000D922000045
S3150000008C9522000045220000B43C0000D922000055
S3150000009C0000000000000000FF000000003E000011
S315000000AC70060020800040000100000000040000E3
S315000000BC5D260000892500007D25000059250000DD
S315000000CC95250000FD230000000000000000000044
S315000000DC03000000780E00206C00002000000000D9
S315000000EC780E0020E00E0020480F002000000000D3
S315000000FC00000000000000000000000000000000EE
S3150000010C00000000000000000000000000000000DD
S3150000011C00000000000000000000000000000000CD
S30D0000012C0000000000000000C5
S3150000013410B5054C237833B9044B13B10448AFF317
S3150000014400800123237010BDE0040020000000009D
S3150000015484A2000108B5034B1BB103490348AFF35E
S31500000164008008BD00000000E404002084A2000111
S3150000017400BE704708B500F035F802F017F8FEE740
S31500000184F8B5174F05463E68A6B17C6806EB4606E9
S3150000019404EB860602E00C34B4420BD0637AAB421D
S315000001A4F9D1D4E900020021121A0C3402F082FEBD
S315000001B4B442F3D1BE6896B1FC6804EB061602E0BD
S315000001C41034A6420BD0637BAB42F9D1D4E90002CA
S315000001D4A168121A103402F0CEFEA642F3D1F8BD7D
S315000001E4C43900004FF47001274B284A70B500202B
S315000001F4C3F888109A6002F047FC00F069F8012001
S3150000020402F042FC224B83F30A880020FFF7B8FF72
S3150000021400F048F800F008F9032000F045FA00233E
S315000002244FF6FF701B4903F1080201330C2B21F82A
S315000002341200F8D10024032000F006FA032000F08F
S3150000024433FA154B03205C609C60DC601C6100F093
S31500000254FBF9022002F018FC0120FFF791FF0F4D75
S315000002640F4B5B1BA3424FEAA30605DD55F8043B7F
S3150000027401349847A642F9DC00F09AF9BDE87040CB
S31500000284002000F029B900BF00ED00E000000000E6
S31500000294C0000020000D084000000E40243F00006E
S315000002A4283F0000064B074993F826001A6A51F8BE
S315000002B42030C2F302620449D3400B60704700BF8A
S315000002C400E00140C0040020FC040020704700BF89
S315000002D4F8B54AF2035001234549464AA1F8FE03FC
S315000002E4A2F80431B2F804319BB2002BFAD10120F2
S315000002F44FF400454FF0090C3F4CDFF818E13F4E30
S31500000304C4F804E0DFF810E13949C4F80CE03C4FC6
S31500000314A2F800013B4AB06030606261276091F840
S315000003242620A5602561086A54F82220364EC0F3BB
S315000003340260C240326081F8133481F8A2C091F899
S3150000034480341BB991F8813499074CD0284D95F81F
S315000003548034002B3CD00022254B83F8812483F87B
S3150000036480240023224981F8323091F83C301A0760
S31500000374FBD543F2021000231D4A088581F82A3072
S3150000038492F83C309B06FBD50320052319494FF010
S31500000394F10C81F81C011D49116282F8263092F88D
S315000003A42630156A54F82300C5F302640123E0409D
S315000003B43060F0244FF42540154981F80CC00B72C7
S315000003C40C7382F8303082F85230A2F8FE03F8BD7E
S315000003D40121C82085F8801400F086F895F8803449
S315000003E4012BFBD1B7E74FF47A70FFF76FFFB8E73D
S315000003F400E0014000C00140C0040020007000403D
S31500000404002D310100C2EB0BFC0400202112012057
S315000004140020004000127A0000366E01014B53F8AA
S3150000042420007047C004002038B50025284C01215F
S31500000434C82084F8285000F057F884F8245094F81B
S315000004442430002BFBD194F82430214943F00203D5
S3150000045484F8243091F82430C3F340009B07F9D480
S315000004641B4A81F8220092F8223003F0FF00002B89
S31500000474F9D192F84030164960F3C71382F8403038
S3150000048491F84030DB09FBD191F84200104A63F33E
S31500000494C71081F8420092F84230DB09FBD192F88A
S315000004A444000B4963F3C71082F8440091F84430C2
S315000004B4C3F3C014DB09F9D1012000F0F5F8054BAC
S315000004C4012083F8BB44BDE8384000F0BDB800BF46
S315000004D40030084000E00140704700BFA0F1010071
S315000004E40028FBD1704700BF1F4B204A1B6800FB46
S315000004F401F1934213D302F1854202F5071203F583
S31500000504741302F6834203F6FF03A2FB03231B0DB7
S31500000514A3FB01314FF0FF30F9B1FFF7DFBF4FF412
S315000005247A7210B4A1FB02C41148B0FBF3F34FF086
S31500000534FF3044B9BCFBF3FC4FEA9C0088B15DF87C
S31500000544044BFFF7CBBF9B00B1FBF3F1A1FB0212F7
S31500000554002AF4D1084620B1F1E71846002BDCD175
S3150000056470475DF8044B7047FC04002000127A00C3
S3150000057400CA9A3B70B500240B4B0C4EB3F82021ED
S31500000584B3F84051ADB2154025FA04F3DB0704D5A0
S3150000059456F82430E0B203B198470134102CF3D155
S315000005A4014BA3F8305170BD0060004000050020E7
S315000005B470B5032084B000F077F800266FF0FF01D1
S315000005C44FF0FF301C4C1D4B224699644FF0010E30
S315000005D43346CDE9010004F11E05039032F8021FEB
S315000005E40EFA03FC013311B1012620EA0C00AA42DB
S315000005F4F4D1F6B10190124B104A1067C3F8800289
S31500000604029903205167C3F8841203999167C3F8CA
S31500000614881200F019F800230A4834F8022F03F16F
S31500000624C00101330AB140F82120A542F5D104B036
S3150000063470BD4FF0FF30DEE75A3C000000800040FA
S3150000064400E100E000600040EFF31081012383F332
S315000006541088124B33F8102092B22AB133F81020C6
S31500000664013A92B223F8102033F810309BB293B9B2
S315000006740B4A10B4B2F8FE330A4C9BB234F810009D
S3150000068443F4254323EA0003A2F8FE3381F31088DA
S315000006945DF8044B704781F310887047800500208D
S315000006A400E00140B839000030B4EFF310810123B3
S315000006B483F310880E4A32F810309BB26BB90D4C96
S315000006C40D4DB4F8FE3335F810C09BB243EA0C0363
S315000006D443F425439BB2A4F8FE3332F810300133B9
S315000006E49BB222F8103081F3108830BC704700BFEB
S315000006F48005002000E00140B839000008B502F08A
S3150000070427FC0C2203464FF0FF301A6008BD00BFD9
S31500000714F0B50346002591F902C01B4C4FEA8C0242
S3150000072402F1804280F804C002F5C042D1E90270A9
S31500000734D2F80063C2F80053C3E9027091F800E0EE
S31500000744BCF1000F83F805E004F80E500D79C87863
S3150000075440EA05104D7940EAC510C0B204F80E000F
S31500000764C2F800630BDB4A78084812010CF16041B9
S31500000774D2B201F5614181F8002340F82C30044AD5
S3150000078400201A60F0BD00BF006000404405002050
S315000007945543490090F904200E4B02F1C00153F869
S315000007A4210020F4803043F8210053F82130BFF3B0
S315000007B45F8F012153099B0002F01F0203F160437E
S315000007C403F5614301FA02F2C3F880211A6000209E
S315000007D4704700BF00600040012110B490F9043056
S315000007E4084C5A0903F01F03994002F1200344F808
S315000007F42310BFF34F8FBFF36F8F00205DF8044BB8
S31500000804704700BF00E100E003460020C3E902127E
S31500000814704700BF90F904200346002A19DB012023
S3150000082410B451090C4C02F01F02203100FA02F2F6
S3150000083444F82120BFF34F8FBFF36F8F0020074A80
S3150000084493F904105DF8044B42F821000020186067
S31500000854704700201860704700E100E0440500205E
S3150000086430B583B0EFF30384174B103C64B253F8EE
S315000008742410164A48798D68135C03F00303032B8E
S3150000088410D0C03452F8243023F4803342F8243094
S3150000089452F8243025B1CB68CDE900306846A84724
S315000008A403B030BD25B1CB68CDE900306846A84712
S315000008B4064BC03453F8242022F4803243F8242013
S315000008C453F8243003B030BD4405002000600040D6
S315000008D40022034610461A60704700BF0B0A10B484
S315000008E41B01064C53FA81F154F821300020C3F35E
S315000008F440035DF8044B1370704700BF00080840BE
S31500000904090A490101F1804101F500214B680020E3
S3150000091413807047090A490123EA020C01F1804158
S315000009241A4001F5002142EA0C4200208A60704711
S315000009340120CBB2984080B202B900040B0A5B01D5
S3150000094403F1804303F5002398600020704700BF3D
S31500000954090A490101F1804101F5002110B40C682E
S3150000096402EA030C4CEA040C62EA030202EA0C02F1
S3150000097400205DF8044B0A60704700BF090A49016C
S3150000098401F1804101F500214B680020C3F30F43B8
S3150000099413807047012310B44FEA112C4FEA4C1C04
S315000009A40CF1804C0CF5002CDCF80440C9B28B40E9
S315000009B499B203EA14435B1AB3FA83F35B09002082
S315000009C45DF8044B13707047090A490123EA020CC7
S315000009D401F180411A4001F5002142EA0C4200204F
S315000009E4CA60704701200B0A5B0103F1804303F5DB
S315000009F40023C9B210B400FA01F1DC68012A4FEAF7
S31500000A0401400DBF84438C4304430C430020DC6047
S31500000A145DF8044B704700BF2DE9F84F0388DBB13E
S31500000A2482464FF0000B4FF00109DFF8D080002416
S31500000A34304D4FEACB07DAF8043035F8022BD919D2
S31500000A44898891420AD00134032CF4D1BAF80030D3
S31500000A540BF1010B5B45EAD8BDE8F88FDB5909FABF
S31500000A6404F603F0B853B3F1807FF6B298F8BB34BA
S31500000A7413D0334231D1204A04F1200612F816303D
S31500000A84DB09E0D012F81630012123F08003C820D8
S31500000A9402F81630FFF728FDD5E7334211D0164A7F
S31500000AA404F1200112F81130DB09CCD112F811300F
S31500000AB4C82043F0800302F811300121FFF714FD2A
S31500000AC4C1E70120FFF7F0FD98F8BB34012033435A
S31500000AD488F8BB34FFF7B8FDE1E70120FFF7E4FD32
S31500000AE498F8BB34012023EA060388F8BB34FFF7E1
S31500000AF4ABFDC0E7B03A00000030084000E001401A
S31500000B04F8B50446FFF788FFEFF31082012383F359
S31500000B141088234F3B681BB92249CB704023CB7006
S31500000B243B6801333B6082F3108823882BB36168EA
S31500000B341D4C01EBC30E06E01B01083113448E4520
S31500000B4444F8230019D008688A88C5034FEA12239B
S31500000B54D2B2F1D502EB031C54F82C601B01083108
S31500000B6420F4803526F4803613448E4544F82C60F0
S31500000B7444F82C5044F82300E5D1EFF31082012306
S31500000B8483F310883B6813B13B68013B3B603B68C9
S31500000B941BB980200349CB70C87082F31088F8BD56
S31500000BA440050020000D08400008084008B5034B26
S31500000BB403600846FFF7A4FF002008BD54524F50B7
S31500000BC408B50846FFF79CFF002008BD70B501264E
S31500000BD486B001AB03A80C4615460493ADF80C6029
S31500000BE4ADF808100192FFF717FFEFF3108286F3B2
S31500000BF410881D490B681BB940261C48C370C67073
S31500000C040B6801330B6082F31088EA034FEA14235E
S31500000C14E4B219D41B01164A234442F82350EFF3D5
S31500000C241082012383F310880B6813B10B68013B10
S31500000C340B600B681BB980200C49CB70C87082F31B
S31500000C441088002006B070BD094A04EB031052F860
S31500000C5420601B0126F4803642F8206025F4803695
S31500000C6442F82060D7E700BF40050020000D084089
S31500000C740008084030B5836B83B004460A466D46C7
S31500000C848BB193E80300CDE90001E16B1A711846B4
S31500000C94626B19609047A36B1BB195E8030083E868
S31500000CA4030003B030BD6B46EFE700BF10B4EFF3AB
S31500000CB40383103B4D4A5BB2C03352F8231021F430
S31500000CC4803142F8231052F82330EFF30383484A65
S31500000CD4103B5BB252F823301A69117BC1F3000C46
S31500000CE4C9072AD493F82C1093F82A00884212D004
S31500000CF493F82D0008B102294DD093F8280001314C
S31500000D04D07093F82B2083F82C10013A83F82B200B
S31500000D145DF8044B7047196A002933D093F82D0007
S31500000D2400283ED1586A9C690139245C0130C3E924
S31500000D340810D4705DF8044B704793F82D10B9B1C0
S31500000D4493F83110A1B9507999695A6A885493F87D
S31500000D542E40D3E9081201390132C3E90812186991
S31500000D64002C3AD052210122C17283F83020CFE7F9
S31500000D740024012054211C6283F82F005DF8044BE3
S31500000D84D172704793F82E1041B152200121D072CE
S31500000D9483F83010BCE75223D372B9E75423D372D5
S31500000DA4B6E793F8310040B1012983F831C017D072
S31500000DB4FF2482F80AC0D470BCE7507999695A6A4C
S31500000DC48854D3E90812013901320129C3E908120A
S31500000DD41A6905D0FF24D470ACE75423C37297E78D
S31500000DE42023FF249372D470A4E700BF0060004060
S31500000DF44405002010B5EFF30383304A103B5BB281
S31500000E0452F823000269D37A23F00803D37290F8C8
S31500000E142F30002B3ED190F82A1003F0FF0C90F8E7
S31500000E242C3099421BD1036A53B990F82D1090F8CF
S31500000E343040C1F10301C9B2CCB3D372FFF71AFF34
S31500000E44EFF30383103B1E4A5BB2C03352F8231000
S31500000E5421F4803142F8231052F8233010BDFBB13F
S31500000E6490F82D4004F0FF0134B1022B12BF614605
S31500000E7490F8291041F001014FF0000C82F80BC0E4
S31500000E84D17090F82B20013380F82C30531E80F853
S31500000E942B30D5E7F0230121D372FFF7EBFECFE722
S31500000EA401290CBF90F8281090F82910E4E7F023E4
S31500000EB4D372937803F0CF039370BFE74405002001
S31500000EC40060004030B5436A85B004468C4601ADE7
S31500000ED4ABB193E8070085E8070062681846117805
S31500000EE483F804C0A26A19609A60236A9847636A01
S31500000EF41BB195E8070083E8070005B030BD2B4613
S31500000F04EBE700BF10B4EFF30383103B164A5BB262
S31500000F1403F1C00152F8210020F4803042F8210088
S31500000F2452F82120114A52F823305A69D9698A4263
S31500000F3406D2D3E90240A8B1805CE07001325A615E
S31500000F448A4202D05DF8044B70471A69002AF9D127
S31500000F549A685DF8044B937803F07B0343F004032B
S31500000F6493707047E070E9E7006000404405002094
S31500000F7410B4EFF30383103B194A5BB203F1C001CB
S31500000F8452F8210020F4803042F8210052F8212042
S31500000F94144A52F823305969DA69914206D2D3E9E0
S31500000FA40240D0B1405CE0700131596199699142C7
S31500000FB407D298681A6940794C1C9C615054D3E94D
S31500000FC40612914206D19A68937803F03B0343F0E4
S31500000FD4040393705DF8044B7047E070E4E700BFC8
S31500000FE4006000404405002010B5EFF303830C4A6B
S31500000FF4103B5CB252F8240001218268937803F016
S3150000100403039370FFF75EFF064A04F1C00352F828
S31500001014231021F4803142F8231052F8233010BDF6
S31500001024440500200060004010B5EFF303834FF041
S31500001034840C0E4A103B5CB252F8240004218368E7
S315000010449A7802F003029A701A7983F804C0FFF7BB
S3150000105439FF074A04F1C00352F8231021F4803102
S3150000106442F8231052F8233010BD00BF4405002077
S315000010740060004003460020012110B41A6A58603B
S315000010849070DA692C4C92F905204FEA521C02F052
S315000010941F0201FA02F20CF1200C44F82C20BFF3D3
S315000010A44F8FBFF36F8FDA6992F90B204FEA521C08
S315000010B402F01F0201FA02F20CF1200C44F82C2073
S315000010C4BFF34F8FBFF36F8FDA6992F907204FEAA8
S315000010D4521C02F01F0201FA02F20CF1200C44F831
S315000010E42C20BFF34F8FBFF36F8FDA6992F9092073
S315000010F44FEA521C02F01F0201FA02F20CF1200C14
S3150000110444F82C20BFF34F8FBFF36F8FEFF3108497
S3150000111481F31088DB69094A93F800C04FF0004355
S31500001124516823FA0CF30B435360536884F3108815
S315000011345DF8044B704700BF00E100E00040084042
S3150000114403460020C3E90512704700BF10B4046AC1
S31500001154A37803F07B03A370837803F00303D21A06
S315000011640B440261A278C360837842F0800203F0E4
S315000011740303022BA27005D00B780020E3705DF800
S31500001184044B70470B88002043F47E43E3815DF8EB
S31500001194044B704784460020CCE90A32CCF824106C
S315000011A4704700BF012310B5C4690A7894F800C0DB
S315000011B403FA0CF313F0060F01D013071ED402F042
S315000011C45C0E0022036A93F802C00CF00B049C70B8
S315000011D4C26010468A784C785A701A780CF07B0CE8
S315000011E464F301021A70CA789A74DA7902F0A302D7
S315000011F442EA0E02DA7183F802C010BD032010BD64
S315000012044FF0FF330020C1E90033704703468807D7
S3150000121410D510B40024186AC907827802F07B023C
S31500001224827020461C6102D5002210469A615DF840
S31500001234044B7047CA0748BF00224FF0060044BF5C
S315000012449A611046704700BF0346002210B49C6999
S3150000125410460C605DF8044B9A617047062070478F
S31500001264F0B5846A85B005460F4694466E46B4B119
S3150000127494E80F008DE80F00EB6920461B7884F88C
S3150000128404C02360EB6AC4E902736B6A9847AC6ACC
S315000012941CB196E80F0084E80F0005B0F0BD6C465B
S315000012A4EAE700BF062070472DE9F04101240A78D9
S315000012B40346944014F0060F05D0C86940680078C8
S315000012C4000700F1B081002002F5800202F58C527D
S315000012D418701202C3E907124A6901255A628A691B
S315000012E49E78C3E90A024A78D04CB2FA82F25209CD
S315000012F4524202F003026A4062F301069E7091F9BB
S315000013040B6091F80AC0720906F01F07203205FA2D
S3150000131407F744F82270BFF34F8FBFF36F8FC44AA9
S3150000132406F1C00752F827E060F3104E42F827E0B2
S3150000133452F82770BF4F4FEA0C1C04EB060E5FFAF7
S315000013448CFC8EF800C347F8263091F9056091F8B5
S3150000135404C04FEA561E06F01F080EF1200E05FAC9
S3150000136408F844F82E80BFF34F8FBFF36F8F06F152
S31500001374C00E52F82E8060F3104842F82E8052F8C0
S315000013842EE04FEA0C1C04EB060E5FFA8CFC8EF87A
S3150000139400C347F8263091F9076091F806C04FEA72
S315000013A4561E06F01F080EF1200E05FA08F844F83A
S315000013B42E80BFF34F8FBFF36F8F06F1C00E52F826
S315000013C42E8060F3104842F82E8052F82EE04FEA41
S315000013D40C1C04EB060E5FFA8CFC8EF800C347F86F
S315000013E4263091F9096091F808C04FEA561E06F0B6
S315000013F41F080EF1200E05FA08F844F82E80BFF3F4
S315000014044F8FBFF36F8F06F1C00E52F82E8060F334
S31500001414104842F82E8052F82E204FEA0C12D2B20F
S31500001424344484F8002347F82630EFF3108785F315
S3150000143410884FF000460C787F4AE640546824EA48
S3150000144406045460526887F310881A6A40F2F93722
S315000014549070107150729072D07250830878CC6973
S31500001464854040F2F930054218BF40204FF006058A
S3150000147418BFD074012015770D788E78A8403842AD
S3150000148418BF4FF478404D78C97818BF9082C900C8
S31500001494032D41EA061100F0C280002D0CBFE220A4
S315000014A4F220C9B211709071217B08290EBF0A215E
S315000014B4490001F0020151736178A078C901400125
S315000014C400F02000C9B201430020107294F800C055
S315000014D4ACF10200012840F29880C9B2D17161686A
S315000014E488784D785070107865F301001070C878CC
S315000014F409789074D07901F05C0100F0A3000143EF
S31500001504D1710020D96918619861D860586191F940
S315000015140550474A05F1C00152F8216060F31046B0
S3150000152442F8216052F82110BFF35F8F0126690942
S31500001534890005F01F0501F1604101F5614106FAD4
S3150000154405F5C1F880510D60D96991F90B5005F183
S31500001554C00152F8217060F3104742F8217052F826
S315000015642110BFF35F8F6909890005F01F0501F19A
S31500001574604106FA05F501F56141C1F880510D6037
S31500001584D96991F907E00EF1C00152F8215060F3D0
S31500001594104542F8215052F82110BFF35F8F4FEAED
S315000015A45E1189000EF01F0E01F1604106FA0EF578
S315000015B401F56141C1F880510D60D96991F90910AD
S315000015C401F1C00552F8257060F3104742F8257002
S315000015D452F82520BFF35F8F4A09920001F01F01DC
S315000015E402F160428E4002F56142C2F880611660E3
S315000015F41A6A0CF0030C4CF0700C618982F802C074
S315000016040E4A19815A60BDE8F081FF20BCF1020F31
S3150000161408BF41F01001C9B25070D17171E7F220D0
S3150000162441F040013DE70320BDE8F08100E100E020
S3150000163400600040440500200040084055494353DB
S3150000164410B4EFF30383103B214A5BB203F1C001EC
S3150000165452F8210020F4803042F8210052F821206B
S315000016641C4A52F82300C269036912691AB11BB1F4
S315000016745DF8044B704783B9D0E9082400219378B8
S3150000168403F07F0343F004039370C160002CEFD092
S3150000169480225DF8044BFFF7E3BD8278046A02F00A
S315000016A4030CBCF1020FC1680AD091F800C084F89B
S315000016B403C002F003029B1A1144C0E90313D6E7E0
S315000016C4B1F800C04CF47E4CA4F80EC0F1E700BF9C
S315000016D4006000404405002010B582B0EFF3038398
S315000016E4103B1F4A5BB203F1C00152F8210020F4FB
S315000016F4803042F8210052F821201A4A52F8234039
S31500001704A278236A02F0030102290CBF198A5979C7
S31500001714A3690CBFC1F30801C9B2019143B9636A55
S31500001724B3B10422204602B0BDE81040FFF798BDCD
S3150000173402F0030201A9606901F01DFCD4E9052148
S31500001744A37803F003031A44C91AC4E9052109B1AD
S3150000175402B010BD636A002BFAD00122E2E700BF93
S31500001764006000404405002010B5EFF303830E4AE1
S31500001774103B5CB252F82400D0E90821937803F0B8
S315000017847B03937019B102220021FFF769FD074A12
S3150000179404F1C00352F8231021F4803142F82310D7
S315000017A452F8233010BD00BF4405002000600040FD
S315000017B410B5EFF303831A4A103B5CB252F82400C7
S315000017C48278036A02F00302022A0CBF198A597945
S315000017D493F804C00CBFC1F30801C9B21CF0100F82
S315000017E40CF0380206D093F81CC01CF0010F08BF99
S315000017F442F0400293F804C00CF0C70C83F804C00E
S31500001804436A0BB1FFF72CFD064A04F1C00352F8F4
S31500001814231021F4803142F8231052F8233010BDEE
S31500001824440500200060004084460020CCE90A32CA
S31500001834CCF82410704700BF0022436810B502603C
S315000018445A69044622B1936810681B6A984763680C
S315000018541A6922B1936810681B6A9847636893F9FA
S315000018640220002A0EDB01212448530902F01F023C
S31500001874203301FA02F240F82320BFF34F8FBFF35F
S315000018846F8F636893F90120002A0EDB01211B4840
S31500001894530902F01F02203301FA02F240F8232012
S315000018A4BFF34F8FBFF36F8F6368012293F9033041
S315000018B41248590903F01F03203102FA03F340F8D2
S315000018C42130BFF34F8FBFF36F8F636893F90430F2
S315000018D4590903F01F039A4001F1200340F823201D
S315000018E4BFF34F8FBFF36F8F0020A268137823F0E6
S315000018F440031370D378D07010BD00BF00E100E040
S31500001904F8B58568044628789DF818C010F040009C
S3150000191440F0A880C4E90500606884F820C01E462B
S31500001924E36143690F46C4E903124BB35968BCF13A
S315000019340F0F0968A66152D8BCF1070F94BF4FF088
S31500001944000C4FF0010C48884FEA0C3C20F4405040
S3150000195420F00C004CF0080C4CEA000CB0B2C88124
S31500001964A1F802C08A60002A00F086809A68186886
S3150000197453689847002871D1606894F820C0A56818
S315000019840369002B3FD05A68BCF10F0F11686661DA
S3150000199465D8BCF1070F94BF4FF0000C4FF0010C53
S315000019A4CA784FEA0C1C22F03C024CF0080C4CEAB4
S315000019B4020C81F803C090F809C0B2B2BCF1000F62
S315000019C410D1006A70B1007B01280BD1E0690128AF
S315000019D408D0013A013E92B26661CA8103E04FF033
S315000019E4020CB0E7CA814F60002F4CD02A789E685B
S315000019F422F02002186873682A70984770BBA5689D
S31500001A0494F820C06068EB7ABCF10F0FDAB22B8A27
S31500001A149BB229D90CF1010C22F040024FEA9C0C2E
S31500001A24ACF1050C42F02002417A23F4706343EAD8
S31500001A340C2359B9016A49B1097B012906D1E16927
S31500001A44012914BF43F0800323F0800300209BB2D6
S31500001A54EA722B822B7843F060032B70F8BD4FF0AB
S31500001A64020C9DE70820F8BDBCF1070F94BF42F0B5
S31500001A74400202F09F02D7E7887862F38300054AA2
S31500001A8488708A6072E7CA7867F38302CA70024A6A
S31500001A944A60ABE7900500208C05002010B59446FB
S31500001AA48E461C4682B00021724663460094FFF7B8
S31500001AB427FF02B010BD00BF10B594461C4682B085
S31500001AC4002263460094FFF71BFF02B010BD00BF5F
S31500001AD410B49DF8044001945DF8044BFFF710BF61
S31500001AE442684369517A21B9126A12B1127B012AFA
S31500001AF424D0C269511E99420FD09A420CD08168F3
S31500001B04C26832B190F820C0BCF10F0F0DD952F85B
S31500001B1423204A6001334361704781680A8A22F0B0
S31500001B2480021204120C0A82EAE7BCF1070F95BF81
S31500001B34D25C32F813200A718A80EBE78268D27885
S31500001B449206E9D5D5E700BF30B5836A85B0044669
S31500001B548C4601ADABB193E8070085E807006268DF
S31500001B641846117883F804C0E26A19609A60636AB9
S31500001B749847A36A1BB195E8070083E8070005B0F8
S31500001B8430BD2B46EBE700BF2DE9F04F0B78DFF8AD
S31500001B9400830F691B020D46044683B0984477B14F
S31500001BA44FF00062796838680B681A60C3F80880D9
S31500001BB4BB681B6898470646002840F00D816B6990
S31500001BC473B1D3E901124FF4002618680B68126842
S31500001BD41E60C3F8048090470646002840F0008142
S31500001BE4D5E906130022C4E90A23656061622878F0
S31500001BF400F5800303F58D531B02A3606F7A002F53
S31500001C0400F0F88011464FF0B00894466A7BEE7AED
S31500001C142B6A1203AD7A42EA46022A431D78002D46
S31500001C2440F0EE8001218140890740F0208193F83D
S31500001C3401E098784FEA4E1128EACE1541EA4E01A2
S31500001C4422F070062943DA781D79904012011DB1FD
S31500001C54022D0CBF3025202593F805E0BEF1000FB8
S31500001C6406D0BEF1010F14BF4CF0010C4CF0030C6E
S31500001C7493F808E00EF0030E42EA8E0232439E7990
S31500001C840196002F40F0EF8093F8099093F80A80AC
S31500001C94DF7A42F46042EFF3108A4FF0010E8EF3BE
S31500001CA4108866683678C6F113060EFA06FE734E79
S31500001CB4D6F804B02BEA0E0BC6F804B076688AF39D
S31500001CC410884FF0000EA668C9B2C0B296F803A0F9
S31500001CD486F803E031707070B570D97992B2B1723A
S31500001CE45FFA8CFC019986F80C9086F80D80B77320
S31500001CF486F80FC03282626886F82010517A00296D
S31500001D0440F081801B7B012B0CBF1223102386F825
S31500001D14213092F90230002B7CDA594892F90130CD
S31500001D24002B26DB527903F160411201D2B201F590
S31500001D34614181F80023534A03F1C00140F823406E
S31500001D4452F8215025F4803542F8215052F82120CA
S31500001D54BFF35F8F01215A09920003F01F0302F1BA
S31500001D64604202F5614201FA03F3C2F8803113605E
S31500001D746268157A92F9043043492A01CE18414D16
S31500001D84D2B286F8002303F1C00240F8234055F886
S31500001D94226026F4803645F8226055F82220BFF3E7
S31500001DA45F8F012203F01F055B099B0003F160436B
S31500001DB403F56143AA40C3F880211A6000266368CC
S31500001DC493F90320DB7911441B01DBB281F800335C
S31500001DD42E4B40F822402360304603B0BDE8F08F16
S31500001DE4002FF9D0BB6838681B6A9847304603B0A1
S31500001DF4BDE8F08F4FF0B80808214FF0100C05E746
S31500001E0441F0B10813E7102386F8213092F9023025
S31500001E14002B82DB927903F1604112011848D2B299
S31500001E2401F5614181F80023164A03F1C00140F827
S31500001E34234052F8215025F4803542F8215052F8B7
S31500001E442120BFF35F8F01215A09920003F01F037B
S31500001E5402F1604202F5614201FA03F3C2F88031ED
S31500001E64136062685AE70027B846B94613E7B7FA1B
S31500001E7487F1490942EAC112D9E600BF0040084089
S31500001E84440500200060004000E100E04950535240
S31500001E9404A0114010B4EFF30383103B214A5BB254
S31500001EA403F1C00152F8210020F4803042F82100E9
S31500001EB452F821201C4A52F82330D3E906218A42DB
S31500001EC41CD018699C6838B393F820C0BCF10F0F76
S31500001ED40AD9616840F82210D96901328A429A61A6
S31500001EE40CD05DF8044B7047BCF1070F16D8217966
S31500001EF48154D96901328A429A61F2D15B6893F9B5
S31500001F040330012203F01F0008495B09824041F8AF
S31500001F1423205DF8044B70476068DEE7A48820F848
S31500001F241240DAE7006000404405002000E100E0CA
S31500001F34EFF30383103B254A5BB203F1C00152F869
S31500001F44210020F4803042F8210052F82110204963
S31500001F5451F8230041680B6A13B15B78012B01D059
S31500001F64FFF7BEBD10B4C46904F1FF3C446964457F
S31500001F740FD00A694AB191F90320164902F01F0CE1
S31500001F8403FA0CF3520941F822305DF8044BFFF7CB
S31500001F94A7BD91F9031001F1C00C52F82C4024F4AA
S31500001FA4803442F82C4052F82C20BFF35F8F4A0944
S31500001FB4920001F01F0102F1604203FA01F102F5F9
S31500001FC46142C2F880111160DFE700BF0060004083
S31500001FD44405002000E100E030B4EFF30382103A38
S31500001FE4344953B203F1C00051F8204002F0FF0215
S31500001FF424F4803441F8204051F820102E4951F839
S3150000200423008168C978890705D54168497A012979
S3150000201401D030BC70470121284C5B0902F01F0235
S31500002024203301FA02F244F82320BFF34F8FBFF3A3
S315000020346F8F436893F90230002B32DB5A0903F0A1
S315000020441F0301FA03F3203244F82230BFF34F8F03
S31500002054BFF36F8FD0E90124237892F9022023F08D
S315000020644003002A237018DB124B02F1C00453F814
S31500002074245025F4803543F8245053F82430BFF314
S315000020845F8F53099B0002F01F0203F160439140E6
S3150000209403F56143C3F880111960012130BCFFF7D1
S315000020A453BD8268012130BC137823F040031370BA
S315000020B4FFF74ABD006000404405002000E100E04F
S315000020C470B5EFF30383364A103B5CB252F82460D2
S315000020D4736893F90230002B49DB012031495A0910
S315000020E403F01F03203200FA03F341F82230BFF352
S315000020F44F8FBFF36F8FD6E9013293F9023011780F
S31500002104002B21F04001117019DB274A03F1C001AD
S3150000211452F8215025F4803542F8215052F82120F6
S31500002124BFF35F8F03F01F025B099B0003F160435B
S31500002134904003F56143C3F880011860B26800213A
S31500002144D378D1701A07DDB224D4EB0715D405F081
S315000021541405142D19D0144A04F1C00352F823109F
S3150000216421F4803142F8231052F8233070BDB2684E
S31500002174137823F040031370E1E70421304605F099
S315000021841405FFF7E1FC142DE5D108213046FFF7CD
S31500002194DBFCE0E705213046FFF7D6FCD5E700BFB8
S315000021A44405002000E100E00060004008B500F0AE
S315000021B4E7FB002008BD00BF0346406810B49C68D6
S315000021C4421C944208BF00221C68944206D0DC6874
S315000021D4215400205A605DF8044B70474FF0FF30DD
S315000021E4F9E700BFD0E900329A420CD0C268D35C4A
S315000021F40B700368826801339342036004BF0023B3
S315000022040360002070474FF0FF3070470020002124
S31500002214402210B4064B074CC3E90001DC60064CAF
S315000022249A601C61054C5C615DF8044B704700BF05
S315000022341006002028060020BD210000E921000028
S3150000224410B50446006882B0C0B1FF230D498DF86D
S31500002254073000F086FE88B90B4B4FF480619A680C
S31500002264186893690DF10702984718B99DF9070094
S3150000227402B010BD2168054800F0D6FC4FF0FF30CF
S3150000228402B010BD7C3C0000303B0000843C0000E2
S3150000229438B50446006898B10D460B4900F061FE56
S315000022A440B90A4B4FF480619A681868D369EAB258
S315000022B4984708B9002038BD2168054800F0B4FCE9
S315000022C44FF0FF3038BD00BF7C3C0000303B0000BF
S315000022D4843C000070B50568002D2ED004461D49C7
S315000022E4284600F03EFE80B91B4B9D681E682A688E
S315000022F430465968904718BB30466B689847216842
S31500002304C0B9164800F090FC25682846144900F028
S3150000231428FE40B9134BD3E9011218681268904796
S315000023240E2812D008B1002070BD21680E4800F0B6
S315000023347BFCF8E70D4800F077FC4FF0FF3070BDEA
S3150000234421680B4800F070FCF7E70A4800F0D4FC5B
S31500002354F3E700BFB43C00003C3B0000DC3C00005B
S315000023647C3C0000303B0000483D0000FC3C000083
S31500002374BC3C00001C3D000010B50849044600F0B2
S31500002384F0FD40B12046064900F0EBFD08B90548CA
S3150000239410BD002010BD044810BD00BFB43C0000B1
S315000023A47C3C0000080000201800002008B54368A3
S315000023B4062B00D008BD00F061FB024B64301860A8
S315000023C408BD00BF68060020084B1B68834200D086
S315000023D4704710B5064C07482178836849B2984778
S315000023E42378B3FA83F35B09237010BD68060020D3
S315000023F4040000200800002010B40468E4B1B0F81A
S3150000240408C044688C4517D94089904214D94FF0C6
S31500002414010CD00801EBC01102F00702605C0CFA53
S3150000242402F233B920EA0200605400205DF8044B3E
S31500002434704710436054F8E74FF0FF30F6E700BFEB
S3150000244430B505461A4B83B098680022C46940F239
S31500002454062118688DF80750A047E0B907231549E7
S3150000246401228868846808680DEB0301A047C8B98F
S31500002474114D2B7853B9642400E03CB1012000F0DF
S31500002484EFFA2B78013CA4B2002BF6D000232B7074
S315000024942B7803B030BD40F206220021074800F035
S315000024A4C3FBDBE77F220649064800F0BDFBDFE7F6
S315000024B4303B0000A03B00006C0600206C3D000091
S315000024C4783E0000903D000038B540EA01031B0643
S315000024D410D40D4B04461B78022B0CD00D4621203C
S315000024E4FFF7AEFF2046FFF7ABFF2846BDE83840AE
S315000024F4FFF7A6BF38BD00F00F00FFF7A1FF2009C4
S31500002504BDE83840FFF79CBF2800002038B5104BC3
S3150000251404461B78022B11D040EA01031B060D4624
S315000025240ED42220FFF78CFF04F00700FFF788FF84
S3150000253405F00700BDE83840FFF782BF072800D939
S3150000254438BD5038C0B2BDE83840FFF779BF00BF88
S315000025542800002070B50568BDF810605DB1084616
S315000025641446D9B2C0B2FFF7AFFFF1B2E0B2BDE88C
S315000025747040FFF7CBBF70BD036813B1AE20FFF701
S315000025845FBF7047036813B1AF20FFF759BF7047A9
S31500002594F8B50368002B36D0294B04461F689E689D
S315000025A4002240F205213846F3699847002840D1B5
S315000025B4012240F206213846F369646898470028E8
S315000025C430D1204B21469A681868946807234FF443
S315000025D48062A04700BB1C4D2B7853B9642400E0ED
S315000025E43CB1012000F03CFA2B78013CA4B2002B4C
S315000025F4F6D0002401222C70384640F20521F369F6
S315000026042C78984700B9F8BD40F20522BDE8F84099
S3150000261401210E4800F008BB91220D490D4800F037
S3150000262403FBD8E740F206220121084800F0FCFA31
S31500002634C7E740F205220021044800F0F5FAB7E79F
S31500002644303B0000A03B00006C0600206C3D0000FF
S31500002654883E0000903D0000F8B50368002B00F0AA
S31500002664AD80584B04469D681E682A6830465968F2
S31500002674904700287FD1012240F205213046EB69BC
S315000026849847002840F08280002240F20621304616
S31500002694EB699847002872D14B4B9A68D3E900013D
S315000026A4126890470746002840F08580474800F0A6
S315000026B423FB40F205213A463046EB699847002849
S315000026C472D12020FFF7BCFE0120FFF7B9FE0122DC
S315000026D43F4BA8201A70FFF7B3FE3F20FFF7B0FE6A
S315000026E4D320FFF7ADFE0020FFF7AAFE4020FFF738
S315000026F4A7FEA120FFF7A4FEC820FFF7A1FEDA205B
S31500002704FFF79EFE0220FFF79BFE8120FFF798FE4F
S315000027147F20FFF795FEA420FFF792FEA620FFF781
S315000027248FFED520FFF78CFE8020FFF789FE8D20D3
S31500002734FFF786FE1420FFF783FE236893B1AF20CC
S31500002744FFF77EFE21896389226801395C1E89B2FE
S31500002754A4B23AB10020C9B2FFF7B6FE0020E1B236
S31500002764FFF7D4FE012240F205213046EB69984773
S3150000277498B90020F8BD174800F0BEFA7BE740F28E
S3150000278406220021144800F04FFA85E740F205229C
S315000027940121114800F048FA76E740F205220121AA
S315000027A40D4800F041FAE4E740F2052239460A48AA
S315000027B400F03AFA85E7094800F09EFA4FF0FF3038
S315000027C4F8BD00BF303B0000A03B0000E03D000028
S315000027D428000020A83D00006C3D0000C03D00001C
S315000027E4004870472C000020036823B90379012BA5
S315000027F404BF014A137070476C0600200379022B4C
S3150000280407D0042B00D07047044B017A18461B6985
S3150000281418470122024B1A60704700BF10060020B9
S31500002824700E00202DE9F047B2F1000916DD8A4644
S3150000283400260C4B0C4CD3F808801F6801EB0905E5
S31500002844012251463846D8F8083098472368002BA9
S31500002854FCD00AF1010AAA452660F1D14846BDE832
S31500002864F08700BF603B0000700E00202DE9F04F9A
S31500002874B2F1000B85B028DD0D4600261C4BDFF8AF
S3150000288478A0D3F808801F681A4C01EB0B09504650
S31500002894DAF814300DF10E0198470028F7D19DF8A7
S315000028A40E3001222B7029463846D8F80830019597
S315000028B498472368002BFCD0019B266093F90030CF
S315000028C401350D2B05D0A945E1D1584605B0BDE823
S315000028D4F08F0A2301228DF80F303846D8F80830D5
S315000028E40DF10F0198472368002BFCD02660EAE718
S315000028F4603B0000700E00201006002008B500F0B2
S3150000290427FB092203464FF0FF301A6008BD00BFBB
S31500002914002070474FF4005300204B60704700BFFF
S315000029240120704770B5FFF75BFF10B304465526C8
S31500002934436998476568236943B100231A46AE5430
S31500002944216901339BB28B421A46F8D3636A204647
S31500002954984723694BB10023FF201A46A8542169DE
S3150000296401339BB28B421A46F8D32046636A9847D2
S31500002974E1E70248BDE8704000F0BEB9083E000039
S3150000298470B5FFF743FC194BD3E9011218681268B6
S315000029949047174800F0B0F9164B01229B684FF494
S315000029A48061DB691448984700F030F8FFF7BAFFF6
S315000029B41248FFF7E1FC78B104461148FFF7DCFC46
S315000029C4054670B120466368984720B928466B6867
S315000029D4BDE87040184770BD0A48BDE8704000F075
S315000029E48BB90948BDE8704000F086B9603B000029
S315000029F42C3E0000303B000094050020B43C00004F
S31500002A047C3C0000483E0000603E0000052010B5F6
S31500002A14FDF704FD0B4BA3FB00239B09013BB3F11C
S31500002A24807F0DD24FF0E0224FF0F00C00210724F6
S31500002A340548536180F823C091610846146110BDAE
S31500002A44012010BDD34D621000ED00E0034B1A685F
S31500002A5401321A601868FFF7B7BC00BF740E002075
S31500002A646FF07F43044A9842116838BF01301368F7
S31500002A745B1A8342FBD37047740E0020014B18681F
S31500002A84704700BF740E0020022800D07047024928
S31500002A940248FEF78BB800BFE03B00009405002017
S31500002AA4002310B504468360818119464366C281BA
S31500002AB408228361C0E90033C0E904335C3000F0C6
S31500002AC4F9F90D4B246263620C4BA3620C4BE3626F
S31500002AD40C4B23630C4B9C4206D003F168029442D0
S31500002AE402D0D0339C4205D104F15800BDE8104011
S31500002AF400F034BA10BD00BF0D2D00002F2D0000CC
S31500002B04672D00008D2D0000780E0020024A03492F
S31500002B14034800F06BB800BF5C0000202D380000AD
S31500002B246C00002041680C4B994210B5044601D054
S31500002B3400F07AFEA168094B994202D0204600F0C3
S31500002B4473FEE168064B994204D02046BDE8104066
S31500002B5400F06ABE10BD00BF780E0020E00E002013
S31500002B64480F00200C4B04210C4A0D4810B51A607E
S31500002B740022FFF795FF0A4B012209211C4603F1A7
S31500002B846800FFF78DFF022204F1D0001221BDE890
S31500002B941040FFF785BF00BFB00F0020112B0000C7
S31500002BA4780E0020014800F0DAB900BFB90F002002
S31500002BB4014800F0D5B900BFB90F002010B504468E
S31500002BC4FFF7F0FF236A1BB1BDE81040FFF7F0BF23
S31500002BD4044B2362044B1B68002BF5D1FFF7C2FF9D
S31500002BE4F2E700BF292B0000B00F00202DE9F843BF
S31500002BF40746884614460026D4E90195B9F1010929
S31500002C0405D52468002CF7D13046BDE8F883AB8996
S31500002C14012B07D9B5F90E30013303D029463846BE
S31500002C24C04706436835E9E70FB407B5064904AB60
S31500002C34086853F8042B8168019300F0CBFA03B0BB
S31500002C445DF804EB04B0704768000020036A70B5B1
S31500002C5405460E4684680BB9FFF7B0FF636EDB07C3
S31500002C6405D4A389980502D4A06D00F078F9A38948
S31500002C74190702D52369002B35D12146284600F0D1
S31500002C84C5F880B34FF0FF35636EDA0705D4A38920
S31500002C949B0502D4A06D00F063F9284670BD002B95
S31500002CA404DAA269934217DB0A2915D023685A1C51
S31500002CB422601970A36816F8011F013BA36000295E
S31500002CC4EDD1002B11DA22460A21284600F060F8DD
S31500002CD40130D7D00A25D7E72246284600F058F80F
S31500002CE40130E7D1CEE7013EE4E723685A1C2260AF
S31500002CF40A221A70EEE70000024B01461868FFF735
S31500002D04A5BF00BF6800002010B50C46B1F90E102F
S31500002D1400F0FAF80028ABBF636DA3891B1823F4EF
S31500002D248053ACBF6365A38110BD2DE9F0411F46F6
S31500002D348B8905460C46DB05164605D5022300227B
S31500002D44B1F90E1000F0CEF8A3893246B4F90E108C
S31500002D54284623F48053A3813B46BDE8F04100F0A6
S31500002D64E5B810B50C46B1F90E1000F0BBF8421CDC
S31500002D74B4F90C3015BF606523F4805343F48053D3
S31500002D84A38118BFA38110BDB1F90E1000F09AB843
S31500002D94F8B50E461446054618B1036A0BB9FFF793
S31500002DA40DFFA369A360A3891A0701D5236943B953
S31500002DB42146284600F02AF818B14FF0FF37384666
S31500002DC4F8BD2368F6B222693746981A63698342C6
S31500002DD405DC2146284600F027FD0028EDD1A3682E
S31500002DE4013BA36023685A1C22601E70431C62695F
S31500002DF49A4204D0A389DB07E1D50A2EDFD1214606
S31500002E04284600F011FD0028D9D0D6E738B5284B5E
S31500002E1405460C46186818B1036A0BB9FFF7CEFECF
S31500002E24B4F90C30190721D4DA0607D409222A602A
S31500002E3443F040034FF0FF30A38131E0580712D529
S31500002E44616B41B104F14403994202D0284600F073
S31500002E549FF8002363630022B4F90C30626023F008
S31500002E6424032269226043F00803A381226942B93C
S31500002E7403F42073B3F5007F03D02146284600F0FF
S31500002E841FFDB4F90C3013F001020AD00022A2602F
S31500002E9462695242A261226942B913F08000C7D125
S31500002EA438BD990758BF6269A260F4E70020F7E7C6
S31500002EB46800002002440346934200D1704703F899
S31500002EC4011BF9E738B50023054D044608462B6077
S31500002ED4FFF714FD431C02D12B6803B1236038BDF0
S31500002EE4B40F002038B50446064D084611460022A4
S31500002EF42A601A46FFF70CFD431C02D12B6803B166
S31500002F04236038BDB40F002038B50446064D084684
S31500002F14114600222A601A46FFF7A8FC431C02D178
S31500002F242B6803B1236038BDB40F002038B50446BE
S31500002F34064D0846114600222A601A46FFF772FC1F
S31500002F44431C02D12B6803B1236038BDB40F0020A3
S31500002F54014B1868704700BF68000020704770472F
S31500002F64704710F8012B11F8013B012A28BF9A4239
S31500002F74F7D0D01A70470A44431E914200D17047D5
S31500002F8410B511F8014B914203F8014FF9D110BD68
S31500002F9438B50546002941D051F8043C0C1F002BD6
S31500002FA4B8BFE41800F0E0F81D4A136833B963604B
S31500002FB414602846BDE8384000F0DCB8A34208D9BE
S31500002FC4206821188B4201BF19685B6809182160C3
S31500002FD4EDE71A465B680BB1A342FAD9116850189B
S31500002FE4A0420BD120680144501811608342E0D1FD
S31500002FF418685B68084453601060DAE702D90C234A
S315000030042B60D6E7206821188B4202BF19685B68DB
S315000030140918636008BF21605460CAE738BD00BF61
S31500003024C00F002070B50F4E0C460546316811B925
S3150000303400F0A2FC30602146284600F09DFC431CAB
S3150000304403D14FF0FF34204670BDC41C24F00304A2
S31500003054A042F8D0211A284600F08EFC0130F2D1A5
S31500003064EFE700BFBC0F00202DE9F843CD1C064650
S3150000307425F0030508350C2D38BF0C25002D01DB82
S31500003084A94204D90C2333600020BDE8F883DFF895
S31500003094D48000F069F8D8F800301C4644BB2946B1
S315000030A43046FFF7BFFF431C044658D1D8F800400A
S315000030B42746002F43D1002C4BD02368394630468F
S315000030C404EB030900F058FC814542D121683046DF
S315000030D46D1A2946FFF7A6FF01303AD023682B4420
S315000030E42360D8F800305A6862BBC8F800700FE055
S315000030F42268521B20D40B2A17D96119A3422560D2
S3150000310418BF5960636808BFC8F8001062514B6065
S31500003114304600F02FF804F10B00231D20F00700C1
S31500003124C21A1CBF1B1AA350AFE76268A3420CBFA6
S31500003134C8F800205A60EBE723466468AEE73C46CD
S315000031447F68B6E71A465B68A342FBD10023536047
S31500003154DEE70C233046336000F00CF894E7056094
S31500003164D6E700BFC00F00200148FFF7F8BE00BF36
S31500003174B80F00200148FFF7F3BE00BFB80F0020C8
S315000031849368013B002B10B4936008DA9469A34258
S3150000319401DB0A2903D15DF8044BFFF7F9BD136877
S315000031A4581C1060084619705DF8044B7047F8B552
S315000031B406460F461446D518AC4201D1002007E056
S315000031C43A4614F8011B3046FFF7DAFF431CF3D1E5
S315000031D4F8BD00002DE9F04F0D469DB01446984603
S315000031E4064618B1036A0BB9FFF7E8FC6B6ED907FC
S315000031F405D4AB899A0502D4A86DFFF7B0FEAB8956
S315000032041B0701D52B699BB929463046FFF7FEFDFE
S3150000321470B16B6EDC0704D54FF0FF301DB0BDE80E
S31500003224F08FAB899805F7D4A86DFFF799FEF3E7FD
S315000032340023CDF80C804FF00109DFF8B48109931F
S3150000324420238DF8293030238DF82A3023469A46D8
S3150000325413F8012B0AB1252AF9D1BAEB040B0BD0CA
S315000032645B46224629463046FFF7A1FF013000F0AF
S31500003274A780099A5A4409929AF80030002B00F064
S315000032849F8000234FF0FF320AF1010A049307934B
S315000032948DF853301A93CDE9052354460522544834
S315000032A414F8011B00F078FB049AD8B9D10644BF80
S315000032B420238DF85330130744BF2B238DF8533046
S315000032C49AF800302A2B15D0079A544600204FF05E
S315000032D40A0C214611F8013B303B092B4BD9B0B1FE
S315000032E4079214E0A0EB0803A24609FA03F313437A
S315000032F40493D2E7039B191D1B68002B0391BBBFE4
S315000033045B4242F0020207930793B8BF0492237804
S315000033142E2B0AD163782A2B32D1039B02341A1D31
S315000033241B6843EAE37303920593DFF8D4A00322F0
S315000033342178504600F030FB38B1A0EB0A00402259
S31500003344049B013482401343049314F8011B0622A0
S3150000335428488DF8281000F01FFB00283FD0264B84
S315000033641BBB039B073323F0070308330393099B13
S315000033743B4409936AE70CFB02320C460120A8E79A
S31500003384002301344FF00A0C19460593204610F821
S31500003394012B303A092A03D9002BC6D00591C4E77C
S315000033A40CFB012104460123F0E703AB2A4604A9DA
S315000033B430460093114BAFF300800746781CD6D1F4
S315000033C46B6ED90705D4AB899A0502D4A86DFFF7AD
S315000033D4C7FDAB895B063FF51FAF09981EE703AB34
S315000033E42A4604A930460093044B00F07DF8E4E72E
S315000033F4983E0000A23E000000000000B331000029
S315000034049E3E00002DE9F047164698468A68074610
S315000034140B690C46DDF820909342B8BF134633601F
S3150000342491F843200AB1013333602368990642BFF9
S31500003434336802333360256815F0060506D104F1B6
S31500003444190AE36832689B1AAB422BDC94F84330C2
S315000034542268003B18BF0123920630D404F14302CC
S3150000346441463846C847013023D023681A3454F8F5
S315000034740A2C03F00603042B0ABF54F80E5C00253D
S3150000348433684FF0000608BFED1A54F8123C08BF23
S3150000349425EAE5759342C4BF9B1AED18B5421AD1C5
S315000034A4002008E00123524641463846C847013009
S315000034B403D14FF0FF30BDE8F0870135C1E7E118CD
S315000034C45A1C30200233224481F8430094F84510F4
S315000034D482F84310C2E70123224641463846C847CC
S315000034E40130E6D00136D9E72DE9FF470F7E914634
S315000034F480460C46782F9A460C9E01F1430207D863
S31500003504622F0AD8002F00F0D280582F00F0B7801F
S3150000351404F1420684F842703AE0A7F16303152BDE
S31500003524F6D801A151F823F085350000993500003D
S315000035341535000015350000153500001535000059
S3150000354499350000153500001535000015350000C5
S315000035541535000099360000C33500004F360000CB
S315000035641535000015350000BB3600001535000082
S31500003574C335000015350000153500005736000028
S3150000358433681A1D1B68326004F1420684F842301F
S3150000359401239DE033682068191D3160060601D5B4
S315000035A41D6803E04506FBD5B3F90050002D03DA88
S315000035B42D236D4284F8433059480A2310E02168CC
S315000035C43368080653F8045B02D4490648BFADB213
S315000035D46F2F5348336059D10823002184F84310D0
S315000035E46668002EA66005DB21682E4321F00401DF
S315000035F421604DD01646B5FBF3F103FB1157C75DA9
S3150000360406F8017D2F460D46BB42F4D9082B0BD193
S315000036142368DF0708D5236961689942DEBF302332
S3150000362406F8013C06F1FF36921B22614B4603AABB
S3150000363421464046CDF800A0FFF7E4FE01304CD108
S315000036444FF0FF3004B0BDE8F087236843F0200351
S31500003654236078273348236884F845701F06316849
S3150000366451F8045B02D45F0648BFADB23160D90796
S3150000367444BF43F0200323601DB11023ADE728485F
S31500003684E9E7236823F020032360F6E70A23A4E787
S315000036941646BBE733682568181D616930602E0637
S315000036A41B6801D5196002E06806FBD51980002362
S315000036B416462361BAE7336800211A1D32601E6874
S315000036C46268304600F068F908B1801B6060636880
S315000036D42361002384F84330A8E723693246494628
S315000036E44046D0470130ABD023689B0713D4E0682B
S315000036F4039B9842B8BF1846A4E7012332464946BD
S315000037044046D04701309BD00135E36803995B1AE4
S31500003714AB42F2DCEBE7002504F11906F5E700BF3E
S31500003724A93E0000BA3E0000B1F90C202DE9F04193
S31500003734160705460C4651D44B68002B02DC0B6C6D
S31500003744002B49DDE66A002E46D0002312F480528F
S315000037542F682B6031D0626DA389590705D563683C
S31500003764D21A636B0BB1236CD21A0023E66A216A60
S315000037742846B047421CB4F90C3006D129681D29E5
S3150000378445D8284ACA40D60741D50022D9046260E2
S315000037942269226004D5421C01D12B6803B96065F5
S315000037A4616B2F60C1B104F14403994202D02846EB
S315000037B4FFF7EEFB002363630EE00123216A28462C
S315000037C4B0470246501CC7D12B68002BC4D01D2B12
S315000037D401D0162B19D12F6000201DE00F69002F90
S315000037E4FAD093070E680F600CBF4B690023A6EB53
S315000037F407088B60B8F1000FEEDD43463A46216AAE
S315000038042846A66AB047002808DCB4F90C3043F011
S3150000381440034FF0FF30A381BDE8F0810744A8EBD5
S315000038240008E7E70100402038B50B6905460C4659
S3150000383413B90025284638BD18B1036A0BB9FFF73A
S31500003844BDF9B4F90C30002BF3D0626ED00704D462
S31500003854990502D4A06DFFF782FB28462146FFF79F
S3150000386463FF636E0546DA07E4D4A3899B05E1D4B6
S31500003874A06DFFF775FBDDE770B50C46B1F90E10C8
S3150000388496B0154600291E460ADAA18911F0800170
S3150000389413D14FF48062002031602A6016B070BDE7
S315000038A46A4600F047F80028EFDB019901F47041FD
S315000038B4A1F5005359425941EBE700214022EAE7BA
S315000038C48B8973B59E0705460C4607D504F1470355
S315000038D4236023610123636102B070BD01AB6A46B4
S315000038E4FFF7CAFF009E28463146FFF7BDFBB4F931
S315000038F40C3038B99A05EFD423F0030343F00203DE
S31500003904A381E3E743F080032060A381019BC4E91C
S315000039140406002BE0D0B4F90E10284600F01CF87B
S315000039240028D9D0A38923F0030343F00103A3811C
S31500003934D2E7000038B50023064D04460846114672
S315000039442B60FEF7E7FF431C02D12B6803B123600B
S3150000395438BD00BFB40F002038B50023054D04461A
S3150000396408462B60FEF7DCFF431C02D12B6803B12B
S31500003974236038BDB40F002038B50023054D044636
S3150000398408462B60FCF7BAFE431C02D12B6803B130
S31500003994236038BDB40F0020C9B20346024410B5F3
S315000039A49342184601D1002003E0047801338C4287
S315000039B4F6D110BD0100020008001000200000002E
S315000039C4040000006C3A000008000000EC39000016
S315000039D402000000DC3900000000006800000068F6
S315000039E4C0000020C000002000000068000000683D
S315000039F40000006000010C08000000680000006878
S31500003A04000000700001090800000068000000685A
S31500003A1400000008000102080000006800000068B9
S31500003A247C000000000101080000002000000020C6
S31500003A340000006000010C030000002000000020CC
S31500003A4400000070000109030000002000000020AF
S31500003A54000000080000020300000020B800002057
S31500003A647C000000000001030000006800000068FC
S31500003A74000100080000006800000068000100085A
S31500003A84B8000020C000002000000003E00400206D
S31500003A94C40F00200000000315070000990700006A
S31500003AA4DD0700000D0800001908000002040304E5
S31500003AB404040000B10B0000D5080000C50B00008B
S31500003AC4D10B000099090000E9090000E108000093
S31500003AD4350900005509000081090000CD090000E0
S31500003AE40509000019090000AD1200004511000087
S31500003AF451110000A9110000051200001112000066
S31500003B0499110000791000004D12000061120000A6
S31500003B14A91200008D1B0000A11A0000BD1A0000A6
S31500003B24D51A00002D1800003D1800009405002049
S31500003B34E03B0000B83A00009C050020483B00002A
S31500003B449C3A0000060C0A0003000000B1230000A2
S31500003B54000000005C3B000000000000AC050020F3
S31500003B646C3B0000EC3A0000020200000C000C0161
S31500003B740C020C03000000000000000001280000F5
S31500003B84000000008C3B0000000100000000002043
S31500003B940F00FFFF00000000FFFF0000DC0500200F
S31500003BA4AC3B0000183B0000000B0C0D0E0A0A0A81
S31500003BB40A000000010000000000000000000000F0
S31500003BC4ED27000000000000D03B000001000000CB
S31500003BD40000000000000000000000000E000000CD
S31500003BE4EC3B000000000000004000000000000064
S31500003BF40000010008010000000001040C0100009F
S31500003C04000001040D01000000000106020200008C
S31500003C140000010603020000000001060402000081
S31500003C2440000104060200004000010407020000EF
S31500003C34000001000003000004000000000400006E
S31500003C44000001050A040000000001050607000043
S31500003C5400000105070700008C018D018E018F010C
S31500003C64920193019401950199019A010700C401F7
S31500003C74C501C801C7010000557365724C6564002F
S31500003C844572726F722E204661696C656420746F8A
S31500003C94207772697465206C6576656C20696E2080
S31500003CA4494F206465766963653A2025730D0A00D9
S31500003CB4557365724B6579004661696C6564207459
S31500003CC46F206F70656E204B657920646576696335
S31500003CD4653A2025730D0A00537563636573732073
S31500003CE4746F20656E61626C652025732773206985
S31500003CF47271210D0A0000004661696C65642074C6
S31500003D046F20656E61626C65202573277320697266
S31500003D1471210D0A000000004572726F722C204753
S31500003D2450494F732061726520616C7265616479D4
S31500003D34206F70656E20616E6420696E69742E0D45
S31500003D44000000005375636365737320746F206FFE
S31500003D5470656E204C6564206465766963653A20F7
S31500003D642573210D0A0000004661696C65642074A0
S31500003D746F20777269746520256420746F207069DA
S31500003D846E203078252E3478210D0A0046756E6330
S31500003D9474696F6E3A2573094C696E653A25640D2C
S31500003DA40A0000004661696C656420746F206F70B8
S31500003DB4656E204750494F73210D00004572726F9E
S31500003DC472207768656E206F70656E207370693037
S31500003DD420646576696365210D000000537563638D
S31500003DE465737320746F206F70656E2064657669E1
S31500003DF463653A20737069300D0000004F4C4544EA
S31500003E04000000004661696C656420746F20676574
S31500003E1474204F4C454420446973706C6179204486
S31500003E246576696365210D0068656C6C6F20776F34
S31500003E34726C64212046726F6D206C75636B790D0C
S31500003E44000000004661696C656420746F20676534
S31500003E547420557365724B6579210D004661696C52
S31500003E64656420746F2067657420557365724C65AC
S31500003E7464210D004F4C454444727657726974654B
S31500003E84526567004F4C45444472765772697465AF
S31500003E9442756600232D302B2000686C4C00656645
S31500003EA46745464700303132333435363738394181
S31500003EB44243444546003031323334353637383997
S31500003EC461626364656600004275696C7420776993
S31500003ED474682052656E6573617320416476616E01
S31500003EE463656420466C657869626C6520536F6609
S31500003EF47477617265205061636B616765207665CE
S31500003F047273696F6E20362E332E3000362E332EA2
S30D00003F14300000000000030666
S30900003F1CF8B500BF2F
S30900003F20F8B500BF2B
S30900003F245901000039
S30900003F283501000059
S30D00003F2C3AF0FF7F01000000DE
S3090100A100FFFFFFFF58
S3090100A200FFFDFFFF59
S3090100A280F8F8FFFFE5
S7050000017980
