S01400005241364D352D50726F6A63742E7372656326
S31500000000A004002059010000590500005501000018
S315000000105501000055010000550100005501000082
S315000000200000000000000000000000005501000074
S31500000030550100000000000055010000292A0000BB
S31500000040BD160000251600004D170000951700008C
S31500000050550F0000E90E0000CD0F00000D10000046
S31500000060910C0000D90D000045080000B5180000ED
S3150000007051190000F9190000E11A0000BD16000030
S31100000080251600004D1700009517000023
S3150000008C400035004000350001000000084000002B
S3150000009CF51C0000B11C0000611C00004040000073
S315000000ACF51C00000000000000000000000000002D
S315000000BC03000000940600203C0000200000000015
S315000000CC94060020FC0600206407002000000000B7
S315000000DC000000000000000000000000000000000E
S315000000EC00000000000000000000000000000000FE
S315000000FC00000000000000000000000000000000EE
S30D0000010C0000000000000000E5
S3150000011410B5054C237833B9044B13B10448AFF337
S3150000012400800123237010BDC004002000000000DD
S3150000013484A2000108B5034B1BB103490348AFF37E
S31500000144008008BD00000000C404002084A2000151
S3150000015400BE704708B500F035F801F035FDFEE73E
S31500000164F8B5174F05463E68A6B17C6806EB460609
S3150000017404EB860602E00C34B4420BD0637AAB423D
S31500000184F9D1D4E900020021121A0C3402F0A6FEB9
S31500000194B442F3D1BE6896B1FC6804EB061602E0DD
S315000001A41034A6420BD0637BAB42F9D1D4E90002EA
S315000001B4A168121A103402F0F2FEA642F3D1F8BD79
S315000001C4503D00004FF47001274B284A70B50020BB
S315000001D4C3F888109A6002F035FC00F069F8012033
S315000001E402F030FC224B83F30A880020FFF7B8FFA5
S315000001F400F048F800F008F9032000F045FA00235F
S315000002044FF6FF701B4903F1080201330C2B21F84A
S315000002141200F8D10024032000F006FA032000F0AF
S3150000022433FA154B03205C609C60DC601C6100F0B3
S31500000234FBF9022002F006FC0120FFF791FF0F4DA7
S315000002440F4B5B1BA3424FEAA30605DD55F8043B9F
S3150000025401349847A642F9DC00F09AF9BDE87040EB
S31500000264002000F029B900BF00ED00E00000000006
S31500000274A0000020000D084000000E409446000037
S3150000028498460000064B074993F826001A6A51F867
S315000002942030C2F302620449D3400B60704700BFAA
S315000002A400E00140A0040020DC040020704700BFE9
S315000002B4F8B54AF2035001234549464AA1F8FE031C
S315000002C4A2F80431B2F804319BB2002BFAD1012012
S315000002D44FF400454FF0090C3F4CDFF818E13F4E50
S315000002E4C4F804E0DFF810E13949C4F80CE03C4FE7
S315000002F4A2F800013B4AB06030606261276091F861
S315000003042620A5602561086A54F82220364EC0F3DB
S315000003140260C240326081F8133481F8A2C091F8B9
S3150000032480341BB991F8813499074CD0284D95F83F
S315000003348034002B3CD00022254B83F8812483F89B
S3150000034480240023224981F8323091F83C301A0780
S31500000354FBD543F2021000231D4A088581F82A3092
S3150000036492F83C309B06FBD50320052319494FF030
S31500000374F10C81F81C011D49116282F8263092F8AD
S315000003842630156A54F82300C5F302640123E040BD
S315000003943060F0244FF42540154981F80CC00B72E7
S315000003A40C7382F8303082F85230A2F8FE03F8BD9E
S315000003B40121C82085F8801400F086F895F8803469
S315000003C4012BFBD1B7E74FF47A70FFF76FFFB8E75D
S315000003D400E0014000C00140A0040020007000407D
S315000003E4002D310100C2EB0BDC0400202112012098
S315000003F40020004000127A0000366E01014B53F8CB
S3150000040420007047A004002038B50025284C01219F
S31500000414C82084F8285000F057F884F8245094F83B
S315000004242430002BFBD194F82430214943F00203F5
S3150000043484F8243091F82430C3F340009B07F9D4A0
S315000004441B4A81F8220092F8223003F0FF00002BA9
S31500000454F9D192F84030164960F3C71382F8403058
S3150000046491F84030DB09FBD191F84200104A63F35E
S31500000474C71081F8420092F84230DB09FBD192F8AA
S3150000048444000B4963F3C71082F8440091F84430E2
S31500000494C3F3C014DB09F9D1012000F0F5F8054BCC
S315000004A4012083F8BB44BDE8384000F0BDB800BF66
S315000004B40030084000E00140704700BFA0F1010091
S315000004C40028FBD1704700BF1F4B204A1B6800FB66
S315000004D401F1934213D302F1854202F5071203F5A3
S315000004E4741302F6834203F6FF03A2FB03231B0DD8
S315000004F4A3FB01314FF0FF30F9B1FFF7DFBF4FF433
S315000005047A7210B4A1FB02C41148B0FBF3F34FF0A6
S31500000514FF3044B9BCFBF3FC4FEA9C0088B15DF89C
S31500000524044BFFF7CBBF9B00B1FBF3F1A1FB021217
S31500000534002AF4D1084620B1F1E71846002BDCD195
S3150000054470475DF8044B7047DC04002000127A0003
S3150000055400CA9A3B70B500240B4B0C4EB3F820210D
S31500000564B3F84051ADB2154025FA04F3DB0704D5C0
S3150000057456F82430E0B203B198470134102CF3D175
S31500000584014BA3F8305170BD00600040E004002028
S31500000594F0B5032085B000F077F800276FF0FF016F
S315000005A44FF0FF361C4C1D4B224699644FF0010C4C
S315000005B43B46CDE9016604F12605039632F8021F8F
S315000005C40CFA03F0013311B1012726EA0006AA4208
S315000005D4F4D1F7B10196124B104A03201667C3F8FB
S315000005E4806202995167C3F8841203999167C3F82C
S315000005F4881200F019F800230A4834F8022F03F190
S31500000604C00101330AB140F82120A542F5D105B055
S31500000614F0BD4FF0FF36DEE7DE3F0000008000400D
S3150000062400E100E000600040EFF31081012383F352
S315000006341088124B33F8102092B22AB133F81020E6
S31500000644013A92B223F8102033F810309BB293B9D2
S315000006540B4A10B4B2F8FE330A4C9BB234F81000BD
S3150000066443F4254323EA0003A2F8FE3381F31088FA
S315000006745DF8044B704781F31088704770050020BD
S3150000068400E00140443D000030B4EFF31081012343
S3150000069483F310880E4A32F810309BB26BB90D4CB6
S315000006A40D4DB4F8FE3335F810C09BB243EA0C0383
S315000006B443F425439BB2A4F8FE3332F810300133D9
S315000006C49BB222F8103081F3108830BC704700BF0B
S315000006D47005002000E00140443D000008B502F02A
S315000006E44BFC0C2203464FF0FF301A6008BD00BFD6
S315000006F4F0B50346002591F902C01B4C4FEA8C0263
S3150000070402F1804280F804C002F5C042D1E90270C9
S31500000714D2F80063C2F80053C3E9027091F800E00E
S31500000724BCF1000F83F805E004F80E500D79C87883
S3150000073440EA05104D7940EAC510C0B204F80E002F
S31500000744C2F800630BDB4A78084812010CF16041D9
S31500000754D2B201F5614181F8002340F82C30044AF5
S3150000076400201A60F0BD00BF006000402405002090
S315000007745543490090F904200E4B02F1C00153F889
S31500000784210020F4803043F8210053F82130BFF3D0
S315000007945F8F012153099B0002F01F0203F160439E
S315000007A403F5614301FA02F2C3F880211A600020BE
S315000007B4704700BF00600040012110B490F9043076
S315000007C4084C5A0903F01F03994002F1200344F828
S315000007D42310BFF34F8FBFF36F8F00205DF8044BD8
S315000007E4704700BF00E100E003460020C3E902129F
S315000007F4704700BF90F904200346002A19DB012044
S3150000080410B451090C4C02F01F02203100FA02F216
S3150000081444F82120BFF34F8FBFF36F8F0020074AA0
S3150000082493F904105DF8044B42F821000020186087
S31500000834704700201860704700E100E0240500209E
S3150000084430B583B0EFF30384174B103C64B253F80E
S315000008542410164A48798D68135C03F00303032BAE
S3150000086410D0C03452F8243023F4803342F82430B4
S3150000087452F8243025B1CB68CDE900306846A84744
S3150000088403B030BD25B1CB68CDE900306846A84732
S31500000894064BC03453F8242022F4803243F8242033
S315000008A453F8243003B030BD240500200060004016
S315000008B40022034610461A60704700BF0B0A10B4A4
S315000008C41B01064C53FA81F154F821300020C3F37E
S315000008D440035DF8044B1370704700BF00080840DE
S315000008E4090A490101F1804101F500214B68002004
S315000008F413807047090A490123EA020C01F1804179
S315000009041A4001F5002142EA0C4200208A60704731
S315000009140120CBB2984080B202B900040B0A5B01F5
S3150000092403F1804303F5002398600020704700BF5D
S31500000934090A490101F1804101F5002110B40C684E
S3150000094402EA030C4CEA040C62EA030202EA0C0211
S3150000095400205DF8044B0A60704700BF090A49018C
S3150000096401F1804101F500214B680020C3F30F43D8
S3150000097413807047012310B44FEA112C4FEA4C1C24
S315000009840CF1804C0CF5002CDCF80440C9B28B4009
S3150000099499B203EA14435B1AB3FA83F35B090020A2
S315000009A45DF8044B13707047090A490123EA020CE7
S315000009B401F180411A4001F5002142EA0C4200206F
S315000009C4CA60704701200B0A5B0103F1804303F5FB
S315000009D40023C9B210B400FA01F1DC68012A4FEA17
S315000009E401400DBF84438C4304430C430020DC6068
S315000009F45DF8044B704700BF2DE9F84F0388DBB15F
S31500000A0482464FF0000B4FF00109DFF8D080002436
S31500000A14304D4FEACB07DAF8043035F8022BD919F2
S31500000A24898891420AD00134032CF4D1BAF80030F3
S31500000A340BF1010B5B45EAD8BDE8F88FDB5909FADF
S31500000A4404F603F0B853B3F1807FF6B298F8BB34DA
S31500000A5413D0334231D1204A04F1200612F816305D
S31500000A64DB09E0D012F81630012123F08003C820F8
S31500000A7402F81630FFF728FDD5E7334211D0164A9F
S31500000A8404F1200112F81130DB09CCD112F811302F
S31500000A94C82043F0800302F811300121FFF714FD4A
S31500000AA4C1E70120FFF7F0FD98F8BB34012033437A
S31500000AB488F8BB34FFF7B8FDE1E70120FFF7E4FD52
S31500000AC498F8BB34012023EA060388F8BB34FFF701
S31500000AD4ABFDC0E73C3E00000030084000E00140AA
S31500000AE4F8B50446FFF788FFEFF31082012383F37A
S31500000AF41088234F3B681BB92249CB704023CB7027
S31500000B043B6801333B6082F3108823882BB361680A
S31500000B141D4C01EBC30E06E01B01083113448E4540
S31500000B2444F8230019D008688A88C5034FEA1223BB
S31500000B34D2B2F1D502EB031C54F82C601B01083128
S31500000B4420F4803526F4803613448E4544F82C6010
S31500000B5444F82C5044F82300E5D1EFF31082012326
S31500000B6483F310883B6813B13B68013B3B603B68E9
S31500000B741BB980200349CB70C87082F31088F8BD76
S31500000B8420050020000D08400008084008B5034B66
S31500000B9403600846FFF7A4FF002008BD54524F50D7
S31500000BA408B50846FFF79CFF002008BD70B501266E
S31500000BB486B001AB03A80C4615460493ADF80C6049
S31500000BC4ADF808100192FFF717FFEFF3108286F3D2
S31500000BD410881D490B681BB940261C48C370C67093
S31500000BE40B6801330B6082F31088EA034FEA14237F
S31500000BF4E4B219D41B01164A234442F82350EFF3F6
S31500000C041082012383F310880B6813B10B68013B30
S31500000C140B600B681BB980200C49CB70C87082F33B
S31500000C241088002006B070BD094A04EB031052F880
S31500000C3420601B0126F4803642F8206025F48036B5
S31500000C4442F82060D7E700BF20050020000D0840C9
S31500000C540008084030B5836B83B004460A466D46E7
S31500000C648BB193E80300CDE90001E16B1A711846D4
S31500000C74626B19609047A36B1BB195E8030083E888
S31500000C84030003B030BD6B46EFE700BF10B4EFF3CB
S31500000C940383103B4D4A5BB2C03352F8231021F450
S31500000CA4803142F8231052F82330EFF30383484A85
S31500000CB4103B5BB252F823301A69117BC1F3000C66
S31500000CC4C9072AD493F82C1093F82A00884212D024
S31500000CD493F82D0008B102294DD093F8280001316C
S31500000CE4D07093F82B2083F82C10013A83F82B202C
S31500000CF45DF8044B7047196A002933D093F82D0028
S31500000D0400283ED1586A9C690139245C0130C3E944
S31500000D140810D4705DF8044B704793F82D10B9B1E0
S31500000D2493F83110A1B9507999695A6A885493F89D
S31500000D342E40D3E9081201390132C3E908121869B1
S31500000D44002C3AD052210122C17283F83020CFE719
S31500000D540024012054211C6283F82F005DF8044B03
S31500000D64D172704793F82E1041B152200121D072EE
S31500000D7483F83010BCE75223D372B9E75423D372F5
S31500000D84B6E793F8310040B1012983F831C017D092
S31500000D94FF2482F80AC0D470BCE7507999695A6A6C
S31500000DA48854D3E90812013901320129C3E908122A
S31500000DB41A6905D0FF24D470ACE75423C37297E7AD
S31500000DC42023FF249372D470A4E700BF0060004080
S31500000DD42405002010B5EFF30383304A103B5BB2C1
S31500000DE452F823000269D37A23F00803D37290F8E9
S31500000DF42F30002B3ED190F82A1003F0FF0C90F808
S31500000E042C3099421BD1036A53B990F82D1090F8EF
S31500000E143040C1F10301C9B2CCB3D372FFF71AFF54
S31500000E24EFF30383103B1E4A5BB2C03352F8231020
S31500000E3421F4803142F8231052F8233010BDFBB15F
S31500000E4490F82D4004F0FF0134B1022B12BF614625
S31500000E5490F8291041F001014FF0000C82F80BC004
S31500000E64D17090F82B20013380F82C30531E80F873
S31500000E742B30D5E7F0230121D372FFF7EBFECFE742
S31500000E8401290CBF90F8281090F82910E4E7F02304
S31500000E94D372937803F0CF039370BFE72405002041
S31500000EA40060004030B5436A85B004468C4601AD07
S31500000EB4ABB193E8070085E8070062681846117825
S31500000EC483F804C0A26A19609A60236A9847636A21
S31500000ED41BB195E8070083E8070005B030BD2B4633
S31500000EE4EBE700BF10B4EFF30383103B164A5BB283
S31500000EF403F1C00152F8210020F4803042F82100A9
S31500000F0452F82120114A52F823305A69D9698A4283
S31500000F1406D2D3E90240A8B1805CE07001325A617E
S31500000F248A4202D05DF8044B70471A69002AF9D147
S31500000F349A685DF8044B937803F07B0343F004034B
S31500000F4493707047E070E9E70060004024050020D4
S31500000F5410B4EFF30383103B194A5BB203F1C001EB
S31500000F6452F8210020F4803042F8210052F8212062
S31500000F74144A52F823305969DA69914206D2D3E900
S31500000F840240D0B1405CE0700131596199699142E7
S31500000F9407D298681A6940794C1C9C615054D3E96D
S31500000FA40612914206D19A68937803F03B0343F004
S31500000FB4040393705DF8044B7047E070E4E700BFE8
S31500000FC4006000402405002010B5EFF303830C4AAB
S31500000FD4103B5CB252F8240001218268937803F036
S31500000FE403039370FFF75EFF064A04F1C00352F849
S31500000FF4231021F4803142F8231052F8233010BD17
S31500001004240500200060004010B5EFF303834FF081
S31500001014840C0E4A103B5CB252F824000421836807
S315000010249A7802F003029A701A7983F804C0FFF7DB
S3150000103439FF074A04F1C00352F8231021F4803122
S3150000104442F8231052F8233010BD00BF24050020B7
S315000010540060004003460020012110B41A6A58605B
S315000010649070DA692C4C92F905204FEA521C02F072
S315000010741F0201FA02F20CF1200C44F82C20BFF3F3
S315000010844F8FBFF36F8FDA6992F90B204FEA521C28
S3150000109402F01F0201FA02F20CF1200C44F82C2093
S315000010A4BFF34F8FBFF36F8FDA6992F907204FEAC8
S315000010B4521C02F01F0201FA02F20CF1200C44F851
S315000010C42C20BFF34F8FBFF36F8FDA6992F9092093
S315000010D44FEA521C02F01F0201FA02F20CF1200C34
S315000010E444F82C20BFF34F8FBFF36F8FEFF31084B8
S315000010F481F31088DB69094A93F800C04FF0004376
S31500001104516823FA0CF30B435360536884F3108835
S315000011145DF8044B704700BF00E100E00040084062
S3150000112403460020C3E90512704700BF10B4046AE1
S31500001134A37803F07B03A370837803F00303D21A26
S315000011440B440261A278C360837842F0800203F004
S315000011540303022BA27005D00B780020E3705DF820
S31500001164044B70470B88002043F47E43E3815DF80B
S31500001174044B704784460020CCE90A32CCF824108C
S31500001184704700BF012310B5C4690A7894F800C0FB
S3150000119403FA0CF313F0060F01D013071ED402F062
S315000011A45C0E0022036A93F802C00CF00B049C70D8
S315000011B4C26010468A784C785A701A780CF07B0C08
S315000011C464F301021A70CA789A74DA7902F0A302F7
S315000011D442EA0E02DA7183F802C010BD032010BD84
S315000011E44FF0FF330020C1E90033704703468807F8
S315000011F410D510B40024186AC907827802F07B025D
S31500001204827020461C6102D5002210469A615DF860
S31500001214044B7047CA0748BF00224FF0060044BF7C
S315000012249A611046704700BF0346002210B49C69B9
S3150000123410460C605DF8044B9A61704706207047AF
S31500001244F0B5846A85B005460F4694466E46B4B139
S3150000125494E80F008DE80F00EB6920461B7884F8AC
S3150000126404C02360EB6AC4E902736B6A9847AC6AEC
S315000012741CB196E80F0084E80F0005B0F0BD6C467B
S31500001284EAE700BF062070472DE9F04101240A78F9
S315000012940346944014F0060F05D0C86940680078E8
S315000012A4000700F1B081002002F5800202F58C529D
S315000012B418701202C3E907124A6901255A628A693B
S315000012C49E78C3E90A024A78D04CB2FA82F25209ED
S315000012D4524202F003026A4062F301069E7091F9DB
S315000012E40B6091F80AC0720906F01F07203205FA4E
S315000012F407F744F82270BFF34F8FBFF36F8FC44ACA
S3150000130406F1C00752F827E060F3104E42F827E0D2
S3150000131452F82770BF4F4FEA0C1C04EB060E5FFA17
S315000013248CFC8EF800C347F8263091F9056091F8D5
S3150000133404C04FEA561E06F01F080EF1200E05FAE9
S3150000134408F844F82E80BFF34F8FBFF36F8F06F172
S31500001354C00E52F82E8060F3104842F82E8052F8E0
S315000013642EE04FEA0C1C04EB060E5FFA8CFC8EF89A
S3150000137400C347F8263091F9076091F806C04FEA92
S31500001384561E06F01F080EF1200E05FA08F844F85A
S315000013942E80BFF34F8FBFF36F8F06F1C00E52F846
S315000013A42E8060F3104842F82E8052F82EE04FEA61
S315000013B40C1C04EB060E5FFA8CFC8EF800C347F88F
S315000013C4263091F9096091F808C04FEA561E06F0D6
S315000013D41F080EF1200E05FA08F844F82E80BFF314
S315000013E44F8FBFF36F8F06F1C00E52F82E8060F355
S315000013F4104842F82E8052F82E204FEA0C12D2B230
S31500001404344484F8002347F82630EFF3108785F335
S3150000141410884FF000460C787F4AE640546824EA68
S3150000142406045460526887F310881A6A40F2F93742
S315000014349070107150729072D07250830878CC6993
S31500001444854040F2F930054218BF40204FF00605AA
S3150000145418BFD074012015770D788E78A8403842CD
S3150000146418BF4FF478404D78C97818BF9082C900E8
S31500001474032D41EA061100F0C280002D0CBFE220C4
S31500001484F220C9B211709071217B08290EBF0A217E
S31500001494490001F0020151736178A078C901400145
S315000014A400F02000C9B201430020107294F800C075
S315000014B4ACF10200012840F29880C9B2D17161688A
S315000014C488784D785070107865F301001070C878EC
S315000014D409789074D07901F05C0100F0A30001430F
S315000014E4D1710020D96918619861D860586191F961
S315000014F40550474A05F1C00152F8216060F31046D1
S3150000150442F8216052F82110BFF35F8F0126690962
S31500001514890005F01F0501F1604101F5614106FAF4
S3150000152405F5C1F880510D60D96991F90B5005F1A3
S31500001534C00152F8217060F3104742F8217052F846
S315000015442110BFF35F8F6909890005F01F0501F1BA
S31500001554604106FA05F501F56141C1F880510D6057
S31500001564D96991F907E00EF1C00152F8215060F3F0
S31500001574104542F8215052F82110BFF35F8F4FEA0D
S315000015845E1189000EF01F0E01F1604106FA0EF598
S3150000159401F56141C1F880510D60D96991F90910CD
S315000015A401F1C00552F8257060F3104742F8257022
S315000015B452F82520BFF35F8F4A09920001F01F01FC
S315000015C402F160428E4002F56142C2F88061166003
S315000015D41A6A0CF0030C4CF0700C618982F802C094
S315000015E40E4A19815A60BDE8F081FF20BCF1020F52
S315000015F408BF41F01001C9B25070D17171E7F220F1
S3150000160441F040013DE70320BDE8F08100E100E040
S31500001614006000402405002000400840554943531B
S3150000162410B4EFF30383103B214A5BB203F1C0010C
S3150000163452F8210020F4803042F8210052F821208B
S315000016441C4A52F82300C269036912691AB11BB114
S315000016545DF8044B704783B9D0E9082400219378D8
S3150000166403F07F0343F004039370C160002CEFD0B2
S3150000167480225DF8044BFFF7E3BD8278046A02F02A
S31500001684030CBCF1020FC1680AD091F800C084F8BB
S3150000169403C002F003029B1A1144C0E90313D6E700
S315000016A4B1F800C04CF47E4CA4F80EC0F1E700BFBC
S315000016B4006000402405002010B582B0EFF30383D8
S315000016C4103B1F4A5BB203F1C00152F8210020F41B
S315000016D4803042F8210052F821201A4A52F8234059
S315000016E4A278236A02F0030102290CBF198A5979E8
S315000016F4A3690CBFC1F30801C9B2019143B9636A76
S31500001704B3B10422204602B0BDE81040FFF798BDED
S3150000171402F0030201A9606901F041FCD4E9052144
S31500001724A37803F003031A44C91AC4E9052109B1CD
S3150000173402B010BD636A002BFAD00122E2E700BFB3
S31500001744006000402405002010B5EFF303830E4A21
S31500001754103B5CB252F82400D0E90821937803F0D8
S315000017647B03937019B102220021FFF769FD074A32
S3150000177404F1C00352F8231021F4803142F82310F7
S3150000178452F8233010BD00BF24050020006000403D
S3150000179410B5EFF303831A4A103B5CB252F82400E7
S315000017A48278036A02F00302022A0CBF198A597965
S315000017B493F804C00CBFC1F30801C9B21CF0100FA2
S315000017C40CF0380206D093F81CC01CF0010F08BFB9
S315000017D442F0400293F804C00CF0C70C83F804C02E
S315000017E4436A0BB1FFF72CFD064A04F1C00352F815
S315000017F4231021F4803142F8231052F8233010BD0F
S31500001804240500200060004042684369517A21B9EA
S31500001814126A12B1127B012A24D0C269511E99425E
S315000018240FD09A420CD08168C26832B190F820C0B9
S31500001834BCF10F0F0DD952F823204A6001334361DE
S31500001844704781680A8A22F080021204120C0A8206
S31500001854EAE7BCF1070F95BFD25C32F813200A7190
S315000018648A80EBE78268D2789206E9D5D5E700BF8D
S3150000187430B5836A85B004468C4601ADABB193E8B6
S31500001884070085E8070062681846117883F804C0E3
S31500001894E26A19609A60636A9847A36A1BB195E87D
S315000018A4070083E8070005B030BD2B46EBE700BF11
S315000018B410B4EFF30383103B214A5BB203F1C0017A
S315000018C452F8210020F4803042F8210052F82120F9
S315000018D41C4A52F82330D3E906218A421CD01869DF
S315000018E49C6838B393F820C0BCF10F0F0AD961681D
S315000018F440F82210D96901328A429A610CD05DF807
S31500001904044B7047BCF1070F16D821798154D96965
S3150000191401328A429A61F2D15B6893F9033001225B
S3150000192403F01F0008495B09824041F823205DF853
S31500001934044B70476068DEE7A48820F81240DAE7B3
S31500001944006000402405002000E100E0EFF303837B
S31500001954103B254A5BB203F1C00152F8210020F482
S31500001964803042F8210052F82110204951F8230012
S3150000197441680B6A13B15B78012B01D0FFF744BFB2
S3150000198410B4C46904F1FF3C446964450FD00A6984
S315000019944AB191F90320164902F01F0C03FA0CF31D
S315000019A4520941F822305DF8044BFFF72DBF91F937
S315000019B4031001F1C00C52F82C4024F4803442F890
S315000019C42C4052F82C20BFF35F8F4A09920001F095
S315000019D41F0102F1604203FA01F102F56142C2F805
S315000019E480111160DFE700BF00600040240500207D
S315000019F400E100E030B4EFF30382103A344953B205
S31500001A0403F1C00051F8204002F0FF0224F48034B0
S31500001A1441F8204051F820102E4951F823008168DE
S31500001A24C978890705D54168497A012901D030BCAE
S31500001A3470470121284C5B0902F01F02203301FA8A
S31500001A4402F244F82320BFF34F8FBFF36F8F43682E
S31500001A5493F90230002B32DB5A0903F01F0301FA13
S31500001A6403F3203244F82230BFF34F8FBFF36F8F56
S31500001A74D0E90124237892F9022023F04003002AB6
S31500001A84237018DB124B02F1C00453F8245025F4DA
S31500001A94803543F8245053F82430BFF35F8F53093D
S31500001AA49B0002F01F0203F16043914003F561437A
S31500001AB4C3F880111960012130BCFFF7D9BE8268D2
S31500001AC4012130BC137823F040031370FFF7D0BE16
S31500001AD4006000402405002000E100E070B5EFF34B
S31500001AE40383364A103B5CB252F82460736893F958
S31500001AF40230002B49DB012031495A0903F01F0348
S31500001B04203200FA03F341F82230BFF34F8FBFF3BC
S31500001B146F8FD6E9013293F902301178002B21F048
S31500001B244001117019DB274A03F1C00152F8215014
S31500001B3425F4803542F8215052F82120BFF35F8FF7
S31500001B4403F01F025B099B0003F16043904003F519
S31500001B546143C3F880011860B2680021D378D1705C
S31500001B641A07DDB224D4EB0715D405F01405142D99
S31500001B7419D0144A04F1C00352F8231021F4803119
S31500001B8442F8231052F8233070BDB268137823F05C
S31500001B9440031370E1E70421304605F01405FFF70E
S31500001BA467FE142DE5D108213046FFF761FEE0E714
S31500001BB405213046FFF75CFED5E700BF240500206B
S31500001BC400E100E00060004008B500F0B1FE00202E
S31500001BD408BD00BF0346406810B49C68421C94428A
S31500001BE408BF00221C68944206D0DC6821540020F9
S31500001BF45A605DF8044B70474FF0FF30F9E700BFB9
S31500001C04D0E900329A420CD0C268D35C0B700368E8
S31500001C14826801339342036004BF002303600020FB
S31500001C2470474FF0FF30704700200021402210B467
S31500001C34064B074CC3E90001DC60064C9A601C6144
S31500001C44054C5C615DF8044B704700BFF805002045
S31500001C5410060020D91B0000051C000010B5044620
S31500001C64006882B0C0B1FF230D498DF8073001F03A
S31500001C748CF988B90B4B4FF480619A68186893699C
S31500001C840DF10702984718B99DF9070002B010BD77
S31500001C942168054800F0A6FF4FF0FF3002B010BDE2
S31500001CA408400000A43E00001040000038B5044679
S31500001CB4006898B10D460B4901F067F940B90A4B23
S31500001CC44FF480619A681868D369EAB2984708B9EC
S31500001CD4002038BD2168054800F084FF4FF0FF302E
S31500001CE438BD00BF08400000A43E000010400000BC
S31500001CF470B50568002D2ED004461D49284601F00E
S31500001D0444F980B91B4B9D681E682A683046596899
S31500001D14904718BB30466B6898472168C0B9164887
S31500001D2400F060FF25682846144901F02EF940B9F1
S31500001D34134BD3E901121868126890470E2812D083
S31500001D4408B1002070BD21680E4800F04BFFF8E78B
S31500001D540D4800F047FF4FF0FF3070BD21680B4877
S31500001D6400F040FFF7E70A4800F0A4FFF3E700BFDE
S31500001D7440400000B03E00006840000008400000FB
S31500001D84A43E0000D4400000884000004840000003
S31500001D94A840000010B50849044601F0F6F840B121
S31500001DA42046064901F0F1F808B9054810BD00209F
S31500001DB410BD044810BD00BF4040000008400000AC
S31500001DC40C0000201C00002008B54368062B00D038
S31500001DD408BD00F031FE024B6430186008BD00BF38
S31500001DE450060020084B1B68834200D0704710B58C
S31500001DF4064C07482178836849B298472378B3FA92
S31500001E0483F35B09237010BD5006002008000020F0
S31500001E140C0000200379022B07D0042B00D0704756
S31500001E24044B017A18461B6918470122024B1A60B3
S31500001E34704700BFF8050020580600200379022BDE
S31500001E4407D0042B00D07047044B017A18461B694F
S31500001E5418470122024B1A60704700BFF80500209C
S31500001E6454060020C9B12DE9F843054600270B4B5B
S31500001E740B4CD3F80890D3F8008046180122294663
S31500001E844046D9F8083098472368002BFCD0013522
S31500001E94B5422760F2D1BDE8F8837047143F0000CD
S31500001EA4540600202DE9F047B2F1000916DD8A46F2
S31500001EB400260C4B0C4CD3F808801F6801EB09056F
S31500001EC4012251463846D8F8083098472368002B33
S31500001ED4FCD00AF1010AAA452660F1D14846BDE8BC
S31500001EE4F08700BFD43E0000580600202DE9F04FCD
S31500001EF4B2F1000B85B028DD0D4600261C4BDFF839
S31500001F0478A0D3F808801F681A4C01EB0B095046D9
S31500001F14DAF814300DF10E0198470028F7D19DF830
S31500001F240E3001222B7029463846D8F80830019520
S31500001F3498472368002BFCD0019B266093F9003058
S31500001F4401350D2B05D0A945E1D1584605B0BDE8AC
S31500001F54F08F0A2301228DF80F303846D8F808305E
S31500001F640DF10F0198472368002BFCD02660EAE7A1
S31500001F74D43E000058060020F805002008B500F0FD
S31500001F84FBFF092203464FF0FF301A6008BD00BF6D
S31500001F94002070474FF4005300204B60704700BF89
S31500001FA4012070472DE9F04100250F460D4C82B003
S31500001FB4561E01F1FF3801E0AE420CDC204663698F
S31500001FC40DF1070198470028F6D0002328467B55D3
S31500001FD402B0BDE8F0819DF80730013508F8013FED
S31500001FE4ECE700BFF80500202DE9F04782B00E4665
S31500001FF4074600F0E1FF642303FB06F626B300243C
S3150000200480462546A146DFF858A007E09DF8032040
S315000020143B579A421DD00446B54215D25046DAF8CB
S3150000202414300DF1030198470028EFD0CDF8049041
S31500002034019B632B05DC019B01330193019B632BFD
S31500002044F9DD0135B542E9D34FF0FF3002B0BDE802
S31500002054F0870134A045DFD102B0BDE8F08700BFA8
S31500002064F805002010B504460B48214600F0BAFDD9
S3150000207403210A48FFF7F6FE204600F09DFF0146BD
S315000020842046FFF7EFFE06480221FFF7EBFEBDE808
S315000020941040044800F00EBEF8400000084100005D
S315000020A40C41000010410000F0B504460126A5B01D
S315000020B40B46154680213F4A04A8267600F002FE08
S315000020C404A8FFF7CFFF4FF47A713B48FFF78CFF64
S315000020D400286AD180212B46384A04A800F0F2FD74
S315000020E404A8FFF7BFFF4FF47A713348FFF77CFF6C
S315000020F400285AD13248FFF7B5FF43F698212E48F7
S31500002104FFF772FF054600284FD12E48FFF7AAFFB6
S315000021144FF47A712848FFF767FF02952A4A029B13
S31500002124934205DC029B01330293029B9342F9DD41
S315000021342648FFF797FF4FF47A711F48FFF754FFBD
S3150000214420B102232846237625B0F0BD0390039BD5
S315000021541F4AC4F819009342C4F81D00C4F82100AC
S31500002164C4F8250005DC039B01330393039B9342C8
S31500002174F9DD0027174E304673690DF107019847BC
S315000021840028DED19DF80730A3F13002092AF2D8DF
S315000021940E2FF0D8E2195376304673690DF1070114
S315000021A4013798470028EDD0CBE705234FF0FF35DC
S315000021B4C8E700BF20410000284100002C41000070
S315000021C438410000404100003F420F0048410000F2
S315000021D41FA10700F805002003232DE9F041064658
S315000021E4DFF86881A4B003764046D8F8143004A911
S315000021F498470028F8D000230193534A019B934241
S3150000220405DC019B01330193019B9342F9DD4F48A1
S31500002214D8F8143004A998470028F8D0002741F2CA
S3150000222487344B4800F046FD4A48FFF71BFF0297E8
S31500002234029BA342D8BF3D460DDD72E007F1900331
S315000022446B4413F8842C03F8800C2B2A1ED00295B9
S31500002254029BA34265DC3D48D8F814300DF1030116
S31500002264984700284BD17E2FE8DC9DF803307A1C72
S315000022746F443B7402F190036B44032A174603F838
S31500002284800CE4DD13F8842C2B2AE0D113F8832C7C
S315000022944F2ADCD113F8822C4B2AD8D113F8813C6F
S315000022A43D2BD4D12C4800F005FD7E2F12DC04AB67
S315000022B4DC1907E09DF8033001377F2F237004F8FB
S315000022C4010F07D0D8F8143020480DF103019847C0
S315000022D40028EFD0214804A900F084FC04AA17447E
S315000022E412F8013B303BD9B209292AD9BA42F7D1AF
S315000022F4F16A1B4800F076FC0423337618E0039554
S31500002304039BB3F5FA7F06DA039B01330393039B1E
S31500002314B3F5FA7FF8DB029B01330293029BA342D7
S3150000232499DD104804A900F05DFC337E042B03D12B
S31500002334002024B0BDE8F08105234FF0FF3033764A
S31500002344F7E71946F362D4E71FA10700F805002052
S315000023545041000078410000B8410000E04100000F
S31500002364FC4100009C410000F0B55F4C87B0A168B9
S3150000237406465E4800F036FC5D4800F09BFC0023F0
S3150000238401935C4A019B934205DC019B0133019353
S31500002394019B9342F9DD5448636905A998470028CF
S315000023A4F9D0554800F086FC5448FFF75BFE00233D
S315000023B402930393524F039BBB421DDC0DF10305AD
S315000023C4294649486369984780B99DF803104D48E2
S315000023D4A1F120035E2B94BF0A463F2200F002FCC3
S315000023E4029B01330293029B642B05DC039B01339E
S315000023F40393039BBB42E3DD0299434800F0F2FBDF
S31500002404029B13B1029B042B34DC3748636905A98C
S3150000241498470028F9D03D4800F04CFC3C48FFF7AB
S3150000242421FE002302930493354F049BBB421DDC1B
S315000024340DF1030529462C486369984780B99DF830
S3150000244403103048A1F120035E2B94BF0A463F22B5
S3150000245400F0C8FB029B01330293029B642B05DC4C
S31500002464049B01330493049BBB42E3DD0299294890
S3150000247400F0B8FB1C48636905A998470028F9D001
S31500002484254800F017FC2548FFF7ECFD00230293CE
S3150000249405931B4F059BBB421DDC0DF10305294625
S315000024A411486369984780B99DF803101548A1F14E
S315000024B420035E2B94BF0A463F2200F093FB029B47
S315000024C401330293029B642B05DC059B01330593C0
S315000024D4059BBB42E3DD0299114800F083FB002013
S315000024E4307607B0F0BD00BFF805002014420000A6
S315000024F438420000BFC62D0060420000784200004A
S315000025047F841E007C42000088420000AC4200002A
S31500002514C4420000C8420000EC4200000843000028
S31500002524104300002DE9F04F037EA9B0042B40F0C0
S31500002534308180460F469146974C2046636908A928
S3150000254498470028F9D000230293029B934A9342AA
S3150000255405DC029B01330293029B9342F9DD8E480C
S31500002564636908A998470028F9D08D4800F0A2FBB2
S315000025748C48FFF777FD00230393039AB2F5FA6FAD
S3150000258431DA9A461E460DF1070513E0BAF17E0FBD
S3150000259407DC9DF807200DEB0A0383F820200AF1D7
S315000025A4010A0DEB0A03039683F82060039BB3F537
S315000025B4FA6F18DA29467848636998470028E5D0FF
S315000025C40496049BB3F5FA7F06DA049B013304935D
S315000025D4049BB3F5FA7FF8DB039B01330393039B58
S315000025E4B3F5FA6FE6DB704808A900F0FBFA6A480F
S315000025F4636907A998470028F9D000230593059B2A
S315000026046A4A934205DC059B01330593059B934275
S31500002614F9DD4946D8F82C20654800F0E3FAD8F8E5
S315000026242C30CB46002B00F090806248FFF71AFD51
S3150000263400230393039AB2F5FA6F36DA9A461E46D6
S315000026440DF107050DE00AF1A0036B4413F8842C81
S3150000265403F8800C2B2A20D00396039BB3F5FA6F5C
S3150000266423DA29464C4863699847002871D1BAF1A0
S315000026747E0FE8DC9DF807300AF10102EA448AF885
S31500002684203002F1A0036B44032A924603F8800C1F
S31500002694E2DD13F8842C2B2ADED113F8832C4F2A7F
S315000026A4DAD113F8823C4B2BD6D1B9F1000F07D0FF
S315000026B4B944384601210137FFF7D4FB4F45F8D119
S315000026C4002340F6B7370393039ABA4235DC99469A
S315000026D41E460DF107050CE009F1A0036B4413F83F
S315000026E4842C03F8800C2B2A1FD00396039BBB4231
S315000026F423DC2946284863699847002839D1B9F16B
S315000027047E0FE9DC9DF8073009F10102E94489F8F6
S31500002714203002F1A0036B44032A914603F8800C8F
S31500002724E3DD13F8842C2B2ADFD113F8832C4F2AEC
S31500002734DBD113F8823C4B2BD7D11F4808A900F0F4
S3150000274451FA584629B0BDE8F08F1C48FFF78AFCB9
S315000027546EE70696069BB3F5FA7F06DA069B013307
S315000027640693069BB3F5FA7FF8DB039B01330393C9
S3150000277473E70796079BB3F5FA7F06DA079B0133DF
S315000027840793079BB3F5FA7FF8DB039B01330393A7
S31500002794ACE74FF0FF3BD4E7F8050020BFC62D0099
S315000027A43443000048410000584300003F420F00F4
S315000027B474430000B4430000C0430000A843000073
S315000027C4002310B40D490E4C0E4A0F48C4E90012FA
S315000027D40E4A0F49E2600F4A2376C4F81930C4F84A
S315000027E41D30C4F82130C4F82530A060216120468C
S315000027F46261E3625DF8044B704700BFDC4300008E
S31500002804600600206D230000AD200000DD210000DD
S3150000281429250000A91F000030B53448C7B000F0D0
S3150000282449FAFFF7CDFF00285ED04368044698476F
S31500002834002844D12E4800F03DFA2E4800F03AFA1A
S3150000284420462D4A2D49A3689847002831D104F122
S3150000285419012B4800F0C6F92A4800F02BFA41F674
S31500002864907220462849E3689847002836D12748BD
S31500002874274D00F01FFA0FCD0DF1040CACE80F0044
S315000028842D681122ACF80050236901A92046984707
S315000028940146204800F0A6F906A94FF480722046A6
S315000028A463699847011E10DC1B4800F003FA47B021
S315000028B430BD1A4847B0BDE8304000F0FBB91848AF
S315000028C447B0BDE8304000F0F5B906AA154800F057
S315000028D489F9114800F0EEF947B030BD124847B007
S315000028E4BDE8304000F0E6B91048E3E7E4430000F1
S315000028F43C44000050440000704400007C44000046
S31500002904A4440000C4440000E84400001845000044
S3150000291480450000304500006845000084440000FE
S315000029242444000048450000F84400000444000024
S3150000293470B5FFF779F9204BD3E9011218681268CC
S31500002944904701461D4800F04DF91D4BD3E901128D
S3150000295418681268904701461A4800F043F91A4865
S3150000296400F0A8F9194B01229B684FF48061DB69DA
S315000029741748984700F036F8FFF74EFF1548FFF75B
S3150000298409FA78B104461448FFF704FA054670B10B
S3150000299420466368984720B928466B68BDE87040AE
S315000029A4184770BD0D48BDE8704000F083B90C4867
S315000029B4BDE8704000F07EB9D43E000094450000A6
S315000029C4143F0000A8450000BC450000A43E0000DA
S315000029D47C0500204040000008400000D845000067
S315000029E4F0450000052010B5FDF708FD0B4BA3FBD1
S315000029F400239B09013BB3F1807F0DD24FF0E02207
S31500002A044FF0F00C002107240548536180F823C0D9
S31500002A1491610846146110BD012010BDD34D6210AA
S31500002A2400ED00E0034B1A6801321A601868FFF7DC
S31500002A34D9B900BF90060020014B1868704700BF43
S31500002A4490060020022800D0704702490248FEF78B
S31500002A549DB800BF543F00007C050020002310B53C
S31500002A6404468360818119464366C28108228361D4
S31500002A74C0E90033C0E904335C3000F02FFA0D4B93
S31500002A84246263620C4BA3620C4BE3620C4B23631C
S31500002A940C4B9C4206D003F16802944202D0D03318
S31500002AA49C4205D104F15800BDE8104000F06ABA12
S31500002AB410BD00BF352D0000572D00008F2D0000DE
S31500002AC4B52D000094060020024A0349034800F08D
S31500002AD46BB800BF2C0000201D3B00003C0000200A
S31500002AE441680C4B994210B5044601D001F014F824
S31500002AF4A168094B994202D0204601F00DF8E1681D
S31500002B04064B994204D02046BDE8104001F004B8B3
S31500002B1410BD00BF94060020FC06002064070020B8
S31500002B240C4B04210C4A0D4810B51A600022FFF71D
S31500002B3495FF0A4B012209211C4603F16800FFF7A1
S31500002B448DFF022204F1D0001221BDE81040FFF7E8
S31500002B5485BF00BFCC070020CD2A000094060020C4
S31500002B64014800F010BA00BFD5070020014800F064
S31500002B740BBA00BFD507002010B50446FFF7F0FFD7
S31500002B84236A1BB1BDE81040FFF7F0BF044B236274
S31500002B94044B1B68002BF5D1FFF7C2FFF2E700BF19
S31500002BA4E52A0000CC0700202DE9F84307468846AD
S31500002BB414460026D4E90195B9F1010905D524681E
S31500002BC4002CF7D13046BDE8F883AB89012B07D931
S31500002BD4B5F90E30013303D029463846C0470643BB
S31500002BE46835E9E70FB407B5064904AB086853F836
S31500002BF4042B8168019300F065FC03B05DF804EBD7
S31500002C0404B0704738000020036A70B505460E46C6
S31500002C1484680BB9FFF7B0FF636EDB0705D4A3899D
S31500002C24980502D4A06D00F0AEF9A389190702D560
S31500002C342369002B35D12146284600F0FBF880B3E2
S31500002C444FF0FF35636EDA0705D4A3899B0502D4DA
S31500002C54A06D00F099F9284670BD002B04DAA2692C
S31500002C64934217DB0A2915D023685A1C226019706F
S31500002C74A36816F8011F013BA3600029EDD1002BC0
S31500002C8411DA22460A21284600F096F80130D7D0F8
S31500002C940A25D7E72246284600F08EF80130E7D108
S31500002CA4CEE7013EE4E723685A1C22600A221A7022
S31500002CB4EEE70000024B01461868FFF7A5BF00BF08
S31500002CC4380000200CB4194B30B50C1E9DB01D689D
S31500002CD408DA8B234FF0FF302B601DB0BDE830407F
S31500002CE402B070474FF402730290069002A9ADF841
S31500002CF414304FF00003209A28461B9314BF04F1A6
S31500002D04FF332346049307934FF6FF73ADF816304B
S31500002D1421AB019300F0B0FA431CBCBF8B232B609C
S31500002D24002CDAD0029B00221A70D6E73800002065
S31500002D3410B50C46B1F90E1000F0FAF80028ABBF36
S31500002D44636DA3891B1823F48053ACBF6365A38109
S31500002D5410BD2DE9F0411F468B8905460C46DB055F
S31500002D64164605D502230022B1F90E1000F0CEF85E
S31500002D74A3893246B4F90E10284623F48053A3815E
S31500002D843B46BDE8F04100F0E5B810B50C46B1F994
S31500002D940E1000F0BBF8421CB4F90C3015BF606588
S31500002DA423F4805343F48053A38118BFA38110BD39
S31500002DB4B1F90E1000F09AB8F8B50E461446054659
S31500002DC418B1036A0BB9FFF7D7FEA369A360A389F9
S31500002DD41A0701D5236943B92146284600F02AF883
S31500002DE418B14FF0FF373846F8BD2368F6B22269AA
S31500002DF43746981A6369834205DC2146284600F063
S31500002E048BFE0028EDD1A368013BA36023685A1CFE
S31500002E1422601E70431C62699A4204D0A389DB07B0
S31500002E24E1D50A2EDFD12146284600F075FE00289A
S31500002E34D9D0D6E738B5284B05460C46186818B1DC
S31500002E44036A0BB9FFF798FEB4F90C30190721D4BD
S31500002E54DA0607D409222A6043F040034FF0FF3014
S31500002E64A38131E0580712D5616B41B104F14403E3
S31500002E74994202D0284600F0A7F800236363002293
S31500002E84B4F90C30626023F024032269226043F013
S31500002E940803A381226942B903F42073B3F5007FC2
S31500002EA403D02146284600F083FEB4F90C3013F013
S31500002EB401020AD00022A26062695242A26122691A
S31500002EC442B913F08000C7D138BD990758BF62696B
S31500002ED4A260F4E70020F7E7380000200244034626
S31500002EE4934200D1704703F8011BF9E738B5002374
S31500002EF4054D044608462B60FFF740F8431C02D1F3
S31500002F042B6803B1236038BDD007002038B50446CA
S31500002F14064D0846114600222A601A46FFF738F87D
S31500002F24431C02D12B6803B1236038BDD0070020AF
S31500002F3438B50446064D0846114600222A601A464C
S31500002F44FEF7D4FF431C02D12B6803B1236038BDBE
S31500002F54D007002038B50446064D0846114600221F
S31500002F642A601A46FEF79EFF431C02D12B6803B162
S31500002F74236038BDD0070020014B1868704700BF96
S31500002F843800002070477047704710F8012B11F87D
S31500002F94013B012A28BF9A42F7D0D01A70470A4447
S31500002FA4431E914200D1704710B511F8014B91426E
S31500002FB403F8014FF9D110BD034613F8012B002A7B
S31500002FC4FBD1181A0138704738B50546002941D097
S31500002FD451F8043C0C1F002BB8BFE41800F0E0F8CD
S31500002FE41D4A136833B9636014602846BDE8384047
S31500002FF400F0DCB8A34208D9206821188B4201BF2F
S3150000300419685B6809182160EDE71A465B680BB11D
S31500003014A342FAD911685018A0420BD12068014482
S31500003024501811608342E0D118685B680844536005
S315000030341060DAE702D90C232B60D6E72068211842
S315000030448B4202BF19685B680918636008BF216078
S315000030545460CAE738BD00BFDC07002070B50F4EC8
S315000030640C460546316811B900F016FE306021465B
S31500003074284600F011FE431C03D14FF0FF342046CE
S3150000308470BDC41C24F00304A042F8D0211A2846BB
S3150000309400F002FE0130F2D1EFE700BFD8070020AE
S315000030A42DE9F843CD1C064625F0030508350C2DFD
S315000030B438BF0C25002D01DBA94204D90C2333604B
S315000030C40020BDE8F883DFF8D48000F069F8D8F86A
S315000030D400301C4644BB29463046FFF7BFFF431C5D
S315000030E4044658D1D8F800402746002F43D1002C77
S315000030F44BD023683946304604EB030900F0CCFD77
S31500003104814542D1216830466D1A2946FFF7A6FF4C
S3150000311401303AD023682B442360D8F800305A682B
S3150000312462BBC8F800700FE02268521B20D40B2A39
S3150000313417D96119A342256018BF5960636808BF8F
S31500003144C8F8001062514B60304600F02FF804F1C5
S315000031540B00231D20F00700C21A1CBF1B1AA35024
S31500003164AFE76268A3420CBFC8F800205A60EBE7D9
S3150000317423466468AEE73C467F68B6E71A465B6852
S31500003184A342FBD100235360DEE70C2330463360B1
S3150000319400F00CF894E70560D6E700BFDC070020D2
S315000031A40148FFF7F0BE00BFD40700200148FFF72F
S315000031B4EBBE00BFD40700202DE9F0471F468E68FA
S315000031C482460C46BE429046334653D8B1F90C00AB
S315000031D410F4906F2BD065692368096905EB4505E2
S315000031E4A3EB010905EBD5757B1C6D104B442A46F0
S315000031F4AB4284BF1D462A46430527D51146504691
S31500003204FFF74EFF064658B34A462169FFF7C7FE45
S31500003214A38923F4906343F08003A38126614E447B
S3150000322465613B46A5EB090526603E46A5601F463B
S315000032343A464146206800F0F4FCA36800209B1B34
S31500003244A36023683B442360BDE8F087504600F042
S3150000325441FD06460028E1D121695046FFF7B4FE38
S315000032640C234FF0FF30CAF80030A38943F0400323
S31500003274A381E9E73E46DBE72DE9F04F98468B89C3
S315000032849DB007461B060D46144610D50B6973B947
S315000032944021FFF705FF2860286130B90C233B6005
S315000032A44FF0FF301DB0BDE8F08F40236B61002363
S315000032B4CDF80C804FF00109DFF8A0810993202393
S315000032C48DF8293030238DF82A3023469A4613F890
S315000032D4012B0AB1252AF9D1BAEB040B0BD05B46B4
S315000032E4224629463846FFF767FF013000F0A780DB
S315000032F4099A5A4409929AF80030002B00F09F80EC
S3150000330400234FF0FF320AF1010A049307938DF864
S3150000331453301A93CDE90523544605224F4814F831
S31500003324011B00F0C9FC049AD8B9D00644BF202377
S315000033348DF85330110744BF2B238DF853309AF878
S3150000334400302A2B15D0079A544600204FF00A0C59
S31500003354214611F8013B303B092B4BD9B0B10792FA
S3150000336414E0A0EB0803A24609FA03F313430493FB
S31500003374D2E7039B191D1B68002B0391BBBF5B425D
S3150000338442F0020207930793B8BF049223782E2BC8
S315000033940AD163782A2B32D1039B02341A1D1B6887
S315000033A443EAE37303920593DFF8C0A0032221786E
S315000033B4504600F081FC38B1A0EB0A004022049B81
S315000033C4013482401343049314F8011B0622244853
S315000033D48DF8281000F070FC002836D0214B1BBB5A
S315000033E4039B073323F0070308330393099B3344F2
S315000033F409936AE70CFB02320C460120A8E7002376
S3150000340401344FF00A0C19460593204610F8012B97
S31500003414303A092A03D9002BC6D00591C4E70CFB20
S31500003424012104460123F0E703AB2A4604A93846E2
S3150000343400930D4BAFF30080421C0646D6D1AB89F0
S315000034445B063FF52DAF09982CE703AB2A4604A982
S3150000345438460093044B00F0BFF9EDE70846000038
S315000034641246000000000000BD3100000E460000B8
S315000034749368013B002B10B4936008DA9469A34265
S3150000348401DB0A2903D15DF8044BFFF795BC1368E9
S31500003494581C1060084619705DF8044B7047F8B55F
S315000034A406460F461446D518AC4201D1002007E063
S315000034B43A4614F8011B3046FFF7DAFF431CF3D1F2
S315000034C4F8BD00002DE9F04F0D469DB01446984610
S315000034D4064618B1036A0BB9FFF74EFB6B6ED907A4
S315000034E405D4AB899A0502D4A86DFFF74CFDAB89C8
S315000034F41B0701D52B699BB929463046FFF79AFC71
S3150000350470B16B6EDC0704D54FF0FF301DB0BDE81B
S31500003514F08FAB899805F7D4A86DFFF735FDF3E76F
S315000035240023CDF80C804FF00109DFF8B48109932C
S3150000353420238DF8293030238DF82A3023469A46E5
S3150000354413F8012B0AB1252AF9D1BAEB040B0BD0D7
S315000035545B46224629463046FFF7A1FF013000F0BC
S31500003564A780099A5A4409929AF80030002B00F071
S315000035749F8000234FF0FF320AF1010A0493079358
S315000035848DF853301A93CDE9052354460522544841
S3150000359414F8011B00F090FB049AD8B9D10644BF75
S315000035A420238DF85330130744BF2B238DF8533053
S315000035B49AF800302A2B15D0079A544600204FF06B
S315000035C40A0C214611F8013B303B092B4BD9B0B10B
S315000035D4079214E0A0EB0803A24609FA03F3134387
S315000035E40493D2E7039B191D1B68002B0391BBBFF1
S315000035F45B4242F0020207930793B8BF0492237812
S315000036042E2B0AD163782A2B32D1039B02341A1D3E
S315000036141B6843EAE37303920593DFF8D4A00322FD
S315000036242178504600F048FB38B1A0EB0A0040224E
S31500003634049B013482401343049314F8011B0622AD
S3150000364428488DF8281000F037FB00283FD0264B79
S315000036541BBB039B073323F0070308330393099B20
S315000036643B4409936AE70CFB02320C460120A8E7A7
S31500003674002301344FF00A0C19460593204610F82E
S31500003684012B303A092A03D9002BC6D00591C4E789
S315000036940CFB012104460123F0E703AB2A4604A9E7
S315000036A430460093114BAFF300800746781CD6D101
S315000036B46B6ED90705D4AB899A0502D4A86DFFF7BA
S315000036C463FCAB895B063FF51FAF09981EE703ABA6
S315000036D42A4604A930460093044B00F07DF8E4E73B
S315000036E4084600001246000000000000A334000053
S315000036F40E4600002DE9F047164698468A680746A6
S315000037040B690C46DDF820909342B8BF134633602C
S3150000371491F843200AB1013333602368990642BF06
S31500003724336802333360256815F0060506D104F1C3
S31500003734190AE36832689B1AAB422BDC94F84330CF
S315000037442268003B18BF0123920630D404F14302D9
S3150000375441463846C847013023D023681A3454F802
S315000037640A2C03F00603042B0ABF54F80E5C00254A
S3150000377433684FF0000608BFED1A54F8123C08BF30
S3150000378425EAE5759342C4BF9B1AED18B5421AD1D2
S31500003794002008E00123524641463846C847013016
S315000037A403D14FF0FF30BDE8F0870135C1E7E118DA
S315000037B45A1C30200233224481F8430094F8451001
S315000037C482F84310C2E70123224641463846C847D9
S315000037D40130E6D00136D9E72DE9FF470F7E914641
S315000037E480460C46782F9A460C9E01F1430207D870
S315000037F4622F0AD8002F00F0D280582F00F0B7802D
S3150000380404F1420684F842703AE0A7F16303152BEB
S31500003814F6D801A151F823F0753800008938000064
S31500003824053800000538000005380000053800009A
S315000038348938000005380000053800000538000006
S315000038440538000089390000B33800003F3900000C
S315000038540538000005380000AB39000005380000C3
S31500003864B338000005380000053800004739000069
S3150000387433681A1D1B68326004F1420684F842302C
S3150000388401239DE033682068191D3160060601D5C1
S315000038941D6803E04506FBD5B3F90050002D03DA95
S315000038A42D236D4284F8433059480A2310E02168D9
S315000038B43368080653F8045B02D4490648BFADB220
S315000038C46F2F5348336059D10823002184F84310DD
S315000038D46668002EA66005DB21682E4321F00401EC
S315000038E421604DD01646B5FBF3F103FB1157C75DB6
S315000038F406F8017D2F460D46BB42F4D9082B0BD1A1
S315000039042368DF0708D5236961689942DEBF30233F
S3150000391406F8013C06F1FF36921B22614B4603AAC8
S3150000392421464046CDF800A0FFF7E4FE01304CD115
S315000039344FF0FF3004B0BDE8F087236843F020035E
S31500003944236078273348236884F845701F06316856
S3150000395451F8045B02D45F0648BFADB23160D907A3
S3150000396444BF43F0200323601DB11023ADE728486C
S31500003974E9E7236823F020032360F6E70A23A4E794
S315000039841646BBE733682568181D616930602E0644
S315000039941B6801D5196002E06806FBD5198000236F
S315000039A416462361BAE7336800211A1D32601E6881
S315000039B46268304600F080F908B1801B6060636875
S315000039C42361002384F84330A8E723693246494635
S315000039D44046D0470130ABD023689B0713D4E06838
S315000039E4039B9842B8BF1846A4E7012332464946CA
S315000039F44046D04701309BD00135E36803995B1AF2
S31500003A04AB42F2DCEBE7002504F11906F5E700BF4B
S31500003A14194600002A460000B1F90C202DE9F041B0
S31500003A24160705460C4651D44B68002B02DC0B6C7A
S31500003A34002B49DDE66A002E46D0002312F480529C
S31500003A442F682B6031D0626DA389590705D5636849
S31500003A54D21A636B0BB1236CD21A0023E66A216A6D
S31500003A642846B047421CB4F90C3006D129681D29F2
S31500003A7445D8284ACA40D60741D50022D9046260EF
S31500003A842269226004D5421C01D12B6803B9606502
S31500003A94616B2F60C1B104F14403994202D02846F8
S31500003AA4FFF792FA002363630EE00123216A284696
S31500003AB4B0470246501CC7D12B68002BC4D01D2B1F
S31500003AC401D0162B19D12F6000201DE00F69002F9D
S31500003AD4FAD093070E680F600CBF4B690023A6EB60
S31500003AE407088B60B8F1000FEEDD43463A46216ABB
S31500003AF42846A66AB047002808DCB4F90C3043F01F
S31500003B0440034FF0FF30A381BDE8F0810744A8EBE2
S31500003B140008E7E70100402038B50B6905460C4666
S31500003B2413B90025284638BD18B1036A0BB9FFF747
S31500003B3423F8B4F90C30002BF3D0626ED00704D40A
S31500003B44990502D4A06DFFF71EFA28462146FFF711
S31500003B5463FF636E0546DA07E4D4A3899B05E1D4C3
S31500003B64A06DFFF711FADDE770B50C46B1F90E103A
S31500003B7496B0154600291E460ADAA18911F080017D
S31500003B8413D14FF48062002031602A6016B070BDF4
S31500003B946A4600F05FF80028EFDB019901F47041F2
S31500003BA4A1F5005359425941EBE700214022EAE7C7
S31500003BB48B8973B59E0705460C4607D504F1470362
S31500003BC4236023610123636102B070BD01AB6A46C1
S31500003BD4FFF7CAFF009E28463146FFF761FAB4F99B
S31500003BE40C3038B99A05EFD423F0030343F00203EB
S31500003BF4A381E3E743F080032060A381019BC4E92A
S31500003C040406002BE0D0B4F90E10284600F034F870
S31500003C140028D9D0A38923F0030343F00103A38129
S31500003C24D2E7884210B501EB020402D98442234646
S31500003C3407D8431EA14207D011F8012B03F8012F20
S31500003C44F8E70244824200D110BD13F8011D02F8C0
S31500003C54011DF7E738B50023064D0446084611460C
S31500003C642B60FEF797F9431C02D12B6803B123603E
S31500003C7438BD00BFD007002038B50023054D0446E3
S31500003C8408462B60FEF78CF9431C02D12B6803B15E
S31500003C94236038BDD007002038B50023054D0446FF
S31500003CA408462B60FCF71AFD431C02D12B6803B1AE
S31500003CB4236038BDD0070020C9B20346024410B5BC
S31500003CC49342184601D1002003E0047801338C4264
S31500003CD4F6D110BD2DE9F041074614460D4621B92B
S31500003CE41146BDE8F041FFF7DBB92AB92546FFF7CF
S31500003CF46BF92846BDE8F08100F01AF884420646BE
S31500003D0402D8B4EB500FF4D821463846FFF7C8F969
S31500003D14804608B94546ECE7B4422246294628BF00
S31500003D243246FFF73CF929463846FFF74DF9F1E7E5
S31500003D3451F8043C181F002BBCBF0B58C018704721
S31500003D44010002000800100020000000040000002A
S31500003D54F83D000008000000783D00000200000065
S31500003D64683D00000000006800000068A000002014
S31500003D74A000002000000068000000680000006049
S31500003D8400010C08000000680000006800000070D4
S31500003D94000109080000006800000068000000082F
S31500003DA40001020800000068000000688C000000A2
S31500003DB4000101080000002000000020000000604F
S31500003DC400010C0300000020000000200000007029
S31500003DD40001090300000020000000200000000884
S31500003DE40000020300000020880000208C00000070
S31500003DF400000103000000680000006800010008DC
S31500003E040000006800000068000100088800002027
S31500003E14A000002000000003C0040020E0070020EA
S31500003E2400000003F506000079070000BD07000046
S31500003E34ED070000F907000002040304040400006F
S31500003E44910B0000B5080000A50B0000B10B0000A3
S31500003E5479090000C9090000C1080000150900001D
S31500003E643509000061090000AD090000E5080000FD
S31500003E74F90800008D120000251100003111000020
S31500003E8489110000E5110000F1110000791100000C
S31500003E94591000002D120000411200008912000082
S31500003EA47C050020543F0000443E000084050020A9
S31500003EB4BC3E0000283E0000060C0A000300000079
S31500003EC4CD1D000000000000D03E000000000000F0
S31500003ED494050020E03E0000783E00000202000047
S31500003EE40C000C010C020C03000000000000000092
S31500003EF4191E000000000000003F00000001000041
S31500003F04000000200F00FFFF00000000FFFF00007C
S31500003F14C4050020203F0000783E00000602000091
S31500003F240C0F0C100C110C12000000000000000015
S31500003F34411E000000000000403F00000001000098
S31500003F44040000200F00FFFF00000000FFFF000038
S31500003F5410000000603F0000000000000040000068
S31500003F640000000000000100080100000000010438
S31500003F740C010000000001040D0100000000010610
S31500003F840202000000000106030200000000010610
S31500003F94040200004000010406020000400001047F
S31500003FA407020000000001000003000004000000F6
S31500003FB400040000000001050A04000000000104DA
S31500003FC405050000000001040605000000000105C7
S31500003FD40607000000000105070700008C018D019B
S31500003FE48E018F01920193019401950199019A0121
S31500003FF40700C401C501C801C701A401A501A601A2
S31500004004A7010000557365724C6564004572726FB2
S31500004014722E204661696C656420746F207772691C
S315000040247465206C6576656C20696E20494F206442
S3150000403465766963653A2025730D0A0055736572C2
S315000040444B6579004661696C656420746F206F70F6
S31500004054656E204B6579206465766963653A20252B
S31500004064730D0A005375636365737320746F20655B
S315000040746E61626C65202573277320697271210D48
S315000040840A0000004661696C656420746F20656EE1
S3150000409461626C65202573277320697271210D0A8C
S315000040A4000000004572726F722C204750494F730E
S315000040B42061726520616C7265616479206F706538
S315000040C46E20616E6420696E69742E0D0000000016
S315000040D45375636365737320746F206F70656E2008
S315000040E44C6564206465766963653A202573210D01
S315000040F40A0000005B573830305D2054583A2025BA
S31500004104730D0A0041542B000D0A00005B5738302A
S31500004114305D20545820646F6E650D005353494436
S315000041243D2573002B4F4B004B45593D312C302C0C
S3150000413425730000574A4F494E0000004E49503D32
S31500004144300000004C4B5354540000005B57383089
S31500004154305D2053656E64696E6720544350206356
S315000041646F6E6E65637420636F6D6D616E642E2E63
S315000041742E0D0000534B43543D302C302C31393234
S315000041842E3136382E3230312E3137352C38303800
S31500004194302C3130323400000D0A5B573830305D34
S315000041A42054435020726573706F6E73653A2025F0
S315000041B4730D0A000D0A5B573830305D20544350A6
S315000041C420636F6E6E65637465642C20736F636B16
S315000041D4657420666F756E640D0000005B57383099
S315000041E4305D2046756C6C20726573706F6E7365F6
S315000041F43A2025730D0A00005B573830305D205392
S315000042046F636B6574206664203D2025640D0A0087
S315000042145B573830305D2052582062756620696ECF
S315000042246974204F4B2C2073697A653D25640D0A09
S31500004234000000005B573830305D205761697469AF
S315000042446E6720666F72205738303020626F6F7445
S3150000425420283373292E2E2E0D0000005B5738308C
S31500004264305D205465737420313A2041542B5A0D25
S31500004274000000005A00000025303258202725632C
S31500004284272000000D0A5B573830305D20546573D3
S3150000429474312072656365697665642025642062DD
S315000042A4797465730D0A00005B573830305D20540D
S315000042B465737420323A2041542B450D00000000EA
S315000042C4450000000D0A5B573830305D2054657395
S315000042D4743220726563656976656420256420629C
S315000042E4797465730D0A00005B573830305D2054CD
S315000042F465737420333A2041542B575052543D3041
S315000043040D000000575052543D3000000D0A5B5713
S315000043143830305D20546573743320726563656983
S315000043247665642025642062797465730D0A00003D
S315000043345B573830305D20436865636B696E672070
S31500004344736F636B6574207374617475732E2E2E8C
S315000043540D0000005B573830305D20536F636B658A
S3150000436474207374617475733A2025730D0A000002
S315000043745B573830305D2053656E64696E67206420
S31500004384617461202564206279746573207573698C
S315000043946E6720736F636B65742025642E2E2E0D55
S315000043A40A000000534B534E443D302C3137000075
S315000043B4534B534E443D312C313700005B57383054
S315000043C4305D2053656E6420726573706F6E73651D
S315000043D43A2025730D0A00005738303000000000DB
S315000043E45B573830305D205374617274696E672090
S315000043F45769466920546573742E2E2E0D000000ED
S315000044045B573830305D204661696C656420746F93
S315000044142067657420646576696365210D00000074
S315000044245B573830305D20496E6974206661696C6B
S315000044346564210D000000005B573830305D204173
S31500004444542074657374204F4B0D00005B5738304D
S31500004454305D20436F6E6E656374696E6720746F9A
S3150000446420576946692E2E2E0D0000003236383646
S3150000447432363238000000004C75636B7900000058
S315000044845B573830305D205769466920636F6E6E1E
S31500004494656374696F6E206661696C6564210D00DD
S315000044A45B573830305D205769466920636F6E6EFE
S315000044B46563746564212049503A2025730D0A000A
S315000044C45B573830305D20436F6E6E656374696E7A
S315000044D46720746F20544350207365727665722E7C
S315000044E42E2E0D003139322E3136382E3230312E01
S315000044F4313735005B573830305D205443502063E4
S315000045046F6E6E656374696F6E206661696C65644F
S31500004514210D00005B573830305D20544350206332
S315000045246F6E6E6563746564210D00005B573830E9
S31500004534305D2053656E742025642062797465733A
S315000045440D0A00005B573830305D2052656365699B
S315000045547665642025642062797465733A20257330
S315000045640D0A00005B573830305D205465737420A3
S31500004574636F6D706C65746564210D0048656C6CC1
S315000045846F2066726F6D205241364D352100000052
S315000045945541525432206F70656E3A2025640D0AD7
S315000045A4000000005541525436206F70656E3A2063
S315000045B425640D0A0000000068656C6C6F20776F37
S315000045C4726C64212046726F6D206C75636B790D75
S315000045D4000000004661696C656420746F2067659D
S315000045E47420557365724B6579210D004661696CBB
S315000045F4656420746F2067657420557365724C6515
S3150000460464210D00232D302B2000686C4C00656658
S315000046146745464700303132333435363738394109
S31500004624424344454600303132333435363738391F
S3150000463461626364656600004275696C742077691B
S3150000464474682052656E6573617320416476616E89
S3150000465463656420466C657869626C6520536F6691
S315000046647477617265205061636B61676520766556
S315000046747273696F6E20362E332E3000362E332E2B
S30D000046843000000000000306EF
S3090000468CF8B500BFB8
S30900004690F8B500BFB4
S3090000469439010000E2
S309000046981501000002
S30D0000469CF2E8FF7F01000000B7
S3090100A100FFFFFFFF58
S3090100A200FFFDFFFF59
S3090100A280F8F8FFFFE5
S70500000159A0
