S01400005241364D352D50726F6A63742E7372656326
S315000000000005002085010000850500008101000033
S3150000001081010000810100008101000081010000D2
S315000000200000000000000000000000008101000048
S31500000030810100000000000081010000492F00003E
S31500000040A51A00000D1A00006D1B0000B51B00006C
S3150000005005120000991100007D120000BD1200007B
S31500000060410F000089100000F50A0000D51C0000B1
S31500000070711D0000191E0000011F0000A51A0000D6
S311000000800D1A00006D1B0000B51B0000EF
S3150000008C40003500000010080000000000000000D1
S3150000009C000000004000350000000000E8032D04BD
S315000000AC000000000000000000000000000000003E
S315000000BC0000000001000000AC46000029220000F0
S315000000CCE521000095210000E446000029220000ED
S315000000DC000000000000000000000000030000000B
S315000000EC00070020B40000200000000000070020DC
S315000000FC68070020D0070020000000000000000068
S3150000010C00000000000000000000000000000000DD
S3150000011C00000000000000000000000000000000CD
S3150000012C00000000000000000000000000000000BD
S3090000013C00000000B9
S3150000014010B5054C237833B9044B13B10448AFF30B
S3150000015000800123237010BD200500200000000050
S3150000016084A2000108B5034B1BB103490348AFF352
S31500000170008008BD000000002405002084A20001C4
S3150000018000BE704708B500F035F801F02FFFFEE716
S31500000190F8B5174F05463E68A6B17C6806EB4606DD
S315000001A004EB860602E00C34B4420BD0637AAB4211
S315000001B0F9D1D4E900020021121A0C3403F04AF9ED
S315000001C0B442F3D1BE6896B1FC6804EB061602E0B1
S315000001D01034A6420BD0637BAB42F9D1D4E90002BE
S315000001E0A168121A103403F096F9A642F3D1F8BDAD
S315000001F0C44200004FF47001274B284A70B5002016
S31500000200C3F888109A6002F0D9FE00F069F8012060
S3150000021002F0D4FE224B83F30A880020FFF7B8FFD2
S3150000022000F048F800F008F9032000F045FA002332
S315000002304FF6FF701B4903F1080201330C2B21F81E
S315000002401200F8D10024032000F006FA032000F083
S3150000025033FA154B03205C609C60DC601C6100F087
S31500000260FBF9022002F0AAFE0120FFF791FF0F4DD5
S315000002700F4B5B1BA3424FEAA30605DD55F8043B73
S3150000028001349847A642F9DC00F09AF9BDE87040BF
S31500000290002000F029B900BF00ED00E000000000DA
S315000002A000010020000D084000000E40344D000003
S315000002B0384D0000064B074993F826001A6A51F894
S315000002C02030C2F302620449D3400B60704700BF7E
S315000002D000E00140000500203C050020704700BFFB
S315000002E0F8B54AF2035001234549464AA1F8FE03F0
S315000002F0A2F80431B2F804319BB2002BFAD10120E6
S315000003004FF400454FF0090C3F4CDFF818E13F4E23
S31500000310C4F804E0DFF810E13949C4F80CE03C4FBA
S31500000320A2F800013B4AB06030606261276091F834
S315000003302620A5602561086A54F82220364EC0F3AF
S315000003400260C240326081F8133481F8A2C091F88D
S3150000035080341BB991F8813499074CD0284D95F813
S315000003608034002B3CD00022254B83F8812483F86F
S3150000037080240023224981F8323091F83C301A0754
S31500000380FBD543F2021000231D4A088581F82A3066
S3150000039092F83C309B06FBD50320052319494FF004
S315000003A0F10C81F81C011D49116282F8263092F881
S315000003B02630156A54F82300C5F302640123E04091
S315000003C03060F0244FF42540154981F80CC00B72BB
S315000003D00C7382F8303082F85230A2F8FE03F8BD72
S315000003E00121C82085F8801400F086F895F880343D
S315000003F0012BFBD1B7E74FF47A70FFF76FFFB8E731
S3150000040000E0014000C001400005002000700040EF
S31500000410002D310100C2EB0B3C050020211201200A
S315000004200020004000127A0000366E01014B53F89E
S31500000430200070470005002038B50025284C012112
S31500000440C82084F8285000F057F884F8245094F80F
S315000004502430002BFBD194F82430214943F00203C9
S3150000046084F8243091F82430C3F340009B07F9D474
S315000004701B4A81F8220092F8223003F0FF00002B7D
S31500000480F9D192F84030164960F3C71382F840302C
S3150000049091F84030DB09FBD191F84200104A63F332
S315000004A0C71081F8420092F84230DB09FBD192F87E
S315000004B044000B4963F3C71082F8440091F84430B6
S315000004C0C3F3C014DB09F9D1012000F0F5F8054BA0
S315000004D0012083F8BB44BDE8384000F0BDB800BF3A
S315000004E00030084000E00140704700BFA0F1010065
S315000004F00028FBD1704700BF1F4B204A1B6800FB3A
S3150000050001F1934213D302F1854202F5071203F576
S31500000510741302F6834203F6FF03A2FB03231B0DAB
S31500000520A3FB01314FF0FF30F9B1FFF7DFBF4FF406
S315000005307A7210B4A1FB02C41148B0FBF3F34FF07A
S31500000540FF3044B9BCFBF3FC4FEA9C0088B15DF870
S31500000550044BFFF7CBBF9B00B1FBF3F1A1FB0212EB
S31500000560002AF4D1084620B1F1E71846002BDCD169
S3150000057070475DF8044B70473C05002000127A0076
S3150000058000CA9A3B70B500240B4B0C4EB3F82021E1
S31500000590B3F84051ADB2154025FA04F3DB0704D594
S315000005A056F82430E0B203B198470134102CF3D149
S315000005B0014BA3F8305170BD00600040400500209B
S315000005C0F0B5032085B000F077F800276FF0FF0143
S315000005D04FF0FF361C4C1D4B224699644FF0010C20
S315000005E03B46CDE9016604F12605039632F8021F63
S315000005F00CFA03F0013311B1012726EA0006AA42DC
S31500000600F4D1F7B10196124B104A03201667C3F8CE
S31500000610806202995167C3F8841203999167C3F8FF
S31500000620881200F019F800230A4834F8022F03F163
S31500000630C00101330AB140F82120A542F5D105B029
S31500000640F0BD4FF0FF36DEE7964500000080004023
S3150000065000E100E000600040EFF31081012383F326
S315000006601088124B33F8102092B22AB133F81020BA
S31500000670013A92B223F8102033F810309BB293B9A6
S315000006800B4A10B4B2F8FE330A4C9BB234F8100091
S3150000069043F4254323EA0003A2F8FE3381F31088CE
S315000006A05DF8044B704781F310887047D005002031
S315000006B000E00140B842000030B4EFF3108101239E
S315000006C083F310880E4A32F810309BB26BB90D4C8A
S315000006D00D4DB4F8FE3335F810C09BB243EA0C0357
S315000006E043F425439BB2A4F8FE3332F810300133AD
S315000006F09BB222F8103081F3108830BC704700BFDF
S31500000700D005002000E00140B842000008B502F024
S31500000710EFFE0C2203464FF0FF301A6008BD00BF03
S3150000072030B482B0019190F9041000921A4D1B4A20
S3150000073001F1C00C52F8210055F82C20184C22F07B
S31500000740807241F4004145F82C20E28992B2914230
S31500000750FBD008222274019A0AB1019A4260009ADB
S315000007600AB1009A8260C27802F0C001802910D0D6
S315000007703F2A98BFC38118210020094B064A1974E5
S3150000078052F82C3043F0807342F82C3002B030BC63
S3150000079070478381EFE700BF006000400000002043
S315000007A0005400400620704706207047034693F920
S315000007B004300549C03351F82320002042F08072EE
S315000007C041F82320704700BF00600040034693F9BC
S315000007D004300549C03351F82320002022F08072EE
S315000007E041F82320704700BF00600040002390F9C5
S315000007F00400144A52F82020C1E90033D3783F2B75
S315000008000ED910B44FF48074D08903F0C003C0B27F
S31500000810802BC1E902400BD000205DF8044B7047E5
S315000008204FF48030D3899BB2C1E9020300207047A0
S315000008304FF4803093895DF8044B9BB2C1E9000305
S3150000084000207047000000200620704706207047F1
S315000008500346002230B593F904C0074C0CF1C00ED4
S3150000086054F82E10054D21F0807144F82E101046D4
S3150000087045F82C201A6030BD0060004000000020C2
S3150000088010B590F904E0184A0EF1C00C52F82C305D
S31500000890164C23F0807342F82C304EF40042E38964
S315000008A09BB29A42FBD00B46DA7818463F2A05D906
S315000008B0DA89D2B202EB022292B2DA81827810335E
S315000008C03F2AF1D808221820084B1A74084A42F821
S315000008D02E10054A187452F82C30002043F080730D
S315000008E042F82C3010BD00BF0060004000540040AC
S315000008F000000020264AF8B5137804460D4633B3A7
S315000009006B6893F9000000283DDB224E56F8203034
S31500000910002B3AD120712D68ADB12B46DA781946F5
S315000009203F2A05D9DA89D2B202EB022292B2DA81E3
S315000009308A7810333F2AF1D80822174B1A741822E6
S3150000094046F820501A74154B00202360F8BD012686
S315000009501670EFF3108086F31088114A116821F49F
S3150000096080011160126880F310880A4F19464C22E4
S31500000970384602F06FFD084B5F611E736B6893F992
S3150000098000000028C1DA0B20F8BD0820F8BD00BF22
S31500000990DA050020000000200054004000435444C3
S315000009A000400840F0B50346002591F902C01B4CF3
S315000009B04FEA8C0202F1804280F804C002F5C04280
S315000009C0D1E90270D2F80063C2F80053C3E902709D
S315000009D091F800E0BCF1000F83F805E004F80E5032
S315000009E00D79C87840EA05104D7940EAC510C0B2C5
S315000009F004F80E00C2F800630BDB4A7808481201BF
S31500000A000CF16041D2B201F5614181F8002340F852
S31500000A102C30044A00201A60F0BD00BF0060004080
S31500000A20840500205543490090F904200E4B02F13D
S31500000A30C00153F8210020F4803043F8210053F818
S31500000A402130BFF35F8F012153099B0002F01F0283
S31500000A5003F1604303F5614301FA02F2C3F8802112
S31500000A601A600020704700BF00600040012110B4EA
S31500000A7090F90430084C5A0903F01F03994002F11B
S31500000A80200344F82310BFF34F8FBFF36F8F00206E
S31500000A905DF8044B704700BF00E100E0034600200C
S31500000AA0C3E90212704700BF90F904200346002AEA
S31500000AB019DB012010B451090C4C02F01F02203141
S31500000AC000FA02F244F82120BFF34F8FBFF36F8F75
S31500000AD00020074A93F904105DF8044B42F8210000
S31500000AE000201860704700201860704700E100E0A1
S31500000AF08405002030B583B0EFF30384174B103C18
S31500000B0064B253F82410164A48798D68135C03F0D2
S31500000B100303032B10D0C03452F8243023F480335F
S31500000B2042F8243052F8243025B1CB68CDE90030A4
S31500000B306846A84703B030BD25B1CB68CDE9003083
S31500000B406846A847064BC03453F8242022F4803266
S31500000B5043F8242053F8243003B030BD8405002028
S31500000B60006000400022034610461A60704700BF2E
S31500000B700B0A10B41B01064C53FA81F154F82130CC
S31500000B800020C3F340035DF8044B1370704700BFA9
S31500000B9000080840090A490101F1804101F50021D8
S31500000BA04B68002013807047090A490123EA020CAA
S31500000BB001F180411A4001F5002142EA0C42002071
S31500000BC08A6070470120CBB2984080B202B9000417
S31500000BD00B0A5B0103F1804303F5002398600020B4
S31500000BE0704700BF090A490101F1804101F5002162
S31500000BF010B40C6802EA030C4CEA040C62EA030225
S31500000C0002EA0C0200205DF8044B0A60704700BF40
S31500000C10090A490101F1804101F500214B680020D4
S31500000C20C3F30F4313807047012310B44FEA112C0E
S31500000C304FEA4C1C0CF1804C0CF5002CDCF80440FF
S31500000C40C9B28B4099B203EA14435B1AB3FA83F331
S31500000C505B0900205DF8044B13707047090A4901CF
S31500000C6023EA020C01F180411A4001F5002142EA13
S31500000C700C420020CA60704701200B0A5B0103F199
S31500000C80804303F50023C9B210B400FA01F1DC6811
S31500000C90012A4FEA01400DBF84438C4304430C43B1
S31500000CA00020DC605DF8044B704700BF2DE9F84F6B
S31500000CB00388DBB182464FF0000B4FF00109DFF8E5
S31500000CC0D0800024304D4FEACB07DAF8043035F8EF
S31500000CD0022BD919898891420AD00134032CF4D108
S31500000CE0BAF800300BF1010B5B45EAD8BDE8F88F86
S31500000CF0DB5909FA04F603F0B853B3F1807FF6B274
S31500000D0098F8BB3413D0334231D1204A04F120067F
S31500000D1012F81630DB09E0D012F81630012123F064
S31500000D208003C82002F81630FFF7E6FBD5E733420A
S31500000D3011D0164A04F1200112F81130DB09CCD18A
S31500000D4012F81130C82043F0800302F81130012157
S31500000D50FFF7D2FBC1E70120FFF7AEFC98F8BB34E2
S31500000D600120334388F8BB34FFF776FCE1E7012026
S31500000D70FFF7A2FC98F8BB34012023EA060388F8A3
S31500000D80BB34FFF769FCC0E7DC43000000300840D5
S31500000D9000E00140F8B50446FFF788FFEFF3108244
S31500000DA0012383F31088234F3B681BB92249CB707C
S31500000DB04023CB703B6801333B6082F31088238865
S31500000DC02BB361681D4C01EBC30E06E01B01083115
S31500000DD013448E4544F8230019D008688A88C50351
S31500000DE04FEA1223D2B2F1D502EB031C54F82C6061
S31500000DF01B01083120F4803526F4803613448E45D5
S31500000E0044F82C6044F82C5044F82300E5D1EFF365
S31500000E101082012383F310883B6813B13B68013BC2
S31500000E203B603B681BB980200349CB70C87082F3D6
S31500000E301088F8BD80050020000D08400008084015
S31500000E4008B5034B03600846FFF7A4FF002008BD62
S31500000E5054524F5008B50846FFF79CFF002008BDC6
S31500000E6070B5012686B001AB03A80C46154604935F
S31500000E70ADF80C60ADF808100192FFF717FFEFF31D
S31500000E80108286F310881D490B681BB940261C4842
S31500000E90C370C6700B6801330B6082F31088EA03D7
S31500000EA04FEA1423E4B219D41B01164A234442F82C
S31500000EB02350EFF31082012383F310880B6813B1DC
S31500000EC00B68013B0B600B681BB980200C49CB708B
S31500000ED0C87082F31088002006B070BD094A04EB82
S31500000EE0031052F820601B0126F4803642F8206079
S31500000EF025F4803642F82060D7E700BF8005002041
S31500000F00000D08400008084030B5836B83B00446E6
S31500000F100A466D468BB193E80300CDE90001E16B0B
S31500000F201A711846626B19609047A36B1BB195E85E
S31500000F30030083E8030003B030BD6B46EFE700BF54
S31500000F4010B4EFF30383103B4D4A5BB2C03352F843
S31500000F50231021F4803142F8231052F82330EFF3A6
S31500000F600383484A103B5BB252F823301A69117B5F
S31500000F70C1F3000CC9072AD493F82C1093F82A0061
S31500000F80884212D093F82D0008B102294DD093F86B
S31500000F9028000131D07093F82B2083F82C10013AE9
S31500000FA083F82B205DF8044B7047196A002933D06B
S31500000FB093F82D0000283ED1586A9C690139245CBB
S31500000FC00130C3E90810D4705DF8044B704793F8FC
S31500000FD02D10B9B193F83110A1B9507999695A6AAF
S31500000FE0885493F82E40D3E9081201390132C3E937
S31500000FF008121869002C3AD052210122C17283F8D6
S315000010003020CFE70024012054211C6283F82F00F2
S315000010105DF8044BD172704793F82E1041B15220FF
S315000010200121D07283F83010BCE75223D372B9E79E
S315000010305423D372B6E793F8310040B1012983F8FF
S3150000104031C017D0FF2482F80AC0D470BCE75079AB
S3150000105099695A6A8854D3E908120139013201297B
S31500001060C3E908121A6905D0FF24D470ACE75423EB
S31500001070C37297E72023FF249372D470A4E700BFBE
S31500001080006000408405002010B5EFF30383304A6A
S31500001090103B5BB252F823000269D37A23F00803AF
S315000010A0D37290F82F30002B3ED190F82A1003F01F
S315000010B0FF0C90F82C3099421BD1036A53B990F873
S315000010C02D1090F83040C1F10301C9B2CCB3D372F0
S315000010D0FFF71AFFEFF30383103B1E4A5BB2C033E0
S315000010E052F8231021F4803142F8231052F82330AD
S315000010F010BDFBB190F82D4004F0FF0134B1022B76
S3150000110012BF614690F8291041F001014FF0000C22
S3150000111082F80BC0D17090F82B20013380F82C3068
S31500001120531E80F82B30D5E7F0230121D372FFF749
S31500001130EBFECFE701290CBF90F8281090F8291094
S31500001140E4E7F023D372937803F0CF039370BFE7FD
S31500001150840500200060004030B5436A85B004462F
S315000011608C4601ADABB193E8070085E807006268DD
S315000011701846117883F804C0A26A19609A60236A37
S315000011809847636A1BB195E8070083E8070005B036
S3150000119030BD2B46EBE700BF10B4EFF30383103BE3
S315000011A0164A5BB203F1C00152F8210020F48030E8
S315000011B042F8210052F82120114A52F823305A6988
S315000011C0D9698A4206D2D3E90240A8B1805CE070B0
S315000011D001325A618A4202D05DF8044B70471A699F
S315000011E0002AF9D19A685DF8044B937803F07B03E3
S315000011F043F0040393707047E070E9E70060004035
S315000012008405002010B4EFF30383103B194A5BB248
S3150000121003F1C00152F8210020F4803042F8210089
S3150000122052F82120144A52F823305969DA6991425A
S3150000123006D2D3E90240D0B1405CE0700131596179
S315000012409969914207D298681A6940794C1C9C6149
S315000012505054D3E90612914206D19A68937803F066
S315000012603B0343F0040393705DF8044B7047E07052
S31500001270E4E700BF006000408405002010B5EFF3EE
S3150000128003830C4A103B5CB252F8240001218268A9
S31500001290937803F003039370FFF75EFF064A04F1A9
S315000012A0C00352F8231021F4803142F8231052F87B
S315000012B0233010BD840500200060004010B5EFF318
S315000012C003834FF0840C0E4A103B5CB252F82400A4
S315000012D0042183689A7802F003029A701A7983F8D7
S315000012E004C0FFF739FF074A04F1C00352F8231080
S315000012F021F4803142F8231052F8233010BD00BF8C
S315000013008405002000600040F8B5C3691546DA6818
S3150000131004460E466AB18378916803F00303013BE5
S3150000132025FA03F310688F68324600219BB2B8474E
S3150000133010B90020C4E90565F8BD00BFF8B504463C
S315000013400D46006AE16983780E6903F07B038370BA
S31500001350A37803F0030CA2EB0C0205EB0C0122614F
S31500001360E16006B15AB9827803F0030342F08002C5
S31500001370022B827013D02B78C3700020F8BD0CF1BD
S31500001380FF3C22FA0CF293B20022B7683068BE68BE
S315000013902261B0470028F1D1206AA378E3E72B88C1
S315000013A043F47E43C381E8E784460020CCE90A3251
S315000013B0CCF82410704700BF012310B5C4690A7821
S315000013C094F800C003FA0CF313F0060F01D01307CC
S315000013D01ED402F05C0E0022036A93F802C00CF0E1
S315000013E00B049C70C26010468A784C785A701A7842
S315000013F00CF07B0C64F301021A70CA789A74DA79DD
S3150000140002F0A30242EA0E02DA7183F802C010BDAE
S31500001410032010BD03460020DB69DA6882420CBF58
S315000014204FF0FF324FF480324A601B6983420CBF93
S315000014304FF0FF334FF480330B6070478A0770B567
S315000014400D4604461DD5D0E907218B78126903F0B5
S315000014507B038B70D2B1936810681B699847002391
S31500001460236190B9EB074FF000000ED50023E26927
S31500001470D068A36148B1BDE87040836800681B6905
S315000014801847EB074FF00600F0D470BD0261E9E79C
S3150000149030B500220D46D0E90613DB6885B0296019
S315000014A082617BB19A68044618681369984750B9F7
S315000014B0E3696946DB689A681868D369984710B982
S315000014C0039B2B60002005B030BD00BF062070478F
S315000014D010B5002204460123006A62608270E26948
S315000014E02E4992F90520500902F01F0203FA02F272
S315000014F0203041F82020BFF34F8FBFF36F8FE26992
S3150000150092F90B20500902F01F0203FA02F2203072
S3150000151041F82020BFF34F8FBFF36F8FE26992F936
S315000015200720500902F01F0203FA02F2203041F8A8
S315000015302020BFF34F8FBFF36F8FE26992F9092026
S31500001540500902F01F02934000F1200241F82230B8
S31500001550BFF34F8FBFF36F8FE369DA6822B19368E9
S3150000156010681B6A9847E3691B691BB19A6818687B
S31500001570136A9847EFF31081012383F310884FF025
S315000015800043E069064A04785068E3400343536029
S31500001590536881F31088002010BD00BF00E100E011
S315000015A000400840F0B5846A85B005460F4694466B
S315000015B06E46B4B194E80F008DE80F00EB69204643
S315000015C01B7884F804C02360EB6AC4E902736B6A73
S315000015D09847AC6A1CB196E80F0084E80F0005B086
S315000015E0F0BD6C46EAE700BF0620704701222DE9F0
S315000015F0F0410B780D469A4012F0060F044605D0CE
S31500001600CA6952681278120700F1F981002103F5C0
S31500001610800303F58C5321701B02C4E907536B69E1
S3150000162001266362AB69A078C4E90A136B78CF4AD6
S31500001630B3FA83F35B095B4203F00303734063F37E
S315000016400100A07095F90B0095F80AC0430900F057
S315000016501F07203306FA07F742F82370BFF34F8FB0
S31500001660BFF36F8FC24B00F1C00753F827E061F359
S31500001670104E43F827E053F82770BE4F4FEA0C1C74
S3150000168002EB000E5FFA8CFC8EF800C347F8204090
S3150000169095F9050095F804C04FEA501E00F01F08A2
S315000016A00EF1200E06FA08F842F82E80BFF34F8F8F
S315000016B0BFF36F8F00F1C00E53F82E8061F3104810
S315000016C043F82E8053F82EE04FEA0C1C02EB000E76
S315000016D05FFA8CFC8EF800C347F8204095F90700A6
S315000016E095F806C04FEA501E00F01F080EF1200EB6
S315000016F006FA08F842F82E80BFF34F8FBFF36F8FBC
S3150000170000F1C00E53F82E8061F3104843F82E8086
S3150000171053F82EE04FEA0C1C02EB000E5FFA8CFC2D
S315000017208EF800C347F8204095F9090095F808C0DF
S315000017304FEA501E00F01F080EF1200E06FA08F8B8
S3150000174042F82E80BFF34F8FBFF36F8F00F1C00EAC
S3150000175053F82E8061F3104843F82E8053F82E304C
S315000017604FEA0C13DBB2024482F80033EB6847F809
S315000017702040D3B14FF400275968206A0A6800F167
S31500001780050C1760E769C2F804C07F782FB91030DE
S315000017905060D07866F30510D0709A6818681268A1
S315000017A090470646002840F012812B69CBB14FF0D6
S315000017B0006059680A681060D4E90760C71C976022
S315000017C0767836B901260E309060D07866F305102B
S315000017D0D0709A681868126890470646002840F04C
S315000017E00681EFF31086012181F310884FF0004047
S315000017F02A78614BD0405A6822EA00025A605B6838
S3150000180086F31088002240F2F930236A40F2F93C50
S315000018109A701A715A729A72DA725A832A789140B9
S3150000182001421CBF4022DA7406220120E9691A77B8
S315000018302A786E78904010EA0C0F18BF4FF4784063
S31500001840EA78AF784FEAC20218BF9882032E42EABE
S31500001850071200F0BF80002E0CBFE220F220D2B2A9
S315000018601A7098710A7B082A0EBF0A22520002F0EB
S3150000187002025A734A788878D201400100F02000AB
S31500001880D2B20243002018720D78A81E012840F239
S31500001890A580D2B2DA714A6890785678587018786E
S315000018A066F301001870D07812789874D87902F02F
S315000018B05C0200F0A3000243DA710020E2692061B5
S315000018C0A061E060606192F90560294B06F1C002F3
S315000018D053F8227060F3104743F8227053F8222021
S315000018E0BFF35F8F01277209920006F01F0602F10F
S315000018F0604202F5614207FA06F6C2F88061166098
S31500001900E26992F90B6006F1C00253F822C060F357
S31500001910104C43F822C053F82220BFF35F8F7209A0
S31500001920920006F01F0602F1604207FA06F602F57B
S315000019306142C2F880611660E26992F9076006F1B9
S31500001940C00253F822C060F3104C43F822C053F88B
S315000019502220BFF35F8F7209920006F01F0602F184
S31500001960604207FA06F602F5614207E000E100E090
S31500001970006000408405002000400840C2F88061F5
S315000019801660E26992F9092002F1C00653F826C0F2
S3150000199060F3104C43F826C053F82630BFF35F8F30
S315000019A053099B0002F01F0203F16043974003F5C1
S315000019B06143C3F880711F600646236A05F003057C
S315000019C045F070054A899D700F4B22816360304651
S315000019D0BDE8F081F22042F0400240E7FF20022DF0
S315000019E008BF42F01002D2B25870DA7165E7EB68B0
S315000019F0002BECD09A681868136A9847E7E7032625
S31500001A003046BDE8F08100BF5549435310B4EFF3AB
S31500001A100383103B214A5BB203F1C00152F8210057
S31500001A2020F4803042F8210052F821201C4A52F856
S31500001A302300C269036912691AB11BB15DF8044B30
S31500001A40704783B9D0E908240021937803F07F0317
S31500001A5043F004039370C160002CEFD080225DF840
S31500001A60044BFFF79FBD8278046A02F0030CBCF1B9
S31500001A70020FC1680AD091F800C084F803C002F0D2
S31500001A8003029B1A1144C0E90313D6E7B1F800C05C
S31500001A904CF47E4CA4F80EC0F1E700BF0060004095
S31500001AA08405002010B582B0EFF30383103B2D4A66
S31500001AB05BB203F1C00152F8210020F4803042F8F5
S31500001AC0210052F82120284A52F82340D4E9063250
S31500001AD0D26812B3ABB9A378226A03F00303022BD0
S31500001AE00BBF118A5179C1F30801C9B20191636A2A
S31500001AF0002B30D00422204602B0BDE81040FFF78C
S31500001B0051BD0021636AC4E9051123B301222046B1
S31500001B1002B0BDE81040FFF745BDA278216A02F089
S31500001B20030002280BBF098A4979C1F30801C9B22B
S31500001B300191002BDBD002F0030201A9606901F0DC
S31500001B40EAFCD4E90521A37803F003031A44C91A71
S31500001B50C4E9052109B102B010BD636A002BD5D1D5
S31500001B60F9E700BF006000408405002010B5EFF3E0
S31500001B7003830E4A103B5CB252F82400D0E90821D8
S31500001B80937803F07B03937019B102220021FFF7CB
S31500001B9009FD074A04F1C00352F8231021F48031ED
S31500001BA042F8231052F8233010BD00BF84050020F0
S31500001BB00060004010B5EFF303831A4A103B5CB295
S31500001BC052F824008278036A02F00302022A0CBF4C
S31500001BD0198A597993F804C00CBFC1F30801C9B238
S31500001BE01CF0100F0CF0380206D093F81CC01CF045
S31500001BF0010F08BF42F0400293F804C00CF0C70C76
S31500001C0083F804C0436A0BB1FFF7CCFC064A04F123
S31500001C10C00352F8231021F4803142F8231052F801
S31500001C20233010BD840500200060004042684369EF
S31500001C30517A21B9126A12B1127B012A24D0C269E3
S31500001C40511E99420FD09A420CD08168C26832B1B7
S31500001C5090F820C0BCF10F0F0DD952F823204A602E
S31500001C6001334361704781680A8A22F080021204B8
S31500001C70120C0A82EAE7BCF1070F95BFD25C32F874
S31500001C8013200A718A80EBE78268D2789206E9D53A
S31500001C90D5E700BF30B5836A85B004468C4601ADF2
S31500001CA0ABB193E8070085E807006268184611782B
S31500001CB083F804C0E26A19609A60636A9847A36A67
S31500001CC01BB195E8070083E8070005B030BD2B4639
S31500001CD0EBE700BF10B4EFF30383103B214A5BB27E
S31500001CE003F1C00152F8210020F4803042F82100AF
S31500001CF052F821201C4A52F82330D3E906218A42A1
S31500001D001CD018699C6838B393F820C0BCF10F0F3B
S31500001D100AD9616840F82210D96901328A429A616B
S31500001D200CD05DF8044B7047BCF1070F16D821792B
S31500001D308154D96901328A429A61F2D15B6893F97A
S31500001D400330012203F01F0008495B09824041F875
S31500001D5023205DF8044B70476068DEE7A48820F80E
S31500001D601240DAE7006000408405002000E100E050
S31500001D70EFF30383103B254A5BB203F1C00152F82F
S31500001D80210020F4803042F8210052F82110204929
S31500001D9051F8230041680B6A13B15B78012B01D01F
S31500001DA0FFF744BF10B4C46904F1FF3C44696445BD
S31500001DB00FD00A694AB191F90320164902F01F0CA7
S31500001DC003FA0CF3520941F822305DF8044BFFF791
S31500001DD02DBF91F9031001F1C00C52F82C4024F4E8
S31500001DE0803442F82C4052F82C20BFF35F8F4A090A
S31500001DF0920001F01F0102F1604203FA01F102F5BF
S31500001E006142C2F880111160DFE700BF0060004048
S31500001E108405002000E100E030B4EFF30382103ABD
S31500001E20344953B203F1C00051F8204002F0FF02DA
S31500001E3024F4803441F8204051F820102E4951F8FE
S31500001E4023008168C978890705D54168497A01293F
S31500001E5001D030BC70470121284C5B0902F01F02FB
S31500001E60203301FA02F244F82320BFF34F8FBFF369
S31500001E706F8F436893F90230002B32DB5A0903F067
S31500001E801F0301FA03F3203244F82230BFF34F8FC9
S31500001E90BFF36F8FD0E90124237892F9022023F053
S31500001EA04003002A237018DB124B02F1C00453F8DA
S31500001EB0245025F4803543F8245053F82430BFF3DA
S31500001EC05F8F53099B0002F01F0203F160439140AC
S31500001ED003F56143C3F880111960012130BCFFF797
S31500001EE0D9BE8268012130BC137823F040031370F9
S31500001EF0FFF7D0BE006000408405002000E100E04E
S31500001F0070B5EFF30383364A103B5CB252F8246097
S31500001F10736893F90230002B49DB012031495A09D5
S31500001F2003F01F03203200FA03F341F82230BFF317
S31500001F304F8FBFF36F8FD6E9013293F902301178D4
S31500001F40002B21F04001117019DB274A03F1C00173
S31500001F5052F8215025F4803542F8215052F82120BC
S31500001F60BFF35F8F03F01F025B099B0003F1604321
S31500001F70904003F56143C3F880011860B268002100
S31500001F80D378D1701A07DDB224D4EB0715D405F047
S31500001F901405142D19D0144A04F1C00352F8231065
S31500001FA021F4803142F8231052F8233070BDB26814
S31500001FB0137823F040031370E1E70421304605F05F
S31500001FC01405FFF767FE142DE5D108213046FFF70B
S31500001FD061FEE0E705213046FFF75CFED5E700BF6E
S31500001FE08405002000E100E00060004008B500F034
S31500001FF031FF002008BD00BF0346406810B49C684E
S31500002000421C944208BF00221C68944206D0DC6839
S31500002010215400205A605DF8044B70474FF0FF30A2
S31500002020F9E700BFD0E900329A420CD0C268D35C0F
S315000020300B700368826801339342036004BF002378
S315000020400360002070474FF0FF30704700200021EA
S31500002050402210B4064B074CC3E90001DC60064C75
S315000020609A601C61054C5C615DF8044B704700BFCB
S315000020706006002078060020F91F000025200000D9
S3150000208010B50024064B074A0748C3E900421C81E5
S315000020901C731C611C7501F0C9F8204610BD00BFF9
S315000020A064000020E8032D04C0450000014B1860C1
S315000020B0704700BF64000020F0B5A7B000F078FFBD
S315000020C01F4C204D2389E1791F4ACDE90313A379DB
S315000020D080210293A388019323680093A5FB000344
S315000020E006A89B0901F0AAF8A669DEB1237DCBB14B
S315000020F03769BFB106A801F01BFA024606A93046A9
S3150000210092B2B847011E0DDB06AA104801F026F868
S3150000211000F04EFF03460020A5FB03539B092361F5
S3150000212027B0F0BD06A90A4801F018F800F040FFF4
S315000021300346044A4FF0FF30A2FB03239B09EEE758
S3150000214064000020D34D6210EC45000020460000DC
S3150000215040460000014B9861704700BF64000020B4
S31500002160012330B5084C83B008482373237501F06A
S315000021705DF82589E379A279A1880548009500F0E4
S31500002180EDFF002003B030BD640000204C46000087
S315000021906C46000010B50446006882B0C0B1FF234B
S315000021A00D498DF8073001F0ACF988B90B4B4FF4A7
S315000021B080619A68186893690DF10702984718B903
S315000021C09DF9070002B010BD2168054800F0C6FF62
S315000021D04FF0FF3002B010BDAC4600004444000092
S315000021E0B446000038B50446006898B10D460B4960
S315000021F001F087F940B90A4B4FF480619A68186874
S31500002200D369EAB2984708B9002038BD2168054865
S3150000221000F0A4FF4FF0FF3038BD00BFAC46000011
S3150000222044440000B446000070B50568002D2ED069
S3150000223004461D49284601F064F980B91B4B9D6888
S315000022401E682A6830465968904718BB30466B6846
S3150000225098472168C0B9164800F080FF25682846CF
S31500002260144901F04EF940B9134BD3E9011218682D
S31500002270126890470E2812D008B1002070BD216860
S315000022800E4800F06BFFF8E70D4800F067FF4FF0CF
S31500002290FF3070BD21680B4800F060FFF7E70A4881
S315000022A000F0C4FFF3E700BFE4460000504400001E
S315000022B00C470000AC46000044440000784700008C
S315000022C02C470000EC4600004C47000010B50849BA
S315000022D0044601F016F940B12046064901F011F90D
S315000022E008B9054810BD002010BD044810BD00BF48
S315000022F0E4460000AC460000840000209400002064
S3150000230008B54368062B00D008BD00F051FE024B0D
S315000023106430186008BD00BFB8060020084B1B6873
S31500002320834200D0704710B5064C07482178836871
S3150000233049B298472378B3FA83F35B09237010BD3B
S31500002340B806002080000020840000200379022BBC
S3150000235007D0042B00D07047044B017A18461B693E
S3150000236018470122024B1A70704700BF6006002012
S31500002370BD0600200379022B07D0042B00D070473E
S31500002380044B017A18461B6918470122024B1A7042
S31500002390704700BF60060020BC060020844608B5D2
S315000023A0064B0A46996818688B6861469847044A3E
S315000023B01378002BFCD00023137008BDCC4400001A
S315000023C0BC060020074B10B59C681868A368144625
S315000023D0984705490B78002BFCD000230B7020464C
S315000023E010BD00BF74440000BD0600202DE9F04F6B
S315000023F0B2F1000B85B028DD0D4600261C4BDFF838
S3150000240078A0D3F808801F681A4C01EB0B095046D8
S31500002410DAF814300DF10E0198470028F7D19DF82F
S315000024200E3001222B7029463846D8F8083001951F
S3150000243098472378002BFCD0019B267093F9003037
S3150000244001350D2B05D04D45E1D1584605B0BDE807
S31500002450F08F0A2301228DF80F303846D8F808305D
S315000024600DF10F0198472378002BFCD02670EAE780
S3150000247074440000BD0600206006002008B501F087
S3150000248037F8092203464FF0FF301A6008BD00BF37
S31500002490002070474FF4005300204B60704700BF88
S315000024A0012070472DE9F04100250F460D4C82B002
S315000024B0561E01F1FF3801E0AE420CDC204663698E
S315000024C00DF1070198470028F6D0002328467B55D2
S315000024D002B0BDE8F0819DF80730013508F8013FEC
S315000024E0ECE700BF600600202DE9F04782B00E46FB
S315000024F0074601F01DF8642303FB06F626B3002405
S3150000250080462546A146DFF858A007E09DF803203F
S315000025103B579A421DD00446B54215D25046DAF8CA
S3150000252014300DF1030198470028EFD0CDF8049040
S31500002530019B632B05DC019B01330193019B632BFC
S31500002540F9DD0135B542E9D34FF0FF3002B0BDE801
S31500002550F0870134A045DFD102B0BDE8F08700BFA7
S315000025606006002003232DE9F043074688461646F9
S31500002570664CB7B003762046636916A998470028CB
S31500002580F9D000230393039B614A934205DC039829
S3150000259001300390039B9342F9DD5C48656916A9F7
S315000025A0A8470028F9D043465A4A4021CDE900669B
S315000025B006A800F043FE584800F038FE03215748AD
S315000025C0FFF7ECFE06A800F0B3FF014606A8FFF7EA
S315000025D0E5FE02215248FFF7E1FE002344F61F659F
S315000025E00493049AAA4265DC98461E460DE008F15B
S315000025F0D8030DEB030919F8843C09F8800C2B2B42
S3150000260021D00496049BAB4254DC404863690DF12B
S315000026100B01984700283BD1B8F17E0FE7DC9DF807
S315000026200B2008F10103E84488F8582003F1D8028A
S315000026300DEB0209032B984609F8800CE1DD19F829
S31500002640843C2B2BDDD119F8833C4F2BD9D119F8BB
S31500002650823C4B2BD5D1334816A900F07FFD19F8E3
S31500002660813C3D2B36D0304816A900F077FD16AADE
S31500002670904412F8013B303BD9B2092943D942456F
S31500002680F7D1F96A294800F069FD04233B7618E082
S315000026900596059BB3F5FA7F06DA059B013305938C
S315000026A0059BB3F5FA7FF8DB049B01330493049B87
S315000026B0AB42AADD1B4816A900F050FD3B7E042B59
S315000026C003D1002037B0BDE8F08305234FF0FF307B
S315000026D03B76F7E7B8F17E0FC5DC16AB03EB0805D2
S315000026E009E09DF80B3008F10108B8F17F0F2B7057
S315000026F005F8010FB7D0636904480DF10B0198473F
S315000027000028EED0AFE71946FB62BBE76006002063
S315000027101FA107009C470000B0470000D8470000F3
S31500002720DC470000E0470000FC47000018480000B6
S315000027302DE9F04105460126A4B00B46144680213A
S31500002740594A04A82E7600F079FD03215748FFF771
S3150000275025FE04A800F0ECFE014604A8FFF71EFEC5
S3150000276002215348FFF71AFE4FF47A715148FFF7DA
S31500002770BBFE002840F0948023464F4A802104A8DF
S3150000278000F05CFD03214948FFF708FE04A800F0AD
S31500002790CFFE014604A8FFF701FE02214448FFF7D9
S315000027A0FDFD4FF47A714348FFF79EFE002877D16E
S315000027B003213E48FFF7F2FD05214048FFF7EEFDF5
S315000027C002213B48FFF7EAFD43F698213948FFF717
S315000027D08BFE0646002863D103213448FFF7DEFD51
S315000027E005213748FFF7DAFD02213148FFF7D6FD0C
S315000027F04FF47A712F48FFF777FE0296314A029B13
S31500002800934205DC029B01330293029B9342F9DD5E
S3150000281003212648FFF7C2FD05212B48FFF7BEFD21
S3150000282002212348FFF7BAFD4FF47A712148FFF7DA
S315000028305BFE28B1022330462B7624B0BDE8F0813A
S315000028400390039B214AC5F819009342C5F81D0061
S31500002850C5F82100C5F8250005DC039B0133039369
S31500002860039B9342F9DD4FF00008194C194F0FE016
S315000028709DF80730A3F13002092A07D8B8F10E0FE8
S3150000288004D805EB0802537608F10108013CD1D0C3
S3150000289038467B690DF1070198470028E8D0C9E75B
S315000028A005234FF0FF36C6E730480000D847000042
S315000028B0DC470000384800003C480000484800005B
S315000028C0504800003F420F00584800001FA1070073
S315000028D0A0860100600600202DE9F047037EB0B017
S315000028E0042B40F0D9800546894616466C4C204696
S315000028F0636910A998470028F9D000230493049B24
S31500002900684A934205DC049B01330493049B93427B
S31500002910F9DD3146EA6A644800F020FC2021EB6AC2
S31500002920624A0DEB0100009600F088FC0321604826
S31500002930FFF734FD08A800F0FBFD014608A8FFF7E5
S315000029402DFD02215B48FFF729FD00230593059A1B
S31500002950B046B2F5FA6F36DA9A461F460DF10F0504
S315000029600DE00AF1C0036B4413F8842C03F8800CC5
S315000029702B2A20D00597059BB3F5FA6F23DA294653
S31500002980474863699847002866D1BAF17E0FE8DCAC
S315000029909DF80F300AF10102EA448AF8403002F14C
S315000029A0C0036B44032A924603F8800CE2DD13F859
S315000029B0842C2B2ADED113F8832C4F2ADAD113F874
S315000029C0823C4B2BD6D131464846FFF7E7FC002325
S315000029D040F6B7370593059ABA4235DC99461E4646
S315000029E00DF10F050CE009F1C0036B4413F8842CBC
S315000029F003F8800C2B2A1FD00596059BBB4223DCCF
S31500002A002946274863699847002835D1B9F17E0FD2
S31500002A10E9DC9DF80F3009F10102E94489F84030FC
S31500002A2002F1C0036B44032A914603F8800CE3DDF0
S31500002A3013F8842C2B2ADFD113F8832C4F2ADBD1F1
S31500002A4013F8823C4B2BD7D11B4810A900F086FB0C
S31500002A50404630B0BDE8F0870697069BB3F5FA7F8F
S31500002A6006DA069B01330693069BB3F5FA7FF8DB7D
S31500002A70059B013305937EE70796079BB3F5FA7F1F
S31500002A8006DA079B01330793079BB3F5FA7FF8DB5A
S31500002A90059B01330593B0E74FF0FF38D8E700BF39
S31500002AA0600600203F420F00604800009448000086
S31500002AB0D8470000DC470000A0480000F0B56C4C89
S31500002AC087B0A16806466B4800F048FB6A4800F0EC
S31500002AD0ADFB00230193694A019B934205DC019BF0
S31500002AE001330193019B9342F9DD6148636905A9AE
S31500002AF098470028F9D0624800F098FB0321614806
S31500002B00FFF74CFC01216048FFF748FC02215F48B3
S31500002B10FFF744FC0023029303935D4F039BBB42E4
S31500002B201DDC0DF10305294651486369984780B9B4
S31500002B309DF803105748A1F120035E2B94BF0A4667
S31500002B403F2200F00BFB029B01330293029B642B96
S31500002B5005DC039B01330393039BBB42E3DD029930
S31500002B604D4800F0FBFA029B13B1029B042B3DDC9F
S31500002B703F48636905A998470028F9D0474800F0FF
S31500002B8055FB03213F48FFF709FC01214448FFF7A5
S31500002B9005FC02213D48FFF701FC00230293049344
S31500002BA03B4F049BBB421DDC0DF103052946304813
S31500002BB06369984780B99DF803103648A1F1200350
S31500002BC05E2B94BF0A463F2200F0C8FA029B0133EF
S31500002BD00293029B642B05DC049B01330493049B44
S31500002BE0BB42E3DD02992F4800F0B8FA204863693A
S31500002BF005A998470028F9D02B4800F017FB0321B8
S31500002C002048FFF7CBFB06212848FFF7C7FB022128
S31500002C101E48FFF7C3FB0023029305931C4F059B39
S31500002C20BB421DDC0DF1030529461148636998472F
S31500002C3080B99DF803101748A1F120035E2B94BFBD
S31500002C400A463F2200F08AFA029B01330293029B56
S31500002C50642B05DC059B01330593059BBB42E3DD35
S31500002C600299134800F07AFA0020307607B0F0BDDA
S31500002C7060060020BC480000E0480000BFC62D00EA
S31500002C8008490000D847000020490000DC47000042
S31500002C907F841E002449000030490000544900008A
S31500002CA06C4900007049000094490000B0490000DA
S31500002CB0B8490000002310B40D490E4C0E4A0F48C7
S31500002CC0C4E900120E4A0F49E2600F4A2376C4F89F
S31500002CD01930C4F81D30C4F82130C4F82530A0607E
S31500002CE0216120466261E3625DF8044B704700BFD4
S31500002CF0DC490000C0060020BD2A00003127000084
S31500002D0065250000D9280000A524000030B53C4800
S31500002D10C7B000F08BFAFFF7CDFF00286CD04368F0
S31500002D2004469847002859D1364800F07FFA3648BD
S31500002D3000F07CFA2046354A3549A36898470028B2
S31500002D4046D104F11901334800F008FA324800F080
S31500002D506DFAFFF795F9002848D12046FFF7FAF9F2
S31500002D602E4800F063FA41F6907220462C49E3683B
S31500002D709847002838D12B4800F058FA2A4800F026
S31500002D8055FAFFF7EDF9002838D1284D0DF1040C5E
S31500002D900FCDACE80F002B681122ACF80030236988
S31500002DA001A9204698470146214800F0D7F906A90F
S31500002DB04FF48072204663699847011E03DD1D4863
S31500002DC006AA00F0CBF91C4800F030FA47B030BD37
S31500002DD01A4847B0BDE8304000F028BA184847B056
S31500002DE0BDE8304000F022BA1648F2E7164847B070
S31500002DF0BDE8304000F01ABA1448EAE71448E8E79C
S31500002E00E44900003C4A0000504A0000704A0000B5
S31500002E107C4A0000A44A0000C44A0000144B00008B
S31500002E20384B0000684B0000804B0000204C00002F
S31500002E30D04B0000E84B0000084C0000844A00001C
S31500002E40244A0000484B0000F04A0000044A0000F3
S31500002E50A84B000070B5FFF7F9F8204BD3E9011233
S31500002E6018681268904701461D4800F077F91D4B17
S31500002E70D3E9011218681268904701461A4800F013
S31500002E806DF91A4800F0D2F9194B01229B684FF4EC
S31500002E908061DB691748984700F036F8FFF736FF80
S31500002EA01548FFF713FA78B104461448FFF70EFAEF
S31500002EB0054670B120466368984720B928466B6876
S31500002EC0BDE87040184770BD0D48BDE8704000F081
S31500002ED0ADB90C48BDE8704000F0A8B974440000D4
S31500002EE0344C0000CC440000484C00005C4C000010
S31500002EF044440000DC050020E4460000AC46000027
S31500002F00784C0000904C0000052010B5FDF78EFAB5
S31500002F100B4BA3FB00239B09013BB3F1807F0DD232
S31500002F204FF0E0224FF0F00C0021072405485361D2
S31500002F3080F823C091610846146110BD012010BDC0
S31500002F40D34D621000ED00E010B5154C154A23680C
S31500002F5011680133236023685B1AB3F57A7F0CD2BC
S31500002F6041F28731104A236810681B1A8B420ED82B
S31500002F702068BDE81040FFF7D1B90C4B20681968EE
S31500002F801060013119601868FFF790F8E8E72368C8
S31500002F901360FFF791F82068BDE81040FFF7BEB94F
S31500002FA0FC060020F4060020F8060020F0060020AB
S31500002FB0014B1868704700BFFC060020022800D0AD
S31500002FC0704702490248FDF73BBF00BF0C450000B1
S31500002FD0DC050020002310B5044683608181194674
S31500002FE04366C28108228361C0E90033C0E9043325
S31500002FF05C3000F02FFA0D4B246263620C4BA36227
S315000030000C4BE3620C4B23630C4B9C4206D003F142
S315000030106802944202D0D0339C4205D104F1580094
S31500003020BDE8104000F06ABA10BD00BFA93200002A
S31500003030CB320000033300002933000000070020D4
S31500003040024A0349034800F06BB800BFA400002001
S3150000305091400000B400002041680C4B994210B525
S31500003060044601D001F014F8A168094B994202D038
S31500003070204601F00DF8E168064B994204D020463F
S31500003080BDE8104001F004B810BD00BF00070020E5
S3150000309068070020D00700200C4B04210C4A0D487D
S315000030A010B51A600022FFF795FF0A4B012209218D
S315000030B01C4603F16800FFF78DFF022204F1D000E1
S315000030C01221BDE81040FFF785BF00BF3808002079
S315000030D04130000000070020014800F010BA00BF90
S315000030E041080020014800F00BBA00BF410800204B
S315000030F010B50446FFF7F0FF236A1BB1BDE8104088
S31500003100FFF7F0BF044B2362044B1B68002BF5D17D
S31500003110FFF7C2FFF2E700BF593000003808002071
S315000031202DE9F8430746884614460026D4E901955A
S31500003130B9F1010905D52468002CF7D13046BDE860
S31500003140F883AB89012B07D9B5F90E30013303D0CB
S3150000315029463846C04706436835E9E70FB407B540
S31500003160064904AB086853F8042B8168019300F004
S3150000317065FC03B05DF804EB04B07047B0000020B6
S31500003180036A70B505460E4684680BB9FFF7B0FFB3
S31500003190636EDB0705D4A389980502D4A06D00F001
S315000031A0AEF9A389190702D52369002B35D121462B
S315000031B0284600F0FBF880B34FF0FF35636EDA0760
S315000031C005D4A3899B0502D4A06D00F099F9284681
S315000031D070BD002B04DAA269934217DB0A2915D0C9
S315000031E023685A1C22601970A36816F8011F013B58
S315000031F0A3600029EDD1002B11DA22460A212846C8
S3150000320000F096F80130D7D00A25D7E7224628469F
S3150000321000F08EF80130E7D1CEE7013EE4E72368FF
S315000032205A1C22600A221A70EEE70000024B014681
S315000032301868FFF7A5BF00BFB00000200CB4194BFB
S3150000324030B50C1E9DB01D6808DA8B234FF0FF3099
S315000032502B601DB0BDE8304002B070474FF40273DA
S315000032600290069002A9ADF814304FF00003209AA0
S3150000327028461B9314BF04F1FF3323460493079398
S315000032804FF6FF73ADF8163021AB019300F0B0FA9C
S31500003290431CBCBF8B232B60002CDAD0029B002280
S315000032A01A70D6E7B000002010B50C46B1F90E1022
S315000032B000F0FAF80028ABBF636DA3891B1823F44E
S315000032C08053ACBF6365A38110BD2DE9F0411F4655
S315000032D08B8905460C46DB05164605D502230022DA
S315000032E0B1F90E1000F0CEF8A3893246B4F90E10EB
S315000032F0284623F48053A3813B46BDE8F04100F005
S31500003300E5B810B50C46B1F90E1000F0BBF8421C3A
S31500003310B4F90C3015BF606523F4805343F4805331
S31500003320A38118BFA38110BDB1F90E1000F09AB8A1
S31500003330F8B50E461446054618B1036A0BB9FFF7F1
S31500003340D7FEA369A360A3891A0701D5236943B9E8
S315000033502146284600F02AF818B14FF0FF373846C4
S31500003360F8BD2368F6B222693746981A6369834224
S3150000337005DC2146284600F08BFE0028EDD1A36827
S31500003380013BA36023685A1C22601E70431C6269BD
S315000033909A4204D0A389DB07E1D50A2EDFD1214664
S315000033A0284600F075FE0028D9D0D6E738B5284B58
S315000033B005460C46186818B1036A0BB9FFF798FE64
S315000033C0B4F90C30190721D4DA0607D409222A6089
S315000033D043F040034FF0FF30A38131E0580712D588
S315000033E0616B41B104F14403994202D0284600F0D2
S315000033F0A7F8002363630022B4F90C30626023F05F
S3150000340024032269226043F00803A381226942B99A
S3150000341003F42073B3F5007F03D02146284600F05D
S3150000342083FEB4F90C3013F001020AD00022A26028
S3150000343062695242A261226942B913F08000C7D183
S3150000344038BD990758BF6269A260F4E70020F7E724
S31500003450B000002002440346934200D1704703F8AF
S31500003460011BF9E738B50023054D044608462B60D5
S31500003470FFF704F8431C02D12B6803B1236038BD63
S315000034803C08002038B50446064D08461146002281
S315000034902A601A46FEF7FCFF431C02D12B6803B1D3
S315000034A0236038BD3C08002038B50446064D084662
S315000034B0114600222A601A46FEF798FF431C02D1E5
S315000034C02B6803B1236038BD3C08002038B504469C
S315000034D0064D0846114600222A601A46FEF772FF7C
S315000034E0431C02D12B6803B1236038BD3C08002081
S315000034F0014B1868704700BFB00000207047704746
S31500003500704710F8012B11F8013B012A28BF9A4297
S31500003510F7D0D01A70470A44431E914200D1704733
S3150000352010B511F8014B914203F8014FF9D110BDC6
S31500003530034613F8012B002AFBD1181A01387047ED
S3150000354038B50546002941D051F8043C0C1F002B24
S31500003550B8BFE41800F0E0F81D4A136833B9636099
S3150000356014602846BDE8384000F0DCB8A34208D90C
S31500003570206821188B4201BF19685B680918216011
S31500003580EDE71A465B680BB1A342FAD911685018E9
S31500003590A0420BD120680144501811608342E0D14B
S315000035A018685B68084453601060DAE702D90C2398
S315000035B02B60D6E7206821188B4202BF19685B682A
S315000035C00918636008BF21605460CAE738BD00BFB0
S315000035D04808002070B50F4E0C460546316811B9F3
S315000035E000F016FE30602146284600F011FE431C0E
S315000035F003D14FF0FF34204670BDC41C24F00304F1
S31500003600A042F8D0211A284600F002FE0130F2D17D
S31500003610EFE700BF440800202DE9F843CD1C06461D
S3150000362025F0030508350C2D38BF0C25002D01DBD0
S31500003630A94204D90C2333600020BDE8F883DFF8E3
S31500003640D48000F069F8D8F800301C4644BB2946FF
S315000036503046FFF7BFFF431C044658D1D8F8004058
S315000036602746002F43D1002C4BD0236839463046DD
S3150000367004EB030900F0CCFD814542D121683046B8
S315000036806D1A2946FFF7A6FF01303AD023682B446E
S315000036902360D8F800305A6862BBC8F800700FE0A3
S315000036A02268521B20D40B2A17D96119A342256020
S315000036B018BF5960636808BFC8F8001062514B60B4
S315000036C0304600F02FF804F10B00231D20F0070010
S315000036D0C21A1CBF1B1AA350AFE76268A3420CBFF5
S315000036E0C8F800205A60EBE723466468AEE73C461C
S315000036F07F68B6E71A465B68A342FBD10023536096
S31500003700DEE70C233046336000F00CF894E70560E2
S31500003710D6E700BF480800200148FFF7F0BE00BF0B
S31500003720400800200148FFF7EBBE00BF400800201C
S315000037302DE9F0471F468E6882460C46BE429046EB
S31500003740334653D8B1F90C0010F4906F2BD065694D
S315000037502368096905EB4505A3EB010905EBD5755A
S315000037607B1C6D104B442A46AB4284BF1D462A463D
S31500003770430527D511465046FFF74EFF064658B378
S315000037804A462169FFF7C7FEA38923F4906343F0F5
S315000037908003A38126614E4465613B46A5EB09057E
S315000037A026603E46A5601F463A464146206800F020
S315000037B0F4FCA36800209B1BA36023683B442360A2
S315000037C0BDE8F087504600F041FD06460028E1D1ED
S315000037D021695046FFF7B4FE0C234FF0FF30CAF8BC
S315000037E00030A38943F04003A381E9E73E46DBE7C7
S315000037F02DE9F04F98468B899DB007461B060D466E
S31500003800144610D50B6973B94021FFF705FF2860F0
S31500003810286130B90C233B604FF0FF301DB0BDE886
S31500003820F08F40236B610023CDF80C804FF0010927
S31500003830DFF8A081099320238DF8293030238DF8F5
S315000038402A3023469A4613F8012B0AB1252AF9D1C4
S31500003850BAEB040B0BD05B46224629463846FFF7E7
S3150000386067FF013000F0A780099A5A4409929AF836
S315000038700030002B00F09F8000234FF0FF320AF14A
S31500003880010A049307938DF853301A93CDE9052363
S31500003890544605224F4814F8011B00F0C9FC049A4F
S315000038A0D8B9D00644BF20238DF85330110744BF42
S315000038B02B238DF853309AF800302A2B15D0079A0F
S315000038C0544600204FF00A0C214611F8013B303BCC
S315000038D0092B4BD9B0B1079214E0A0EB0803A2461E
S315000038E009FA03F313430493D2E7039B191D1B68DC
S315000038F0002B0391BBBF5B4242F002020793079382
S31500003900B8BF049223782E2B0AD163782A2B32D1A2
S31500003910039B02341A1D1B6843EAE3730392059363
S31500003920DFF8C0A003222178504600F081FC38B1B0
S31500003930A0EB0A004022049B013482401343049307
S3150000394014F8011B062224488DF8281000F070FC9C
S31500003950002836D0214B1BBB039B073323F00703FC
S3150000396008330393099B334409936AE70CFB02323D
S315000039700C460120A8E7002301344FF00A0C194633
S315000039800593204610F8012B303A092A03D9002B5B
S31500003990C6D00591C4E70CFB012104460123F0E7DC
S315000039A003AB2A4604A9384600930D4BAFF30080BB
S315000039B0421C0646D6D1AB895B063FF52DAF09986A
S315000039C02CE703AB2A4604A938460093044B00F0C3
S315000039D0BFF9EDE7A84C0000B24C00000000000063
S315000039E031370000AE4C00009368013B002B10B449
S315000039F0936008DA9469A34201DB0A2903D15DF8D2
S31500003A00044BFFF795BC1368581C106008461970E4
S31500003A105DF8044B7047F8B506460F461446D518B0
S31500003A20AC4201D1002007E03A4614F8011B3046AB
S31500003A30FFF7DAFF431CF3D1F8BD00002DE9F04F84
S31500003A400D469DB014469846064618B1036A0BB952
S31500003A50FFF74EFB6B6ED90705D4AB899A0502D4E6
S31500003A60A86DFFF74CFDAB891B0701D52B699BB9E8
S31500003A7029463046FFF79AFC70B16B6EDC0704D519
S31500003A804FF0FF301DB0BDE8F08FAB899805F7D435
S31500003A90A86DFFF735FDF3E70023CDF80C804FF056
S31500003AA00109DFF8B481099320238DF829303023EA
S31500003AB08DF82A3023469A4613F8012B0AB1252A97
S31500003AC0F9D1BAEB040B0BD05B46224629463046A9
S31500003AD0FFF7A1FF013000F0A780099A5A44099226
S31500003AE09AF80030002B00F09F8000234FF0FF3241
S31500003AF00AF1010A049307938DF853301A93CDE91E
S31500003B00052354460522544814F8011B00F090FB87
S31500003B10049AD8B9D10644BF20238DF85330130731
S31500003B2044BF2B238DF853309AF800302A2B15D03A
S31500003B30079A544600204FF00A0C214611F8013B23
S31500003B40303B092B4BD9B0B1079214E0A0EB080328
S31500003B50A24609FA03F313430493D2E7039B191D04
S31500003B601B68002B0391BBBF5B4242F00202079326
S31500003B700793B8BF049223782E2B0AD163782A2B99
S31500003B8032D1039B02341A1D1B6843EAE373039286
S31500003B900593DFF8D4A003222178504600F048FBB5
S31500003BA038B1A0EB0A004022049B01348240134343
S31500003BB0049314F8011B062228488DF8281000F0FB
S31500003BC037FB00283FD0264B1BBB039B073323F054
S31500003BD0070308330393099B3B4409936AE70CFBED
S31500003BE002320C460120A8E7002301344FF00A0CEC
S31500003BF019460593204610F8012B303A092A03D9B5
S31500003C00002BC6D00591C4E70CFB01210446012315
S31500003C10F0E703AB2A4604A930460093114BAFF3F5
S31500003C2000800746781CD6D16B6ED90705D4AB89C0
S31500003C309A0502D4A86DFFF763FCAB895B063FF5D6
S31500003C401FAF09981EE703AB2A4604A93046009326
S31500003C50044B00F07DF8E4E7A84C0000B24C0000ED
S31500003C6000000000173A0000AE4C00002DE9F047B6
S31500003C70164698468A6807460B690C46DDF820907A
S31500003C809342B8BF1346336091F843200AB101331B
S31500003C9033602368990642BF336802333360256870
S31500003CA015F0060506D104F1190AE36832689B1A75
S31500003CB0AB422BDC94F843302268003B18BF01234B
S31500003CC0920630D404F1430241463846C8470130D3
S31500003CD023D023681A3454F80A2C03F00603042B65
S31500003CE00ABF54F80E5C002533684FF0000608BF83
S31500003CF0ED1A54F8123C08BF25EAE5759342C4BF95
S31500003D009B1AED18B5421AD1002008E0012352464D
S31500003D1041463846C847013003D14FF0FF30BDE871
S31500003D20F0870135C1E7E1185A1C302002332244DE
S31500003D3081F8430094F8451082F84310C2E7012346
S31500003D40224641463846C8470130E6D00136D9E713
S31500003D502DE9FF470F7E914680460C46782F9A46FE
S31500003D600C9E01F1430207D8622F0AD8002F00F0FB
S31500003D70D280582F00F0B78004F1420684F84270D2
S31500003D803AE0A7F16303152BF6D801A151F823F009
S31500003D90E93D0000FD3D0000793D0000793D000051
S31500003DA0793D0000793D0000FD3D0000793D0000B1
S31500003DB0793D0000793D0000793D0000FD3E0000A0
S31500003DC0273E0000B33E0000793D0000793D00002B
S31500003DD01F3F0000793D0000273E0000793D0000AE
S31500003DE0793D0000BB3E000033681A1D1B68326037
S31500003DF004F1420684F8423001239DE033682068CE
S31500003E00191D3160060601D51D6803E04506FBD580
S31500003E10B3F90050002D03DA2D236D4284F84330A8
S31500003E2059480A2310E021683368080653F8045BF2
S31500003E3002D4490648BFADB26F2F5348336059D1FB
S31500003E400823002184F843106668002EA66005DB6F
S31500003E5021682E4321F0040121604DD01646B5FBA2
S31500003E60F3F103FB1157C75D06F8017D2F460D469A
S31500003E70BB42F4D9082B0BD12368DF0708D5236989
S31500003E8061689942DEBF302306F8013C06F1FF3631
S31500003E90921B22614B4603AA21464046CDF800A05C
S31500003EA0FFF7E4FE01304CD14FF0FF3004B0BDE81F
S31500003EB0F087236843F0200323607827334823687C
S31500003EC084F845701F06316851F8045B02D45F061A
S31500003ED048BFADB23160D90744BF43F02003236029
S31500003EE01DB11023ADE72848E9E7236823F0200336
S31500003EF02360F6E70A23A4E71646BBE7336825687E
S31500003F00181D616930602E061B6801D5196002E034
S31500003F106806FBD51980002316462361BAE7336885
S31500003F2000211A1D32601E686268304600F080F972
S31500003F3008B1801B606063682361002384F8433006
S31500003F40A8E72369324649464046D0470130ABD000
S31500003F5023689B0713D4E068039B9842B8BF1846B2
S31500003F60A4E70123324649464046D04701309BD05C
S31500003F700135E36803995B1AAB42F2DCEBE70025F7
S31500003F8004F11906F5E700BFB94C0000CA4C000061
S31500003F90B1F90C202DE9F041160705460C4651D41F
S31500003FA04B68002B02DC0B6C002B49DDE66A002E09
S31500003FB046D0002312F480522F682B6031D0626DF8
S31500003FC0A389590705D56368D21A636B0BB1236CB5
S31500003FD0D21A0023E66A216A2846B047421CB4F981
S31500003FE00C3006D129681D2945D8284ACA40D6076B
S31500003FF041D50022D90462602269226004D5421CA0
S3150000400001D12B6803B96065616B2F60C1B104F102
S315000040104403994202D02846FFF792FA00236363CD
S315000040200EE00123216A2846B0470246501CC7D13C
S315000040302B68002BC4D01D2B01D0162B19D12F6055
S3150000404000201DE00F69002FFAD093070E680F605D
S315000040500CBF4B690023A6EB07088B60B8F1000F75
S31500004060EEDD43463A46216A2846A66AB04700284E
S3150000407008DCB4F90C3043F040034FF0FF30A38165
S31500004080BDE8F0810744A8EB0008E7E701004020FF
S3150000409038B50B6905460C4613B90025284638BDC8
S315000040A018B1036A0BB9FFF723F8B4F90C30002BEB
S315000040B0F3D0626ED00704D4990502D4A06DFFF741
S315000040C01EFA28462146FFF763FF636E0546DA07A8
S315000040D0E4D4A3899B05E1D4A06DFFF711FADDE7CF
S315000040E070B50C46B1F90E1096B0154600291E465D
S315000040F00ADAA18911F0800113D14FF48062002001
S3150000410031602A6016B070BD6A4600F05FF800287C
S31500004110EFDB019901F47041A1F500535942594171
S31500004120EBE700214022EAE78B8973B59E07054637
S315000041300C4607D504F1470323602361012363611D
S3150000414002B070BD01AB6A46FFF7CAFF009E284663
S315000041503146FFF761FAB4F90C3038B99A05EFD455
S3150000416023F0030343F00203A381E3E743F0800354
S315000041702060A381019BC4E90406002BE0D0B4F9BA
S315000041800E10284600F034F80028D9D0A38923F071
S31500004190030343F00103A381D2E7884210B501EB84
S315000041A0020402D98442234607D8431EA14207D0FF
S315000041B011F8012B03F8012FF8E70244824200D1DF
S315000041C010BD13F8011D02F8011DF7E738B50023ED
S315000041D0064D0446084611462B60FEF75BF9431C64
S315000041E002D12B6803B1236038BD00BF3C08002014
S315000041F038B50023054D044608462B60FEF750F9F6
S31500004200431C02D12B6803B1236038BD3C08002053
S3150000421038B50023054D044608462B60FCF776FAB0
S31500004220431C02D12B6803B1236038BD3C08002033
S31500004230C9B20346024410B59342184601D1002084
S3150000424003E0047801338C42F6D110BD2DE9F0412C
S31500004250074614460D4621B91146BDE8F041FFF761
S31500004260DBB92AB92546FFF76BF92846BDE8F08188
S3150000427000F01AF88442064602D8B4EB500FF4D880
S3150000428021463846FFF7C8F9804608B94546ECE7A7
S31500004290B4422246294628BF3246FFF73CF9294652
S315000042A03846FFF74DF9F1E751F8043C181F002B8B
S315000042B0BCBF0B58C0187047010002000800100070
S315000042C020000000040000006C430000080000000D
S315000042D0EC42000002000000DC4200000000006822
S315000042E000000068000100200001002000000068B6
S315000042F0000000680000006000010C080000006873
S315000043000000006800000070000109080000006855
S3150000431000000068000000080001020800000068B4
S31500004320000000688C000000000101084C0000201D
S315000043304C0000200000006000010C034C0000202F
S315000043404C00002000000070000109034C00002012
S315000043504C00002000000008000002034C00002072
S31500004360000100208C00000000000103000000682E
S3150000437000000068000100080000006800000068F6
S3150000438000010008000100200001002000000003D9
S31500004390200500204C08002000000003F50800005E
S315000043A08108000021070000AD070000CD070000CE
S315000043B0A5070000A9070000ED070000510800004E
S315000043C0490800004D080000A5090000290A000060
S315000043D06D0A00009D0A0000A90A000002040304F9
S315000043E004040000410E0000650B0000550E00009D
S315000043F0610E0000290C0000790C0000710B000012
S31500004400C50B0000E50B0000110C00005D0C000060
S31500004410950B0000A90B0000ED1500000913000024
S315000044203D130000B9130000151400003D140000F0
S31500004430A9130000D114000091140000CD1400004F
S31500004440E9150000DC0500200C450000E4430000EF
S31500004450E40500205C440000C8430000060C0A0086
S31500004460030000000123000000000000704400006B
S3150000447000000000F40500208044000018440000FD
S31500004480020200000C000C010C020C0300000000EC
S31500004490B44400004D23000000000000A0440000CA
S315000044A0000100004C0000200F00FFFF000000008C
S315000044B0FFFF000024060020C04400009C430000CB
S315000044C050000020C8440000010000002C06002017
S315000044D0D844000018440000060200000C0F0C101F
S315000044E00C110C12000000000000000075230000F3
S315000044F000000000F84400000001000060000020F9
S315000045000F00FFFF00000000FFFF0000100000008A
S3150000451018450000000000000040000000000000F8
S315000045200000010008010000000001040C01000069
S31500004530000001040D010000000001060202000057
S31500004540000001060302000000000106040200004C
S3150000455040000104060200004000010407020000BA
S315000045600000010000030000040000000004000039
S31500004570000001050A040000000001040505000012
S315000045800000010406050000000001050607000002
S3150000459000000105070700008C018D018E018F01C7
S315000045A0920193019401950199019A010700C401B2
S315000045B0C501C801C701A401A501A601A701000004
S315000045C05B44697370656E7365725D2053797374AD
S315000045D0656D20696E697469616C697A6564202805
S315000045E054657374204D6F6465290D0048422C5440
S315000045F0533D256C752C52554E3D256C752C5741F7
S31500004600543D256C752C544D503D256C752C514CE4
S31500004610543D256C752C4355503D256C75000000A6
S315000046205B4865617274626561745D2053656E7482
S315000046302025642062797465733A2025730D0A007B
S3150000464048423A2025730D0A000000005B44697356
S3150000465070656E7365725D20456E746572204E6F6F
S31500004660726D616C204D6F64650D00005B4469736B
S3150000467070656E7365725D2057617465723A2025A8
S31500004680646D6C2C2054656D703A202564E2848339
S315000046902C205175616C6974793A2025642C20436D
S315000046A07570733A2025640D0A0000005573657213
S315000046B04C6564004572726F722E204661696C65A6
S315000046C06420746F207772697465206C6576656CFA
S315000046D020696E20494F206465766963653A202516
S315000046E0730D0A00557365724B6579004661696CF6
S315000046F0656420746F206F70656E204B6579206449
S3150000470065766963653A2025730D0A005375636300
S3150000471065737320746F20656E61626C6520257306
S31500004720277320697271210D0A0000004661696CC9
S31500004730656420746F20656E61626C652025732741
S315000047407320697271210D0A000000004572726FB4
S31500004750722C204750494F732061726520616C723C
S3150000476065616479206F70656E20616E6420696E84
S3150000477069742E0D00000000537563636573732022
S31500004780746F206F70656E204C6564206465766971
S3150000479063653A202573210D0A000000534B4354EC
S315000047A03D302C302C25732C25642C25640000000C
S315000047B05B573830305D2053656E64696E672054F0
S315000047C0435020636F6E6E65637420636F6D6D6119
S315000047D06E642E2E2E0D000041542B000D0A000093
S315000047E00D0A5B573830305D205443502072657394
S315000047F0706F6E73653A2025730D0A005B5738306B
S31500004800305D2046756C6C20726573706F6E7365D3
S315000048103A2025730D0A00005B573830305D20536F
S315000048206F636B6574206664203D2025640D0A0065
S31500004830535349443D2573002B4F4B004B45593D7F
S31500004840312C302C25730000574A4F494E0000008A
S315000048504E49503D300000004C4B5354540000006C
S315000048605B573830305D2053656E64696E6720642F
S31500004870617461202564206279746573207573699B
S315000048806E6720736F636B65742025642E2E2E0D64
S315000048900A000000534B534E443D25642C2564000A
S315000048A05B573830305D2053656E642072657370D7
S315000048B06F6E73653A2025730D0A00005B5738301A
S315000048C0305D2052582062756620696E6974204FEB
S315000048D04B2C2073697A653D25640D0A00000000A3
S315000048E05B573830305D2057616974696E672066A2
S315000048F06F72205738303020626F6F742028337300
S31500004900292E2E2E0D0000005B573830305D2054C6
S3150000491065737420313A2041542B5A0D0000000073
S315000049205A00000025303258202725632720000032
S315000049300D0A5B573830305D205465737431207230
S31500004940656365697665642025642062797465739C
S315000049500D0A00005B573830305D205465737420B3
S31500004960323A2041542B450D00000000450000005E
S315000049700D0A5B573830305D2054657374322072EF
S31500004980656365697665642025642062797465735C
S315000049900D0A00005B573830305D20546573742073
S315000049A0333A2041542B575052543D300D000000ED
S315000049B0575052543D3000000D0A5B573830305D79
S315000049C02054657374332072656365697665642067
S315000049D025642062797465730D0A000057383030FB
S315000049E0000000005B573830305D205374617274EC
S315000049F0696E67205769466920546573742E2E2E9A
S31500004A000D0000005B573830305D204661696C65EB
S31500004A106420746F20676574206465766963652118
S31500004A200D0000005B573830305D20496E697420F8
S31500004A306661696C6564210D000000005B573830C3
S31500004A40305D2041542074657374204F4B0D000077
S31500004A505B573830305D20436F6E6E656374696EE8
S31500004A606720746F20576946692E2E2E0D000000B0
S31500004A703236383632363238000000004C75636BF9
S31500004A80790000005B573830305D20576946692051
S31500004A90636F6E6E656374696F6E206661696C65BF
S31500004AA064210D005B573830305D20576946692018
S31500004AB0636F6E6E6563746564212049503A2025E4
S31500004AC0730D0A005B53797374656D5D20496E69D9
S31500004AD07469616C697A696E672044697370656E82
S31500004AE07365722053797374656D2E2E2E0D00003A
S31500004AF05B53797374656D5D2044697370656E737D
S31500004B00657220696E6974206661696C6564210D41
S31500004B10000000005B573830305D20436F6E6E65D5
S31500004B206374696E6720746F2054435020736572F6
S31500004B307665722E2E2E0D0031302E3133362E3103
S31500004B4037322E31373400005B573830305D205411
S31500004B50435020636F6E6E656374696F6E20666185
S31500004B60696C6564210D00005B573830305D205458
S31500004B70435020636F6E6E6563746564210D00009B
S31500004B805B53797374656D5D2053776974636869E7
S31500004B906E6720746F204E6F726D616C204D6F646E
S31500004BA0652E2E2E0D0000005B53797374656D5DC6
S31500004BB0204661696C656420746F20656E74657249
S31500004BC0206E6F726D616C206D6F6465210D000043
S31500004BD05B573830305D2053656E74202564206243
S31500004BE0797465730D0A00005B573830305D2052CA
S31500004BF065636569766564202564206279746573EA
S31500004C003A2025730D0A00005B573830305D20547A
S31500004C1065737420636F6D706C65746564210D0037
S31500004C2048656C6C6F2066726F6D205241364D354B
S31500004C30210000005541525432206F70656E3A20B3
S31500004C4025640D0A000000005541525436206F704D
S31500004C50656E3A2025640D0A0000000068656C6CDC
S31500004C606F20776F726C64212046726F6D206C75B1
S31500004C70636B790D000000004661696C6564207401
S31500004C806F2067657420557365724B6579210D0039
S31500004C904661696C656420746F206765742055737E
S31500004CA065724C6564210D00232D302B2000686C45
S31500004CB04C00656667454647003031323334353639
S31500004CC03738394142434445460030313233343572
S31500004CD03637383961626364656600004275696C0F
S31500004CE07420776974682052656E6573617320411C
S31500004CF06476616E63656420466C657869626C658E
S31500004D0020536F667477617265205061636B6167CB
S31500004D10652076657273696F6E20362E342E3000EC
S31100004D20362E342E300000000000040681
S30900004D2CF8B500BF11
S30900004D30F8B500BF0D
S30900004D34650100000F
S30900004D38410100002F
S30D00004D3CC6E7FF7F010000003D
S3090100A100FFFFFFFF58
S3090100A200FFFDFFFF59
S3090100A280F8F8FFFFE5
S7050000018574
