S01400005241364D352D50726F6A63742E7372656326
S3150000000020050020B5120000B5160000B112000050
S31500000010B1120000B1120000B1120000B1120000CE
S31500000020000000000000000000000000B112000007
S31500000030B112000000000000B1120000E13F000014
S31500000040CD3100003531000095320000DD32000070
S315000000502D290000C1280000A5290000E52900007F
S31500000060ED2500009527000041210000FD3300002A
S31500000070993400004135000029360000CD310000DA
S315000000803531000095320000DD320000ED2500001C
S3090000009095270000AA
S3150000009440003500000010080000000000000000C9
S315000000A40000000040003500308C01000102000011
S315000000B4A9370000F9370000ED370000388C01003D
S315000000C400010000A9370000F9370000ED370000F1
S315000000D400000000E8032D040000000000000000FA
S315000000E40000000000000000000000000100000005
S315000000F4A08C0100B53B0000713B0000213B0000D1
S31500000104000000000300000064130020D400002057
S315000001140000000064130020CC13002034140020D7
S3150000012400000000000000000000000000000000C5
S3150000013400000000000000000000000000000000B5
S3150000014400000000000000000000000000000000A5
S3110000015400000000000000000000000099
S3150000016010B5054C237833B9044B13B10448AFF3EB
S3150000017000800123237010BD400500200000000010
S3150000018084A2000108B5034B1BB103490348AFF332
S31500000190008008BD000000004405002084A2000184
S315000001A0E2B14FF0000C083050ED027A10ED017A02
S315000001B067EEA77A27EE077A77EE877AF5EEC07AAA
S315000001C0F1EE10FA0B4601F1040108DBF1EEE77AD5
S315000001D0C3ED007A013A00F10800E5D1704741F815
S315000001E004CCF7E731B32DE9F0414FF0000E02F1F0
S315000001F0020832F81EC038F81E304FEA9C0C9B08E5
S3150000020050F82C7050F823604FEA8C059C0040F89B
S315000002102C6040F8237005F1040C231D50F80C5097
S31500000220C4580EF1020E8E4540F80C40C550E0D37E
S31500000230BDE8F081704700BF2DE9F04F2DED088B2A
S31500000240012A93B00E46058801900392029300F0AE
S315000002501081B5F5807F00F01E8124D8402D00F076
S31500000260048100F29283102D2BD0202D00F01381F3
S31500000270029B2BB1019B30469A689989FFF7B2FF22
S31500000280039B012B40F0E98007EE905AB7EE007A07
S31500000290F8EE677AC7EE276A002D00F0DE8006F1D9
S315000002A0080305934DE3B5F5006F00F0F48000F206
S315000002B0D980B5F5007F00F0D880B5F5806F40F0A5
S315000002C0C480019B69085A688B00103306EB8504CD
S315000002D006F110074FEAD50E06EB030C07EB0E1ED0
S315000002E0234402F1100804F1100013ED024A13ED45
S315000002F0046A13ED037A50ED022A50ED013A53EDEC
S31500000300017A10ED040A50ED030A57ED045A57ED31
S31500000310036A17ED022A17ED013A1CED041A5CED8B
S31500000320031A5CED024A1CED015A72EE22AA33EE64
S3150000033023AA71EE069A31EE879A74EE848A35EE18
S31500000340278A75EE80BA36EEA0BA0CF1100C47ED8E
S3150000035004BA07ED03BA47ED02AA07ED01AA4CED70
S31500000360089A0CED079A4CED068A0CED058A08F101
S31500000370100836EE416A32EE622A77EEC57A74EEDE
S31500000380642A18ED085A58ED074A75EEC05A76EEFB
S31500000390E06A37EE617A26EE244A67EE051A33EEF6
S315000003A0633A26EEA41A65EE853A26EE056A65EEF0
S315000003B0A45A66EE856A27EE247A33EE815A76EEE3
S315000003C0E56A37EE067A74EE615A103340ED036A39
S315000003D000ED045A03ED077A43ED085A58ED065A24
S315000003E018ED055A67EEA53A23EE257A22EE056A40
S315000003F062EEA56A22EE254A63EE051A62EE854A8A
S3150000040067EE857A37EE467A74EE215A34EEE36A61
S3150000041077EEA67A1037774500F1100040ED065AC0
S3150000042000ED057A03ED066A43ED057A7FF45DAFCC
S315000004308FB202233946304600F056FB0223394676
S315000004402046019A526800F04FFB029B002B7FF476
S3150000045011AF039B012B00F08C8213B0BDEC088B0F
S31500000460BDE8F08FB5F5805FEFD101232946304610
S31500000470E7E7002D00F08D82002201F10C0353ED19
S31500000480027AF1EE677A0132954203F1080343EDF1
S31500000490047AF4D1DDE66A0806EBC20494ED006A3C
S315000004A096ED007A06EB820191ED005A77EE066A28
S315000004B004EB8200D0ED005AD4ED014AD6ED017A64
S315000004C036EE853A91ED012A37EE467A33EE253A35
S315000004D037EEA46A019BD0ED012A5F6877EEE47AD5
S315000004E007F110030F939A4693080B9300EB8203D0
S315000004F00C3B86ED003A76EE424A11930B465208C3
S315000005000D9207F108020E920B9A0C9702F1FF3B2F
S31500000510A4F10C02109207F12009024607F13008F7
S31500000520374637EEC54A76EEC56A77EE857A34EEFB
S31500000530E25AD3ED014A04920837CDE9057303F177
S31500000540100E049B77EE023A76EEE56A34EE254A03
S3150000055077EEE57A36EE246AD3ED015ACDE9081432
S31500000560089B73EEE23A1F4636EE256A083386ED9F
S31500000570016A0A90C7ED003A07940893099B87ED34
S31500000580014A37EE427A1F46083309930A9BC7EDA4
S31500000590006A87ED015A37EE227A1F460C39083376
S315000005A087ED007AC7ED017A10340C38103206F167
S315000005B010070A93DDE910C354ED026A17ED027ABB
S315000005C01EED026A37EE262A12ED025A54ED014A52
S315000005D057ED017A32EE064A37EE667A34EE054A70
S315000005E077EEA46A77EEE47A083712ED013A5EED0B
S315000005F0015A77EEC64A07ED044A32EE462A77EEEE
S31500000600867A0EF1080E77EE253A32EE452A37EE57
S31500000610657A74EE854A77EEC57A1EED035A08327E
S3150000062037EE036A76EEE55A12ED037A76EE856AC0
S3150000063076EE876A47ED036A73EEC30AD0ED026A67
S3150000064075EEC35A91ED023A93ED028A93ED010AD3
S31500000650DCED028A90ED014A9CED015AD1ED012AAA
S3150000066033EE267A72EE843A33EE663A72EEC42A96
S3150000067078EEC86A37EE281A70EE451A33EE454A08
S3150000068071EEC31A33EEC53A32EEA65A76EEE26A38
S3150000069071EE082AC1ED022A9CED011AD3ED012A5A
S315000006A073EE813A73EEA23AC1ED013A34EE004A96
S315000006B05AED022A1AED011A37EE687A60EE813A8F
S315000006C037EE487A33EE403A64EE818A25EE228A86
S315000006D020EEA20A64EEA24A64EE010A25EE015A51
S315000006E024EE224A74EEE34A35EE045A70EE282AC6
S315000006F070EEC83A4EED042A4EED034ACCED023AAE
S315000007008CED015A19ED045A59ED034A62EE053A89
S3150000071027EE454A63EE242A25EEA41A23EE053A6F
S3150000072065EE855A22EE242A27EE247A34EE625AA2
S3150000073073EE814A37EE437A75EEC25A44ED024AA9
S3150000074044ED015A80ED017A80ED025A18ED065A01
S3150000075058ED054A66EE853A26EE247A26EE054AD7
S3150000076027EEA43A61EE855A67EE857A21EEA46AF1
S3150000077066EEA46A77EEC77A34EE035A36EE637AEB
S3150000078076EEA56ABBF1010BACF1080CA3F10803E8
S31500000790A1F10801A0F1080002ED045A42ED037A26
S315000007A00AF1080A09F1100904F1080408F1180809
S315000007B083ED047AC3ED036A7FF4FEAE0B990E9BBC
S315000007C00F9A99468B1E02EB031A01EB41020C9914
S315000007D0DB0001EBC20B0A46099903F10804214428
S315000007E0D1ED005A8C460A99089F2144D1ED012A81
S315000007F091ED004A27440C4605999CED016A01F1EA
S31500000800080E9E449EED007ADEED017AD7ED003AA1
S3150000081077EE256A77EE864A36EEA33A77EEC67A03
S3150000082037EE657A76EEE36A77EEE35A77EEA37AE9
S3150000083073EE043A97ED012ACEED003AD7ED013A70
S3150000084034EEC26A76EEC46A75EE845A77EEC47ADE
S3150000085074EEA34A94ED014A74EE844A37EE025AC6
S31500000860CEED014A9944D9ED023A99ED034A35EEA7
S31500000870625A25EE843A65EE234A65EEA35A25EEC2
S31500000880045A74EE834A75EEC55AC7ED004AC7EDA1
S31500000890015A36EE626ADAED044A9AED055A66EEB8
S315000008A0A45A26EE054A66EE856A26EE246A75EE99
S315000008B0845A36EE666ACCED005A8CED016A37EE44
S315000008C0427ADBED005A9BED016A37EE227A27EE7B
S315000008D0865A67EE256A67EEA57A27EE067A76EEE1
S315000008E0856A77EEC77ABDF83480042341463046E0
S315000008F0C4ED006AC4ED017A00F0F6F8019C042309
S3150000090041460698626800F0EFF8042341460798CE
S31500000910626800F0E9F8042341460498626800F032
S31500000920E3F8029B002B7FF4A5AC039B012B7FF41D
S3150000093094AD07EE905AB7EE007AF8EE677AC7EEF6
S31500000940276A0022059B13ED027A53ED017A27EE02
S31500000950267A67EEE67A0132954203F1080303ED43
S31500000960047A43ED037AEED113B0BDEC088BBDE8F3
S31500000970F08F07EE905AB7EE007AF8EE677A06F136
S315000009800803C7EE276A0593DBE7802D3FF499AC91
S315000009905BE5029B002B3FF460AD019B30469A68F5
S315000009A09989FFF71FFC6FE4034600B54FF4006E0C
S315000009B0064A0020B2F80CC0D2E901215A609960BB
S315000009C0A3F800E0A3F80CC05DF804FBA8870100BB
S315000009D0034600B54FF4806E064A0020B2F80CC0FC
S315000009E0D2E901215A609960A3F800E0A3F80CC08F
S315000009F05DF804FBB8870100034600B54FF4007E9E
S31500000A00064A0020B2F80CC0D2E901215A6099606A
S31500000A10A3F800E0A3F80CC05DF804FBC88701004A
S31500000A20034600B54FF4807E064A0020B2F80CC09B
S31500000A30D2E901215A609960A3F800E0A3F80CC03E
S31500000A405DF804FBD8870100034600B54FF0800E21
S31500000A50064A0020B2F80CC0D2E901215A6099601A
S31500000A60A3F800E0A3F80CC05DF804FBE8870100DA
S31500000A70034600B54FF0400E064A0020B2F80CC0FF
S31500000A80D2E901215A609960A3F800E0A3F80CC0EE
S31500000A905DF804FBF8870100034600B54FF0200E11
S31500000AA0064A0020B2F80CC0D2E901215A609960CA
S31500000AB0A3F800E0A3F80CC05DF804FB0888010069
S31500000AC0034600B54FF0100E064A0020B2F80CC0DF
S31500000AD0D2E901215A609960A3F800E0A3F80CC09E
S31500000AE05DF804FB188801002DE9F04F2DED108B01
S31500000AF08FB0CDE90B320346DFEDB28A8B468A46CC
S31500000B0004330A900D934FF0000E4FEADA0707EB15
S31500000B1087014FEACA000190C800C7EBC7010A9BCC
S31500000B204FEAC7084FEA07190390C800069009F173
S31500000B30040108F1040007EB470603EB47121844CB
S31500000B4019447B0102EB0715099702933301A5EBC4
S31500000B50C6040493F300099E0593DDF834C0019B97
S31500000B6002EBC70704EB4616D2ED004AD7ED005A52
S31500000B7095ED004A96ED005A5CED016A10ED017A9A
S31500000B8051ED017A94ED006A36EEA43A76EE053A16
S31500000B9076EEE46A77EE254A37EE657A77EE845A82
S31500000BA036EE456A77EEC47A33EE255A34EEA34A1A
S31500000BB033EE653A74EEE34A77EE465A75EE043A3A
S31500000BC037EE067A35EE445A4CED013A25EEA86A20
S31500000BD082ED005A27EE287AD6ED011A94ED014AE5
S31500000BE036EEC62A76EE863A77EEC72AD7ED016A42
S31500000BF077EE877A90ED007A92ED011ADCED005AD5
S31500000C0095ED010A91ED005A37EE666A74EE610AB7
S31500000C1037EE267A34EE214A75EE816A76EE601A50
S31500000C2075EEC15A36EE206A35EE001A26EE286AAF
S31500000C3076EEC10A35EE405A76EE816A37EE441AF0
S31500000C4037EE047A21EEA84A30EEE40A75EEC41AAD
S31500000C5074EEA04A36EE878A73EE010A76EEC76A0C
S31500000C6033EE413A35EE847A75EE465A35EE066A2B
S31500000C708CED008A31EEE25AC2ED016A32EE254A67
S31500000C8041ED010A73EEC66A85ED003A81ED000A70
S31500000C9033EE863AC5ED014A32EE656A77EE674A6B
S31500000CA077EE877A32EEA17AD644F34500ED013A23
S31500000CB09C44C6ED006A1A4487ED004A194484ED47
S31500000CC0006A1D44C0ED004AC6ED017A184487ED5E
S31500000CD0015A1E4484ED017A1F441C443FF644AF7A
S31500000CE01F46099B072B40F2A2810A9E049D08F12C
S31500000CF0080806EB0803059C09F10809069808355B
S31500000D00089306EB09030299083407937319039AAB
S31500000D100830069333190C31059333180C320493BB
S31500000D2073180393B31802934FF001094FF00008AC
S31500000D303B46DDE902C7DDE90465DDE906400B9ABD
S31500000D40CE4690440C9A08EB480102EBC80292ED9D
S31500000D5000EA02EBC802D2ED00DA02EBC80292ED1D
S31500000D6000DA02EBC802D2ED00CA02EBC80292ED2D
S31500000D7000CA02EBC802D2ED00BA02EBC80292ED3D
S31500000D8000BAD2ED01AAA2EB011292ED01AA02EB82
S31500000D90C802D2ED019A02EBC80292ED019A02EB6B
S31500000DA0C80292ED018A02EBC80292ED010A02EB3B
S31500000DB0C802D2ED017ACDED017A0A9A089902EBC2
S31500000DC0C90201E0F304353F57ED015A5CED013AE3
S31500000DD094ED005A95ED006A96ED003A92ED004AC0
S31500000DE0D1ED007AD0ED004A74EE256A34EE654AFC
S31500000DF077EEA35A77EEE37A74EE853A74EEC54A37
S31500000E0036EE035A36EE436A36EEA33A76EEE36AD8
S31500000E1075EE853A75EEC55A73EE232A37EEC65A35
S31500000E2077EE867AC2ED002A67EEA87A92ED017A0D
S31500000E309CED002AD7ED00FA96ED01FAD4ED011AE1
S31500000E4034EEE71A25EE286A74EEA74A95ED015AA4
S31500000E50D0ED017A33EE633AD1ED013A74EE460AEB
S31500000E6073EEC22A34EE064A73EE823A37EE2F6AE2
S31500000E7037EEA12A77EEE17A75EE0F1A35EE4F5A64
S31500000E8037EE6F7A32EEC5FA76EE42FA72EE852AC0
S31500000E9036EE026A33EEE12A73EEA13A2FEE28FA15
S31500000EA076EE821A36EE235A76EEC26A62EEA82AE9
S31500000EB03FEEE52A36EE636A82ED015A77EEE23AB4
S31500000EC037EE4F5A6CEE83EA75EEAF5A37EE0F7A6D
S31500000ED077EEA27A6DEEA1FA28EE033A28EE06FA2C
S31500000EE069EE822A2CEE866A7FEEA22A3EEE8FFA01
S31500000EF036EE436ADDED01FA34EE273A69EEA11AC1
S31500000F0074EE677A2DEE822A30EEA34A70EEE33A4B
S31500000F1077EE640A07ED01FA87ED006A34EE877A08
S31500000F20C0ED002A75EE414A6BEEA6EA31EE055A8F
S31500000F3032EE612A2EEE03FA2FEEA51A6AEE202A69
S31500000F406BEEA55A6FEEA66A80ED012A6BEE271AA4
S31500000F502AEE876A3EEE811A75EEE66A7FEE222A4F
S31500000F602CEE042A60EE24EA6DEE235A29EE05FAE9
S31500000F702AEE033A6EEE200A2BEE077A6AEEA77A7D
S31500000F806CEE244A20EE044A2DEE055A69EE233A09
S31500000F9070EEC30A31EE866A77EE677A32EE2E2A53
S31500000FA074EEC44A75EE8F5A35EE635AD644F3454D
S31500000FB084ED001AC4ED016A1A44C1ED002AC1EDA0
S31500000FC0010A1F4486ED006AC6ED017A18440CED4D
S31500000FD0012ACCED004A1C44C5ED005A194485EDA2
S31500000FE0015A1E449C441D443FF6EEAE089A09F190
S31500000FF0010908320892079A08320792069A0832BF
S315000010000692059A08320592049A08320492039AC7
S3150000101008320392029A08320292099A4A457FF4EC
S3150000102088AE0B9B9246DB009BB20B936BE50FB031
S31500001030BDEC108BBDE8F08F70B5154606460C4624
S315000010401A46002B5FD0D1ED007AD1ED016AB6EEDB
S31500001050004A37EEA67A77EEE67A27EE047A67EE4E
S31500001060847A03884169581E002885ED007AC5ED0B
S31500001070017A04EBC00C3FDD01F1100E05F1100002
S3150000108004F11001ACEBC304ACF1080C9CED027A40
S3150000109011ED025ADCED034A51ED015A5EED026A8A
S315000010A01EED016A75EE477A37EE057A34EEA55ADB
S315000010B075EEE45A66EEA74A66EE277A66EE856A0C
S315000010C026EE056A37EE647A77EEA57A37EE467A2B
S315000010D077EEE67A27EE047A67EE847AACF1080CAE
S315000010E0644500F108000EF1080E01F1080100ED5B
S315000010F0047A40ED037AC9D129463046BDE87040EE
S315000011000123FFF799B80123FFF796F8D4ED007A8B
S3150000111094ED017A77EEA77A37EE077AF6EE003A83
S3150000112077EE876A77EEC77A26EEA37A67EEA37A1A
S315000011307069368885ED007AC5ED017A013E04EBCB
S31500001140C603103004F11001083B05F11002D3ED7F
S31500001150025A11ED025A11ED017A93ED034A50ED50
S31500001160026A10ED016A75EEC57A74EE074A35EE2D
S31500001170855A77EE445A26EEA77A66EE277A66EE09
S31500001180A46A26EE246A37EE057A77EEA57A37EE5C
S31500001190067A77EEE67A27EE237A67EEA37A013EA1
S315000011A0002E02F1080200F1080001F10801A3F186
S315000011B0080302ED047A42ED037AC8DC70BD00BF75
S315000011C0B1F5007F38B50C46054657D00FD88029B3
S315000011D040D030D820291CD0402938D1002836D01C
S315000011E0FFF75AFC10B92A4B2C826B6138BDB1F55A
S315000011F0006F39D0B1F5805F14D0B1F5806F26D17C
S3150000120028B3FFF7F9FB0028F0D1224B2C826B6143
S3150000121038BDE0B1FFF754FC0028E7D11E4B2C8205
S315000012206B6138BD98B1FFF7BFFB0028DED11B4BC1
S315000012302C826B6138BDB1F5807F08D138B1FFF7DC
S3150000124003FC0028D2D1164B2C826B6138BD4FF0BF
S31500001250FF3038BD0028FAD0FFF70AFC0028C5D1B8
S31500001260104B2C826B6138BD0028F0D0FFF7B0FB25
S315000012700028BBD10C4B2C826B6138BD0028E6D010
S31500001280FFF7CEFB0028B1D1084B2C826B6138BD2D
S3150000129050D1000050B3000050D20000505300005F
S315000012A050CB000050CF00005093000050C3000008
S315000012B000BE704708B500F035F802F02BFAFEE7DD
S315000012C0F8B5174F05463E68A6B17C6806EB46069C
S315000012D004EB860602E00C34B4420BD0637AAB42D0
S315000012E0F9D1D4E900020021121A0C3403F0FEF8F9
S315000012F0B442F3D1BE6896B1FC6804EB061602E070
S315000013001034A6420BD0637BAB42F9D1D4E900027C
S31500001310A168121A103403F04AF9A642F3D1F8BDB7
S31500001320348801004FF47001274B284A70B500201D
S31500001330C3F888109A6002F08DFE00F069F801206B
S3150000134002F088FE224B83F30A880020FFF7B8FFDD
S3150000135000F048F800F008F9032000F045FA0023F1
S315000013604FF6FF701B4903F1080201330C2B21F8DD
S315000013701200F8D10024032000F006FA032000F042
S3150000138033FA154B03205C609C60DC601C6100F046
S31500001390FBF9022002F05EFE0120FFF791FF0F4DE0
S315000013A00F4B5B1BA3424FEAA30605DD55F8043B32
S315000013B001349847A642F9DC00F09AF9BDE870407E
S315000013C0002000F029B900BF00ED00E00000000099
S315000013D020010020000D084000000E40348F01005F
S315000013E0388F0100064B074993F826001A6A51F810
S315000013F02030C2F302620449D3400B60704700BF3D
S3150000140000E00140200500205C050020704700BF79
S31500001410F8B54AF2035001234549464AA1F8FE03AE
S31500001420A2F80431B2F804319BB2002BFAD10120A4
S315000014304FF400454FF0090C3F4CDFF818E13F4EE2
S31500001440C4F804E0DFF810E13949C4F80CE03C4F79
S31500001450A2F800013B4AB06030606261276091F8F3
S315000014602620A5602561086A54F82220364EC0F36E
S315000014700260C240326081F8133481F8A2C091F84C
S3150000148080341BB991F8813499074CD0284D95F8D2
S315000014908034002B3CD00022254B83F8812483F82E
S315000014A080240023224981F8323091F83C301A0713
S315000014B0FBD543F2021000231D4A088581F82A3025
S315000014C092F83C309B06FBD50320052319494FF0C3
S315000014D0F10C81F81C011D49116282F8263092F840
S315000014E02630156A54F82300C5F302640123E04050
S315000014F03060F0244FF42540154981F80CC00B727A
S315000015000C7382F8303082F85230A2F8FE03F8BD30
S315000015100121C82085F8801400F086F895F88034FB
S31500001520012BFBD1B7E74FF47A70FFF76FFFB8E7EF
S3150000153000E0014000C0014020050020007000408E
S31500001540002D310100C2EB0B5C05002021120120A9
S315000015500020004000127A0000366E01014B53F85D
S31500001560200070472005002038B50025284C0121B1
S31500001570C82084F8285000F057F884F8245094F8CE
S315000015802430002BFBD194F82430214943F0020388
S3150000159084F8243091F82430C3F340009B07F9D433
S315000015A01B4A81F8220092F8223003F0FF00002B3C
S315000015B0F9D192F84030164960F3C71382F84030EB
S315000015C091F84030DB09FBD191F84200104A63F3F1
S315000015D0C71081F8420092F84230DB09FBD192F83D
S315000015E044000B4963F3C71082F8440091F8443075
S315000015F0C3F3C014DB09F9D1012000F0F5F8054B5F
S31500001600012083F8BB44BDE8384000F0BDB800BFF8
S315000016100030084000E00140704700BFA0F1010023
S315000016200028FBD1704700BF1F4B204A1B6800FBF8
S3150000163001F1934213D302F1854202F5071203F535
S31500001640741302F6834203F6FF03A2FB03231B0D6A
S31500001650A3FB01314FF0FF30F9B1FFF7DFBF4FF4C5
S315000016607A7210B4A1FB02C41148B0FBF3F34FF039
S31500001670FF3044B9BCFBF3FC4FEA9C0088B15DF82F
S31500001680044BFFF7CBBF9B00B1FBF3F1A1FB0212AA
S31500001690002AF4D1084620B1F1E71846002BDCD128
S315000016A070475DF8044B70475C05002000127A0015
S315000016B000CA9A3B70B500240B4B0C4EB3F82021A0
S315000016C0B3F84051ADB2154025FA04F3DB0704D553
S315000016D056F82430E0B203B198470134102CF3D108
S315000016E0014BA3F8305170BD00600040600500203A
S315000016F0F0B5032085B000F077F800276FF0FF0102
S315000017004FF0FF361C4C1D4B224699644FF0010CDE
S315000017103B46CDE9016604F12A05039632F8021F1D
S315000017200CFA03F0013311B1012726EA0006AA429A
S31500001730F4D1F7B10196124B104A03201667C3F88D
S31500001740806202995167C3F8841203999167C3F8BE
S31500001750881200F019F800230A4834F8022F03F122
S31500001760C00101330AB140F82120A542F5D105B0E8
S31500001770F0BD4FF0FF36DEE7028C0100008000402E
S3150000178000E100E000600040EFF31081012383F3E5
S315000017901088124B33F8102092B22AB133F8102079
S315000017A0013A92B223F8102033F810309BB293B965
S315000017B00B4A10B4B2F8FE330A4C9BB234F8100050
S315000017C043F4254323EA0003A2F8FE3381F310888D
S315000017D05DF8044B704781F310887047F8050020C8
S315000017E000E001402888010030B4EFF310810123A6
S315000017F083F310880E4A32F810309BB26BB90D4C49
S315000018000D4DB4F8FE3335F810C09BB243EA0C0315
S3150000181043F425439BB2A4F8FE3332F8103001336B
S315000018209BB222F8103081F3108830BC704700BF9D
S31500001830F805002000E001402888010008B502F004
S31500001840A3FE0C2203464FF0FF301A6008BD00BF0E
S3150000185084460020CCE90732CCF81810704700BF48
S3150000186003461A689B8A002013807047062070473B
S315000018700023026818461380704700BF03461B68A2
S3150000188000201B88C3F3C0330B70704703461B68E8
S31500001890103133F811300020138070471031D0E931
S315000018A0003033F8113001799BB2012908BF1B04BF
S315000018B000201360704700BF06207047062070475F
S315000018C02DE9F04FD1E9005441F23609426883B060
S315000018D052698E68019202681FFA85FCA2F804C05C
S315000018E01FFA84FCA2F814C024F0C04745EA040C91
S315000018F025F0C04BB4B226F0C04E14813F0C4FEA1F
S315000019001B44DFF87CA14FEA1E4ED480574BD7828A
S31500001910A2F80AE0DAF820401B68C4F30267DFF891
S315000019206481C4F30214BB40E340A8FB03839B0914
S3150000193009FB03F34E4CA4FB03439B0C0133072B1B
S3150000194038BF07231CF0005420D0EFF31085012286
S3150000195082F31088474AD46824F48004D460D2689D
S3150000196085F310889024444A0D6814700268DCB22E
S3150000197015F0005F8E6882F8DE400CBF4FF480647D
S315000019804FF48074B70048BF44F001041CF0804F48
S315000019900DD06F00DBB248BF44F4007482F8DF302C
S315000019A058BF44F40064730048BF44F00204CB6897
S315000019B0A4B25482002B57D01C89270529D5D3E918
S315000019C000C6B3F80A80A2F890404FEA1C4EA2F86F
S315000019D09C80B3F80C80370C2EF4C04EA2F89E8083
S315000019E01FFA8EFE1FFA8CF827F4C047CCF3417C11
S315000019F0A2F89480BFB2A2F896E082F892C01FFACD
S31500001A0086FCC6F34176A2F898C0A2F89A7082F8CE
S31500001A109360A6051CD40B8AA2F89040A2F88030E9
S31500001A20019B1B796BB1BBFA8BFB1388818A9BB236
S31500001A3023F01F031F33A3EB0B039BB21943138041
S31500001A4081820E4BC0E90335002003B0BDE8F08F5C
S31500001A509E7CDF7C3E4382F8A660DE891B8AA2F864
S31500001A60A860A2F8AA30D6E71C46D4E75C05002099
S31500001A7083DE1B430040084000300F404344415280
S31500001A8000E00140D34D6210026930B58646BAB116
S31500001A904FF0FF3301244FEA72721846013304FAFD
S31500001AA003FC1CEA020FF8D0B2FA82F2DEF800302C
S31500001AB000F10E0403EB4403C2F11F020B60121A7D
S31500001AC001234FF47A640B72DEF804304A601B88F7
S31500001AD0084D1A1D52004A72D5F87C2103EB4303C8
S31500001AE05B0003F5B07392B200204B81CA608C8212
S31500001AF030BD00BF00B07F4010B400F1604C134C05
S31500001B000901134BC9B20CF5614C8CF8001300F1B6
S31500001B10C00144F8202053F8212022F4803243F8F3
S31500001B20212053F82130BFF35F8F012243099B0028
S31500001B3000F01F0003F1604303F561438240C3F8E0
S31500001B4080211A605DF8044B704700BFA405002091
S31500001B50006000402DE9F0410027CA680B884E69F5
S31500001B6082610A695B02C0E9077203F1804303F5EB
S31500001B70B813416003608A78B37805460C4630791D
S31500001B805203002B63D142F45071002864D189B20C
S31500001B90A982F0781B02227900F03F0003F47C53FF
S31500001BA00343E078D20342EA4002707896F800C018
S31500001BB042EA4012EFF31088012080F31088B4F84F
S31500001BC000E02B4FCEF1100E00FA0EF0D7F80CE025
S31500001BD02EEA0000F860F86888F3108890B247F69D
S31500001BE0FF5211402A689BB211801382D08182F87D
S31500001BF00CC0B379A3F10103B3FA83F35B0982F84E
S31500001C00D03094F90600002803DB2A46617AFFF7F4
S31500001C1073FF94F90700002803DB2A46A17AFFF731
S31500001C206BFF96F90700002803DB2A46717AFFF757
S31500001C3063FF96F90800002803DB2A46B17AFFF70E
S31500001C405BFF00200B4B2861AB60BDE8F0813F2BAA
S31500001C5042F4107108D110B141F0800197E742F4C7
S31500001C60024141F0400192E7002890D0F4E700BF1E
S31500001C70004008404344415270B40024C0E9024485
S31500001C804268034692F906105069A14211DB01250C
S31500001C90334E4A0901F01F0C203205FA0CF546F8BE
S31500001CA02250BFF34F8FBFF36F8F2E4A42F8214069
S31500001CB05A6892F90720002A10DB012402F01F055A
S31500001CC0AC405109264D203145F82140BFF34F8FD6
S31500001CD0BFF36F8F0024234941F8224090F9072073
S31500001CE0002A10DB012402F01F05AC4051091C4DEF
S31500001CF0203145F82140BFF34F8FBFF36F8F00248B
S31500001D00184941F8224090F90820002A10DB0120EA
S31500001D10134C510902F01F052031A84044F8210058
S31500001D20BFF34F8FBFF36F8F00200E4941F822009B
S31500001D3000201A6810821080EFF31084012282F3CB
S31500001D4010885968084B0988C1F110018A40D96882
S31500001D500A43DA60DB6884F3108870BC704700BF02
S31500001D6000E100E0A40500200040084030B482B045
S31500001D70019190F9041000921A4D1B4A01F1C00C12
S31500001D8052F8210055F82C20184C22F0807241F4AC
S31500001D90004145F82C20E28992B29142FBD00822FC
S31500001DA02274019A0AB1019A4260009A0AB1009A15
S31500001DB08260C27802F0C001802910D03F2A98BF05
S31500001DC0C38118210020094B064A197452F82C3099
S31500001DD043F0807342F82C3002B030BC70478381E8
S31500001DE0EFE700BF00600040000000200054004004
S31500001DF00620704706207047034693F904300549CC
S31500001E00C03351F82320002042F0807241F823208D
S31500001E10704700BF00600040034693F9043005494F
S31500001E20C03351F82320002022F0807241F823208D
S31500001E30704700BF00600040002390F90400144A78
S31500001E4052F82020C1E90033D3783F2B0ED910B4C5
S31500001E504FF48074D08903F0C003C0B2802BC1E96F
S31500001E6002400BD000205DF8044B70474FF48030E1
S31500001E70D3899BB2C1E90203002070474FF480303A
S31500001E8093895DF8044B9BB2C1E9000300207047BB
S31500001E9000000020062070470620704703460022F7
S31500001EA030B593F904C0074C0CF1C00E54F82E104F
S31500001EB0054D21F0807144F82E10104645F82C206F
S31500001EC01A6030BD006000400000002010B590F997
S31500001ED004E0184A0EF1C00C52F82C30164C23F0D0
S31500001EE0807342F82C304EF40042E3899BB29A424A
S31500001EF0FBD00B46DA7818463F2A05D9DA89D2B2E2
S31500001F0002EB022292B2DA81827810333F2AF1D8AC
S31500001F1008221820084B1A74084A42F82E10054A5F
S31500001F20187452F82C30002043F0807342F82C309D
S31500001F3010BD00BF006000400054004000000020BB
S31500001F40264AF8B5137804460D4633B36B6893F901
S31500001F50000000283DDB224E56F82030002B3AD1F7
S31500001F6020712D68ADB12B46DA7819463F2A05D97E
S31500001F70DA89D2B202EB022292B2DA818A7810337F
S31500001F803F2AF1D80822174B1A74182246F8205017
S31500001F901A74154B00202360F8BD01261670EFF366
S31500001FA0108086F31088114A116821F480011160AF
S31500001FB0126880F310880A4F19465422384602F0F8
S31500001FC095FA084B5F611E736B6893F90000002851
S31500001FD0C1DA0B20F8BD0820F8BD00BF02060020BC
S31500001FE000000020005400400043544400400840D4
S31500001FF0F0B50346002591F902C01B4C4FEA8C024E
S3150000200002F1804280F804C002F5C042D1E90270B4
S31500002010D2F80063C2F80053C3E9027091F800E0F9
S31500002020BCF1000F83F805E004F80E500D79C8786E
S3150000203040EA05104D7940EAC510C0B204F80E001A
S31500002040C2F800630BDB4A78084812010CF16041C4
S31500002050D2B201F5614181F8002340F82C30044AE0
S3150000206000201A60F0BD00BF00600040A4050020FB
S315000020705543490090F904200E4B02F1C00153F874
S31500002080210020F4803043F8210053F82130BFF3BB
S315000020905F8F012153099B0002F01F0203F1604389
S315000020A003F5614301FA02F2C3F880211A600020A9
S315000020B0704700BF00600040012110B490F9043061
S315000020C0084C5A0903F01F03994002F1200344F813
S315000020D02310BFF34F8FBFF36F8F00205DF8044BC3
S315000020E0704700BF00E100E003460020C3E902128A
S315000020F0704700BF90F904200346002A19DB01202F
S3150000210010B451090C4C02F01F02203100FA02F201
S3150000211044F82120BFF34F8FBFF36F8F0020074A8B
S3150000212093F904105DF8044B42F821000020186072
S31500002130704700201860704700E100E0A405002009
S3150000214030B583B0EFF30384174B103C64B253F8F9
S315000021502410164A48798D68135C03F00303032B99
S3150000216010D0C03452F8243023F4803342F824309F
S3150000217052F8243025B1CB68CDE900306846A8472F
S3150000218003B030BD25B1CB68CDE900306846A8471D
S31500002190064BC03453F8242022F4803243F824201E
S315000021A053F8243003B030BDA40500200060004081
S315000021B00022034610461A60704700BF0B0A10B48F
S315000021C01B01064C53FA81F154F821300020C3F369
S315000021D040035DF8044B1370704700BF00080840C9
S315000021E0090A490101F1804101F500214B680020EF
S315000021F013807047090A490123EA020C01F1804164
S315000022001A4001F5002142EA0C4200208A6070471C
S315000022100120CBB2984080B202B900040B0A5B01E0
S3150000222003F1804303F5002398600020704700BF48
S31500002230090A490101F1804101F5002110B40C6839
S3150000224002EA030C4CEA040C62EA030202EA0C02FC
S3150000225000205DF8044B0A60704700BF090A490177
S3150000226001F1804101F500214B680020C3F30F43C3
S3150000227013807047012310B44FEA112C4FEA4C1C0F
S315000022800CF1804C0CF5002CDCF80440C9B28B40F4
S3150000229099B203EA14435B1AB3FA83F35B0900208D
S315000022A05DF8044B13707047090A490123EA020CD2
S315000022B001F180411A4001F5002142EA0C4200205A
S315000022C0CA60704701200B0A5B0103F1804303F5E6
S315000022D00023C9B210B400FA01F1DC68012A4FEA02
S315000022E001400DBF84438C4304430C430020DC6053
S315000022F05DF8044B704700BF2DE9F84F0388DBB14A
S3150000230082464FF0000B4FF00109DFF8D080002421
S31500002310304D4FEACB07DAF8043035F8022BD919DD
S31500002320898891420AD00134032CF4D1BAF80030DE
S315000023300BF1010B5B45EAD8BDE8F88FDB5909FACA
S3150000234004F603F0B853B3F1807FF6B298F8BB34C5
S3150000235013D0334231D1204A04F1200612F8163048
S31500002360DB09E0D012F81630012123F08003C820E3
S3150000237002F81630FFF758F9D5E7334211D0164A5E
S3150000238004F1200112F81130DB09CCD112F811301A
S31500002390C82043F0800302F811300121FFF744F909
S315000023A0C1E70120FFF720FA98F8BB340120334338
S315000023B088F8BB34FFF7E8F9E1E70120FFF714FAE4
S315000023C098F8BB34012023EA060388F8BB34FFF7EC
S315000023D0DBF9C0E7808901000030084000E00140D9
S315000023E0F8B50446FFF788FFEFF31082012383F365
S315000023F01088234F3B681BB92249CB704023CB7012
S315000024003B6801333B6082F3108823882BB36168F5
S315000024101D4C01EBC30E06E01B01083113448E452B
S3150000242044F8230019D008688A88C5034FEA1223A6
S31500002430D2B2F1D502EB031C54F82C601B01083113
S3150000244020F4803526F4803613448E4544F82C60FB
S3150000245044F82C5044F82300E5D1EFF31082012311
S3150000246083F310883B6813B13B68013B3B603B68D4
S315000024701BB980200349CB70C87082F31088F8BD61
S31500002480A0050020000D08400008084008B5034BD1
S3150000249003600846FFF7A4FF002008BD54524F50C2
S315000024A008B50846FFF79CFF002008BD70B5012659
S315000024B086B001AB03A80C4615460493ADF80C6034
S315000024C0ADF808100192FFF717FFEFF3108286F3BD
S315000024D010881D490B681BB940261C48C370C6707E
S315000024E00B6801330B6082F31088EA034FEA14236A
S315000024F0E4B219D41B01164A234442F82350EFF3E1
S315000025001082012383F310880B6813B10B68013B1B
S315000025100B600B681BB980200C49CB70C87082F326
S315000025201088002006B070BD094A04EB031052F86B
S3150000253020601B0126F4803642F8206025F48036A0
S3150000254042F82060D7E700BFA0050020000D084034
S315000025500008084003685969A1B190F82D3070B59C
S31500002560044603F0FF0563B98A68038C9668086819
S315000025702A46A169B0470123E26984F83330C4E9E9
S31500002580085270BD704700BF70B5856B82B00446B7
S315000025900B466E463DB395E80300CDE90001E26BBC
S315000025A02B7123682A605A6912B194F82D10A1B1D3
S315000025B09B6913B194F82D2052B9636B284698474E
S315000025C0A36B1BB196E8030083E8030002B070BD5D
S315000025D09A68186813699847EFE7936810681B694B
S315000025E098472368E4E76D46D9E700BF70B5EFF377
S315000025F00383103B654A5BB2C03352F8231021F4C3
S31500002600803142F8231052F82330EFF30383604AF7
S31500002610103B5BB252F823402269137BC3F30000E0
S31500002620DB075CD494F82C3094F82A10994216D023
S3150000263094F82D1009B1022B76D02046FFF78AFFB9
S31500002640236994F82820DA7094F82B2094F82C301B
S31500002650013A013384F82B2084F82C3070BD94F8AD
S31500002660333003F0FF05002B5BD1236A002B5ED0CD
S3150000267094F82D10002966D094F8311000296ED0F8
S31500002680216884F831504869002878D08969002982
S3150000269075D0E069022872D9831EF42090708A688A
S315000026A0086896682946A2699BB2B0472268E36922
S315000026B05269023B916810688E682A4629469BB289
S315000026C0B04702200121E3692269023BC4E90803FD
S315000026D084F833100023FF209372D07070BD94F8F5
S315000026E02D30B3B194F831309BB95179636AA26940
S315000026F0D15494F82E00D4E90823013A0133C4E9F1
S315000027000823216940B352220123CA7284F830306B
S3150000271070BD002001215423206284F82F10D3724B
S3150000272070BD84F8330070BD5223D37270BD94F827
S315000027302E302BB152210123D17284F8303070BD76
S315000027405423D37270BD616AA069013B405C0131BC
S31500002750C4E90831D070C1E75423CB7270BD5179FA
S31500002760636AA269D154D4E90832013B0132012BD4
S31500002770C4E90832226904D0FF20D070AEE7012BED
S31500002780A8D12023FF209372D070A7E700600040F5
S31500002790A405002010B582B0EFF30383364A103B40
S315000027A05BB252F823000269D37A23F00803D3728E
S315000027B090F82F30002B3FD190F82A1003F0FF0C31
S315000027C090F82C3099421CD1036A53B990F82D1019
S315000027D090F83040C1F10301C9B2C4B3D372FFF718
S315000027E0D3FEEFF30383103B244A5BB2C03352F8A7
S315000027F0231021F4803142F8231052F8233002B01E
S3150000280010BDFBB190F82D4004F0FF0134B1022B4E
S3150000281012BF614690F8291041F001014FF0000CFB
S3150000282082F80BC0D17090F82B20013380F82C3041
S31500002830531E80F82B30D4E7F0230121D372FFF723
S31500002840A3FECEE7012909D090F82910E6E7F02388
S31500002850D372937803F0CF039370C0E70190FFF72C
S3150000286079FE019890F82A100269012990F82C3017
S31500002870EAD190F82810D1E7A405002000600040B6
S3150000288030B5436A85B004468C4601ADABB193E8DA
S31500002890070085E8070062681846117883F804C0C7
S315000028A0A26A19609A60236A9847636A1BB195E821
S315000028B0070083E8070005B030BD2B46EBE700BFF5
S315000028C010B4EFF30383103B164A5BB203F1C00169
S315000028D052F8210020F4803042F8210052F82120DD
S315000028E0114A52F823305A69D9698A4206D2D3E985
S315000028F00240A8B1805CE07001325A618A4202D07F
S315000029005DF8044B70471A69002AF9D19A685DF898
S31500002910044B937803F07B0343F0040393707047F2
S31500002920E070E9E700600040A405002010B4EFF372
S315000029300383103B194A5BB203F1C00152F8210030
S3150000294020F4803042F8210052F82120144A52F82F
S3150000295023305969DA69914206D2D3E90240D0B1EF
S31500002960405CE070013159619969914207D29868DB
S315000029701A6940794C1C9C615054D3E90612914265
S3150000298006D19A68937803F03B0343F004039370EF
S315000029905DF8044B7047E070E4E700BF006000405C
S315000029A0A405002010B5EFF303830C4A103B5CB27C
S315000029B052F8240001218268937803F00303937090
S315000029C0FFF75EFF064A04F1C00352F8231021F414
S315000029D0803142F8231052F8233010BDA4050020A0
S315000029E00060004010B5EFF303834FF0840C0E4AED
S315000029F0103B5CB252F82400042183689A7802F0F6
S31500002A0003029A701A7983F804C0FFF739FF074A60
S31500002A1004F1C00352F8231021F4803142F8231048
S31500002A2052F8233010BD00BFA4050020006000400E
S31500002A30F8B5C3691546DA6804460E466AB1837866
S31500002A40916803F00303013B25FA03F310688F68CE
S31500002A50324600219BB2B84710B90020C4E905658B
S31500002A60F8BD00BFF8B504460D46006AE1698378F3
S31500002A700E6903F07B038370A37803F0030CA2EBCB
S31500002A800C0205EB0C012261E16006B15AB98278AD
S31500002A9003F0030342F08002022B827013D02B78DE
S31500002AA0C3700020F8BD0CF1FF3C22FA0CF293B281
S31500002AB00022B7683068BE682261B0470028F1D1AD
S31500002AC0206AA378E3E72B8843F47E43C381E8E7D3
S31500002AD084460020CCE90A32CCF82410704700BFA7
S31500002AE0012310B5C4690A7894F800C003FA0CF300
S31500002AF013F0060F01D013071ED402F05C0E00225D
S31500002B00036A93F802C00CF00B049C70C260104676
S31500002B108A784C785A701A780CF07B0C64F30102B0
S31500002B201A70CA789A74DA7902F0A30242EA0E029F
S31500002B30DA7183F802C010BD032010BD03460020E1
S31500002B40DB69DA6882420CBF4FF0FF324FF4803205
S31500002B504A601B6983420CBF4FF0FF334FF480334A
S31500002B600B6070478A0770B50D4604461DD5D0E93F
S31500002B7007218B78126903F07B038B70D2B19368BF
S31500002B8010681B6998470023236190B9EB074FF043
S31500002B9000000ED50023E269D068A36148B1BDE804
S31500002BA07040836800681B691847EB074FF0060002
S31500002BB0F0D470BD0261E9E730B500220D46D0E9D8
S31500002BC00613DB6885B0296082617BB19A6804468A
S31500002BD018681369984750B9E3696946DB689A68CB
S31500002BE01868D369984710B9039B2B60002005B07D
S31500002BF030BD00BF0620704710B5002204460123F1
S31500002C00006A62608270E2692E4992F905205009D5
S31500002C1002F01F0203FA02F2203041F82020BFF32F
S31500002C204F8FBFF36F8FE26992F90B20500902F0C4
S31500002C301F0203FA02F2203041F82020BFF34F8F23
S31500002C40BFF36F8FE26992F90720500902F01F0265
S31500002C5003FA02F2203041F82020BFF34F8FBFF372
S31500002C606F8FE26992F90920500902F01F02934022
S31500002C7000F1200241F82230BFF34F8FBFF36F8F70
S31500002C80E369DA6822B1936810681B6A9847E369BA
S31500002C901B691BB19A681868136A9847EFF310818D
S31500002CA0012383F310884FF00043E069064A047855
S31500002CB05068E34003435360536881F31088002053
S31500002CC010BD00BF00E100E000400840F0B5846A96
S31500002CD085B005460F4694466E46B4B194E80F009B
S31500002CE08DE80F00EB6920461B7884F804C023604A
S31500002CF0EB6AC4E902736B6A9847AC6A1CB196E842
S31500002D000F0084E80F0005B0F0BD6C46EAE700BF8F
S31500002D100620704701222DE9F0410B780D469A40B6
S31500002D2012F0060F044605D0CA69526812781207D7
S31500002D3000F1F981002103F5800303F58C5321701E
S31500002D401B02C4E907536B6901266362AB69A0786D
S31500002D50C4E90A136B78CF4AB3FA83F35B095B4283
S31500002D6003F00303734063F30100A07095F90B00B1
S31500002D7095F80AC0430900F01F07203306FA07F743
S31500002D8042F82370BFF34F8FBFF36F8FC24B00F132
S31500002D90C00753F827E061F3104E43F827E053F8D5
S31500002DA02770BE4F4FEA0C1C02EB000E5FFA8CFC3C
S31500002DB08EF800C347F8204095F9050095F804C041
S31500002DC04FEA501E00F01F080EF1200E06FA08F812
S31500002DD042F82E80BFF34F8FBFF36F8F00F1C00E06
S31500002DE053F82E8061F3104843F82E8053F82EE0F6
S31500002DF04FEA0C1C02EB000E5FFA8CFC8EF800C347
S31500002E0047F8204095F9070095F806C04FEA501E8E
S31500002E1000F01F080EF1200E06FA08F842F82E8080
S31500002E20BFF34F8FBFF36F8F00F1C00E53F82E80A4
S31500002E3061F3104843F82E8053F82EE04FEA0C1C3D
S31500002E4002EB000E5FFA8CFC8EF800C347F82040B8
S31500002E5095F9090095F808C04FEA501E00F01F08C2
S31500002E600EF1200E06FA08F842F82E80BFF34F8FB7
S31500002E70BFF36F8F00F1C00E53F82E8061F3104838
S31500002E8043F82E8053F82E304FEA0C13DBB202447F
S31500002E9082F80033EB6847F82040D3B14FF400279F
S31500002EA05968206A0A6800F1050C1760E769C2F8DC
S31500002EB004C07F782FB910305060D07866F30510C3
S31500002EC0D0709A681868126890470646002840F045
S31500002ED012812B69CBB14FF0006059680A68106007
S31500002EE0D4E90760C71C9760767836B901260E309C
S31500002EF09060D07866F30510D0709A6818681268EA
S31500002F0090470646002840F00681EFF3108601211F
S31500002F1081F310884FF000402A78614BD0405A6800
S31500002F2022EA00025A605B6886F31088002240F2AB
S31500002F30F930236A40F2F93C9A701A715A729A7201
S31500002F40DA725A832A78914001421CBF4022DA7411
S31500002F5006220120E9691A772A786E78904010EAED
S31500002F600C0F18BF4FF47840EA78AF784FEAC202E8
S31500002F7018BF9882032E42EA071200F0BF80002E87
S31500002F800CBFE220F220D2B21A7098710A7B082A8E
S31500002F900EBF0A22520002F002025A734A7888785B
S31500002FA0D201400100F02000D2B202430020187284
S31500002FB00D78A81E012840F2A580D2B2DA714A68BF
S31500002FC0907856785870187866F301001870D078A3
S31500002FD012789874D87902F05C0200F0A3000243DC
S31500002FE0DA710020E2692061A061E060606192F917
S31500002FF00560294B06F1C00253F8227060F31047B2
S3150000300043F8227053F82220BFF35F8F012772091D
S31500003010920006F01F0602F1604202F5614207FACD
S3150000302006F6C2F880611660E26992F90B6006F155
S31500003030C00253F822C060F3104C43F822C053F884
S315000030402220BFF35F8F7209920006F01F0602F17D
S31500003050604207FA06F602F56142C2F88061166020
S31500003060E26992F9076006F1C00253F822C060F3E4
S31500003070104C43F822C053F82220BFF35F8F720929
S31500003080920006F01F0602F1604207FA06F602F504
S31500003090614207E000E100E000600040A405002076
S315000030A000400840C2F880611660E26992F9092082
S315000030B002F1C00653F826C060F3104C43F826C050
S315000030C053F82630BFF35F8F53099B0002F01F02AF
S315000030D003F16043974003F56143C3F880711F60B5
S315000030E00646236A05F0030545F070054A899D707A
S315000030F00F4B228163603046BDE8F081F22042F03A
S31500003100400240E7FF20022D08BF42F01002D2B273
S315000031105870DA7165E7EB68002BECD09A6818688E
S31500003120136A9847E7E703263046BDE8F08100BFFB
S315000031305549435310B4EFF30383103B214A5BB266
S3150000314003F1C00152F8210020F4803042F821003A
S3150000315052F821201C4A52F82300C26903691269F9
S315000031601AB11BB15DF8044B704783B9D0E9082446
S315000031700021937803F07F0343F004039370C1604A
S31500003180002CEFD080225DF8044BFFF79FBD8278BC
S31500003190046A02F0030CBCF1020FC1680AD091F870
S315000031A000C084F803C002F003029B1A1144C0E970
S315000031B00313D6E7B1F800C04CF47E4CA4F80EC059
S315000031C0F1E700BF00600040A405002010B582B002
S315000031D0EFF30383103B2D4A5BB203F1C00152F8B3
S315000031E0210020F4803042F8210052F82120284A9C
S315000031F052F82340D4E90632D26812B3ABB9A378A9
S31500003200226A03F00303022B0BBF118A5179C1F323
S315000032100801C9B20191636A002B30D0042220460E
S3150000322002B0BDE81040FFF751BD0021636AC4E952
S31500003230051123B30122204602B0BDE81040FFF776
S3150000324045BDA278216A02F0030002280BBF098A55
S315000032504979C1F30801C9B20191002BDBD002F014
S31500003260030201A9606901F0A2F9D4E90521A37856
S3150000327003F003031A44C91AC4E9052109B102B0CF
S3150000328010BD636A002BD5D1F9E700BF006000408E
S31500003290A405002010B5EFF303830E4A103B5CB281
S315000032A052F82400D0E90821937803F07B03937049
S315000032B019B102220021FFF709FD074A04F1C003F4
S315000032C052F8231021F4803142F8231052F82330AB
S315000032D010BD00BFA40500200060004010B5EFF34C
S315000032E003831A4A103B5CB252F824008278036AC0
S315000032F002F00302022A0CBF198A597993F804C016
S315000033000CBFC1F30801C9B21CF0100F0CF0380253
S3150000331006D093F81CC01CF0010F08BF42F0400213
S3150000332093F804C00CF0C70C83F804C0436A0BB1D1
S31500003330FFF7CCFC064A04F1C00352F8231021F42F
S31500003340803142F8231052F8233010BDA405002026
S315000033500060004042684369517A21B9126A12B18D
S31500003360127B012A24D0C269511E99420FD09A427B
S315000033700CD08168C26832B190F820C0BCF10F0F42
S315000033800DD952F823204A600133436170478168A2
S315000033900A8A22F080021204120C0A82EAE7BCF1C1
S315000033A0070F95BFD25C32F813200A718A80EBE7CB
S315000033B08268D2789206E9D5D5E700BF30B5836A30
S315000033C085B004468C4601ADABB193E8070085E8AD
S315000033D0070062681846117883F804C0E26A19602B
S315000033E09A60636A9847A36A1BB195E8070083E869
S315000033F0070005B030BD2B46EBE700BF10B4EFF376
S315000034000383103B214A5BB203F1C00152F821004D
S3150000341020F4803042F8210052F821201C4A52F84C
S315000034202330D3E906218A421CD018699C6838B338
S3150000343093F820C0BCF10F0F0AD9616840F822103A
S31500003440D96901328A429A610CD05DF8044B704703
S31500003450BCF1070F16D821798154D96901328A4205
S315000034609A61F2D15B6893F90330012203F01F00E1
S3150000347008495B09824041F823205DF8044B7047F8
S315000034806068DEE7A48820F81240DAE700600040B2
S31500003490A405002000E100E0EFF30383103B254A7A
S315000034A05BB203F1C00152F8210020F4803042F8EB
S315000034B0210052F82110204951F8230041680B6A77
S315000034C013B15B78012B01D0FFF744BF10B4C46978
S315000034D004F1FF3C446964450FD00A694AB191F989
S315000034E00320164902F01F0C03FA0CF3520941F8A7
S315000034F022305DF8044BFFF72DBF91F9031001F15F
S31500003500C00C52F82C4024F4803442F82C4052F877
S315000035102C20BFF35F8F4A09920001F01F0102F1D0
S31500003520604203FA01F102F56142C2F880111160AE
S31500003530DFE700BF00600040A405002000E100E0D6
S3150000354030B4EFF30382103A344953B203F1C000AA
S3150000355051F8204002F0FF0224F4803441F8204064
S3150000356051F820102E4951F823008168C97889073F
S3150000357005D54168497A012901D030BC704701213F
S31500003580284C5B0902F01F02203301FA02F244F8CC
S315000035902320BFF34F8FBFF36F8F436893F9023039
S315000035A0002B32DB5A0903F01F0301FA03F3203222
S315000035B044F82230BFF34F8FBFF36F8FD0E9012459
S315000035C0237892F9022023F04003002A237018DBA7
S315000035D0124B02F1C00453F8245025F4803543F809
S315000035E0245053F82430BFF35F8F53099B0002F039
S315000035F01F0203F16043914003F56143C3F8801154
S315000036001960012130BCFFF7D9BE8268012130BCA8
S31500003610137823F040031370FFF7D0BE006000401C
S31500003620A405002000E100E070B5EFF30383364AFD
S31500003630103B5CB252F82460736893F90230002B99
S3150000364049DB012031495A0903F01F03203200FAF1
S3150000365003F341F82230BFF34F8FBFF36F8FD6E9E4
S31500003660013293F902301178002B21F040011170DC
S3150000367019DB274A03F1C00152F8215025F48035A1
S3150000368042F8215052F82120BFF35F8F03F01F024A
S315000036905B099B0003F16043904003F56143C3F867
S315000036A080011860B2680021D378D1701A07DDB2A4
S315000036B024D4EB0715D405F01405142D19D0144A9B
S315000036C004F1C00352F8231021F4803142F823108C
S315000036D052F8233070BDB268137823F0400313709C
S315000036E0E1E70421304605F01405FFF767FE142DC7
S315000036F0E5D108213046FFF761FEE0E705213046B7
S31500003700FFF75CFED5E700BFA405002000E100E05E
S315000037100060004008B500F05DFB002008BD00BF5A
S315000037200346406810B49C68421C944208BF0022BD
S315000037301C68944206D0DC68215400205A605DF86B
S31500003740044B70474FF0FF30F9E700BFD0E9003275
S315000037509A420CD0C268D35C0B700368826801334E
S315000037609342036004BF00230360002070474FF0BC
S31500003770FF30704700200021402210B4064B074C52
S31500003780C3E90001DC60064C9A601C61054C5C6173
S315000037905DF8044B704700BFD0060020E806002005
S315000037A0213700004D370000C0B170B5037983B1F1
S315000037B00C4CE56826682B6830466168984750B916
S315000037C030466B68A1689847003818BF0120404210
S315000037D070BD054CEDE74FF0FF3070BD4FF0FF3088
S315000037E0704700BFB08A0100F88A010040F6E44342
S315000037F003FB00F0000B7047002850D02DE9F04184
S315000038000E4682B021B31AB3037933BB4FF00108D9
S31500003810244B01EB4207DD681C682046AB689847DD
S31500003820B0B98DF804806B69204601A998479DF8C8
S315000038300430012BF7D0324601212046AB69984768
S3150000384030B90236BE42E8D1002002B0BDE8F081B0
S315000038504FF0FF3002B0BDE8F0814FF00108124B87
S3150000386001EB4207DD681C682046AB6898470028D4
S31500003870EED18DF804806B69204601A998479DF822
S315000038800430012BF7D0324602212046AB69984717
S315000038900028DDD10236BE42E6D10020D5E74FF042
S315000038A0FF307047F88A0100B08A0100012805D070
S315000038B0022801D000207047014870470148704730
S315000038C06C0000208000002038B54FF480710F484E
S315000038D0FDF776FC002400230D4D4FF4007205F62B
S315000038E0044105F6084003600B6005F5206021469B
S315000038F0A5F8004C85F8024C00F0F8FD4FF4806204
S315000039002146284600F0F2FD204638BD2807002053
S31500003910400700200A4AB2F8003C591C89B203F558
S31500003920A063FF2922F8130002D8A2F8001C7047F2
S3150000393000210123A2F8001C82F8023C704700BF58
S315000039404007002010B5304C94F8023C002B59D0AB
S3150000395004F6FE1321461A469FED2C7A04F6FE3035
S3150000396032F802CF07EE90CAF8EE677A824237EE57
S31500003970277AF5D1DFED267A9FED266A27EE277A9C
S3150000398033F8022F07EE902AF8EE677A77EEC77AB9
S31500003990C7EE866A8342E1EC016AF1D11E4A002332
S315000039A0A2F580611D48FDF747FB1D498022A1F560
S315000039B08060FCF7F5FB01230022DFED147A19493C
S315000039C0B1EC017AB4EEE77AF1EE10FAC8BF1A4606
S315000039D003F1010377FE277A802BF1D107EE102A37
S315000039E09FED116AB8EEC77A104BDFED096AC3ED99
S315000039F0007A67EE067A67EEA67A002243ED017A30
S31500003A0084F8022C10BD00BF400700200000000013
S31500003A100000803B00F07F45400B00202807002077
S31500003A20400F0020440F00200000FA4548130020F4
S31500003A30014B93ED000A704744130020014B93EDB0
S31500003A40000A704748130020014B93F8020C704798
S31500003A504007002000210022064B03F6044C03F623
S31500003A600840CCF800100160A3F8002C83F8022C63
S31500003A70704700BF40070020014B1860704700BF29
S31500003A8094000020F0B5A7B000F0DEFA1F4C204DE0
S31500003A902389E1791F4ACDE90313A3798021029393
S31500003AA0A388019323680093A5FB000306A89B093E
S31500003AB000F010FCA669DEB1237DCBB13769BFB13A
S31500003AC006A800F081FD024606A9304692B2B84724
S31500003AD0011E0DDB06AA104800F08CFB00F0B4FABC
S31500003AE003460020A5FB03539B09236127B0F0BDC5
S31500003AF006A90A4800F07EFB00F0A6FA0346044A2F
S31500003B004FF0FF30A2FB03239B09EEE79400002051
S31500003B10D34D6210408C0100748C0100948C01001E
S31500003B2010B50446006882B0C0B1FF230D498DF878
S31500003B30073000F032FD88B90B4B4FF480619A686C
S31500003B40186893690DF10702984718B99DF907009F
S31500003B5002B010BD2168054800F04CFB4FF0FF3065
S31500003B6002B010BDA08C0100E8890100A88C0100FC
S31500003B7038B50446006898B10D460B4900F00DFDB6
S31500003B8040B90A4B4FF480619A681868D369EAB263
S31500003B90984708B9002038BD2168054800F02AFB7F
S31500003BA04FF0FF3038BD00BFA08C0100E88901004E
S31500003BB0A88C010070B50568002D2ED004461D495D
S31500003BC0284600F0EAFC80B91B4B9D681E682A68EF
S31500003BD030465968904718BB30466B68984721684D
S31500003BE0C0B9164800F006FB25682846144900F0BF
S31500003BF0D4FC40B9134BD3E90112186812689047F8
S31500003C000E2812D008B1002070BD21680E4800F0C1
S31500003C10F1FAF8E70D4800F0EDFA4FF0FF3070BD0D
S31500003C2021680B4800F0E6FAF7E70A4800F04AFB7D
S31500003C30F3E700BFD88C0100F4890100008D010074
S31500003C40A08C0100E88901006C8D0100208D010027
S31500003C50E08C0100408D010008B54368062B00D0BA
S31500003C6008BD00F0F1F9024B6430186008BD00BFD2
S31500003C704C130020084B1B68834200D0704710B5D8
S31500003C80064C07482178836849B298472378B3FAE7
S31500003C9083F35B09237010BD4C130020B000002095
S31500003CA0B40000200379022B07D0042B00D0704704
S31500003CB0044B017A18461B6918470122024B1A70F9
S31500003CC0704700BFD0060020511300200379022B55
S31500003CD007D0042B00D07047044B017A18461B69A5
S31500003CE018470122024B1A70704700BFD006002009
S31500003CF050130020074B10B59C681868A36814463B
S31500003D00984705490B78002BFCD000230B70204602
S31500003D1010BD00BF188A0100511300202DE9F04F95
S31500003D20B2F1000B85B028DD0D4600261C4BDFF8EE
S31500003D3078A0D3F808801F681A4C01EB0B0950468F
S31500003D40DAF814300DF10E0198470028F7D19DF8E6
S31500003D500E3001222B7029463846D8F808300195D6
S31500003D6098472378002BFCD0019B267093F90030EE
S31500003D7001350D2B05D04D45E1D1584605B0BDE8BE
S31500003D80F08F0A2301228DF80F303846D8F8083014
S31500003D900DF10F0198472378002BFCD02670EAE737
S31500003DA0188A010051130020D006002008B500F043
S31500003DB0EBFB092203464FF0FF301A6008BD00BF37
S31500003DC0002070474FF4005300204B60704700BF3F
S31500003DD0012070472DE9F0472DED028B84B0FFF7E7
S31500003DE0C9FC5E4BD3E90112186812689047014678
S31500003DF05B4800F0FFF95B4BD3E9011218681268C3
S31500003E0090470146584800F0F5F9584800F05AFA2C
S31500003E10574B01229B684FF48061DB6955489847F0
S31500003E2000F0BEF80120FFF741FD07460220FFF72C
S31500003E303DFD002F00F08A800646002800F08680AF
S31500003E40BB6838469847B368304698474A4800F0FA
S31500003E5039FAFFF739FD494800F034FA0024DFED5E
S31500003E60488ADFF83491DFF8348100250122FB68A7
S31500003E7002A93846ADF80850ADF80A509847012215
S31500003E80F3680DF10A0130469847BDF80A00FFF7BE
S31500003E9041FD0134FFF7D8FD38BB08FB04F3394A6E
S31500003EA0B2EBF30F13D33B69BDF8080098473369AB
S31500003EB00546BDF80A00984784462A463248BDF8AA
S31500003EC00A30BDF80810CDF800C000F093F90023C1
S31500003ED00393039BB3F57A7FC7DA039B01330393FE
S31500003EE0039BB3F57A7FF8DBBFE7FFF72BFDFFF700
S31500003EF09FFDB0EE408AFFF7A1FDF2EE047A20EEB8
S31500003F00280A28EE278AFCEEC07A214617EE904A48
S31500003F10FCEEC87A17EE903A4FF0640E1B4A1C4826
S31500003F20A2FB03C2A9FB04AC4FEA5C1C0EFB1C44BB
S31500003F30D208CDF800C002EB820C0194A3EB4C032F
S31500003F4000F058F92C46FFF785FDACE7114804B0A0
S31500003F50BDEC028BBDE8F04700F0B4B9188A010049
S31500003F60908D0100708A0100A48D0100B88D0100BA
S31500003F70E889010004060020F08D01001C8E010076
S31500003F800000C84237894100788E0100CDCCCCCCE8
S31500003F90548E0100D48D01001F85EB51D578E9269A
S31500003FA0052010B5FDF7DAFA0B4BA3FB00239B099E
S31500003FB0013BB3F1807F0DD24FF0E0224FF0F00CC1
S31500003FC0002107240548536180F823C09161084603
S31500003FD0146110BD012010BDD34D621000ED00E04C
S31500003FE010B5154C154A2368116801332360236800
S31500003FF05B1AB3F57A7F0CD241F28731104A2368F7
S3150000400010681B1A8B420ED82068BDE81040FFF7D7
S3150000401031BE0C4B206819681060013119601868B0
S31500004020FFF72AFDE8E723681360FFF72BFD2068FA
S31500004030BDE81040FFF71EBE601300205813002095
S315000040405C13002054130020014B1868704700BF12
S3150000405060130020022800D0704702490248FEF78C
S3150000406015BA00BF408B010004060020002310B5DE
S3150000407004468360818119464366C28108228361B2
S31500004080C0E90033C0E904335C3000F02FFA0D4B71
S31500004090246263620C4BA3620C4BE3620C4B2363FA
S315000040A00C4B9C4206D003F16802944202D0D033F6
S315000040B09C4205D104F15800BDE8104000F06ABAF0
S315000040C010BD00BF41430000634300009B43000056
S315000040D0C143000064130020024A0349034800F06C
S315000040E06BB800BFC400002029510000D400002096
S315000040F041680C4B994210B5044601D001F014F802
S31500004100A168094B994202D0204601F00DF8E168FA
S31500004110064B994204D02046BDE8104001F004B891
S3150000412010BD00BF64130020CC13002034140020FF
S315000041300C4B04210C4A0D4810B51A600022FFF7FB
S3150000414095FF0A4B012209211C4603F16800FFF77F
S315000041508DFF022204F1D0001221BDE81040FFF7C6
S3150000416085BF00BF9C140020D940000064130020C6
S31500004170014800F010BA00BFA5140020014800F065
S315000041800BBA00BFA514002010B50446FFF7F0FFD8
S31500004190236A1BB1BDE81040FFF7F0BF044B236252
S315000041A0044B1B68002BF5D1FFF7C2FFF2E700BFF7
S315000041B0F14000009C1400202DE9F843074688468C
S315000041C014460026D4E90195B9F1010905D52468FC
S315000041D0002CF7D13046BDE8F883AB89012B07D90F
S315000041E0B5F90E30013303D029463846C047064399
S315000041F06835E9E70FB407B5064904AB086853F814
S31500004200042B8168019300F065FC03B05DF804EBB4
S3150000421004B07047D0000020036A70B505460E460C
S3150000422084680BB9FFF7B0FF636EDB0705D4A3897B
S31500004230980502D4A06D00F0AEF9A389190702D53E
S315000042402369002B35D12146284600F0FBF880B3C0
S315000042504FF0FF35636EDA0705D4A3899B0502D4B8
S31500004260A06D00F099F9284670BD002B04DAA2690A
S31500004270934217DB0A2915D023685A1C226019704D
S31500004280A36816F8011F013BA3600029EDD1002B9E
S3150000429011DA22460A21284600F096F80130D7D0D6
S315000042A00A25D7E72246284600F08EF80130E7D1E6
S315000042B0CEE7013EE4E723685A1C22600A221A7000
S315000042C0EEE70000024B01461868FFF7A5BF00BFE6
S315000042D0D00000200CB4194B30B50C1E9DB01D68E3
S315000042E008DA8B234FF0FF302B601DB0BDE830405D
S315000042F002B070474FF402730290069002A9ADF81F
S3150000430014304FF00003209A28461B9314BF04F183
S31500004310FF332346049307934FF6FF73ADF8163029
S3150000432021AB019300F0B0FA431CBCBF8B232B607A
S31500004330002CDAD0029B00221A70D6E7D0000020AB
S3150000434010B50C46B1F90E1000F0FAF80028ABBF14
S31500004350636DA3891B1823F48053ACBF6365A381E7
S3150000436010BD2DE9F0411F468B8905460C46DB053D
S31500004370164605D502230022B1F90E1000F0CEF83C
S31500004380A3893246B4F90E10284623F48053A3813C
S315000043903B46BDE8F04100F0E5B810B50C46B1F972
S315000043A00E1000F0BBF8421CB4F90C3015BF606566
S315000043B023F4805343F48053A38118BFA38110BD17
S315000043C0B1F90E1000F09AB8F8B50E461446054637
S315000043D018B1036A0BB9FFF7D7FEA369A360A389D7
S315000043E01A0701D5236943B92146284600F02AF861
S315000043F018B14FF0FF373846F8BD2368F6B2226988
S315000044003746981A6369834205DC2146284600F040
S315000044108BFE0028EDD1A368013BA36023685A1CDC
S3150000442022601E70431C62699A4204D0A389DB078E
S31500004430E1D50A2EDFD12146284600F075FE002878
S31500004440D9D0D6E738B5284B05460C46186818B1BA
S31500004450036A0BB9FFF798FEB4F90C30190721D49B
S31500004460DA0607D409222A6043F040034FF0FF30F2
S31500004470A38131E0580712D5616B41B104F14403C1
S31500004480994202D0284600F0A7F800236363002271
S31500004490B4F90C30626023F024032269226043F0F1
S315000044A00803A381226942B903F42073B3F5007FA0
S315000044B003D02146284600F083FEB4F90C3013F0F1
S315000044C001020AD00022A26062695242A2612269F8
S315000044D042B913F08000C7D138BD990758BF626949
S315000044E0A260F4E70020F7E7D0000020024403466C
S315000044F0934200D1704703F8011BF9E738B5002352
S31500004500054D044608462B60FFF750FC431C02D1BC
S315000045102B6803B1236038BDA014002038B50446CB
S31500004520064D0846114600222A601A46FFF748FC47
S31500004530431C02D12B6803B1236038BDA0140020B0
S3150000454038B50446064D0846114600222A601A462A
S31500004550FFF7E4FB431C02D12B6803B1236038BD8F
S31500004560A014002038B50446064D08461146002220
S315000045702A601A46FFF7BEFB431C02D12B6803B123
S31500004580236038BDA0140020014B1868704700BF97
S31500004590D000002070477047704710F8012B11F8C3
S315000045A0013B012A28BF9A42F7D0D01A70470A4425
S315000045B0431E914200D1704710B511F8014B91424C
S315000045C003F8014FF9D110BD034613F8012B002A59
S315000045D0FBD1181A0138704738B50546002941D075
S315000045E051F8043C0C1F002BB8BFE41800F0E0F8AB
S315000045F01D4A136833B9636014602846BDE8384025
S3150000460000F0DCB8A34208D9206821188B4201BF0C
S3150000461019685B6809182160EDE71A465B680BB1FB
S31500004620A342FAD911685018A0420BD12068014460
S31500004630501811608342E0D118685B6808445360E3
S315000046401060DAE702D90C232B60D6E72068211820
S315000046508B4202BF19685B680918636008BF216056
S315000046605460CAE738BD00BFAC14002070B50F4EC9
S315000046700C460546316811B900F016FE3060214639
S31500004680284600F011FE431C03D14FF0FF342046AC
S3150000469070BDC41C24F00304A042F8D0211A284699
S315000046A000F002FE0130F2D1EFE700BFA8140020AF
S315000046B02DE9F843CD1C064625F0030508350C2DDB
S315000046C038BF0C25002D01DBA94204D90C23336029
S315000046D00020BDE8F883DFF8D48000F069F8D8F848
S315000046E000301C4644BB29463046FFF7BFFF431C3B
S315000046F0044658D1D8F800402746002F43D1002C55
S315000047004BD023683946304604EB030900F0CCFD54
S31500004710814542D1216830466D1A2946FFF7A6FF2A
S3150000472001303AD023682B442360D8F800305A6809
S3150000473062BBC8F800700FE02268521B20D40B2A17
S3150000474017D96119A342256018BF5960636808BF6D
S31500004750C8F8001062514B60304600F02FF804F1A3
S315000047600B00231D20F00700C21A1CBF1B1AA35002
S31500004770AFE76268A3420CBFC8F800205A60EBE7B7
S3150000478023466468AEE73C467F68B6E71A465B6830
S31500004790A342FBD100235360DEE70C23304633608F
S315000047A000F00CF894E70560D6E700BFAC140020D3
S315000047B00148FFF7F0BE00BFA41400200148FFF730
S315000047C0EBBE00BFA41400202DE9F0471F468E68FB
S315000047D082460C46BE429046334653D8B1F90C0089
S315000047E010F4906F2BD065692368096905EB4505C0
S315000047F0A3EB010905EBD5757B1C6D104B442A46CE
S31500004800AB4284BF1D462A46430527D5114650466E
S31500004810FFF74EFF064658B34A462169FFF7C7FE23
S31500004820A38923F4906343F08003A38126614E4459
S3150000483065613B46A5EB090526603E46A5601F4619
S315000048403A464146206800F0F4FCA36800209B1B12
S31500004850A36023683B442360BDE8F087504600F020
S3150000486041FD06460028E1D121695046FFF7B4FE16
S315000048700C234FF0FF30CAF80030A38943F0400301
S31500004880A381E9E73E46DBE72DE9F04F98468B89A1
S315000048909DB007461B060D46144610D50B6973B925
S315000048A04021FFF705FF2860286130B90C233B60E3
S315000048B04FF0FF301DB0BDE8F08F40236B61002341
S315000048C0CDF80C804FF00109DFF8A0810993202371
S315000048D08DF8293030238DF82A3023469A4613F86E
S315000048E0012B0AB1252AF9D1BAEB040B0BD05B4692
S315000048F0224629463846FFF767FF013000F0A780B9
S31500004900099A5A4409929AF80030002B00F09F80C9
S3150000491000234FF0FF320AF1010A049307938DF842
S3150000492053301A93CDE90523544605224F4814F80F
S31500004930011B00F0C9FC049AD8B9D00644BF202355
S315000049408DF85330110744BF2B238DF853309AF856
S3150000495000302A2B15D0079A544600204FF00A0C37
S31500004960214611F8013B303B092B4BD9B0B10792D8
S3150000497014E0A0EB0803A24609FA03F313430493D9
S31500004980D2E7039B191D1B68002B0391BBBF5B423B
S3150000499042F0020207930793B8BF049223782E2BA6
S315000049A00AD163782A2B32D1039B02341A1D1B6865
S315000049B043EAE37303920593DFF8C0A0032221784C
S315000049C0504600F081FC38B1A0EB0A004022049B5F
S315000049D0013482401343049314F8011B0622244831
S315000049E08DF8281000F070FC002836D0214B1BBB38
S315000049F0039B073323F0070308330393099B3344D0
S31500004A0009936AE70CFB02320C460120A8E7002353
S31500004A1001344FF00A0C19460593204610F8012B75
S31500004A20303A092A03D9002BC6D00591C4E70CFBFE
S31500004A30012104460123F0E703AB2A4604A93846C0
S31500004A4000930D4BAFF30080421C0646D6D1AB89CE
S31500004A505B063FF52DAF09982CE703AB2A4604A960
S31500004A6038460093044B00F0BFF9EDE7A88E01002D
S31500004A70B28E010000000000C9470000AE8E0100A2
S31500004A809368013B002B10B4936008DA9469A34243
S31500004A9001DB0A2903D15DF8044BFFF795BC1368C7
S31500004AA0581C1060084619705DF8044B7047F8B53D
S31500004AB006460F461446D518AC4201D1002007E041
S31500004AC03A4614F8011B3046FFF7DAFF431CF3D1D0
S31500004AD0F8BD00002DE9F04F0D469DB014469846EE
S31500004AE0064618B1036A0BB9FFF74EFB6B6ED90782
S31500004AF005D4AB899A0502D4A86DFFF74CFDAB89A6
S31500004B001B0701D52B699BB929463046FFF79AFC4E
S31500004B1070B16B6EDC0704D54FF0FF301DB0BDE8F9
S31500004B20F08FAB899805F7D4A86DFFF735FDF3E74D
S31500004B300023CDF80C804FF00109DFF8B48109930A
S31500004B4020238DF8293030238DF82A3023469A46C3
S31500004B5013F8012B0AB1252AF9D1BAEB040B0BD0B5
S31500004B605B46224629463046FFF7A1FF013000F09A
S31500004B70A780099A5A4409929AF80030002B00F04F
S31500004B809F8000234FF0FF320AF1010A0493079336
S31500004B908DF853301A93CDE905235446052254481F
S31500004BA014F8011B00F090FB049AD8B9D10644BF53
S31500004BB020238DF85330130744BF2B238DF8533031
S31500004BC09AF800302A2B15D0079A544600204FF049
S31500004BD00A0C214611F8013B303B092B4BD9B0B1E9
S31500004BE0079214E0A0EB0803A24609FA03F3134365
S31500004BF00493D2E7039B191D1B68002B0391BBBFCF
S31500004C005B4242F0020207930793B8BF04922378EF
S31500004C102E2B0AD163782A2B32D1039B02341A1D1C
S31500004C201B6843EAE37303920593DFF8D4A00322DB
S31500004C302178504600F048FB38B1A0EB0A0040222C
S31500004C40049B013482401343049314F8011B06228B
S31500004C5028488DF8281000F037FB00283FD0264B57
S31500004C601BBB039B073323F0070308330393099BFE
S31500004C703B4409936AE70CFB02320C460120A8E785
S31500004C80002301344FF00A0C19460593204610F80C
S31500004C90012B303A092A03D9002BC6D00591C4E767
S31500004CA00CFB012104460123F0E703AB2A4604A9C5
S31500004CB030460093114BAFF300800746781CD6D1DF
S31500004CC06B6ED90705D4AB899A0502D4A86DFFF798
S31500004CD063FCAB895B063FF51FAF09981EE703AB84
S31500004CE02A4604A930460093044B00F07DF8E4E719
S31500004CF0A88E0100B28E010000000000AF4A00003D
S31500004D00AE8E01002DE9F047164698468A6807469A
S31500004D100B690C46DDF820909342B8BF134633600A
S31500004D2091F843200AB1013333602368990642BFE4
S31500004D30336802333360256815F0060506D104F1A1
S31500004D40190AE36832689B1AAB422BDC94F84330AD
S31500004D502268003B18BF0123920630D404F14302B7
S31500004D6041463846C847013023D023681A3454F8E0
S31500004D700A2C03F00603042B0ABF54F80E5C002528
S31500004D8033684FF0000608BFED1A54F8123C08BF0E
S31500004D9025EAE5759342C4BF9B1AED18B5421AD1B0
S31500004DA0002008E00123524641463846C8470130F4
S31500004DB003D14FF0FF30BDE8F0870135C1E7E118B8
S31500004DC05A1C30200233224481F8430094F84510DF
S31500004DD082F84310C2E70123224641463846C847B7
S31500004DE00130E6D00136D9E72DE9FF470F7E91461F
S31500004DF080460C46782F9A460C9E01F1430207D84E
S31500004E00622F0AD8002F00F0D280582F00F0B7800A
S31500004E1004F1420684F842703AE0A7F16303152BC9
S31500004E20F6D801A151F823F0814E0000954E0000FE
S31500004E30114E0000114E0000114E0000114E0000F0
S31500004E40954E0000114E0000114E0000114E00005C
S31500004E50114E0000954F0000BF4E00004B4F000062
S31500004E60114E0000114E0000B74F0000114E000019
S31500004E70BF4E0000114E0000114E0000534F0000BF
S31500004E8033681A1D1B68326004F1420684F842300A
S31500004E9001239DE033682068191D3160060601D59F
S31500004EA01D6803E04506FBD5B3F90050002D03DA73
S31500004EB02D236D4284F8433059480A2310E02168B7
S31500004EC03368080653F8045B02D4490648BFADB2FE
S31500004ED06F2F5348336059D10823002184F84310BB
S31500004EE06668002EA66005DB21682E4321F00401CA
S31500004EF021604DD01646B5FBF3F103FB1157C75D94
S31500004F0006F8017D2F460D46BB42F4D9082B0BD17E
S31500004F102368DF0708D5236961689942DEBF30231D
S31500004F2006F8013C06F1FF36921B22614B4603AAA6
S31500004F3021464046CDF800A0FFF7E4FE01304CD1F3
S31500004F404FF0FF3004B0BDE8F087236843F020033C
S31500004F50236078273348236884F845701F06316834
S31500004F6051F8045B02D45F0648BFADB23160D90781
S31500004F7044BF43F0200323601DB11023ADE728484A
S31500004F80E9E7236823F020032360F6E70A23A4E772
S31500004F901646BBE733682568181D616930602E0622
S31500004FA01B6801D5196002E06806FBD5198000234D
S31500004FB016462361BAE7336800211A1D32601E685F
S31500004FC06268304600F080F908B1801B6060636853
S31500004FD02361002384F84330A8E723693246494613
S31500004FE04046D0470130ABD023689B0713D4E06816
S31500004FF0039B9842B8BF1846A4E7012332464946A8
S315000050004046D04701309BD00135E36803995B1ACF
S31500005010AB42F2DCEBE7002504F11906F5E700BF29
S31500005020B98E0100CA8E0100B1F90C202DE9F041BC
S31500005030160705460C4651D44B68002B02DC0B6C58
S31500005040002B49DDE66A002E46D0002312F480527A
S315000050502F682B6031D0626DA389590705D5636827
S31500005060D21A636B0BB1236CD21A0023E66A216A4B
S315000050702846B047421CB4F90C3006D129681D29D0
S3150000508045D8284ACA40D60741D50022D9046260CD
S315000050902269226004D5421C01D12B6803B96065E0
S315000050A0616B2F60C1B104F14403994202D02846D6
S315000050B0FFF792FA002363630EE00123216A284674
S315000050C0B0470246501CC7D12B68002BC4D01D2BFD
S315000050D001D0162B19D12F6000201DE00F69002F7B
S315000050E0FAD093070E680F600CBF4B690023A6EB3E
S315000050F007088B60B8F1000FEEDD43463A46216A99
S315000051002846A66AB047002808DCB4F90C3043F0FC
S3150000511040034FF0FF30A381BDE8F0810744A8EBC0
S315000051200008E7E70100402038B50B6905460C4644
S3150000513013B90025284638BD18B1036A0BB9FFF725
S3150000514023F8B4F90C30002BF3D0626ED00704D4E8
S31500005150990502D4A06DFFF71EFA28462146FFF7EF
S3150000516063FF636E0546DA07E4D4A3899B05E1D4A1
S31500005170A06DFFF711FADDE770B50C46B1F90E1018
S3150000518096B0154600291E460ADAA18911F080015B
S3150000519013D14FF48062002031602A6016B070BDD2
S315000051A06A4600F05FF80028EFDB019901F47041D0
S315000051B0A1F5005359425941EBE700214022EAE7A5
S315000051C08B8973B59E0705460C4607D504F1470340
S315000051D0236023610123636102B070BD01AB6A469F
S315000051E0FFF7CAFF009E28463146FFF761FAB4F979
S315000051F00C3038B99A05EFD423F0030343F00203C9
S31500005200A381E3E743F080032060A381019BC4E907
S315000052100406002BE0D0B4F90E10284600F034F84E
S315000052200028D9D0A38923F0030343F00103A38107
S31500005230D2E7884210B501EB020402D98442234624
S3150000524007D8431EA14207D011F8012B03F8012FFE
S31500005250F8E70244824200D110BD13F8011D02F89E
S31500005260011DF7E738B50023064D044608461146EA
S315000052702B60FEF7A7FD431C02D12B6803B1236008
S3150000528038BD00BFA014002038B50023054D0446E4
S3150000529008462B60FEF79CFD431C02D12B6803B128
S315000052A0236038BDA014002038B50023054D044600
S315000052B008462B60FCF7C2FA431C02D12B6803B1E7
S315000052C0236038BDA0140020C9B20346024410B5BD
S315000052D09342184601D1002003E0047801338C4242
S315000052E0F6D110BD2DE9F041074614460D4621B909
S315000052F01146BDE8F041FFF7DBB92AB92546FFF7AD
S315000053006BF92846BDE8F08100F01AF8844206469B
S3150000531002D8B4EB500FF4D821463846FFF7C8F947
S31500005320804608B94546ECE7B4422246294628BFDE
S315000053303246FFF73CF929463846FFF74DF9F1E7C3
S3150000534051F8043C181F002BBCBF0B58C0187047FF
S31500005350000000000000803FD40FC93AECFF7F3FF9
S31500005360C70F493BB1FF7F3FC1CB963B4EFF7F3F07
S31500005370890FC93BC4FE7F3F3053FB3B13FE7F3F83
S3150000538059CB163C39FD7F3F02ED2F3C39FC7F3F60
S31500005390900E493C11FB7F3F0030623CC1F97F3FD4
S315000053A04B517B3C4AF87F3F38398A3CACF67F3F0D
S315000053B0B6C9963CE6F47F3F1C5AA33CF8F27F3F01
S315000053C069EAAF3CE3F07F3F9B7ABC3CA7EE7F3FA8
S315000053D0B00AC93C43EC7F3FA69AD53CB8E97F3F6B
S315000053E07B2AE23C05E77F3F2DBAEE3C2BE47F3F6C
S315000053F0B949FB3C29E17F3F90EC033D00DE7F3F4E
S315000054002F340A3DAFDA7F3FB87B103D37D77F3F59
S315000054102CC3163D98D37F3F880A1D3DD1CF7F3FD1
S31500005420CC51233DE2CB7F3FF698293DCCC77F3F49
S3150000543007E02F3D8FC37F3FFC26363D2ABF7F3FC7
S31500005440D56D3C3D9EBA7F3F91B4423DEAB57F3F64
S315000054502FFB483D0FB17F3FAF414F3D0DAC7F3F26
S315000054600E88553DE3A67F3F4CCE5B3D91A17F3F25
S315000054706814623D189C7F3F625A683D78967F3F6C
S3150000548038A06E3DB1907F3FE9E5743DC28A7F3F0B
S31500005490742B7B3DAB847F3F6CB8803D6D7E7F3F38
S315000054A00ADB833D08787F3F94FD863D7B717F3F15
S315000054B00A208A3DC76A7F3F6A428D3DEC637F3F83
S315000054C0B464903DE95C7F3FE786933DBF557F3FDF
S315000054D005A9963D6D4E7F3F0ACB993DF4467F3F29
S315000054E0F9EC9C3D543F7F3FCF0EA03D8D377F3F6B
S315000054F08C30A33D9D2F7F3F3052A63D87277F3FAF
