S01400005241364D352D50726F6A63742E7372656326
S31500000000A004002035010000350500003101000084
S315000000103101000031010000310100003101000012
S315000000200000000000000000000000003101000098
S31500000030310100000000000031010000211C000019
S3150000004095160000FD150000251700006D1700002D
S315000000502D0F0000C10E0000A50F0000E50F0000E7
S31100000060690C0000B10D00001D08000036
S3150000006C4000350001000000B82D00000D190000FD
S3150000007CC918000079180000F02D00000D190000B9
S3150000008C000000000000000000000000030000005B
S3150000009C0C06002038000020000000000C06002092
S315000000AC74060020DC0600200000000000000000A2
S315000000BC000000000000000000000000000000002E
S315000000CC000000000000000000000000000000001E
S315000000DC000000000000000000000000000000000E
S309000000EC000000000A
S315000000F010B5054C237833B9044B13B10448AFF35C
S3150000010000800123237010BDC00400200000000001
S3150000011084A2000108B5034B1BB103490348AFF3A2
S31500000120008008BD00000000C404002084A2000175
S3150000013000BE704708B500F035F801F053FBFEE746
S31500000140F8B5174F05463E68A6B17C6806EB46062D
S3150000015004EB860602E00C34B4420BD0637AAB4261
S31500000160F9D1D4E900020021121A0C3401F07EFF05
S31500000170B442F3D1BE6896B1FC6804EB061602E001
S315000001801034A6420BD0637BAB42F9D1D4E900020E
S31500000190A168121A103401F0CAFFA642F3D1F8BDC5
S315000001A0782B00004FF47001274B284A70B50020C9
S315000001B0C3F888109A6001F043FD00F069F8012049
S315000001C001F03EFD224B83F30A880020FFF7B8FFBB
S315000001D000F048F800F008F9032000F043FA002385
S315000001E04FF6FF701B4903F1080201330C2B21F86F
S315000001F01200F8D10024032000F004FA032000F0D6
S3150000020031FA154B03205C609C60DC601C6100F0D9
S31500000210F9F9022001F014FD0120FFF791FF0F4DBF
S315000002200F4B5B1BA3424FEAA30605DD55F8043BC3
S3150000023001349847A642F9DC00F09AF9BDE870400F
S31500000240002000F029B900BF00ED00E0000000002A
S31500000250A0000020000D084000000E40802F000086
S31500000260842F0000064B074993F826001A6A51F8B6
S315000002702030C2F302620449D3400B60704700BFCE
S3150000028000E00140A0040020DC040020704700BF0D
S31500000290F8B54AF2035001234549464AA1F8FE0340
S315000002A0A2F80431B2F804319BB2002BFAD1012036
S315000002B04FF400454FF0090C3F4CDFF818E13F4E74
S315000002C0C4F804E0DFF810E13949C4F80CE03C4F0B
S315000002D0A2F800013B4AB06030606261276091F885
S315000002E02620A5602561086A54F82220364EC0F300
S315000002F00260C240326081F8133481F8A2C091F8DE
S3150000030080341BB991F8813499074CD0284D95F863
S315000003108034002B3CD00022254B83F8812483F8BF
S3150000032080240023224981F8323091F83C301A07A4
S31500000330FBD543F2021000231D4A088581F82A30B6
S3150000034092F83C309B06FBD50320052319494FF054
S31500000350F10C81F81C011D49116282F8263092F8D1
S315000003602630156A54F82300C5F302640123E040E1
S315000003703060F0244FF42540154981F80CC00B720B
S315000003800C7382F8303082F85230A2F8FE03F8BDC2
S315000003900121C82085F8801400F086F895F880348D
S315000003A0012BFBD1B7E74FF47A70FFF76FFFB8E781
S315000003B000E0014000C00140A004002000700040A1
S315000003C0002D310100C2EB0BDC04002021120120BC
S315000003D00020004000127A0000366E01014B53F8EF
S315000003E020007047A004002038B50025284C0121C4
S315000003F0C82084F8285000F057F884F8245094F860
S315000004002430002BFBD194F82430214943F0020319
S3150000041084F8243091F82430C3F340009B07F9D4C4
S315000004201B4A81F8220092F8223003F0FF00002BCD
S31500000430F9D192F84030164960F3C71382F840307C
S3150000044091F84030DB09FBD191F84200104A63F382
S31500000450C71081F8420092F84230DB09FBD192F8CE
S3150000046044000B4963F3C71082F8440091F8443006
S31500000470C3F3C014DB09F9D1012000F0F3F8054BF2
S31500000480012083F8BB44BDE8384000F0BBB800BF8C
S315000004900030084000E00140704700BFA0F10100B5
S315000004A00028FBD1704700BF1F4B204A1B6800FB8A
S315000004B001F1934213D302F1854202F5071203F5C7
S315000004C0741302F6834203F6FF03A2FB03231B0DFC
S315000004D0A3FB01314FF0FF30F9B1FFF7DFBF4FF457
S315000004E07A7210B4A1FB02C41148B0FBF3F34FF0CB
S315000004F0FF3044B9BCFBF3FC4FEA9C0088B15DF8C1
S31500000500044BFFF7CBBF9B00B1FBF3F1A1FB02123B
S31500000510002AF4D1084620B1F1E71846002BDCD1B9
S3150000052070475DF8044B7047DC04002000127A0027
S3150000053000CA9A3B70B500240B4B0C4EB3F8202131
S31500000540B3F84051ADB2154025FA04F3DB0704D5E4
S3150000055056F82430E0B203B198470134102CF3D199
S31500000560014BA3F8305170BD00600040E00400204C
S3150000057030B5032085B000F075F800256FF0FF0157
S315000005804FF0FF301B4B1C4C996422462B464FF014
S31500000590010ECDE90100039032F8021B0EFA03FCAE
S315000005A0013311B1012520EA0C000B2BF4D1F5B172
S315000005B00190124B0F4A1067C3F88002029903207C
S315000005C05167C3F8841203999167C3F8881200F043
S315000005D019F800230A4834F8022B03F1C00101334D
S315000005E00AB140F821200B2BF5D105B030BD4FF0F4
S315000005F0FF30DEE700800040A02D000000E100E0B3
S3150000060000600040EFF31081012383F31088124B42
S3150000061033F8102092B22AB133F81020013A92B280
S3150000062023F8102033F810309BB293B90B4A10B45C
S31500000630B2F8FE330A4C9BB234F8100043F425435B
S3150000064023EA0003A2F8FE3381F310885DF8044B19
S31500000650704781F3108870475005002000E0014084
S315000006606C2B000030B4EFF31081012383F3108864
S315000006700E4A32F810309BB26BB90D4C0D4DB4F8E2
S31500000680FE3335F810C09BB243EA0C0343F425430E
S315000006909BB2A4F8FE3332F8103001339BB222F835
S315000006A0103081F3108830BC704700BF5005002021
S315000006B000E001406C2B000008B501F025FD0C227E
S315000006C003464FF0FF301A6008BD00BFF0B5034681
S315000006D0002591F902C01B4C4FEA8C0202F18042C0
S315000006E080F804C002F5C042D1E90270D2F8006376
S315000006F0C2F80053C3E9027091F800E0BCF1000FA4
S3150000070083F805E004F80E500D79C87840EA051024
S315000007104D7940EAC510C0B204F80E00C2F8006375
S315000007200BDB4A78084812010CF16041D2B201F5A0
S31500000730614181F8002340F82C30044A00201A60F9
S31500000740F0BD00BF0060004024050020554349006D
S3150000075090F904200E4B02F1C00153F8210020F459
S31500000760803043F8210053F82130BFF35F8F012119
S3150000077053099B0002F01F0203F1604303F5614336
S3150000078001FA02F2C3F880211A600020704700BF08
S3150000079000600040012110B490F90430084C5A0959
S315000007A003F01F03994002F1200344F82310BFF31E
S315000007B04F8FBFF36F8F00205DF8044B704700BF6B
S315000007C000E100E003460020C3E90212704700BFC3
S315000007D090F904200346002A19DB012010B45109C0
S315000007E00C4C02F01F02203100FA02F244F82120DC
S315000007F0BFF34F8FBFF36F8F0020074A93F90410A2
S315000008005DF8044B42F82100002018607047002074
S315000008101860704700E100E02405002030B583B081
S31500000820EFF30384174B103C64B253F82410164AB6
S3150000083048798D68135C03F00303032B10D0C03492
S3150000084052F8243023F4803342F8243052F824300E
S3150000085025B1CB68CDE900306846A84703B030BD66
S3150000086025B1CB68CDE900306846A847064BC034B1
S3150000087053F8242022F4803243F8242053F82430FD
S3150000088003B030BD2405002000600040002203466E
S3150000089010461A60704700BF0B0A10B41B01064CC5
S315000008A053FA81F154F821300020C3F340035DF878
S315000008B0044B1370704700BF00080840090A49013D
S315000008C001F1804101F500214B680020138070473B
S315000008D0090A490123EA020C01F180411A4001F597
S315000008E0002142EA0C4200208A6070470120CBB208
S315000008F0984080B202B900040B0A5B0103F1804301
S3150000090003F5002398600020704700BF090A4901DB
S3150000091001F1804101F5002110B40C6802EA030CD4
S315000009204CEA040C62EA030202EA0C0200205DF8BB
S31500000930044B0A60704700BF090A490101F1804172
S3150000094001F500214B680020C3F30F431380704765
S31500000950012310B44FEA112C4FEA4C1C0CF1804CC9
S315000009600CF5002CDCF80440C9B28B4099B203EABE
S3150000097014435B1AB3FA83F35B0900205DF8044B5A
S3150000098013707047090A490123EA020C01F18041FC
S315000009901A4001F5002142EA0C420020CA60704765
S315000009A001200B0A5B0103F1804303F50023C9B262
S315000009B010B400FA01F1DC68012A4FEA01400DBFCC
S315000009C084438C4304430C430020DC605DF8044BF5
S315000009D0704700BF2DE9F84F0388DBB182464FF020
S315000009E0000B4FF00109DFF8D0800024304D4FEAAC
S315000009F0CB07DAF8043035F8022BD91989889142E9
S31500000A000AD00134032CF4D1BAF800300BF1010BF3
S31500000A105B45EAD8BDE8F88FDB5909FA04F603F01E
S31500000A20B853B3F1807FF6B298F8BB3413D0334293
S31500000A3031D1204A04F1200612F81630DB09E0D045
S31500000A4012F81630012123F08003C82002F8163070
S31500000A50FFF72AFDD5E7334211D0164A04F12001EB
S31500000A6012F81130DB09CCD112F81130C82043F04E
S31500000A70800302F811300121FFF716FDC1E70120BE
S31500000A80FFF7F0FD98F8BB340120334388F8BB34F8
S31500000A90FFF7B8FDE1E70120FFF7E4FD98F8BB3466
S31500000AA0012023EA060388F8BB34FFF7ABFDC0E755
S31500000AB0642C00000030084000E00140F8B5044610
S31500000AC0FFF788FFEFF31082012383F31088234F8B
S31500000AD03B681BB92249CB704023CB703B6801337E
S31500000AE03B6082F3108823882BB361681D4C01EBB1
S31500000AF0C30E06E01B01083113448E4544F823005B
S31500000B0019D008688A88C5034FEA1223D2B2F1D5F4
S31500000B1002EB031C54F82C601B01083120F48035CD
S31500000B2026F4803613448E4544F82C6044F82C5045
S31500000B3044F82300E5D1EFF31082012383F31088F4
S31500000B403B6813B13B68013B3B603B681BB98020A7
S31500000B500349CB70C87082F31088F8BD20050020C9
S31500000B60000D08400008084008B5034B036008461E
S31500000B70FFF7A4FF002008BD54524F5008B50846A1
S31500000B80FFF79CFF002008BD70B5012686B001ABBB
S31500000B9003A80C4615460493ADF80C60ADF8081092
S31500000BA00192FFF717FFEFF3108286F310881D49B5
S31500000BB00B681BB940261C48C370C6700B6801330E
S31500000BC00B6082F31088EA034FEA1423E4B219D4C7
S31500000BD01B01164A234442F82350EFF310820123E7
S31500000BE083F310880B6813B10B68013B0B600B682D
S31500000BF01BB980200C49CB70C87082F31088002086
S31500000C0006B070BD094A04EB031052F820601B01C0
S31500000C1026F4803642F8206025F4803642F82060BB
S31500000C20D7E700BF20050020000D08400008084057
S31500000C3030B5836B83B004460A466D468BB193E8A4
S31500000C400300CDE90001E16B1A711846626B196069
S31500000C509047A36B1BB195E8030083E8030003B03C
S31500000C6030BD6B46EFE700BF10B4EFF30383103BD4
S31500000C704D4A5BB2C03352F8231021F4803142F85A
S31500000C80231052F82330EFF30383484A103B5BB23C
S31500000C9052F823301A69117BC1F3000CC9072AD414
S31500000CA093F82C1093F82A00884212D093F82D005E
S31500000CB008B102294DD093F828000131D07093F87D
S31500000CC02B2083F82C10013A83F82B205DF8044B77
S31500000CD07047196A002933D093F82D0000283ED1B9
S31500000CE0586A9C690139245C0130C3E90810D47044
S31500000CF05DF8044B704793F82D10B9B193F8311095
S31500000D00A1B9507999695A6A885493F82E40D3E963
S31500000D10081201390132C3E908121869002C3AD0C9
S31500000D2052210122C17283F83020CFE7002401202E
S31500000D3054211C6283F82F005DF8044BD172704772
S31500000D4093F82E1041B152200121D07283F8301051
S31500000D50BCE75223D372B9E75423D372B6E793F8AC
S31500000D60310040B1012983F831C017D0FF2482F841
S31500000D700AC0D470BCE7507999695A6A8854D3E995
S31500000D800812013901320129C3E908121A6905D08E
S31500000D90FF24D470ACE75423C37297E72023FF24C3
S31500000DA09372D470A4E700BF0060004024050020C1
S31500000DB010B5EFF30383304A103B5BB252F82300C1
S31500000DC00269D37A23F00803D37290F82F30002BF0
S31500000DD03ED190F82A1003F0FF0C90F82C3099427F
S31500000DE01BD1036A53B990F82D1090F83040C1F129
S31500000DF00301C9B2CCB3D372FFF71AFFEFF3038333
S31500000E00103B1E4A5BB2C03352F8231021F48031E6
S31500000E1042F8231052F8233010BDFBB190F82D4054
S31500000E2004F0FF0134B1022B12BF614690F829107D
S31500000E3041F001014FF0000C82F80BC0D17090F820
S31500000E402B20013380F82C30531E80F82B30D5E749
S31500000E50F0230121D372FFF7EBFECFE701290CBF88
S31500000E6090F8281090F82910E4E7F023D3729378CD
S31500000E7003F0CF039370BFE7240500200060004015
S31500000E8030B5436A85B004468C4601ADABB193E8F4
S31500000E90070085E8070062681846117883F804C0E1
S31500000EA0A26A19609A60236A9847636A1BB195E83B
S31500000EB0070083E8070005B030BD2B46EBE700BF0F
S31500000EC010B4EFF30383103B164A5BB203F1C00183
S31500000ED052F8210020F4803042F8210052F82120F7
S31500000EE0114A52F823305A69D9698A4206D2D3E99F
S31500000EF00240A8B1805CE07001325A618A4202D099
S31500000F005DF8044B70471A69002AF9D19A685DF8B2
S31500000F10044B937803F07B0343F00403937070470C
S31500000F20E070E9E7006000402405002010B4EFF30C
S31500000F300383103B194A5BB203F1C00152F821004A
S31500000F4020F4803042F8210052F82120144A52F849
S31500000F5023305969DA69914206D2D3E90240D0B109
S31500000F60405CE070013159619969914207D29868F5
S31500000F701A6940794C1C9C615054D3E9061291427F
S31500000F8006D19A68937803F03B0343F00403937009
S31500000F905DF8044B7047E070E4E700BF0060004076
S31500000FA02405002010B5EFF303830C4A103B5CB216
S31500000FB052F8240001218268937803F003039370AA
S31500000FC0FFF75EFF064A04F1C00352F8231021F42E
S31500000FD0803142F8231052F8233010BD240500203A
S31500000FE00060004010B5EFF303834FF0840C0E4A07
S31500000FF0103B5CB252F82400042183689A7802F010
S3150000100003029A701A7983F804C0FFF739FF074A7A
S3150000101004F1C00352F8231021F4803142F8231062
S3150000102052F8233010BD00BF2405002000600040A8
S3150000103003460020012110B41A6A58609070DA69DC
S315000010402C4C92F905204FEA521C02F01F0201FABD
S3150000105002F20CF1200C44F82C20BFF34F8FBFF3A3
S315000010606F8FDA6992F90B204FEA521C02F01F02C9
S3150000107001FA02F20CF1200C44F82C20BFF34F8F3A
S31500001080BFF36F8FDA6992F907204FEA521C02F01C
S315000010901F0201FA02F20CF1200C44F82C20BFF3D7
S315000010A04F8FBFF36F8FDA6992F909204FEA521C0E
S315000010B002F01F0201FA02F20CF1200C44F82C2077
S315000010C0BFF34F8FBFF36F8FEFF3108481F3108858
S315000010D0DB69094A93F800C04FF00043516823FAD0
S315000010E00CF30B435360536884F310885DF8044B8C
S315000010F0704700BF00E100E00040084003460020C2
S31500001100C3E90512704700BF10B4046AA37803F060
S315000011107B03A370837803F00303D21A0B440261A6
S31500001120A278C360837842F0800203F00303022BA7
S31500001130A27005D00B780020E3705DF8044B704771
S315000011400B88002043F47E43E3815DF8044B70472F
S3150000115084460020CCE90A32CCF82410704700BF40
S31500001160012310B5C4690A7894F800C003FA0CF399
S3150000117013F0060F01D013071ED402F05C0E0022F6
S31500001180036A93F802C00CF00B049C70C260104610
S315000011908A784C785A701A780CF07B0C64F301024A
S315000011A01A70CA789A74DA7902F0A30242EA0E0239
S315000011B0DA7183F802C010BD032010BD4FF0FF3373
S315000011C00020C1E9003370470346880710D510B4E4
S315000011D00024186AC907827802F07B0282702046D2
S315000011E01C6102D5002210469A615DF8044B7047D7
S315000011F0CA0748BF00224FF0060044BF9A61104656
S31500001200704700BF0346002210B49C6910460C606C
S315000012105DF8044B9A61704706207047F0B5846A02
S3150000122085B005460F4694466E46B4B194E80F0065
S315000012308DE80F00EB6920461B7884F804C0236014
S31500001240EB6AC4E902736B6A9847AC6A1CB196E80C
S315000012500F0084E80F0005B0F0BD6C46EAE700BF5A
S31500001260062070472DE9F04101240A780346944090
S3150000127014F0060F05D0C86940680078000700F131
S31500001280B081002002F5800202F58C52187012021D
S31500001290C3E907124A6901255A628A699E78C3E939
S315000012A00A024A78D04CB2FA82F25209524202F04D
S315000012B003026A4062F301069E7091F90B6091F891
S315000012C00AC0720906F01F07203205FA07F744F82C
S315000012D02270BFF34F8FBFF36F8FC44A06F1C0076A
S315000012E052F827E060F3104E42F827E052F82770D4
S315000012F0BF4F4FEA0C1C04EB060E5FFA8CFC8EF80F
S3150000130000C347F8263091F9056091F804C04FEA0A
S31500001310561E06F01F080EF1200E05FA08F844F8CE
S315000013202E80BFF34F8FBFF36F8F06F1C00E52F8BA
S315000013302E8060F3104842F82E8052F82EE04FEAD5
S315000013400C1C04EB060E5FFA8CFC8EF800C347F803
S31500001350263091F9076091F806C04FEA561E06F04E
S315000013601F080EF1200E05FA08F844F82E80BFF388
S315000013704F8FBFF36F8F06F1C00E52F82E8060F3C9
S31500001380104842F82E8052F82EE04FEA0C1C04EB6F
S31500001390060E5FFA8CFC8EF800C347F8263091F9EA
S315000013A0096091F808C04FEA561E06F01F080EF1B4
S315000013B0200E05FA08F844F82E80BFF34F8FBFF3CE
S315000013C06F8F06F1C00E52F82E8060F3104842F877
S315000013D02E8052F82E204FEA0C12D2B2344484F8F2
S315000013E0002347F82630EFF3108785F310884FF077
S315000013F000460C787F4AE640546824EA06045460A6
S31500001400526887F310881A6A40F2F93790701071A3
S3150000141050729072D07250830878CC69854040F241
S31500001420F930054218BF40204FF0060518BFD074AA
S31500001430012015770D788E78A840384218BF4FF4F2
S3150000144078404D78C97818BF9082C900032D41EACB
S31500001450061100F0C280002D0CBFE220F220C9B2B6
S3150000146011709071217B08290EBF0A21490001F0F5
S31500001470020151736178A078C901400100F0200093
S31500001480C9B201430020107294F800C0ACF102000A
S31500001490012840F29880C9B2D171616888784D7888
S315000014A05070107865F301001070C8780978907450
S315000014B0D07901F05C0100F0A3000143D171002056
S315000014C0D96918619861D860586191F90550474A01
S315000014D005F1C00152F8216060F3104642F8216020
S315000014E052F82110BFF35F8F01266909890005F0C4
S315000014F01F0501F1604101F5614106FA05F5C1F8E4
S3150000150080510D60D96991F90B5005F1C00152F86F
S31500001510217060F3104742F8217052F82110BFF392
S315000015205F8F6909890005F01F0501F1604106FA20
S3150000153005F501F56141C1F880510D60D96991F950
S3150000154007E00EF1C00152F8215060F3104542F851
S31500001550215052F82110BFF35F8F4FEA5E118900C8
S315000015600EF01F0E01F1604106FA0EF501F561411C
S31500001570C1F880510D60D96991F9091001F1C005D2
S3150000158052F8257060F3104742F8257052F825206E
S31500001590BFF35F8F4A09920001F01F0102F160421A
S315000015A08E4002F56142C2F8806116601A6A0CF03C
S315000015B0030C4CF0700C618982F802C00E4A198146
S315000015C05A60BDE8F081FF20BCF1020F08BF41F070
S315000015D01001C9B25070D17171E7F22041F040019B
S315000015E03DE70320BDE8F08100E100E00060004037
S315000015F024050020004008405549435310B4EFF33A
S315000016000383103B214A5BB203F1C00152F821006B
S3150000161020F4803042F8210052F821201C4A52F86A
S315000016202300C269036912691AB11BB15DF8044B44
S31500001630704783B9D0E908240021937803F07F032B
S3150000164043F004039370C160002CEFD080225DF854
S31500001650044BFFF7E3BD8278046A02F0030CBCF189
S31500001660020FC1680AD091F800C084F803C002F0E6
S3150000167003029B1A1144C0E90313D6E7B1F800C070
S315000016804CF47E4CA4F80EC0F1E700BF00600040A9
S315000016902405002010B582B0EFF30383103B1F4AE8
S315000016A05BB203F1C00152F8210020F4803042F809
S315000016B0210052F821201A4A52F82340A278236AC0
S315000016C002F0030102290CBF198A5979A3690CBFDC
S315000016D0C1F30801C9B2019143B9636AB3B10422E7
S315000016E0204602B0BDE81040FFF798BD02F00302A5
S315000016F001A9606900F01BFDD4E90521A37803F078
S3150000170003031A44C91AC4E9052109B102B010BD80
S31500001710636A002BFAD00122E2E700BF00600040B6
S315000017202405002010B5EFF303830E4A103B5CB28C
S3150000173052F82400D0E90821937803F07B039370D4
S3150000174019B102220021FFF769FD074A04F1C0031F
S3150000175052F8231021F4803142F8231052F8233036
S3150000176010BD00BF240500200060004010B5EFF357
S3150000177003831A4A103B5CB252F824008278036A4B
S3150000178002F00302022A0CBF198A597993F804C0A1
S315000017900CBFC1F30801C9B21CF0100F0CF03802DF
S315000017A006D093F81CC01CF0010F08BF42F040029F
S315000017B093F804C00CF0C70C83F804C0436A0BB15D
S315000017C0FFF72CFD064A04F1C00352F8231021F45A
S315000017D0803142F8231052F8233010BD2405002032
S315000017E00060004008B500F0B7F9002008BD00BF52
S315000017F00346406810B49C68421C944208BF00220D
S315000018001C68944206D0DC68215400205A605DF8BA
S31500001810044B70474FF0FF30F9E700BFD0E90032C4
S315000018209A420CD0C268D35C0B700368826801339D
S315000018309342036004BF00230360002070474FF00B
S31500001840FF30704700200021402210B4064B074CA1
S31500001850C3E90001DC60064C9A601C61054C5C61C2
S315000018605DF8044B704700BFA8050020C0050020A6
S31500001870F11700001D18000010B50446006882B07C
S31500001880C0B1FF230D498DF8073000F046FC88B93A
S315000018900B4B4FF480619A68186893690DF1070243
S315000018A0984718B99DF9070002B010BD2168054890
S315000018B000F096FA4FF0FF3002B010BDB82D0000D0
S315000018C0CC2C0000C02D000038B50446006898B145
S315000018D00D460B4900F021FC40B90A4B4FF48061DC
S315000018E09A681868D369EAB2984708B9002038BDE3
S315000018F02168054800F074FA4FF0FF3038BD00BF8C
S31500001900B82D0000CC2C0000C02D000070B5056875
S31500001910002D2ED004461D49284600F0FEFB80B956
S315000019201B4B9D681E682A6830465968904718BB4D
S3150000193030466B6898472168C0B9164800F050FADF
S3150000194025682846144900F0E8FB40B9134BD3E953
S3150000195001121868126890470E2812D008B10020AC
S3150000196070BD21680E4800F03BFAF8E70D4800F01C
S3150000197037FA4FF0FF3070BD21680B4800F030FA9F
S31500001980F7E70A4800F094FAF3E700BFF02D0000ED
S31500001990D82C0000182E0000B82D0000CC2C00001A
S315000019A0842E0000382E0000F82D0000582E00006E
S315000019B010B50849044600F0B0FB40B12046064980
S315000019C000F0ABFB08B9054810BD002010BD044867
S315000019D010BD00BFF02D0000B82D0000080000204B
S315000019E01800002008B54368062B00D008BD00F09B
S315000019F021F9024B6430186008BD00BF00060020C4
S31500001A00084B1B68834200D0704710B5064C074848
S31500001A102178836849B298472378B3FA83F35B0940
S31500001A20237010BD000600200400002008000020DE
S31500001A300379022B07D0042B00D07047044B017AA0
S31500001A4018461B6918470122024B1A60704700BFEF
S31500001A50A8050020040600202DE9F047B2F1000990
S31500001A6016DD8A4600260C4B0C4CD3F808801F68FE
S31500001A7001EB0905012251463846D8F80830984747
S31500001A802368002BFCD00AF1010AAA452660F1D191
S31500001A904846BDE8F08700BFFC2C00000406002085
S31500001AA02DE9F04FB2F1000B85B028DD0D4600267A
S31500001AB01C4BDFF878A0D3F808801F681A4C01EB9E
S31500001AC00B095046DAF814300DF10E01984700283C
S31500001AD0F7D19DF80E3001222B7029463846D8F8EA
S31500001AE00830019598472368002BFCD0019B26609F
S31500001AF093F9003001350D2B05D0A945E1D15846A3
S31500001B0005B0BDE8F08F0A2301228DF80F30384664
S31500001B10D8F808300DF10F0198472368002BFCD048
S31500001B202660EAE7FC2C000004060020A805002039
S31500001B3008B500F0E9FA092203464FF0FF301A60B3
S31500001B4008BD00BF002070474FF4005300204B60D3
S31500001B50704700BF0120704770B5FFF773FE184B42
S31500001B60D3E90112186812689047164800F0A0F9E8
S31500001B70154B01229B684FF48061DB691348984737
S31500001B8000F02EF81248FFF713FF78B1044611480B
S31500001B90FFF70EFF054670B120466368984720B9E7
S31500001BA028466B68BDE87040184770BD0A48BDE816
S31500001BB0704000F07DB90948BDE8704000F078B982
S31500001BC0FC2C0000A82E0000CC2C00005C05002098
S31500001BD0F02D0000B82D0000C42E0000DC2E000001
S31500001BE0052010B5FEF7FAFB0B4BA3FB00239B0960
S31500001BF0013BB3F1807F0DD24FF0E0224FF0F00CA5
S31500001C00002107240548536180F823C091610846E6
S31500001C10146110BD012010BDD34D621000ED00E02F
S31500001C20034B1A6801321A601868FFF7E9BE00BF55
S31500001C3008060020014B1868704700BF0806002000
S31500001C40022800D0704702490248FEF78DBF00BF48
S31500001C503C2D00005C050020002310B5044683607F
S31500001C60818119464366C28108228361C0E9003337
S31500001C70C0E904335C3000F0F9F90D4B246263626D
S31500001C800C4BA3620C4BE3620C4B23630C4B9C4244
S31500001C9006D003F16802944202D0D0339C4205D1AB
S31500001CA004F15800BDE8104000F034BA10BD00BF82
S31500001CB0C11E0000E31E00001B1F0000411F0000A4
S31500001CC00C060020024A0349034800F06BB800BF27
S31500001CD028000020E12900003800002041680C4B54
S31500001CE0994210B5044601D000F07AFEA168094B6E
S31500001CF0994202D0204600F073FEE168064B9942F5
S31500001D0004D02046BDE8104000F06ABE10BD00BFFA
S31500001D100C06002074060020DC0600200C4B042173
S31500001D200C4A0D4810B51A600022FFF795FF0A4BC2
S31500001D30012209211C4603F16800FFF78DFF0222EC
S31500001D4004F1D0001221BDE81040FFF785BF00BFA7
S31500001D5044070020C51C00000C060020014800F0C6
S31500001D60DAB900BF4D070020014800F0D5B900BF21
S31500001D704D07002010B50446FFF7F0FF236A1BB19C
S31500001D80BDE81040FFF7F0BF044B2362044B1B680D
S31500001D90002BF5D1FFF7C2FFF2E700BFDD1C000004
S31500001DA0440700202DE9F8430746884614460026D6
S31500001DB0D4E90195B9F1010905D52468002CF7D1BC
S31500001DC03046BDE8F883AB89012B07D9B5F90E304B
S31500001DD0013303D029463846C04706436835E9E74C
S31500001DE00FB407B5064904AB086853F8042B81689D
S31500001DF0019300F0CBFA03B05DF804EB04B0704732
S31500001E0034000020036A70B505460E4684680BB997
S31500001E10FFF7B0FF636EDB0705D4A389980502D4EC
S31500001E20A06D00F078F9A389190702D52369002B64
S31500001E3035D12146284600F0C5F880B34FF0FF356E
S31500001E40636EDA0705D4A3899B0502D4A06D00F062
S31500001E5063F9284670BD002B04DAA269934217DBAA
S31500001E600A2915D023685A1C22601970A36816F82F
S31500001E70011F013BA3600029EDD1002B11DA224698
S31500001E800A21284600F060F80130D7D00A25D7E7A6
S31500001E902246284600F058F80130E7D1CEE7013E49
S31500001EA0E4E723685A1C22600A221A70EEE7000053
S31500001EB0024B01461868FFF7A5BF00BF340000209B
S31500001EC010B50C46B1F90E1000F0FAF80028ABBFB9
S31500001ED0636DA3891B1823F48053ACBF6365A3818C
S31500001EE010BD2DE9F0411F468B8905460C46DB05E2
S31500001EF0164605D502230022B1F90E1000F0CEF8E1
S31500001F00A3893246B4F90E10284623F48053A381E0
S31500001F103B46BDE8F04100F0E5B810B50C46B1F916
S31500001F200E1000F0BBF8421CB4F90C3015BF60650A
S31500001F3023F4805343F48053A38118BFA38110BDBB
S31500001F40B1F90E1000F09AB8F8B50E4614460546DB
S31500001F5018B1036A0BB9FFF70DFFA369A360A38944
S31500001F601A0701D5236943B92146284600F02AF805
S31500001F7018B14FF0FF373846F8BD2368F6B222692C
S31500001F803746981A6369834205DC2146284600F0E5
S31500001F9027FD0028EDD1A368013BA36023685A1CE6
S31500001FA022601E70431C62699A4204D0A389DB0733
S31500001FB0E1D50A2EDFD12146284600F011FD002882
S31500001FC0D9D0D6E738B5284B05460C46186818B15F
S31500001FD0036A0BB9FFF7CEFEB4F90C30190721D40A
S31500001FE0DA0607D409222A6043F040034FF0FF3097
S31500001FF0A38131E0580712D5616B41B104F1440366
S31500002000994202D0284600F09FF80023636300221D
S31500002010B4F90C30626023F024032269226043F095
S315000020200803A381226942B903F42073B3F5007F44
S3150000203003D02146284600F01FFDB4F90C3013F0FA
S3150000204001020AD00022A26062695242A26122699C
S3150000205042B913F08000C7D138BD990758BF6269ED
S31500002060A260F4E70020F7E73400002002440346AC
S31500002070934200D1704703F8011BF9E738B50023F6
S31500002080054D044608462B60FFF752FD431C02D15E
S315000020902B6803B1236038BD4807002038B50446D5
S315000020A0064D0846114600222A601A46FFF74AFDE9
S315000020B0431C02D12B6803B1236038BD48070020BA
S315000020C038B50446064D0846114600222A601A46CF
S315000020D0FFF7E6FC431C02D12B6803B1236038BD31
S315000020E04807002038B50446064D0846114600222A
S315000020F02A601A46FFF7B0FC431C02D12B6803B1D5
S31500002100236038BD48070020014B1868704700BFA0
S315000021103400002070477047704710F8012B11F803
S31500002120013B012A28BF9A42F7D0D01A70470A44C9
S31500002130431E914200D1704710B511F8014B9142F0
S3150000214003F8014FF9D110BD38B50546002941D035
S3150000215051F8043C0C1F002BB8BFE41800F0E0F85F
S315000021601D4A136833B9636014602846BDE83840D9
S3150000217000F0DCB8A34208D9206821188B4201BFC1
S3150000218019685B6809182160EDE71A465B680BB1B0
S31500002190A342FAD911685018A0420BD12068014415
S315000021A0501811608342E0D118685B680844536098
S315000021B01060DAE702D90C232B60D6E720682118D5
S315000021C08B4202BF19685B680918636008BF21600B
S315000021D05460CAE738BD00BF5407002070B50F4EE3
S315000021E00C460546316811B900F0A2FC3060214664
S315000021F0284600F09DFC431C03D14FF0FF342046D7
S3150000220070BDC41C24F00304A042F8D0211A28464D
S3150000221000F08EFC0130F2D1EFE700BF500700203E
S315000022202DE9F843CD1C064625F0030508350C2D8F
S3150000223038BF0C25002D01DBA94204D90C233360DD
S315000022400020BDE8F883DFF8D48000F069F8D8F8FC
S3150000225000301C4644BB29463046FFF7BFFF431CEF
S31500002260044658D1D8F800402746002F43D1002C09
S315000022704BD023683946304604EB030900F058FC7E
S31500002280814542D1216830466D1A2946FFF7A6FFDF
S3150000229001303AD023682B442360D8F800305A68BE
S315000022A062BBC8F800700FE02268521B20D40B2ACC
S315000022B017D96119A342256018BF5960636808BF22
S315000022C0C8F8001062514B60304600F02FF804F158
S315000022D00B00231D20F00700C21A1CBF1B1AA350B7
S315000022E0AFE76268A3420CBFC8F800205A60EBE76C
S315000022F023466468AEE73C467F68B6E71A465B68E5
S31500002300A342FBD100235360DEE70C233046336043
S3150000231000F00CF894E70560D6E700BF54070020EC
S315000023200148FFF7F8BE00BF4C0700200148FFF741
S31500002330F3BE00BF4C0700209368013B002B10B48E
S31500002340936008DA9469A34201DB0A2903D15DF898
S31500002350044BFFF7F9BD1368581C10600846197046
S315000023605DF8044B7047F8B506460F461446D51877
S31500002370AC4201D1002007E03A4614F8011B304672
S31500002380FFF7DAFF431CF3D1F8BD00002DE9F04F4B
S315000023900D469DB014469846064618B1036A0BB919
S315000023A0FFF7E8FC6B6ED90705D4AB899A0502D412
S315000023B0A86DFFF7B0FEAB891B0701D52B699BB94A
S315000023C029463046FFF7FEFD70B16B6EDC0704D57B
S315000023D04FF0FF301DB0BDE8F08FAB899805F7D4FC
S315000023E0A86DFFF799FEF3E70023CDF80C804FF0B8
S315000023F00109DFF8B481099320238DF829303023B1
S315000024008DF82A3023469A4613F8012B0AB1252A5D
S31500002410F9D1BAEB040B0BD05B462246294630466F
S31500002420FFF7A1FF013000F0A780099A5A440992EC
S315000024309AF80030002B00F09F8000234FF0FF3207
S315000024400AF1010A049307938DF853301A93CDE9E4
S31500002450052354460522544814F8011B00F078FB66
S31500002460049AD8B9D10644BF20238DF853301307F8
S3150000247044BF2B238DF853309AF800302A2B15D001
S31500002480079A544600204FF00A0C214611F8013BEA
S31500002490303B092B4BD9B0B1079214E0A0EB0803EF
S315000024A0A24609FA03F313430493D2E7039B191DCB
S315000024B01B68002B0391BBBF5B4242F002020793ED
S315000024C00793B8BF049223782E2B0AD163782A2B60
S315000024D032D1039B02341A1D1B6843EAE37303924D
S315000024E00593DFF8D4A003222178504600F030FB94
S315000024F038B1A0EB0A004022049B0134824013430A
S31500002500049314F8011B062228488DF8281000F0C1
S315000025101FFB00283FD0264B1BBB039B073323F032
S31500002520070308330393099B3B4409936AE70CFBB3
S3150000253002320C460120A8E7002301344FF00A0CB2
S3150000254019460593204610F8012B303A092A03D97B
S31500002550002BC6D00591C4E70CFB012104460123DC
S31500002560F0E703AB2A4604A930460093114BAFF3BC
S3150000257000800746781CD6D16B6ED90705D4AB8987
S315000025809A0502D4A86DFFF7C7FDAB895B063FF538
S315000025901FAF09981EE703AB2A4604A930460093ED
S315000025A0044B00F07DF8E4E7F42E0000FE2E000058
S315000025B00000000067230000FA2E00002DE9F04716
S315000025C0164698468A6807460B690C46DDF8209041
S315000025D09342B8BF1346336091F843200AB10133E2
S315000025E033602368990642BF336802333360256837
S315000025F015F0060506D104F1190AE36832689B1A3C
S31500002600AB422BDC94F843302268003B18BF012311
S31500002610920630D404F1430241463846C847013099
S3150000262023D023681A3454F80A2C03F00603042B2B
S315000026300ABF54F80E5C002533684FF0000608BF49
S31500002640ED1A54F8123C08BF25EAE5759342C4BF5B
S315000026509B1AED18B5421AD1002008E00123524614
S3150000266041463846C847013003D14FF0FF30BDE838
S31500002670F0870135C1E7E1185A1C302002332244A5
S3150000268081F8430094F8451082F84310C2E701230D
S31500002690224641463846C8470130E6D00136D9E7DA
S315000026A02DE9FF470F7E914680460C46782F9A46C5
S315000026B00C9E01F1430207D8622F0AD8002F00F0C2
S315000026C0D280582F00F0B78004F1420684F8427099
S315000026D03AE0A7F16303152BF6D801A151F823F0D0
S315000026E0392700004D270000C9260000C926000032
S315000026F0C9260000C92600004D270000C926000093
S31500002700C9260000C9260000C92600004D28000081
S315000027107727000003280000C9260000C92600000C
S315000027206F280000C926000077270000C926000090
S31500002730C92600000B28000033681A1D1B6832608A
S3150000274004F1420684F8423001239DE03368206894
S31500002750191D3160060601D51D6803E04506FBD547
S31500002760B3F90050002D03DA2D236D4284F843306F
S3150000277059480A2310E021683368080653F8045BB9
S3150000278002D4490648BFADB26F2F5348336059D1C2
S315000027900823002184F843106668002EA66005DB36
S315000027A021682E4321F0040121604DD01646B5FB69
S315000027B0F3F103FB1157C75D06F8017D2F460D4661
S315000027C0BB42F4D9082B0BD12368DF0708D5236950
S315000027D061689942DEBF302306F8013C06F1FF36F8
S315000027E0921B22614B4603AA21464046CDF800A023
S315000027F0FFF7E4FE01304CD14FF0FF3004B0BDE8E6
S31500002800F087236843F02003236078273348236842
S3150000281084F845701F06316851F8045B02D45F06E0
S3150000282048BFADB23160D90744BF43F020032360EF
S315000028301DB11023ADE72848E9E7236823F02003FC
S315000028402360F6E70A23A4E71646BBE73368256844
S31500002850181D616930602E061B6801D5196002E0FB
S315000028606806FBD51980002316462361BAE733684C
S3150000287000211A1D32601E686268304600F068F951
S3150000288008B1801B606063682361002384F84330CD
S31500002890A8E72369324649464046D0470130ABD0C7
S315000028A023689B0713D4E068039B9842B8BF184679
S315000028B0A4E70123324649464046D04701309BD023
S315000028C00135E36803995B1AAB42F2DCEBE70025BE
S315000028D004F11906F5E700BF052F0000162F0000CA
S315000028E0B1F90C202DE9F041160705460C4651D4E6
S315000028F04B68002B02DC0B6C002B49DDE66A002ED0
S3150000290046D0002312F480522F682B6031D0626DBE
S31500002910A389590705D56368D21A636B0BB1236C7B
S31500002920D21A0023E66A216A2846B047421CB4F947
S315000029300C3006D129681D2945D8284ACA40D60731
S3150000294041D50022D90462602269226004D5421C66
S3150000295001D12B6803B96065616B2F60C1B104F1C9
S315000029604403994202D02846FFF7EEFB0023636337
S315000029700EE00123216A2846B0470246501CC7D103
S315000029802B68002BC4D01D2B01D0162B19D12F601C
S3150000299000201DE00F69002FFAD093070E680F6024
S315000029A00CBF4B690023A6EB07088B60B8F1000F3C
S315000029B0EEDD43463A46216A2846A66AB047002815
S315000029C008DCB4F90C3043F040034FF0FF30A3812C
S315000029D0BDE8F0810744A8EB0008E7E701004020C6
S315000029E038B50B6905460C4613B90025284638BD8F
S315000029F018B1036A0BB9FFF7BDF9B4F90C30002B17
S31500002A00F3D0626ED00704D4990502D4A06DFFF707
S31500002A1082FB28462146FFF763FF636E0546DA0709
S31500002A20E4D4A3899B05E1D4A06DFFF775FBDDE730
S31500002A3070B50C46B1F90E1096B0154600291E4623
S31500002A400ADAA18911F0800113D14FF480620020C7
S31500002A5031602A6016B070BD6A4600F047F800285B
S31500002A60EFDB019901F47041A1F500535942594138
S31500002A70EBE700214022EAE78B8973B59E070546FE
S31500002A800C4607D504F147032360236101236361E4
S31500002A9002B070BD01AB6A46FFF7CAFF009E28462A
S31500002AA03146FFF7BDFBB4F90C3038B99A05EFD4BF
S31500002AB023F0030343F00203A381E3E743F080031B
S31500002AC02060A381019BC4E90406002BE0D0B4F981
S31500002AD00E10284600F01CF80028D9D0A38923F050
S31500002AE0030343F00103A381D2E7000038B50023B6
S31500002AF0064D0446084611462B60FFF725F8431C91
S31500002B0002D12B6803B1236038BD00BF48070020FF
S31500002B1038B50023054D044608462B60FFF71AF822
S31500002B20431C02D12B6803B1236038BD480700203F
S31500002B3038B50023054D044608462B60FDF7BCFD5D
S31500002B40431C02D12B6803B1236038BD480700201F
S31500002B50C9B20346024410B59342184601D100207B
S31500002B6003E0047801338C42F6D110BD0100020067
S31500002B70080010002000000004000000202C0000C7
S31500002B8008000000A02B000002000000902B0000AF
S31500002B900000006800000068A0000020A0000020DF
S31500002BA000000068000000680000006000010C08DA
S31500002BB000000068000000680000007000010908BD
S31500002BC0000000680000006800000008000102081C
S31500002BD000000068000000686C00000000010108A9
S31500002BE000000020000000200000006000010C032F
S31500002BF00000002000000020000000700001090312
S31500002C000000002000000020000000080000020371
S31500002C1000000020840000206C000000000001037A
S31500002C20000000680000006800010008000000685D
S31500002C30000000680001000884000020A0000020B9
S31500002C4000000003C0040020580700200000000315
S31500002C50CD0600005107000095070000C5070000DB
S31500002C60D10700000204030404040000690B0000FD
S31500002C708D0800007D0B0000890B00005109000043
S31500002C80A109000099080000ED0800000D090000E8
S31500002C903909000085090000BD080000D1080000C0
S31500002CA065120000FD10000009110000611100000E
S31500002CB0BD110000C91100005111000031100000C3
S31500002CC00512000019120000611200005C050020C8
S31500002CD03C2D00006C2C000064050020E42C000054
S31500002CE0502C0000060C0A0003000000E519000045
S31500002CF000000000F82C0000000000007405002011
S31500002D00082D0000A02C0000020200000C000C019F
S31500002D100C020C030000000000000000311A000045
S31500002D2000000000282D0000000100000000002027
S31500002D300F00FFFF00000000FFFF00000B00000077
S31500002D40482D0000000000000040000000000000C8
S31500002D500000010008010000000001040C01000051
S31500002D60000001040D0100004000010406020000FD
S31500002D7040000104070200000000010000030000FB
S31500002D800400000000040000000001050A04000021
S31500002D900000010506070000000001050707000006
S31500002DA08C018D018E018F01920193019401950191
S31500002DB099019A0107000000557365724C6564001D
S31500002DC04572726F722E204661696C656420746F5D
S31500002DD0207772697465206C6576656C20696E2053
S31500002DE0494F206465766963653A2025730D0A00AC
S31500002DF0557365724B6579004661696C656420742C
S31500002E006F206F70656E204B657920646576696307
S31500002E10653A2025730D0A00537563636573732045
S31500002E20746F20656E61626C652025732773206957
S31500002E307271210D0A0000004661696C6564207498
S31500002E406F20656E61626C65202573277320697239
S31500002E5071210D0A000000004572726F722C204726
S31500002E6050494F732061726520616C7265616479A7
S31500002E70206F70656E20616E6420696E69742E0D18
S31500002E80000000005375636365737320746F206FD1
S31500002E9070656E204C6564206465766963653A20CA
S31500002EA02573210D0A00000068656C6C6F20776F32
S31500002EB0726C64212046726F6D206C75636B790DA0
S31500002EC0000000004661696C656420746F206765C8
S31500002ED07420557365724B6579210D004661696CE6
S31500002EE0656420746F2067657420557365724C6540
S31500002EF064210D00232D302B2000686C4C00656684
S31500002F006745464700303132333435363738394134
S31500002F10424344454600303132333435363738394A
S31500002F2061626364656600004275696C7420776946
S31500002F3074682052656E6573617320416476616EB4
S31500002F4063656420466C657869626C6520536F66BC
S31500002F507477617265205061636B61676520766581
S31500002F607273696F6E20362E332E3000362E332E56
S30D00002F7030000000000003061A
S30900002F78F8B500BFE3
S30900002F7CF8B500BFDF
S30900002F801501000031
S30900002F84F100000052
S30D00002F8892F1FF7F0100000039
S3090100A100FFFFFFFF58
S3090100A200FFFDFFFF59
S3090100A280F8F8FFFFE5
S70500000135C4
