S00C0000554152542E73726563DC
S315000000006004002005010000F90400000101000061
S3150000001001010000010100000101000001010000D2
S3150000002000000000000000000000000001010000C8
S3150000003001010000000000000101000001010000B4
S315000000409910000001100000291100007111000034
S315000000509910000001100000291100007111000024
S31500000060400035000000000003000000A405002049
S315000000701400002000000000A40500200C0600204B
S3150000008074060020000000000000000000000000D0
S31500000090000000000000000000000000000000005A
S315000000A0000000000000000000000000000000004A
S315000000B0000000000000000000000000000000003A
S315000000C010B5054C237833B9044B13B10448AFF38C
S315000000D000800123237010BD800400200000000072
S315000000E084A2000108B5034B1BB103490348AFF3D3
S315000000F0008008BD000000008404002084A20001E6
S3150000010000BE704708B500F035F801F06DF8FEE75F
S31500000110F8B5174F05463E68A6B17C6806EB46065D
S3150000012004EB860602E00C34B4420BD0637AAB4291
S31500000130F9D1D4E900020021121A0C3401F098FB1F
S31500000140B442F3D1BE6896B1FC6804EB061602E031
S315000001501034A6420BD0637BAB42F9D1D4E900023E
S31500000160A168121A103401F0DAFBA642F3D1F8BDE9
S31500000170242F00004FF47001274B284A70B5002049
S31500000180C3F888109A6001F043F900F069F801207D
S3150000019001F03EF9224B83F30A880020FFF7B8FFEF
S315000001A000F048F800F002F9032000F03DFA0023C1
S315000001B04FF6FF701B4903F1080201330C2B21F89F
S315000001C01200F8D10024032000F0FEF9032000F00D
S315000001D02BFA154B03205C609C60DC601C6100F010
S315000001E0F3F9022001F014F90120FFF791FF0F4DFA
S315000001F00F4B5B1BA3424FEAA30605DD55F8043BF4
S3150000020001349847A642F9DC00F094F9BDE8704045
S31500000210002000F023B900BF00ED00E00000000060
S3150000022060000020000D084000000E40083300006A
S315000002300C330000064B074993F826001A6A51F85A
S315000002402030C2F302620449D3400B60704700BFFE
S3150000025000E00140600400209C040020704700BFBD
S31500000260F8B54AF2035001234549464AA1F8FE0370
S31500000270A2F80431B2F804319BB2002BFAD1012066
S315000002804FF400454FF0090C3F4CDFF818E13F4EA4
S31500000290C4F804E0DFF810E13949C4F80CE03C4F3B
S315000002A0A2F800013B4AB06030606261276091F8B5
S315000002B02620A5602561086A54F82220364EC0F330
S315000002C00260C240326081F8133481F8A2C091F80E
S315000002D080341BB991F8813499074CD0284D95F894
S315000002E08034002B3CD00022254B83F8812483F8F0
S315000002F080240023224981F8323091F83C301A07D5
S31500000300FBD543F2021000231D4A088581F82A30E6
S3150000031092F83C309B06FBD50320052319494FF084
S31500000320F10C81F81C011D49116282F8263092F801
S315000003302630156A54F82300C5F302640123E04011
S315000003403060F0244FF42540154981F80CC00B723B
S315000003500C7382F8303082F85230A2F8FE03F8BDF2
S315000003600121C82085F8801400F080F895F88034C3
S31500000370012BFBD1B7E74FF47A70FFF76FFFB8E7B1
S3150000038000E0014000C00140600400200070004011
S31500000390002D310100C2EB0B9C040020211201202C
S315000003A00020004000127A0000366E0138B50025A4
S315000003B0284C0121C82084F8285000F057F884F80A
S315000003C0245094F82430002BFBD194F82430214992
S315000003D043F0020384F8243091F82430C3F340003C
S315000003E09B07F9D41B4A81F8220092F8223003F0C9
S315000003F0FF00002BF9D192F84030164960F3C7137D
S3150000040082F8403091F84030DB09FBD191F8420088
S31500000410104A63F3C71081F8420092F84230DB09B4
S31500000420FBD192F844000B4963F3C71082F84400ED
S3150000043091F84430C3F3C014DB09F9D1012000F070
S31500000440F3F8054B012083F8BB44BDE8384000F0C3
S31500000450BBB800BF0030084000E00140704700BF55
S31500000460A0F101000028FBD1704700BF1F4B204AB6
S315000004701B6800FB01F1934213D302F1854202F59A
S31500000480071203F5741302F6834203F6FF03A2FB79
S3150000049003231B0DA3FB01314FF0FF30F9B1FFF72A
S315000004A0DFBF4FF47A7210B4A1FB02C41148B0FB4F
S315000004B0F3F34FF0FF3044B9BCFBF3FC4FEA9C006A
S315000004C088B15DF8044BFFF7CBBF9B00B1FBF3F19E
S315000004D0A1FB0212002AF4D1084620B1F1E7184622
S315000004E0002BDCD170475DF8044B70479C0400205C
S315000004F000127A0000CA9A3B70B500240B4B0C4ED2
S31500000500B3F82021B3F84051ADB2154025FA04F3F3
S31500000510DB0704D556F82430E0B203B1984701341E
S31500000520102CF3D1014BA3F8305170BD0060004090
S31500000530A004002030B5032085B000F075F8002532
S315000005406FF0FF004FF0FF321B4B1C4C98642146A6
S315000005502B464FF0010ECDE90122039231F8020F2E
S315000005600EFA03FC013310B1012522EA0C02082B16
S31500000570F4D1F5B10192124B0F4903200A67C3F873
S315000005808022029A4A67C3F88422039A8A67C3F8CC
S31500000590882200F019F800230A4834F8022F03F1E4
S315000005A0C00101330AB140F82120082BF5D105B06E
S315000005B030BD4FF0FF32DEE700800040F230000031
S315000005C000E100E000600040EFF31081012383F3B7
S315000005D01088124B33F8102092B22AB133F810204B
S315000005E0013A92B223F8102033F810309BB293B937
S315000005F00B4A10B4B2F8FE330A4C9BB234F8100022
S3150000060043F4254323EA0003A2F8FE3381F310885E
S315000006105DF8044B704781F310887047040500208D
S3150000062000E00140182F000030B4EFF310810123E1
S3150000063083F310880E4A32F810309BB26BB90D4C1A
S315000006400D4DB4F8FE3335F810C09BB243EA0C03E7
S3150000065043F425439BB2A4F8FE3332F8103001333D
S315000006609BB222F8103081F3108830BC704700BF6F
S315000006700405002000E00140182F000008B501F035
S3150000068045F90C2203464FF0FF301A6008BD00BF43
S315000006900022034610461A60704700BF0B0A10B4CA
S315000006A01B01064C53FA81F154F821300020C3F3A4
S315000006B040035DF8044B1370704700BF0008084004
S315000006C0090A490101F1804101F500214B6800202A
S315000006D013807047090A490123EA020C01F180419F
S315000006E01A4001F5002142EA0C4200208A60704758
S315000006F00120CBB2984080B202B900040B0A5B011C
S3150000070003F1804303F5002398600020704700BF83
S31500000710090A490101F1804101F5002110B40C6874
S3150000072002EA030C4CEA040C62EA030202EA0C0237
S3150000073000205DF8044B0A60704700BF090A4901B2
S3150000074001F1804101F500214B680020C3F30F43FE
S3150000075013807047012310B44FEA112C4FEA4C1C4A
S315000007600CF1804C0CF5002CDCF80440C9B28B402F
S3150000077099B203EA14435B1AB3FA83F35B090020C8
S315000007805DF8044B13707047090A490123EA020C0D
S3150000079001F180411A4001F5002142EA0C42002095
S315000007A0CA60704701200B0A5B0103F1804303F521
S315000007B00023C9B210B400FA01F1DC68012A4FEA3D
S315000007C001400DBF84438C4304430C430020DC608E
S315000007D05DF8044B704700BF2DE9F84F0388DBB185
S315000007E082464FF0000B4FF00109DFF8D08000245D
S315000007F0304D4FEACB07DAF8043035F8022BD91919
S31500000800898891420AD00134032CF4D1BAF8003019
S315000008100BF1010B5B45EAD8BDE8F88FDB5909FA05
S3150000082004F603F0B853B3F1807FF6B298F8BB3400
S3150000083013D0334231D1204A04F1200612F8163083
S31500000840DB09E0D012F81630012123F08003C8201E
S3150000085002F81630FFF70AFED5E7334211D0164AE2
S3150000086004F1200112F81130DB09CCD112F8113055
S31500000870C82043F0800302F811300121FFF7F6FD8E
S31500000880C1E70120FFF7D0FE98F8BB3401203343BF
S3150000089088F8BB34FFF798FEE1E70120FFF7C4FEB6
S315000008A098F8BB34012023EA060388F8BB34FFF727
S315000008B08BFEC0E7FC2F00000030084000E001403E
S315000008C0F8B50446FFF788FFEFF31082012383F3A0
S315000008D01088234F3B681BB92249CB704023CB704D
S315000008E03B6801333B6082F3108823882BB3616831
S315000008F01D4C01EBC30E06E01B01083113448E4567
S3150000090044F8230019D008688A88C5034FEA1223E1
S31500000910D2B2F1D502EB031C54F82C601B0108314E
S3150000092020F4803526F4803613448E4544F82C6036
S3150000093044F82C5044F82300E5D1EFF3108201234C
S3150000094083F310883B6813B13B68013B3B603B680F
S315000009501BB980200349CB70C87082F31088F8BD9C
S31500000960E0040020000D08400008084008B5034BCD
S3150000097003600846FFF7A4FF002008BD54524F50FD
S3150000098008B50846FFF79CFF002008BD70B5012694
S3150000099086B001AB03A80C4615460493ADF80C606F
S315000009A0ADF808100192FFF717FFEFF3108286F3F8
S315000009B010881D490B681BB940261C48C370C670B9
S315000009C00B6801330B6082F31088EA034FEA1423A5
S315000009D0E4B219D41B01164A234442F82350EFF31C
S315000009E01082012383F310880B6813B10B68013B57
S315000009F00B600B681BB980200C49CB70C87082F362
S31500000A001088002006B070BD094A04EB031052F8A6
S31500000A1020601B0126F4803642F8206025F48036DB
S31500000A2042F82060D7E700BFE0040020000D084030
S31500000A300008084003460020012110B41A6A5860D5
S31500000A409070DA692C4C92F905204FEA521C02F09C
S31500000A501F0201FA02F20CF1200C44F82C20BFF31D
S31500000A604F8FBFF36F8FDA6992F90B204FEA521C52
S31500000A7002F01F0201FA02F20CF1200C44F82C20BD
S31500000A80BFF34F8FBFF36F8FDA6992F907204FEAF2
S31500000A90521C02F01F0201FA02F20CF1200C44F87B
S31500000AA02C20BFF34F8FBFF36F8FDA6992F90920BD
S31500000AB04FEA521C02F01F0201FA02F20CF1200C5E
S31500000AC044F82C20BFF34F8FBFF36F8FEFF31084E2
S31500000AD081F31088DB69094A93F800C04FF00043A0
S31500000AE0516823FA0CF30B435360536884F3108860
S31500000AF05DF8044B704700BF00E100E0004008408D
S31500000B0003460020C3E90512704700BF10B4046A0B
S31500000B10A37803F07B03A370837803F00303D21A50
S31500000B200B440261A278C360837842F0800203F02E
S31500000B300303022BA27005D00B780020E3705DF84A
S31500000B40044B70470B88002043F47E43E3815DF835
S31500000B50044B704784460020CCE90A32CCF82410B6
S31500000B60704700BF012310B5C4690A7894F800C025
S31500000B7003FA0CF313F0060F01D013071ED402F08C
S31500000B805C0E0022036A93F802C00CF00B049C7002
S31500000B90C26010468A784C785A701A780CF07B0C32
S31500000BA064F301021A70CA789A74DA7902F0A30221
S31500000BB042EA0E02DA7183F802C010BD032010BDAE
S31500000BC04FF0FF330020C1E9003370470346880722
S31500000BD010D510B40024186AC907827802F07B0287
S31500000BE0827020461C6102D5002210469A615DF88B
S31500000BF0044B7047CA0748BF00224FF0060044BFA7
S31500000C009A611046704700BF0346002210B49C69E3
S31500000C1010460C605DF8044B9A61704706207047D9
S31500000C20F0B5846A85B005460F4694466E46B4B163
S31500000C3094E80F008DE80F00EB6920461B7884F8D6
S31500000C4004C02360EB6AC4E902736B6A9847AC6A16
S31500000C501CB196E80F0084E80F0005B0F0BD6C46A5
S31500000C60EAE700BF062070472DE9F04101240A7823
S31500000C700346944014F0060F05D0C8694068007812
S31500000C80000700F1B081002002F5800202F58C52C7
S31500000C9018701202C3E907124A6901255A628A6965
S31500000CA09E78C3E90A024A78D04CB2FA82F2520917
S31500000CB0524202F003026A4062F301069E7091F905
S31500000CC00B6091F80AC0720906F01F07203205FA78
S31500000CD007F744F82270BFF34F8FBFF36F8FC44AF4
S31500000CE006F1C00752F827E060F3104E42F827E0FD
S31500000CF052F82770BF4F4FEA0C1C04EB060E5FFA42
S31500000D008CFC8EF800C347F8263091F9056091F8FF
S31500000D1004C04FEA561E06F01F080EF1200E05FA13
S31500000D2008F844F82E80BFF34F8FBFF36F8F06F19C
S31500000D30C00E52F82E8060F3104842F82E8052F80A
S31500000D402EE04FEA0C1C04EB060E5FFA8CFC8EF8C4
S31500000D5000C347F8263091F9076091F806C04FEABC
S31500000D60561E06F01F080EF1200E05FA08F844F884
S31500000D702E80BFF34F8FBFF36F8F06F1C00E52F870
S31500000D802E8060F3104842F82E8052F82EE04FEA8B
S31500000D900C1C04EB060E5FFA8CFC8EF800C347F8B9
S31500000DA0263091F9096091F808C04FEA561E06F000
S31500000DB01F080EF1200E05FA08F844F82E80BFF33E
S31500000DC04F8FBFF36F8F06F1C00E52F82E8060F37F
S31500000DD0104842F82E8052F82E204FEA0C12D2B25A
S31500000DE0344484F8002347F82630EFF3108785F360
S31500000DF010884FF000460C787F4AE640546824EA93
S31500000E0006045460526887F310881A6A40F2F9376C
S31500000E109070107150729072D07250830878CC69BD
S31500000E20854040F2F930054218BF40204FF00605D4
S31500000E3018BFD074012015770D788E78A8403842F7
S31500000E4018BF4FF478404D78C97818BF9082C90012
S31500000E50032D41EA061100F0C280002D0CBFE220EE
S31500000E60F220C9B211709071217B08290EBF0A21A8
S31500000E70490001F0020151736178A078C90140016F
S31500000E8000F02000C9B201430020107294F800C09F
S31500000E90ACF10200012840F29880C9B2D1716168B4
S31500000EA088784D785070107865F301001070C87816
S31500000EB009789074D07901F05C0100F0A300014339
S31500000EC0D1710020D96918619861D860586191F98B
S31500000ED00550474A05F1C00152F8216060F31046FB
S31500000EE042F8216052F82110BFF35F8F012669098D
S31500000EF0890005F01F0501F1604101F5614106FA1F
S31500000F0005F5C1F880510D60D96991F90B5005F1CD
S31500000F10C00152F8217060F3104742F8217052F870
S31500000F202110BFF35F8F6909890005F01F0501F1E4
S31500000F30604106FA05F501F56141C1F880510D6081
S31500000F40D96991F907E00EF1C00152F8215060F31A
S31500000F50104542F8215052F82110BFF35F8F4FEA37
S31500000F605E1189000EF01F0E01F1604106FA0EF5C2
S31500000F7001F56141C1F880510D60D96991F90910F7
S31500000F8001F1C00552F8257060F3104742F825704C
S31500000F9052F82520BFF35F8F4A09920001F01F0126
S31500000FA002F160428E4002F56142C2F8806116602D
S31500000FB01A6A0CF0030C4CF0700C618982F802C0BE
S31500000FC00E4A19815A60BDE8F081FF20BCF1020F7C
S31500000FD008BF41F01001C9B25070D17171E7F2201B
S31500000FE041F040013DE70320BDE8F08100E100E06B
S31500000FF000600040E4040020004008405549435387
S3150000100010B4EFF30383103B214A5BB203F1C00136
S3150000101052F8210020F4803042F8210052F82120B5
S315000010201C4A52F82300C269036912691AB11BB13E
S315000010305DF8044B704783B9D0E908240021937802
S3150000104003F07F0343F004039370C160002CEFD0DC
S3150000105080225DF8044BFFF7E3BD8278046A02F054
S31500001060030CBCF1020FC1680AD091F800C084F8E5
S3150000107003C002F003029B1A1144C0E90313D6E72A
S31500001080B1F800C04CF47E4CA4F80EC0F1E700BFE6
S3150000109000600040E404002010B582B0EFF3038343
S315000010A0103B1F4A5BB203F1C00152F8210020F445
S315000010B0803042F8210052F821201A4A52F8234083
S315000010C0A278236A02F0030102290CBF198A597912
S315000010D0A3690CBFC1F30801C9B2019143B9636AA0
S315000010E0B3B10422204602B0BDE81040FFF798BD18
S315000010F002F0030201A9606900F011FCD4E90521A0
S31500001100A37803F003031A44C91AC4E9052109B1F7
S3150000111002B010BD636A002BFAD00122E2E700BFDD
S3150000112000600040E404002010B5EFF303830E4A8C
S31500001130103B5CB252F82400D0E90821937803F002
S315000011407B03937019B102220021FFF769FD074A5C
S3150000115004F1C00352F8231021F4803142F8231021
S3150000116052F8233010BD00BFE404002000600040A8
S3150000117010B5EFF303831A4A103B5CB252F8240011
S315000011808278036A02F00302022A0CBF198A59798F
S3150000119093F804C00CBFC1F30801C9B21CF0100FCC
S315000011A00CF0380206D093F81CC01CF0010F08BFE3
S315000011B042F0400293F804C00CF0C70C83F804C058
S315000011C0436A0BB1FFF72CFD064A04F1C00352F83F
S315000011D0231021F4803142F8231052F8233010BD39
S315000011E0E40400200060004008B500F0DBF80020B1
S315000011F008BD00BF0346406810B49C68421C944278
S3150000120008BF00221C68944206D0DC6821540020E6
S315000012105A605DF8044B70474FF0FF30F9E700BFA6
S31500001220D0E900329A420CD0C268D35C0B700368D6
S31500001230826801339342036004BF002303600020E9
S3150000124070474FF0FF30704700200021402210B455
S31500001250064B074CC3E90001DC60064C9A601C6132
S31500001260054C5C615DF8044B704700BF48050020E3
S3150000127060050020F5110000211200000379022B01
S3150000128007D0042B00D07047044B017A18461B691F
S3150000129018470122024B1A60704700BF480500201C
S315000012A0A00500202DE9F047B2F1000916DD8A46B7
S315000012B000260C4B0C4CD3F808801F6801EB09057F
S315000012C0012251463846D8F8083098472368002B43
S315000012D0FCD00AF1010AAA452660F1D14846BDE8CC
S315000012E0F08700BF70300000A00500202DE9F04F08
S315000012F0B2F1000B85B028DD0D4600261C4BDFF849
S3150000130078A0D3F808801F681A4C01EB0B095046E9
S31500001310DAF814300DF10E0198470028F7D19DF840
S315000013200E3001222B7029463846D8F80830019530
S3150000133098472368002BFCD0019B266093F9003068
S3150000134001350D2B05D0A945E1D1584605B0BDE8BC
S31500001350F08F0A2301228DF80F303846D8F808306E
S315000013600DF10F0198472368002BFCD02660EAE7B1
S3150000137070300000A00500204805002008B500F0E8
S31500001380C5FA092203464FF0FF301A6008BD00BFB8
S31500001390002070474FF4005300204B60704700BF99
S315000013A00120704700B583B0FFF74EFF114BD3E91C
S315000013B001121868126890470F4800F069F90F4B40
S315000013C000229B684FF48061DB690D4898470D4801
S315000013D000F05EF969460C4801AA00F061F900F0D8
S315000013E0E7F80D28FBD1DDE9001208488B1800F05C
S315000013F0E7F8ECE7703000000431000064300000CC
S3150000140010050020203100003C310000443100006E
S31500001410022800D0704702490248FFF7A7BA00BF6A
S31500001420B030000010050020002310B5044683608C
S31500001430818119464366C28108228361C0E900336F
S31500001440C0E904335C3000F013FA0D4B246263628A
S315000014500C4BA3620C4BE3620C4B23630C4B9C427C
S3150000146006D003F16802944202D0D0339C4205D1E3
S3150000147004F15800BDE8104000F04EBA10BD00BFA0
S31500001480C5160000E71600001F17000045170000EC
S31500001490A4050020024A0349034800F06BB800BFC8
S315000014A004000020E12700001400002041680C4BD6
S315000014B0994210B5044601D001F092F9A168094B92
S315000014C0994202D0204601F08BF9E168064B994219
S315000014D004D02046BDE8104001F082B910BD00BF1F
S315000014E0A40500200C060020740600200C4B0421E5
S315000014F00C4A0D4810B51A600022FFF795FF0A4BFB
S31500001500012209211C4603F16800FFF78DFF022224
S3150000151004F1D0001221BDE81040FFF785BF00BFDF
S31500001520DC06002095140000A4050020014800F008
S31500001530F4B900BFE5060020014800F0EFB900BF8E
S31500001540E506002010B50446FFF7F0FF236A1BB13D
S31500001550BDE81040FFF7F0BF044B2362044B1B6845
S31500001560002BF5D1FFF7C2FFF2E700BFAD14000074
S31500001570DC0600202DE9F843074688461446002677
S31500001580D4E90195B9F1010905D52468002CF7D1F4
S315000015903046BDE8F883AB89012B07D9B5F90E3083
S315000015A0013303D029463846C04706436835E9E784
S315000015B0024B1868416801F03BB900BF10000020DB
S315000015C00FB407B5064904AB086853F8042B8168C5
S315000015D0019300F0D3FA03B05DF804EB04B0704752
S315000015E010000020036A70B505460E4684680BB9E4
S315000015F0FFF7A8FF636EDB0705D4A389980502D41D
S31500001600A06D00F08AF9A389190702D52369002B7A
S3150000161035D12146284600F0D7F880B34FF0FF3584
S31500001620636EDA0705D4A3899B0502D4A06D00F08A
S3150000163075F9284670BD002B04DAA269934217DBC0
S315000016400A2915D023685A1C22601970A36816F857
S31500001650011F013BA3600029EDD1002B11DA2246C0
S315000016600A21284600F072F80130D7D00A25D7E7BC
S315000016702246284600F06AF80130E7D1CEE7013E5F
S31500001680E4E723685A1C22600A221A70EEE700007B
S31500001690024B01461868FFF7A5BF00BF10000020E7
S315000016A00FB407B5064904AB086853F8042B416824
S315000016B0019300F0B7FE03B05DF804EB04B0704789
S315000016C01000002010B50C46B1F90E1000F0FAF823
S315000016D00028ABBF636DA3891B1823F48053ACBFEE
S315000016E06365A38110BD2DE9F0411F468B89054630
S315000016F00C46DB05164605D502230022B1F90E106D
S3150000170000F0CEF8A3893246B4F90E10284623F429
S315000017108053A3813B46BDE8F04100F0E5B810B523
S315000017200C46B1F90E1000F0BBF8421CB4F90C30AF
S3150000173015BF606523F4805343F48053A38118BF1B
S31500001740A38110BDB1F90E1000F09AB8F8B50E4697
S315000017501446054618B1036A0BB9FFF7F3FEA369F1
S31500001760A360A3891A0701D5236943B921462846F0
S3150000177000F02AF818B14FF0FF373846F8BD236855
S31500001780F6B222693746981A6369834205DC214618
S31500001790284601F025F80028EDD1A368013BA36097
S315000017A023685A1C22601E70431C62699A4204D048
S315000017B0A389DB07E1D50A2EDFD12146284601F0B1
S315000017C00FF80028D9D0D6E738B5284B05460C4681
S315000017D0186818B1036A0BB9FFF7B4FEB4F90C30F8
S315000017E0190721D4DA0607D409222A6043F04003F8
S315000017F04FF0FF30A38131E0580712D5616B41B13C
S3150000180004F14403994202D0284600F095F80023DB
S3150000181063630022B4F90C30626023F0240322696A
S31500001820226043F00803A381226942B903F42073BE
S31500001830B3F5007F03D02146284601F048F8B4F9F5
S315000018400C3013F001020AD00022A26062695242F3
S31500001850A261226942B913F08000C7D138BD990749
S3150000186058BF6269A260F4E70020F7E71000002085
S3150000187002440346934200D1704703F8011BF9E77F
S3150000188038B50023054D044608462B60FFF776FD64
S31500001890431C02D12B6803B1236038BDE00600204B
S315000018A038B50446064D0846114600222A601A46F7
S315000018B0FFF76EFD431C02D12B6803B1236038BDD0
S315000018C0E006002038B50446064D084611460022BB
S315000018D02A601A46FFF70AFD431C02D12B6803B1A2
S315000018E0236038BDE006002038B50446064D08469C
S315000018F0114600222A601A46FFF7D4FC431C02D187
S315000019002B6803B1236038BDE0060020014B186840
S31500001910704700BF100000207047704770470A44A8
S31500001920431E914200D1704710B511F8014B914208
S3150000193003F8014FF9D110BD38B50546002941D04D
S3150000194051F8043C0C1F002BB8BFE41800F0E0F877
S315000019501D4A136833B9636014602846BDE83840F1
S3150000196000F0DCB8A34208D9206821188B4201BFD9
S3150000197019685B6809182160EDE71A465B680BB1C8
S31500001980A342FAD911685018A0420BD1206801442D
S31500001990501811608342E0D118685B6808445360B0
S315000019A01060DAE702D90C232B60D6E720682118ED
S315000019B08B4202BF19685B680918636008BF216023
S315000019C05460CAE738BD00BFEC06002070B50F4E64
S315000019D00C460546316811B901F05EF930602146C2
S315000019E0284601F059F9431C03D14FF0FF34204635
S315000019F070BDC41C24F00304A042F8D0211A284666
S31500001A0001F04AF90130F2D1EFE700BFE806002005
S31500001A102DE9F843CD1C064625F0030508350C2DA7
S31500001A2038BF0C25002D01DBA94204D90C233360F5
S31500001A300020BDE8F883DFF8D48000F069F8D8F814
S31500001A4000301C4644BB29463046FFF7BFFF431C07
S31500001A50044658D1D8F800402746002F43D1002C21
S31500001A604BD023683946304604EB030901F014F9DC
S31500001A70814542D1216830466D1A2946FFF7A6FFF7
S31500001A8001303AD023682B442360D8F800305A68D6
S31500001A9062BBC8F800700FE02268521B20D40B2AE4
S31500001AA017D96119A342256018BF5960636808BF3A
S31500001AB0C8F8001062514B60304600F02FF804F170
S31500001AC00B00231D20F00700C21A1CBF1B1AA350CF
S31500001AD0AFE76268A3420CBFC8F800205A60EBE784
S31500001AE023466468AEE73C467F68B6E71A465B68FD
S31500001AF0A342FBD100235360DEE70C23304633605C
S31500001B0000F00CF894E70560D6E700BFEC0600206D
S31500001B100148FFF702BF00BFE40600200148FFF7B7
S31500001B20FDBE00BFE40600209368013B002B10B405
S31500001B30936008DA9469A34201DB0A2903D15DF8B0
S31500001B40044BFFF703BE1368581C10600846197053
S31500001B505DF8044B7047F8B506460F461446D5188F
S31500001B60AC4201D1002007E03A4614F8011B30468A
S31500001B70FFF7DAFF431CF3D1F8BD00002DE9F04F63
S31500001B800D469DB014469846064618B1036A0BB931
S31500001B90FFF7D8FC6B6ED90705D4AB899A0502D43A
S31500001BA0A86DFFF7BAFEAB891B0701D52B699BB958
S31500001BB029463046FFF708FE70B16B6EDC0704D588
S31500001BC04FF0FF301DB0BDE8F08FAB899805F7D414
S31500001BD0A86DFFF7A3FEF3E70023CDF80C804FF0C6
S31500001BE00109DFF8B481099320238DF829303023C9
S31500001BF08DF82A3023469A4613F8012B0AB1252A76
S31500001C00F9D1BAEB040B0BD05B4622462946304687
S31500001C10FFF7A1FF013000F0A780099A5A44099204
S31500001C209AF80030002B00F09F8000234FF0FF321F
S31500001C300AF1010A049307938DF853301A93CDE9FC
S31500001C40052354460522544814F8011B01F034F8C4
S31500001C50049AD8B9D10644BF20238DF85330130710
S31500001C6044BF2B238DF853309AF800302A2B15D019
S31500001C70079A544600204FF00A0C214611F8013B02
S31500001C80303B092B4BD9B0B1079214E0A0EB080307
S31500001C90A24609FA03F313430493D2E7039B191DE3
S31500001CA01B68002B0391BBBF5B4242F00202079305
S31500001CB00793B8BF049223782E2B0AD163782A2B78
S31500001CC032D1039B02341A1D1B6843EAE373039265
S31500001CD00593DFF8D4A003222178504600F0ECFFEC
S31500001CE038B1A0EB0A004022049B01348240134322
S31500001CF0049314F8011B062228488DF8281000F0DA
S31500001D00DBFF00283FD0264B1BBB039B073323F08A
S31500001D10070308330393099B3B4409936AE70CFBCB
S31500001D2002320C460120A8E7002301344FF00A0CCA
S31500001D3019460593204610F8012B303A092A03D993
S31500001D40002BC6D00591C4E70CFB012104460123F4
S31500001D50F0E703AB2A4604A930460093114BAFF3D4
S31500001D6000800746781CD6D16B6ED90705D4AB899F
S31500001D709A0502D4A86DFFF7D1FDAB895B063FF546
S31500001D801FAF09981EE703AB2A4604A93046009305
S31500001D90044B00F07DF8E4E74F31000059310000B4
S31500001DA000000000571B0000553100002DE9F047E8
S31500001DB0164698468A6807460B690C46DDF8209059
S31500001DC09342B8BF1346336091F843200AB10133FA
S31500001DD033602368990642BF33680233336025684F
S31500001DE015F0060506D104F1190AE36832689B1A54
S31500001DF0AB422BDC94F843302268003B18BF01232A
S31500001E00920630D404F1430241463846C8470130B1
S31500001E1023D023681A3454F80A2C03F00603042B43
S31500001E200ABF54F80E5C002533684FF0000608BF61
S31500001E30ED1A54F8123C08BF25EAE5759342C4BF73
S31500001E409B1AED18B5421AD1002008E0012352462C
S31500001E5041463846C847013003D14FF0FF30BDE850
S31500001E60F0870135C1E7E1185A1C302002332244BD
S31500001E7081F8430094F8451082F84310C2E7012325
S31500001E80224641463846C8470130E6D00136D9E7F2
S31500001E902DE9FF470F7E914680460C46782F9A46DD
S31500001EA00C9E01F1430207D8622F0AD8002F00F0DA
S31500001EB0D280582F00F0B78004F1420684F84270B1
S31500001EC03AE0A7F16303152BF6D801A151F823F0E8
S31500001ED0291F00003D1F0000B91E0000B91E0000AA
S31500001EE0B91E0000B91E00003D1F0000B91E00000B
S31500001EF0B91E0000B91E0000B91E00003D200000FA
S31500001F00671F0000F31F0000B91E0000B91E000085
S31500001F105F200000B91E0000671F0000B91E000008
S31500001F20B91E0000FB1F000033681A1D1B683260D3
S31500001F3004F1420684F8423001239DE033682068AC
S31500001F40191D3160060601D51D6803E04506FBD55F
S31500001F50B3F90050002D03DA2D236D4284F8433087
S31500001F6059480A2310E021683368080653F8045BD1
S31500001F7002D4490648BFADB26F2F5348336059D1DA
S31500001F800823002184F843106668002EA66005DB4E
S31500001F9021682E4321F0040121604DD01646B5FB81
S31500001FA0F3F103FB1157C75D06F8017D2F460D4679
S31500001FB0BB42F4D9082B0BD12368DF0708D5236968
S31500001FC061689942DEBF302306F8013C06F1FF3610
S31500001FD0921B22614B4603AA21464046CDF800A03B
S31500001FE0FFF7E4FE01304CD14FF0FF3004B0BDE8FE
S31500001FF0F087236843F0200323607827334823685B
S3150000200084F845701F06316851F8045B02D45F06F8
S3150000201048BFADB23160D90744BF43F02003236007
S315000020201DB11023ADE72848E9E7236823F0200314
S315000020302360F6E70A23A4E71646BBE7336825685C
S31500002040181D616930602E061B6801D5196002E013
S315000020506806FBD51980002316462361BAE7336864
S3150000206000211A1D32601E686268304600F024FEA8
S3150000207008B1801B606063682361002384F84330E5
S31500002080A8E72369324649464046D0470130ABD0DF
S3150000209023689B0713D4E068039B9842B8BF184691
S315000020A0A4E70123324649464046D04701309BD03B
S315000020B00135E36803995B1AAB42F2DCEBE70025D6
S315000020C004F11906F5E700BF603100007131000028
S315000020D02DE9F04F1E464B6EADF5237D0746DC0716
S315000020E00D46924605D48B89980502D4886DFFF774
S315000020F014FC41AC0023E846DFF8C0B20096C4E900
S31500002100033301AB6361AA4BC4F87C31A94BC4F815
S3150000211080319AF80090B9F1000F00F075811BF834
S3150000212009300AF1010613F008031BD06B68002B77
S3150000213010DD2B681A781BF80220110701D4B2466D
S31500002140E7E72269013301322B6022616A68013AAE
S315000021506A60EBE7D4F8803129463846984700286C
S31500002160E7D0ECE7B9F1250F40F0878023600A221B
S31500002170A3609AF801302A2B02BF10230AF1020647
S315000021802360B2461AF8011BA1F13003092B1ED9B0
S31500002190894B0322184600F08FFD38B1864B564610
S315000021A02268C01A012383401343236016F8013BBB
S315000021B0782B07D8572B11D8252B5ED058D8002B53
S315000021C000F0D7800323A3610A23636090E0A3682D
S315000021D0564602FB03113039A160D2E7A3F158023B
S315000021E0202AEFD801A151F822F000BFCF2200002B
S315000021F0C5210000C52100002B230000C5210000D9
S31500002200C5210000C5210000C5210000C521000030
S31500002210C5210000C521000041230000272300003E
S31500002220772200007722000077220000C5210000F7
S31500002230E1220000C5210000C5210000C5210000E3
S31500002240C521000051230000E9220000C72200003A
S31500002250C5210000C52100004D230000C521000056
S3150000226027230000C5210000C5210000CF22000061
S31500002270453B022BA6D8052339E06B68002B0DDD04
S315000022802B681A784A4540F0BF8001336A682B6094
S31500002290013A23696A600133236150E7D4F880313B
S315000022A02946384698470028EAD06B6EDA0740F18F
S315000022B0A380E068002865D0AB89590662D40DF585
S315000022C0237DBDE8F08F226842F02002226022685A
S315000022D042F40072226010226E2B626006D801E082
S315000022E000236360032302E0082363600423A361E1
S315000022F06B68002B49DD2368590605D42B681A78CC
S315000023001BF80220120748D4A369022B60DC43465F
S315000023102A462146384600F099F8012874D002284A
S315000023207FF40DAFC1E70A22D6E7314601A800F0D7
S315000023309FFB2368064643F0400323600123D6E74C
S31500002340236843F0400323600023D0E70223CEE74F
S315000023502068C3063FF5F3AED8F80030C0072269FF
S3150000236003F10401C8F800101B684CBF1A801A60FC
S31500002370E5E66B6EDE0705D4AB899C0502D4A86D35
S31500002380FFF7CCFA4FF0FF3099E7D4F880312946B1
S31500002390384698470028AED087E722690132226185
S315000023A06A68013A002A6A600ADD01332B60A5E7F4
S315000023B0512B00005D29000055310000AD310000B1
S315000023C0D4F88031294638469847002896D06CE7DD
S315000023D0042B06DC43462A462146384600F090F890
S315000023E09BE70F4B002B3FF4AAAE43462A462146F5
S315000023F03846AFF3008090E7AB8998053FF559AFB3
S31500002400A86DFFF78BFA54E76B6EDA0705D4AB8934
S315000024109B0502D4A86DFFF781FAE0684FE700BF7D
S31500002420000000002DE9F0410D4616461F46044601
S3150000243018B1036A0BB9FFF785F83B4632462946C1
S315000024402046BDE8F041FFF743BE00002DE9F84302
S3150000245015468A6880460C4632B98A69002A14BF36
S315000024604FF0FF3201228A6022680027DFF88C9045
S31500002470D1065FBF1A68111D19601668A06988B178
S31500002480012807D12B681A7863699B5C53B9002F22
S3150000249031D022E0022820D12B681B7819F80330AE
S315000024A01B071AD423680137DA065EBF2B681B7830
S315000024B006F8013B2A686B680132013B2A60A26874
S315000024C06B60013AA26042B1002BD7DCD4F88031B0
S315000024D02946404698470028D0D0236813F01003B9
S315000024E005D1E2680132E260A26902B13370236964
S315000024F000203B442361BDE8F88300BFAD310000F6
S315000025002DE9F04F984687B0714B0C468246164629
S3150000251027464FF0000B93E8070003AB83E807005C
S315000025206C4BA1696C4A032908BF1A46A36801923D
S315000025305A1EB2F5AE7F89BF6FF4AE754FF0000933
S3150000254003EB050940F25D1388BFA36057F81C3BF7
S3150000255043F450633D462360316803AB0222097899
S3150000256053F82B0000F0A8FB28B3BBF1010F58D19C
S3150000257062682AB92268082142F40072616022600A
S31500002580226822F4A0622260A268511EA16092B164
S315000025903268511C3160127805F8012B7268013AD5
S315000025A0002A726007DCD4F88021314650469047F5
S315000025B0002840F083800BF1010BBBF1030FCBD158
S315000025C0616809B90A216160444B4FF0000B6069EC
S315000025D0591A00F04DFAA3682268002B3DD03168E5
S315000025E0606991F800C010F80C00002835D0BCF1E5
S315000025F0300F24D1100522D50BF1010BB9F1000FD4
S3150000260003D0013309F1FF39A3607368013B002B46
S3150000261073601BDD336801333360A368013BA3603D
S31500002620D9E7BBF1020FAFD1226802F4C061B1F560
S31500002630007FC5D1102142F480726160A3E722F4C5
S31500002640106222600B7805F8013BDEE7D4F8803192
S315000026503146504698470028DFD02368DB050DD564
S31500002660BD4209D905F1FF3915F8011CD4F87C31B2
S3150000267032464D4650469847BD4227D0226812F052
S31500002680100212D12A70394663685046019EB0473F
S31500002690D8F8003021681A1D8E06C8F800201B687D
S315000026A00FD51860E3680133E360ED1B2369002052
S315000026B05D442B44236107B0BDE8F08F4FF0000B5B
S315000026C0CBE7CA074CBF18801860EBE70120F2E79A
S315000026D0A0310000252E0000052F000092310000D9
S315000026E0B1F90C202DE9F041160705460C4651D4E8
S315000026F04B68002B02DC0B6C002B49DDE66A002ED2
S3150000270046D0002312F480522F682B6031D0626DC0
S31500002710A389590705D56368D21A636B0BB1236C7D
S31500002720D21A0023E66A216A2846B047421CB4F949
S315000027300C3006D129681D2945D8284ACA40D60733
S3150000274041D50022D90462602269226004D5421C68
S3150000275001D12B6803B96065616B2F60C1B104F1CB
S315000027604403994202D02846FFF7E6F80023636344
S315000027700EE00123216A2846B0470246501CC7D105
S315000027802B68002BC4D01D2B01D0162B19D12F601E
S3150000279000201DE00F69002FFAD093070E680F6026
S315000027A00CBF4B690023A6EB07088B60B8F1000F3E
S315000027B0EEDD43463A46216A2846A66AB047002817
S315000027C008DCB4F90C3043F040034FF0FF30A3812E
S315000027D0BDE8F0810744A8EB0008E7E701004020C8
S315000027E038B50B6905460C4613B90025284638BD91
S315000027F018B1036A0BB9FEF7A5FEB4F90C30002B2D
S31500002800F3D0626ED00704D4990502D4A06DFFF709
S3150000281084F828462146FFF763FF636E0546DA070C
S31500002820E4D4A3899B05E1D4A06DFFF777F8DDE733
S3150000283038B50C46054618B1036A0BB9FEF782FE99
S31500002840636ED80705D4A389990502D4A06DFFF756
S3150000285064F86368013B002B63600FDA2846214663
S3150000286000F0EEF80546636EDA0705D4A3899B05EA
S3150000287002D4A06DFFF752F8284638BD23685A1CCB
S3150000288022601D78EFE770B50C46B1F90E1096B0D0
S31500002890154600291E460ADAA18911F0800113D1D6
S315000028A04FF48062002031602A6016B070BD6A461F
S315000028B000F0D0F90028EFDB019901F47041A1F591
S315000028C0005359425941EBE700214022EAE78B8940
S315000028D073B59E0705460C4607D504F147032360EA
S315000028E023610123636102B070BD01AB6A46FFF745
S315000028F0CAFF009E28463146FFF78AF8B4F90C3025
S3150000290038B99A05EFD423F0030343F00203A381F9
S31500002910E3E743F080032060A381019BC4E904063A
S31500002920002BE0D0B4F90E10284600F0A5F90028D7
S31500002930D9D0A38923F0030343F00103A381D2E78F
S315000029408B8903F00903092B03D1034B1868FFF7A2
S3150000295047BF0020704700BF1000002070B50C462E
S31500002960054618B1036A0BB9FEF7ECFD0023636058
S31500002970B4F90C309E0608D4580744D4D90607D4B7
S3150000298009222A6043F04003A3814FF0FF3070BD57
S315000029901A070BD521462846FFF722FF0028F4D157
S315000029A0B4F90C30A06023F00803A06143F00403DF
S315000029B0A38123691BB921462846FFF788FFB4F98E
S315000029C00C60B3070FD001231A4A1B491B48A38189
S315000029D0FEF7D0FDA68106F00906092E03D1214691
S315000029E02846FFF77DFE22692846666A6369216AE2
S315000029F02260B0470028606017DCB4F90C3016D1AD
S31500002A0043F02003C0E7616B0029D2D004F14403F0
S31500002A10994202D02846FEF78FFF00236363236C9A
S31500002A206360002BC5D0E36B23600020AFE7002274
S31500002A306260A7E70400002041290000140000207E
S31500002A4038B50C46054618B1036A0BB9FEF77AFD90
S31500002A5021462846FFF782FF38B96368013B636069
S31500002A6023685A1C2260187838BD4FF0FF30FBE708
S31500002A7070B50B78044601385E2B04F1FF0513BFD1
S31500002A804A1C8A1C4B78002108BF012100F8011F4F
S31500002A90A842FBD10BB9501E70BD81F00101104652
S31500002AA0E154024612F8015B2D2D05D05D2D16D09E
S31500002AB0002DF1D02B46F2E746785D2EFAD0B342D0
S31500002AC0F8DC02301A4601329642A154FBDCF21AB7
S31500002AD0013AB342A8BF002201331344E1E710468E
S31500002AE0DAE72DE9F0410C46496B04F144039942BB
S31500002AF01AD14FF48061FEF78BFF18B94FF0FF3003
S31500002B00BDE8F0814FF48063606300F2FD30A3639B
S31500002B1094F84630837094F84530437094F8443006
S31500002B20037020600020EBE7A66B77003A4600F0C2
S31500002B30D1F805460028E1D000EB060801463246EA
S31500002B404046FEF7ECFEC4F80080C4E90D57E9E7FD
S31500002B5070B50D4606461446691C1FD018B1036AA7
S31500002B600BB9FEF7EFFC636EDA0705D4A3899B0564
S31500002B7002D4A06DFEF7D1FEB4F90C2022F020039A
S31500002B805007A38124D4D1060BD4636EDD0705D488
S31500002B9012F4007F02D1A06DFEF7C0FE4FF0FF35A4
S31500002BA047E0100711D521463046FFF719FE30B130
S31500002BB0636ED907F2D4A38913F4007FEAE7B4F968
S31500002BC00C30A06023F00803A06143F00403A38146
S31500002BD0636BEDB26268D3B1A36B934205DC214609
S31500002BE03046FFF77EFF0028E2D123685A1E226096
S31500002BF003F8015C636801336360636EDA0718D417
S31500002C00A3899B0515D4A06DFEF788FE11E0616EC1
S31500002C102069236801F0010168B198420BD213F8CC
S31500002C20010CA84207D1013B0132236062600029F2
S31500002C30E6D0284670BDC4E90F3204F1440363634D
S31500002C400323A363234603F8465F236001236360DF
S31500002C50EDE7000038B50023064D04460846114648
S31500002C602B60FEF797FB431C02D12B6803B1236050
S31500002C7038BD00BFE006002038B50023054D0446E8
S31500002C8008462B60FEF78CFB431C02D12B6803B170
S31500002C90236038BDE006002038B50023054D044604
S31500002CA008462B60FDF7EAFC431C02D12B6803B1F2
S31500002CB0236038BDE0060020C9B20346024410B5C1
S31500002CC09342184601D1002003E0047801338C4278
S31500002CD0F6D110BD2DE9F041074614460D4621B93F
S31500002CE01146BDE8F041FEF793BE2AB92546FEF728
S31500002CF023FE2846BDE8F08100F006F98442064628
S31500002D0002D8B4EB500FF4D821463846FEF780FEC1
S31500002D10804608B94546ECE7B4422246294628BF14
S31500002D203246FEF7FCFD29463846FEF705FEF1E77A
S31500002D30242B2DE9F0478646904601D8012B06D173
S31500002D40FEF7E4FD162303600020BDE8F0870D467C
S31500002D5033482A4615F8014B065D16F00806F8D1E9
S31500002D602D2C10D12C780126951C33F0100215D18C
S31500002D70302C0DD12A7802F0DF02582A08D16C785F
S31500002D80023510230AE02B2C04BF2C78951CECE7A7
S31500002D90002BF6D1302C14BF0A23082306F1004C71
S31500002DA000220CF1FF3C1046BCFBF3F903FB19CAE9
S31500002DB0A4F13007092F0FD83C46A3421BDD571C50
S31500002DC007D0814514D301D1A24511DB00FB034096
S31500002DD0012215F8014BEBE7A4F14107192F01D8A1
S31500002DE0373CEAE7A4F16107192F04D8573CE4E71A
S31500002DF04FF0FF32EDE7531C08D122236046CEF890
S31500002E000030B8F1000FA0D0691E06E006B14042BE
S31500002E10B8F1000F99D0002AF6D1C8F8001094E74F
S31500002E20AD310000FFF784BF2DE9F04386460D461D
S31500002E30334E284615F8014B375D17F00807F8D1D1
S31500002E402D2C10D12C780127851C33F0100015D1BC
S31500002E50302C0DD1287800F0DF00582808D16C7886
S31500002E60023510230AE02B2C04BF2C78851CECE7D6
S31500002E70002BF6D1302C14BF0A2308234FF0FF385D
S31500002E800026B8FBF3F803FB08F930466FEA090998
S31500002E90A4F1300CBCF1090F10D86446A3421EDD24
S31500002EA0B6F1FF3F07D0804516D301D1A14513DB0C
S31500002EB000FB0340012615F8014BE9E7A4F1410C9C
S31500002EC0BCF1190F01D8373CE8E7A4F1610CBCF15D
S31500002ED0190F04D8573CE1E74FF0FF36EBE7731CB8
S31500002EE006D122233046CEF8003032B9BDE8F08351
S31500002EF007B14042002AF9D006B1691E1160F5E714
S31500002F00AD310000FFF790BF51F8043C181F002BAD
S31500002F10BCBF0B58C0187047010002000800100023
S31500002F202000000004000000CC2F00000800000074
S31500002F304C2F0000020000003C2F0000000000683B
S31500002F4000000068600000206000002000000068AB
S31500002F50000000680000006000010C080000006826
S31500002F600000006800000070000109080000006809
S31500002F700000006800000008000102080000006868
S31500002F800000006860000000000101080000002049
S31500002F90000000200000006000010C03000000207B
S31500002FA0000000200000007000010903000000205E
S31500002FB000000020000000080000020300000020BE
S31500002FC060000020600000000000010300000068AF
S31500002FD000000068000100080000006800000068AA
S31500002FE000010008600000206000002000000003CF
S31500002FF080040020F0060020000000030204030401
S31500003000040400006D09000091060000810900001B
S315000030108D09000055070000A50700009D06000069
S31500003020F1060000110700003D07000089070000B7
S31500003030C1060000D5060000690C0000010B000067
S315000030400D0B0000650B0000C10B0000CD0B00004E
S31500003050550B0000350A0000090C00001D0C00008D
S31500003060650C000010050020B030000004300000A0
S31500003070180500207C3000003830000002020000F5
S315000030800C040C050C060C070000000000000000F4
S315000030907D120000000000009C30000000010000CE
S315000030A0000000200F00FFFF00000000FFFF0000EF
S315000030B007000000BC300000000000000000010016
S315000030C008010000000001040C01000000000104DA
S315000030D00D010000000001000003000004000000D4
S315000030E000040000000001050D06000000000105B7
S315000030F00E060000AA01AB01AC01AD018C018D01E9
S315000031008E018F0168656C6C6F20776F726C64211D
S315000031102046726F6D206C75636B790D00000000A0
S31500003120506C6561736520656E7465722074776F87
S31500003130206E756D6265723A0D0000002564256487
S315000031400000000025642B25643D25640D0A00233C
S315000031502D302B2000686C4C00656667454647009D
S3150000316030313233343536373839414243444546B7
S31500003170003031323334353637383961626364654D
S315000031806600412D46612D6638393031323334358B
S3150000319036375D002B2D00303000785800000000D7
S315000031A094310000973100009A3100000020202061
S315000031B020202020202028282828282020202020E1
S315000031C020202020202020202020202020881010B1
S315000031D0101010101010101010101010100404040D
S315000031E004040404040404101010101010104141CB
S315000031F041414141010101010101010101010101B9
S3150000320001010101010101011010101010104242CC
S315000032104242424202020202020202020202020288
S315000032200202020202020202101010102000000028
S315000032300000000000000000000000000000000088
S315000032400000000000000000000000000000000078
S315000032500000000000000000000000000000000068
S315000032600000000000000000000000000000000058
S315000032700000000000000000000000000000000048
S315000032800000000000000000000000000000000038
S315000032900000000000000000000000000000000028
S315000032A00000000000000000000000000000000018
S315000032B04275696C7420776974682052656E65730F
S315000032C0617320416476616E63656420466C65783F
S315000032D069626C6520536F66747761726520506110
S315000032E0636B6167652076657273696F6E20362E33
S315000032F0332E3000362E332E300000000000030639
S30900003300F8B500BF57
S30900003304F8B500BF53
S30900003308E5000000D6
S3090000330CC1000000F6
S3090100A100FFFFFFFF58
S3090100A200FFFDFFFF59
S3090100A280F8F8FFFFE5
S70500000105F4
