S00C0000554152542E73726563DC
S3150000000020040020A90000009D040000A5000000B7
S31500000010A5000000A5000000A5000000A500000046
S31500000020000000000000000000000000A500000025
S31500000030A500000000000000A5000000A5000000CB
S3150000004029100000910F0000B910000001110000F6
S3150000005029100000910F0000B910000001110000E6
S309000000604000350021
S3150000006410B5054C237833B9044B13B10448AFF3E8
S3150000007400800123237010BD3C0400200000000012
S3150000008484A2000108B5034B1BB103490348AFF32F
S31500000094008008BD000000004004002084A2000186
S315000000A400BE704708B500F035F801F063F8FEE7C6
S315000000B4F8B5174F05463E68A6B17C6806EB4606BA
S315000000C404EB860602E00C34B4420BD0637AAB42EE
S315000000D4F9D1D4E900020021121A0C3401F0B2F865
S315000000E4B442F3D1BE6896B1FC6804EB061602E08E
S315000000F41034A6420BD0637BAB42F9D1D4E900029B
S31500000104A168121A103401F0A5F8A642F3D1F8BD7D
S31500000114801200004FF47001274B284A70B5002066
S31500000124C3F888109A6001F081F800F069F801209C
S3150000013401F07CF8224B83F30A880020FFF7B8FF0E
S3150000014400F048F800F002F9032000F03DFA00231D
S315000001544FF6FF701B4903F1080201330C2B21F8FB
S315000001641200F8D10024032000F0FEF9032000F069
S315000001742BFA154B03205C609C60DC601C6100F06C
S31500000184F3F9022001F052F80120FFF791FF0F4D19
S315000001940F4B5B1BA3424FEAA30605DD55F8043B50
S315000001A401349847A642F9DC00F094F9BDE87040A2
S315000001B4002000F023B900BF00ED00E000000000BD
S315000001C420000020000D084000000E40C41400006A
S315000001D4C8140000064B074993F826001A6A51F81A
S315000001E42030C2F302620449D3400B60704700BF5B
S315000001F400E001402004002058040020704700BF9E
S31500000204F8B54AF2035001234549464AA1F8FE03CC
S31500000214A2F80431B2F804319BB2002BFAD10120C2
S315000002244FF400454FF0090C3F4CDFF818E13F4E00
S31500000234C4F804E0DFF810E13949C4F80CE03C4F97
S31500000244A2F800013B4AB06030606261276091F811
S315000002542620A5602561086A54F82220364EC0F38C
S315000002640260C240326081F8133481F8A2C091F86A
S3150000027480341BB991F8813499074CD0284D95F8F0
S315000002848034002B3CD00022254B83F8812483F84C
S3150000029480240023224981F8323091F83C301A0731
S315000002A4FBD543F2021000231D4A088581F82A3043
S315000002B492F83C309B06FBD50320052319494FF0E1
S315000002C4F10C81F81C011D49116282F8263092F85E
S315000002D42630156A54F82300C5F302640123E0406E
S315000002E43060F0244FF42540154981F80CC00B7298
S315000002F40C7382F8303082F85230A2F8FE03F8BD4F
S315000003040121C82085F8801400F080F895F880341F
S31500000314012BFBD1B7E74FF47A70FFF76FFFB8E70D
S3150000032400E0014000C001402004002000700040AD
S31500000334002D310100C2EB0B5804002021120120CC
S315000003440020004000127A0000366E0138B5002500
S31500000354284C0121C82084F8285000F057F884F866
S31500000364245094F82430002BFBD194F824302149EE
S3150000037443F0020384F8243091F82430C3F3400098
S315000003849B07F9D41B4A81F8220092F8223003F025
S31500000394FF00002BF9D192F84030164960F3C713D9
S315000003A482F8403091F84030DB09FBD191F84200E5
S315000003B4104A63F3C71081F8420092F84230DB0911
S315000003C4FBD192F844000B4963F3C71082F844004A
S315000003D491F84430C3F3C014DB09F9D1012000F0CD
S315000003E4F3F8054B012083F8BB44BDE8384000F020
S315000003F4BBB800BF0030084000E00140704700BFB2
S31500000404A0F101000028FBD1704700BF1F4B204A12
S315000004141B6800FB01F1934213D302F1854202F5F6
S31500000424071203F5741302F6834203F6FF03A2FBD5
S3150000043403231B0DA3FB01314FF0FF30F9B1FFF786
S31500000444DFBF4FF47A7210B4A1FB02C41148B0FBAB
S31500000454F3F34FF0FF3044B9BCFBF3FC4FEA9C00C6
S3150000046488B15DF8044BFFF7CBBF9B00B1FBF3F1FA
S31500000474A1FB0212002AF4D1084620B1F1E718467E
S31500000484002BDCD170475DF8044B704758040020FC
S3150000049400127A0000CA9A3B70B500240B4B0C4E2E
S315000004A4B3F82021B3F84051ADB2154025FA04F350
S315000004B4DB0704D556F82430E0B203B1984701347B
S315000004C4102CF3D1014BA3F8305170BD00600040ED
S315000004D45C04002030B5032085B000F075F80025D3
S315000004E46FF0FF004FF0FF321B4B1C4C9864214603
S315000004F42B464FF0010ECDE90122039231F8020F8B
S315000005040EFA03FC013310B1012522EA0C02082B72
S31500000514F4D1F5B10192124B0F4903200A67C3F8CF
S315000005248022029A4A67C3F88422039A8A67C3F828
S31500000534882200F019F800230A4834F8022F03F140
S31500000544C00101330AB140F82120082BF5D105B0CA
S3150000055430BD4FF0FF32DEE7008000404E1400004D
S3150000056400E100E000600040EFF31081012383F313
S315000005741088124B33F8102092B22AB133F81020A7
S31500000584013A92B223F8102033F810309BB293B993
S315000005940B4A10B4B2F8FE330A4C9BB234F810007E
S315000005A443F4254323EA0003A2F8FE3381F31088BB
S315000005B45DF8044B704781F310887047C00400202F
S315000005C400E001407412000030B4EFF310810123FF
S315000005D483F310880E4A32F810309BB26BB90D4C77
S315000005E40D4DB4F8FE3335F810C09BB243EA0C0344
S315000005F443F425439BB2A4F8FE3332F8103001339A
S315000006049BB222F8103081F3108830BC704700BFCB
S31500000614C004002000E001407412000000220346DA
S3150000062410461A60704700BF0B0A10B41B01064C33
S3150000063453FA81F154F821300020C3F340035DF8E6
S31500000644044B1370704700BF00080840090A4901AB
S3150000065401F1804101F500214B68002013807047A9
S31500000664090A490123EA020C01F180411A4001F505
S31500000674002142EA0C4200208A6070470120CBB276
S31500000684984080B202B900040B0A5B0103F180436F
S3150000069403F5002398600020704700BF090A49014A
S315000006A401F1804101F5002110B40C6802EA030C43
S315000006B44CEA040C62EA030202EA0C0200205DF82A
S315000006C4044B0A60704700BF090A490101F18041E1
S315000006D401F500214B680020C3F30F4313807047D4
S315000006E4012310B44FEA112C4FEA4C1C0CF1804C38
S315000006F40CF5002CDCF80440C9B28B4099B203EA2D
S3150000070414435B1AB3FA83F35B0900205DF8044BC8
S3150000071413707047090A490123EA020C01F180416A
S315000007241A4001F5002142EA0C420020CA607047D3
S3150000073401200B0A5B0103F1804303F50023C9B2D0
S3150000074410B400FA01F1DC68012A4FEA01400DBF3A
S3150000075484438C4304430C430020DC605DF8044B63
S31500000764704700BF2DE9F84F0388DBB182464FF08E
S31500000774000B4FF00109DFF8D0800024304D4FEA1A
S31500000784CB07DAF8043035F8022BD9198988914257
S315000007940AD00134032CF4D1BAF800300BF1010B62
S315000007A45B45EAD8BDE8F88FDB5909FA04F603F08D
S315000007B4B853B3F1807FF6B298F8BB3413D0334202
S315000007C431D1204A04F1200612F81630DB09E0D0B4
S315000007D412F81630012123F08003C82002F81630DF
S315000007E4FFF714FED5E7334211D0164A04F120016F
S315000007F412F81130DB09CCD112F81130C82043F0BD
S31500000804800302F811300121FFF700FEC1E7012041
S31500000814FFF7DAFE98F8BB340120334388F8BB347B
S31500000824FFF7A2FEE1E70120FFF7CEFE98F8BB34FE
S31500000834012023EA060388F8BB34FFF795FEC0E7D8
S31500000844581300000030084000E00140F8B50446A3
S31500000854FFF788FFEFF31082012383F31088234FF9
S315000008643B681BB92249CB704023CB703B680133EC
S315000008743B6082F3108823882BB361681D4C01EB1F
S31500000884C30E06E01B01083113448E4544F82300C9
S3150000089419D008688A88C5034FEA1223D2B2F1D563
S315000008A402EB031C54F82C601B01083120F480353C
S315000008B426F4803613448E4544F82C6044F82C50B4
S315000008C444F82300E5D1EFF31082012383F3108863
S315000008D43B6813B13B68013B3B603B681BB9802016
S315000008E40349CB70C87082F31088F8BD9C040020BD
S315000008F4000D08400008084008B5034B036008468D
S31500000904FFF7A4FF002008BD54524F5008B508460F
S31500000914FFF79CFF002008BD70B5012686B001AB29
S3150000092403A80C4615460493ADF80C60ADF8081000
S315000009340192FFF717FFEFF3108286F310881D4923
S315000009440B681BB940261C48C370C6700B6801337C
S315000009540B6082F31088EA034FEA1423E4B219D435
S315000009641B01164A234442F82350EFF31082012355
S3150000097483F310880B6813B10B68013B0B600B689B
S315000009841BB980200C49CB70C87082F310880020F4
S3150000099406B070BD094A04EB031052F820601B012F
S315000009A426F4803642F8206025F4803642F820602A
S315000009B4D7E700BF9C040020000D0840000808404B
S315000009C403460020012110B41A6A58609070DA694F
S315000009D42C4C92F905204FEA521C02F01F0201FA30
S315000009E402F20CF1200C44F82C20BFF34F8FBFF316
S315000009F46F8FDA6992F90B204FEA521C02F01F023C
S31500000A0401FA02F20CF1200C44F82C20BFF34F8FAC
S31500000A14BFF36F8FDA6992F907204FEA521C02F08E
S31500000A241F0201FA02F20CF1200C44F82C20BFF349
S31500000A344F8FBFF36F8FDA6992F909204FEA521C80
S31500000A4402F01F0201FA02F20CF1200C44F82C20E9
S31500000A54BFF34F8FBFF36F8FEFF3108481F31088CA
S31500000A64DB69094A93F800C04FF00043516823FA42
S31500000A740CF30B435360536884F310885DF8044BFE
S31500000A84704700BF00E100E0004008400346002034
S31500000A94C3E90512704700BF10B4046AA37803F0D3
S31500000AA47B03A370837803F00303D21A0B44026119
S31500000AB4A278C360837842F0800203F00303022B1A
S31500000AC4A27005D00B780020E3705DF8044B7047E4
S31500000AD40B88002043F47E43E3815DF8044B7047A2
S31500000AE484460020CCE90A32CCF82410704700BFB3
S31500000AF4012310B5C4690A7894F800C003FA0CF30C
S31500000B0413F0060F01D013071ED402F05C0E002268
S31500000B14036A93F802C00CF00B049C70C260104682
S31500000B248A784C785A701A780CF07B0C64F30102BC
S31500000B341A70CA789A74DA7902F0A30242EA0E02AB
S31500000B44DA7183F802C010BD032010BD4FF0FF33E5
S31500000B540020C1E9003370470346880710D510B456
S31500000B640024186AC907827802F07B028270204644
S31500000B741C6102D5002210469A615DF8044B704749
S31500000B84CA0748BF00224FF0060044BF9A611046C8
S31500000B94704700BF0346002210B49C6910460C60DF
S31500000BA45DF8044B9A61704706207047F0B5846A75
S31500000BB485B005460F4694466E46B4B194E80F00D8
S31500000BC48DE80F00EB6920461B7884F804C0236087
S31500000BD4EB6AC4E902736B6A9847AC6A1CB196E87F
S31500000BE40F0084E80F0005B0F0BD6C46EAE700BFCD
S31500000BF4062070472DE9F04101240A780346944003
S31500000C0414F0060F05D0C86940680078000700F1A3
S31500000C14B081002002F5800202F58C52187012028F
S31500000C24C3E907124A6901255A628A699E78C3E9AB
S31500000C340A024A78D04CB2FA82F25209524202F0BF
S31500000C4403026A4062F301069E7091F90B6091F803
S31500000C540AC0720906F01F07203205FA07F744F89E
S31500000C642270BFF34F8FBFF36F8FC44A06F1C007DC
S31500000C7452F827E060F3104E42F827E052F8277046
S31500000C84BF4F4FEA0C1C04EB060E5FFA8CFC8EF881
S31500000C9400C347F8263091F9056091F804C04FEA7D
S31500000CA4561E06F01F080EF1200E05FA08F844F841
S31500000CB42E80BFF34F8FBFF36F8F06F1C00E52F82D
S31500000CC42E8060F3104842F82E8052F82EE04FEA48
S31500000CD40C1C04EB060E5FFA8CFC8EF800C347F876
S31500000CE4263091F9076091F806C04FEA561E06F0C1
S31500000CF41F080EF1200E05FA08F844F82E80BFF3FB
S31500000D044F8FBFF36F8F06F1C00E52F82E8060F33B
S31500000D14104842F82E8052F82EE04FEA0C1C04EBE1
S31500000D24060E5FFA8CFC8EF800C347F8263091F95C
S31500000D34096091F808C04FEA561E06F01F080EF126
S31500000D44200E05FA08F844F82E80BFF34F8FBFF340
S31500000D546F8F06F1C00E52F82E8060F3104842F8E9
S31500000D642E8052F82E204FEA0C12D2B2344484F864
S31500000D74002347F82630EFF3108785F310884FF0E9
S31500000D8400460C787F4AE640546824EA0604546018
S31500000D94526887F310881A6A40F2F9379070107116
S31500000DA450729072D07250830878CC69854040F2B4
S31500000DB4F930054218BF40204FF0060518BFD0741D
S31500000DC4012015770D788E78A840384218BF4FF465
S31500000DD478404D78C97818BF9082C900032D41EA3E
S31500000DE4061100F0C280002D0CBFE220F220C9B229
S31500000DF411709071217B08290EBF0A21490001F068
S31500000E04020151736178A078C901400100F0200005
S31500000E14C9B201430020107294F800C0ACF102007C
S31500000E24012840F29880C9B2D171616888784D78FA
S31500000E345070107865F301001070C87809789074C2
S31500000E44D07901F05C0100F0A3000143D1710020C8
S31500000E54D96918619861D860586191F90550474A73
S31500000E6405F1C00152F8216060F3104642F8216092
S31500000E7452F82110BFF35F8F01266909890005F036
S31500000E841F0501F1604101F5614106FA05F5C1F856
S31500000E9480510D60D96991F90B5005F1C00152F8E2
S31500000EA4217060F3104742F8217052F82110BFF305
S31500000EB45F8F6909890005F01F0501F1604106FA93
S31500000EC405F501F56141C1F880510D60D96991F9C3
S31500000ED407E00EF1C00152F8215060F3104542F8C4
S31500000EE4215052F82110BFF35F8F4FEA5E1189003B
S31500000EF40EF01F0E01F1604106FA0EF501F561418F
S31500000F04C1F880510D60D96991F9091001F1C00544
S31500000F1452F8257060F3104742F8257052F82520E0
S31500000F24BFF35F8F4A09920001F01F0102F160428C
S31500000F348E4002F56142C2F8806116601A6A0CF0AE
S31500000F44030C4CF0700C618982F802C00E4A1981B8
S31500000F545A60BDE8F081FF20BCF1020F08BF41F0E2
S31500000F641001C9B25070D17171E7F22041F040010D
S31500000F743DE70320BDE8F08100E100E000600040A9
S31500000F84A0040020004008405549435310B4EFF331
S31500000F940383103B214A5BB203F1C00152F82100DE
S31500000FA420F4803042F8210052F821201C4A52F8DD
S31500000FB42300C269036912691AB11BB15DF8044BB7
S31500000FC4704783B9D0E908240021937803F07F039E
S31500000FD443F004039370C160002CEFD080225DF8C7
S31500000FE4044BFFF7E3BD8278046A02F0030CBCF1FC
S31500000FF4020FC1680AD091F800C084F803C002F059
S3150000100403029B1A1144C0E90313D6E7B1F800C0E2
S315000010144CF47E4CA4F80EC0F1E700BF006000401B
S31500001024A004002010B582B0EFF30383103B1F4ADF
S315000010345BB203F1C00152F8210020F4803042F87B
S31500001044210052F821201A4A52F82340A278236A32
S3150000105402F0030102290CBF198A5979A3690CBF4E
S31500001064C1F30801C9B2019143B9636AB3B1042259
S31500001074204602B0BDE81040FFF798BD02F0030217
S3150000108401A9606900F0E6F8D4E90521A37803F024
S3150000109403031A44C91AC4E9052109B102B010BDF3
S315000010A4636A002BFAD00122E2E700BF0060004029
S315000010B4A004002010B5EFF303830E4A103B5CB284
S315000010C452F82400D0E90821937803F07B03937047
S315000010D419B102220021FFF769FD074A04F1C00392
S315000010E452F8231021F4803142F8231052F82330A9
S315000010F410BD00BFA00400200060004010B5EFF34F
S3150000110403831A4A103B5CB252F824008278036ABD
S3150000111402F00302022A0CBF198A597993F804C013
S315000011240CBFC1F30801C9B21CF0100F0CF0380251
S3150000113406D093F81CC01CF0010F08BF42F0400211
S3150000114493F804C00CF0C70C83F804C0436A0BB1CF
S31500001154FFF72CFD064A04F1C00352F8231021F4CC
S31500001164803142F8231052F8233010BDA004002029
S315000011740060004008B500F015F8002008BD00BF67
S315000011840379012B06D0022B00D070470122034BB2
S315000011941A607047024A1360704700BF08050020B2
S315000011A4040500202DE9F0411A4B82B01E689D68A3
S315000011B459682A683046904708221749AB68304672
S315000011C49847164B00229B684FF48061DB691448EC
S315000011D49847144C2368002BFCD04FF00008124F9C
S315000011E4C4F80080012230466B680DF10701984768
S315000011F40028F7D13B68002BFCD001223046AB68AF
S315000012040DF10701C7F8008098472368002BFCD02E
S31500001214E6E700BFCC13000060140000C013000012
S31500001224CC0400200805002004050020022800D074
S31500001234704702490248FFF75FBB00BF0C14000069
S31500001244CC04002002440346934200D1704703F8BD
S31500001254011BF9E70A44431E914200D1704710B5B9
S3150000126411F8014B914203F8014FF9D110BD00006A
S315000012740100020008001000200000000400000025
S315000012842813000008000000A81200000200000055
S31500001294981200000000006800000068200000208A
S315000012A420000020000000680000006800000060C4
S315000012B400010C08000000680000006800000070CF
S315000012C4000109080000006800000068000000082A
S315000012D400010208000000680000006860000000C9
S315000012E4000101080000002000000020000000604A
S315000012F400010C0300000020000000200000007024
S31500001304000109030000002000000020000000087E
S31500001314000002030000002004000020600000001A
S3150000132400000103000000680000006800010008D6
S3150000133400000068000000680001000804000020A6
S3150000134420000020000000033C0400200C050020BF
S31500001354000000030204030404040000FD08000066
S3150000136421060000110900001D090000E506000021
S31500001374350700002D06000081060000A1060000C6
S31500001384CD0600001907000051060000650600009E
S31500001394F90B0000910A00009D0A0000F50A0000FE
S315000013A4510B00005D0B0000E50A0000C5090000B2
S315000013B4990B0000AD0B0000F50B0000CC040020D7
S315000013C40C14000060130000D4040020D81300009D
S315000013D494130000020200000C040C050C060C0712
S315000013E4000000000000000085110000000000005D
S315000013F4F813000000010000000000200F00FFFFAA
S3150000140400000000FFFF00000700000018140000A1
S3150000141400000000000001000801000000000104B3
S315000014240C010000000001040D0100000000010091
S315000014340003000004000000000400000000010591
S315000014440D060000000001050E060000AA01AB010E
S31500001454AC01AD018C018D018E018F0131303061FB
S31500001464736B0D0A000000004275696C742077697D
S3150000147474682052656E6573617320416476616E8B
S3150000148463656420466C657869626C6520536F6693
S315000014947477617265205061636B61676520766558
S315000014A47273696F6E20362E332E3000362E332E2D
S30D000014B43000000000000306F1
S309000014BCF8B500BFBA
S309000014C0F8B500BFB6
S309000014C48900000095
S309000014C865000000B5
S3090100A100FFFFFFFF58
S3090100A200FFFDFFFF59
S3090100A280F8F8FFFFE5
S705000000A951
